:100000000C9459000C9481000C9481000C94810094
:100010000C9481000C9481000C9481000C9481005C
:100020000C9481000C9481000C9481000C9481004C
:100030000C9481000C9481000C9481000C9481003C
:100040000C940E0D0C9481000C947E0D0C94580DA4
:100050000C9481000C9481000C9481000C9481001C
:100060000C9481000C948100000000002500280001
:100070002B00040404040404040402020202020229
:10008000030303030303010204081020408001025C
:1000900004081020010204081020000000080002DB
:1000A00001000003040700000000000000008B0EA8
:1000B000570F11241FBECFEFD8E0DEBFCDBF11E038
:1000C000A0E0B1E0E8E2F2E202C005900D92AC3DA2
:1000D000B107D9F723E0ACEDB1E001C01D92AB311F
:1000E000B207E1F710E0C8E5D0E004C02197FE01B7
:1000F0000E94F810C735D107C9F70E94010F0C9470
:1001000007110C9400001F93CF93DF93182FC09119
:10011000E501D091E6018A3041F4E881F98101904E
:10012000F081E02D6DE0CE010995E881F981019023
:10013000F081E02D612FCE01099521E030E001979B
:1001400011F430E020E0C901DF91CF911F910895B3
:10015000CF93DF93C091E501D091E601E881F98169
:100160000084F185E02DCE010995892BB9F3E88152
:10017000F9810284F385E02DCE01DF91CF910994BE
:10018000FC01538D448D252F30E0842F90E0821B9D
:10019000930B541710F0CF96089501970895FC0122
:1001A000918D828D981761F0A28DAE0FBF2FB11D7A
:1001B0005D968C91928D9F5F9F73928F90E00895D2
:1001C0008FEF9FEF0895FC01918D828D981731F08C
:1001D000828DE80FF11D858D90E008958FEF9FEFE0
:1001E0000895FC01918D228D892F90E0805C9F4FB6
:1001F000821B91098F7399270895FC01A48DA80F84
:10020000B92FB11DA35ABF4F2C91848D90E0019658
:100210008F739927848FA689B7892C93A089B18978
:100220008C91837080648C93938D848D981306C019
:100230000288F389E02D80818F7D80830895EF927D
:10024000FF920F931F93CF93DF93EC0181E0888F90
:100250009B8D8C8D98131AC0E889F989808185FF60
:1002600015C09FB7F894EE89FF896083E889F98902
:1002700080818370806480839FBF81E090E0DF9104
:10028000CF911F910F91FF90EF900895F62E0B8D57
:1002900010E00F5F1F4F0F731127E02E8C8D8E1112
:1002A0000CC00FB607FCFACFE889F989808185FF79
:1002B000F5CFCE010E94FD00F1CFEB8DEC0FFD2FAD
:1002C000F11DE35AFF4FF0829FB7F8940B8FEA8934
:1002D000FB8980818062CFCFCF93DF93EC01888D43
:1002E0008823B9F0AA89BB89E889F9898C9185FDB1
:1002F00003C0808186FD0DC00FB607FCF7CF8C913F
:1003000085FFF2CF808185FFEDCFCE010E94FD00F9
:10031000E9CFDF91CF91089589EE91E00E94F1003D
:1003200021E0892B09F420E0822F089580E090E0FD
:10033000892B29F00E948C0181110C9400000895F2
:1003400090E0FC01E656FF4F2491FC01EA57FF4F75
:100350003491FC01EE58FF4FE491EE23C9F02223C3
:1003600039F0233001F1A8F4213019F1223029F1BC
:10037000F0E0EE0FFF1FE859FF4FA591B4918FB742
:10038000F894EC91611126C030953E233C938FBFC9
:1003900008952730A9F02830C9F0243049F780911A
:1003A00080008F7D03C0809180008F7780938000D4
:1003B000DFCF84B58F7784BDDBCF84B58F7DFBCF56
:1003C0008091B0008F778093B000D2CF8091B00041
:1003D0008F7DF9CF3E2BDACFDC01ED91FC910190BE
:1003E000F081E02D0994AF92BF92CF92DF92EF920D
:1003F000FF920F931F93CF93DF936C017B018B01CF
:10040000040F151FEB015E01AE18BF08C017D1071E
:1004100059F06991D601ED91FC910190F081E02DA8
:10042000C6010995892B79F7C501DF91CF911F91FD
:100430000F91FF90EF90DF90CF90BF90AF90089515
:100440008EBD00000DB407FEFDCF8EB50895CF938D
:10045000DF932FB7F8944091E1015091E201609150
:10046000E3017091E4012FBFEC01C40FD51F8FEFA2
:100470000E9420028F3FA1F02FB7F8948091E101F4
:100480009091E201A091E301B091E4012FBF9E01A0
:10049000281B390B37FFEBCF80E0DF91CF91089518
:1004A00081E0FBCFCF93DF93FC012781222349F02A
:1004B000EC0161E085810E94A0018FEF0E94200283
:1004C0001F82DF91CF9108951F93CF93DF93EC01AB
:1004D00088E592E00E942702182F882361F08DEFB3
:1004E0000E942002CE010E9452021886812FDF91C5
:1004F000CF911F9108958FE18E83CE010E94520209
:10050000F5CF0F931F93CF93DF938C01862FEA01D2
:100510000E942002FE0181918EBDDE5FEC17FD0777
:1005200041F08191000000000DB407FEFDCF8EBDAB
:10053000F5CF0DB407FEFDCF8FEF0E9420028FEFA5
:100540000E9420028FEF0E942002F80181878F71A4
:10055000853059F081E28683C8010E94520280E012
:10056000DF91CF911F910F91089581E0F9CFDF9234
:10057000EF92FF920F931F93CF93DF93EC01162F0F
:10058000022FF32EE42ED52E0E94F504882309F4C1
:1005900041C08F8181110DC09A818B819CBD8DBD21
:1005A00081E08F8360E08D810E94A0018FEF0E9427
:1005B00020021C3031F08CE291E00E942702882357
:1005C00049F1812F80640E9420028D2D0E9420021B
:1005D0008E2D0E9420028F2D0E942002802F0E94CB
:1005E000200287E80E9420028FEF0E9420020AE08A
:1005F00010E08FEF0E942002898787FF03C001501F
:100600001109B9F7DF91CF911F910F91FF90EF90F2
:10061000DF9008958FEFF6CFAF92BF92CF92DF9227
:10062000EF92FF921F93CF93DF93EC016A017B015E
:1006300059011F85112309F45EC08885823049F471
:100640008B859C85AD85BE85C816D906EA06FB0656
:1006500049F18A85A7019601833039F099E0220F8C
:10066000331F441F551F9A95D1F769E1CE010E94AF
:10067000B702882389F08EE08E83CE010E94520259
:1006800010E0812FDF91CF911F91FF90EF90DF90CD
:10069000CF90BF90AF90089582E08887CB86DC86AC
:1006A000ED86FE8688E592E00E942702811102C055
:1006B00085E2E2CFA5016CEFCE010E948102882382
:1006C000E1F28B859C85AD85BE850196A11DB11D8E
:1006D0008B879C87AD87BE871F851111D2CFCE0136
:1006E000DF91CF911F91FF90EF90DF90CF90BF905F
:1006F000AF900C9464028A85833039F089E0CC0C89
:10070000DD1CEE1CFF1C8A95D1F7A701960168E15C
:10071000CE010E94B702882331F08DE08E83CE0196
:100720000E945202AECFA5016EEFCE010E9481025F
:100730008823A9F388E592E00E942702F82E84E23C
:10074000FF2061F320E030E0A9016DE0CE010E94BE
:10075000B702882311F08AE0E1CF8FEF0E942002D8
:100760008111F9CFCE010E9452021F2D8ACFEF9244
:10077000FF921F93CF93DF93FC01208111E020FFB4
:1007800012C0EC017C01FBE0EF0EF11C4F8158859B
:1007900069857A85970189819A810E940C03182FB7
:1007A000811108C010E0812FDF91CF911F91FF9040
:1007B000EF900895888181FD04C088818E7F8883B1
:1007C000F2CF4F81588569857A858B819C81AD8177
:1007D000BE81480F591F6A1F7B1F970189819A812B
:1007E0000E940C038111E9CFDDCFCF93DF93EC01A1
:1007F000188620E030E0A9016CE00E94B70288234F
:1008000049F089E08E83CE010E94520280E0DF91A0
:10081000CF910895CE010E94520281E0F8CFCF928D
:10082000DF92EF92FF920F931F93CF93DF93EC0130
:100830006A017B0189018885813049F48B859C851B
:10084000AD85BE858C159D05AE05BF0539F18A8540
:10085000A7019601833039F089E0220F331F441F2E
:10086000551F8A95D1F762E1CE010E94B702882315
:1008700079F08CE08E83CE010E94520280E0DF91FD
:10088000CF911F910F91FF90EF90DF90CF9008953F
:1008900081E08887CB86DC86ED86FE862FB7F894CC
:1008A0008091E1019091E201A091E301B091E40116
:1008B0002FBF7C0124EDE21A2EEFF20A8FEF0E9487
:1008C000200289878F3F91F42FB7F8948091E1013E
:1008D0009091E201A091E301B091E4012FBF970153
:1008E000281B390B37FFEACF8EE1C4CF8E3F11F0C2
:1008F00089E1C0CF8FEF8EBDF801D801A150BE4F66
:100900009FEFAE17BF0749F0000000000DB407FECF
:10091000FDCF8EB59EBD8193F4CF0DB407FEFDCF04
:100920008EB58C9319868FEF0E9420028FEF0E9464
:1009300020028B859C85AD85BE850196A11DB11DCC
:100940008B879C87AD87BE878F85811198CFCE011D
:10095000DF91CF911F910F91FF90EF90DF90CF909B
:100960000C94F503CF92DF92EF92FF921F93CF93F7
:10097000DF93DC011196ED91FC91EF2B51F490E0A7
:1009800080E0DF91CF911F91FF90EF90DF90CF90AB
:100990000895122F6A017B01EC018F819885A9854A
:1009A000BA858C159D05AE05BF0561F0CE010E948C
:1009B000B703882321F312FF0CC01882CF82D88698
:1009C000E986FA8613702881122B1883CE010B96C4
:1009D000D8CF9E01255F3F4FB701A60189819A813B
:1009E0000E940F048111E9CFCACFFC01208522307B
:1009F00011F40C946402213011F40C94F50381E09D
:100A000008958F929F92AF92BF92CF92DF92EF9212
:100A1000FF920F931F93423051056105710560F4F9
:100A200080E01F910F91FF90EF90DF90CF90BF90EB
:100A3000AF909F908F900895FC01C08CD18CE28C78
:100A4000F38CC416D506E606F70650F348015901A3
:100A50006A018581803229F584899589A689B789BB
:100A600017E076956795579547951A95D1F7480FF2
:100A7000591F6A1F7B1F23E0CF0180960E94B2049A
:100A8000009771F2CC0CDD1CCC0CDD1CF1E0DF22F8
:100A90008C0D9D1DFC0180829182A282B38281E037
:100AA000C0CF803109F0BCCF4489558966897789E8
:100AB0004D0D511D611D711D23E0CF0180960E94D7
:100AC000B204009709F4ACCFCC0CDD1CF1E0DF22BE
:100AD000C80ED91EF60111830083E1CFCF92DF92B9
:100AE000EF92FF920F931F93CF93DF934230510504
:100AF0006105710550F48FEFDF91CF911F910F9138
:100B0000FF90EF90DF90CF900895FC01C08CD18CC6
:100B1000E28CF38CC416D506E606F70660F389016D
:100B20006A01EC018581803299F584899589A689CD
:100B3000B789E7E07695679557954795EA95D1F798
:100B4000480F591F6A1F7B1F22E0CE0180960E942A
:100B5000B204009781F2CC0CDD1CCC0CDD1CF1E062
:100B6000DF228C0D9D1DFC0180819181A281B381CA
:100B7000488D598D6A8D7B8D481759076A077B0709
:100B800030F1F80180839183A283B38381E0B4CFF5
:100B9000803109F0B0CF44895589668977894D0D38
:100BA000511D611D711D22E0CF0180960E94B2048B
:100BB000009709F4A0CFCC0CDD1CF1E0DF22C80EB9
:100BC000D91EF60180819181B0E0A0E0D1CF80E014
:100BD00093CF3F924F925F926F927F928F929F92AC
:100BE000AF92BF92CF92DF92EF92FF920F931F933B
:100BF000CF93DF9300D000D0CDB7DEB75C01FC010E
:100C0000448455846684778486809780F401C08408
:100C1000D184E284F384C414D504E604F704C0F458
:100C20007301620110E0FFEFCF1ADF0AEF0AFF0A3B
:100C3000F401808D918DA28DB38D8C159D05AE052F
:100C4000BF0540F4111132C0C084D184E284F38422
:100C500011E0E9CF4C145D046E047F0439F19E016C
:100C60002F5F3F4FB701A601C4010E946E0587FDAB
:100C70001DC08823C1F289819A81AB81BC81892BF7
:100C80008A2B8B2B81F6112329F0F401C086D186A3
:100C9000E286F3860FEF1FEF2FEF3FE0B701A601CB
:100CA000C4010E940105382E811118C0312C832DFA
:100CB0000F900F900F900F90DF91CF911F910F9198
:100CC000FF90EF90DF90CF90BF90AF909F908F906C
:100CD0007F906F905F904F903F9008954114510422
:100CE00061047104B9F4F501C486D586E686F786F9
:100CF00082814114510461047104B1F0FFEF4F1A75
:100D00005F0A6F0A7F0A4C145D046E047F0479F059
:100D10008F7B0BC097018601B301A201C4010E9421
:100D200001058111E0CFC2CF8064F5018283F50116
:100D3000828180688283BBCFCF93DF93EC01E8810F
:100D4000F9810288F389E02D09958F3F980731F0EA
:100D50002D813E812F5F3F4F3E832D83DF91CF91C9
:100D600008958FEF9FEF089560E070E0CB01089544
:100D700090E080E00895FF920F931F93CF93DF934D
:100D80008C01EB016F3F7607B9F0F62EEAE06E13A7
:100D900006C06DE0F801808991890E94EC016F2DF9
:100DA000F801808991890E94EC01CE01DF91CF91F9
:100DB0001F910F91FF900895D0E0C0E0F6CF7F9291
:100DC0008F929F92AF92BF92CF92DF92EF92FF925B
:100DD0000F931F93CF93DF938C0149015A01EB01CD
:100DE000C12CD12C7601C814D904EA04FB04B4F454
:100DF00079908AE0781206C06DE0F80180899189C7
:100E00000E94EC01672DF801808991890E94EC0114
:100E1000FFEFCF1ADF0AEF0AFF0AE5CFC501B401E1
:100E2000DF91CF911F910F91FF90EF90DF90CF90C6
:100E3000BF90AF909F908F907F900895CB010895C1
:100E4000CF93DF93EC0188899989DC01ED91FC91C6
:100E50000084F185E02D0995892BA9F3888999896A
:100E6000DC01ED91FC910284F385E02DDF91CF91BF
:100E70000994CF93DF93EC0188899989DC01ED9186
:100E8000FC910084F185E02D0995892BA9F38889CF
:100E90009989DC01ED91FC910484F585E02DDF91C9
:100EA000CF9109948F929F92AF92BF92CF92DF928F
:100EB000EF92FF920F931F93CF93DF938C01490121
:100EC0005A01EB01C12CD12C7601D80150968D919D
:100ED0009C91DC01ED91FC910284F385E02D099554
:100EE0008F3F61F0C814D904EA04FB043CF48993F1
:100EF000BFEFCB1ADB0AEB0AFB0AE7CFC701B6014B
:100F0000DF91CF911F910F91FF90EF90DF90CF90E5
:100F1000BF90AF909F908F900895DC0150968D9177
:100F20009C91DC01ED91FC910084F185E02D099408
:100F300090E080E0089590E080E00895089508959D
:100F4000DC01ED91FC9136970190F081E02DE80FE6
:100F5000F91F80E791E0918380838AE791E097838E
:100F60008683089520E731E0FC01318320832AE75E
:100F700031E0378326830895FB0120813181FC0114
:100F800031832083FB014281538126503109F901CD
:100F900020813181820F931FFC015183408308958A
:100FA0002CE831E0FC013183208326E931E0318FE8
:100FB000208F60E871E00C94BC07DC01ED91FC919E
:100FC000369720813181820F931F0C94D0070895AA
:100FD000DC01ED91FC9136970190F081E02DE80F56
:100FE000F91F8CE591E09183808386E691E09383FD
:100FF000828308952CE531E0FC013183208326E6CD
:1010000031E0338322830895FB0120813181FC018B
:1010100031832083FB014281538126503109F9013C
:1010200020813181820F931FFC01518340830895F9
:1010300028EA31E0FC013183208322EB31E0358B5B
:10104000248B6CE971E00C940408DC01ED91FC91B7
:10105000369720813181820F931F0C9418080895D0
:101060000895FC01848583FF17C084A195A1A6A1E2
:10107000B7A1448D558D668D778D841B950BA60B7E
:10108000B70B811520E89207A105B10520F08FEF7D
:101090009FE7A0E0B0E0089580E090E0DC01F1CFB0
:1010A0000F931F93CF93DF93FC012485222399F0A4
:1010B000EC01868587FF3DC040A151A162A173A1CB
:1010C0008289938921E080960E94B204009741F4BE
:1010D0008D8581608D87DF91CF911F910F9108954C
:1010E000E889F989EF70FF2725E0EE0FFF1F2A95A9
:1010F000E1F7E80FF91F309759F38081853E41F3FE
:101100008C85877383878C8583FF08C08CA19DA104
:10111000AEA1BFA1848F958FA68FB78F88A599A503
:10112000AAA5BBA5938F828FB58BA48B8E858F7755
:101130008E870A891B89C80180960E94B70388237D
:1011400039F2F801808191810E94F504882309F425
:10115000BFCFC1CF4F925F926F927F92BF92CF92DB
:10116000DF92EF92FF920F931F93CF93DF93EC01E7
:1011700029013A018B01C12CD12C7601C414D5046C
:10118000E604F7040CF03FC0F801B1908F018F85A1
:1011900080FF0BC0E881F9810084F185E02D20E11A
:1011A00044E070E060E0CE010995EB85FC858D851B
:1011B0009E85E817F90760F4B0828B859C850196BF
:1011C0009C878B872FEFC21AD20AE20AF20AD6CF87
:1011D0006B2D70E0E881F981028CF38DE02DCE015A
:1011E0000995019679F7C701B601DF91CF911F915B
:1011F0000F91FF90EF90DF90CF90BF907F906F9016
:101200005F904F90089573016201EDCF90E080E010
:101210000895CF93DF93EC010E941808CE01DF916F
:10122000CF910C946810DC01ED91FC9136972081F0
:101230003181820F931F0C940909CF93DF93EC0146
:101240000E94D007CE01DF91CF910C946810DC0191
:10125000ED91FC91369720813181820F931F0C9480
:101260001D090C9468100C946810DC01ED91FC9140
:10127000369720813181820F931F0C9433090C948F
:1012800068100C946810DC01ED91FC913697208178
:101290003181820F931F0C9441090C9468100C94B7
:1012A00068108F929F92AF92BF92CF92DF92EF928F
:1012B000FF920F931F93CF93DF93EC017B013A8151
:1012C00030FFCAC0288188889988AA88BB88422FA5
:1012D0004870C42E23FF22C0888D998DAA8DBB8DA6
:1012E00088199909AA09BB0982309105A105B105A0
:1012F00020F5009711F530E020E0A901481B590BBB
:10130000CA01DF91CF911F910F91FF90EF90DF9075
:10131000CF90BF90AF909F908F90089526FF0DC003
:10132000EE81FF818681978145E0880F991F4A955C
:10133000E1F78815990509F495C0EE81FF818401D4
:101340001170B501A40189E0769567955795479589
:101350008A95D1F726FF27C0848D958DA68DB78DF0
:10136000480F591F6A1F7B1F8E819F8120E0809646
:101370000E94B204009709F46FC0800F911FFC0116
:101380008081F701808388899989AA89BB89019620
:10139000A11DB11D888B998BAA8BBB8B21E030E0FE
:1013A00090E080E0AACFD380D4220115110581F40A
:1013B000D1100EC089288A288B2881F527FF29C0E3
:1013C000848D958DA68DB78D8C879D87AE87BF87C1
:1013D000EE81FF814C855D856E857F854250510988
:1013E00061097109848104C0440F551F661F771F6E
:1013F0008A95D2F780899189A289B389840F951F34
:10140000A61FB71FAC01BD014D0D511D611D711D02
:10141000ABCF8C8D9D8DAE8DBF8DD6CF4C855D8530
:101420006E857F85CC2059F036FF09C04F5F5F4F36
:101430006F4F7F4F4C875D876E877F87C9CF9E0137
:10144000245F3F4FCF010E946E0587FD05C08111CB
:10145000BFCF8881807D49F48981826089838FEF45
:101460009FEF4FCF30E020E09BCF21E030E081E0E4
:1014700090E043CF8F929F92AF92BF92CF92DF9234
:10148000EF92FF920F931F93CF93DF931F92CDB7ED
:10149000DEB78C01FC01848C958CA68CB78CC08C3B
:1014A000D18CE28CF38CBE016F5F7F4F0C960E9453
:1014B00051090197C9F4898190E0F801848E958ED5
:1014C000A68EB78EC08ED18EE28EF38E0F90DF91F6
:1014D000CF911F910F91FF90EF90DF90CF90BF9031
:1014E000AF909F908F9008958FEF9FEFE6CFCF93AF
:1014F000DF931F92CDB7DEB7BE016F5F7F4F0C96B3
:101500000E945109019731F4898190E00F90DF9199
:10151000CF9108958FEF9FEFF9CF2F923F924F9287
:101520005F926F927F928F929F92AF92BF92CF9273
:10153000DF92EF92FF920F931F93CF93DF93CDB77C
:10154000DEB728970FB6F894DEBF0FBECDBF9887E1
:101550008F831B015C834B83DC0112968C91129765
:1015600081FF05C183FF2FC01C964D905D906D904B
:101570007C901F972C91222309F4F1C058968D90EE
:101580009D90AD90BC905B9750964D915D916D9103
:101590007C91539784169506A606B706A1F0811490
:1015A0009104A104B10409F0C2C0FD01148615869E
:1015B00016861786EF81F885808A918AA28AB38A77
:1015C00082818F7D8283EB81FC81AF0170E060E0DE
:1015D000EF81F88580899189A289B389809590955A
:1015E000A095B09584179507A607B70708F4BFC064
:1015F000CB80DC8000E012E03C96FE83ED83AF817F
:10160000B88550968D909D90AD90BC905397C11425
:10161000D10409F452C116968D919C911797FC0143
:10162000F380B501A40129E0769567955795479514
:101630002A95D1F7F422940131703A832983F1106D
:101640002AC01C964D915D916D917C911F97232B23
:1016500009F060C1411551056105710509F409C121
:1016600012962C91129726FFF5C058964D905D90DA
:101670006D907C905B9784149504A604B70408F0E1
:10168000E9C04F5F5F4F6F4F7F4F1C964D935D9347
:101690006D937C931F97AF81B8851696ED91FC9161
:1016A00017971C964D915D916D917C911F974250BB
:1016B000510961097109848104C0440F551F661FD7
:1016C000771F8A95D2F780899189A289B389840F7F
:1016D000951FA61FB71FAC01BD014F0D511D611D08
:1016E000711D29813A81232B09F028C1C11432E0F0
:1016F000D30608F423C187A190A5A1A5B2A54817D8
:1017000059076A077B0741F410A28FEF9FEFDC01B6
:1017100087A390A7A1A7B2A7910181A192A10E943E
:101720000C03882321F1E12C82E0F82E4FC1AF8118
:10173000B8851696ED91FC9123FD21C026FF1FC0B0
:101740008681978135E0880F991F3A95E1F7B0E0DF
:10175000A0E088159905AA05BB0508F02BCFAF813D
:10176000B8851C964D925D926D927C921F97EF8189
:10177000F8858181816081831C821B82B0C03481A5
:10178000375F75016401B1E0CB1AD108E108F108B7
:10179000032E04C0F694E794D794C7940A94D2F722
:1017A00086FF0FC0EF81F885848D958DA68DB78D4E
:1017B0008C0D9D1DAE1DBF1D84879587A687B7879D
:1017C000F9CEDB01CA010197A109B10904C0B695A0
:1017D000A795979587953A95D2F7C816D906EA0640
:1017E000FB0620F0452B462B472B79F527FF2AC017
:1017F000848D958DA68DB78DEF81F885848795872B
:10180000A687B7870F811885045F1F4FC114D104C5
:10181000E104F10409F4CECEAF81B8851C964D9158
:101820005D916D917C911F97980116968D919C9179
:101830000E946E05B1E0CB1AD108E108F108181634
:101840002CF38DCFEF81F885D3CFC81AD90AEA0AD5
:10185000FB0AD8CF2D813E810E946E0587FD87CF80
:10186000811119CF8F8198850E94E905811113CFCD
:101870007ECFEF81F885848D958DA68DB78D0097ED
:10188000A105B10589F4CF010E94E905882309F477
:101890006ECFEF81F88584859585A685B785848F81
:1018A000958FA68FB78FF7CEEF81F88584879587C0
:1018B000A687B787F0CE21E068C0EF81F885808DDC
:1018C000918DA28DB38D88159905AA05BB0538F4B5
:1018D000808E918EA28EB38E8281806882838B816E
:1018E0009C8128960FB6F894DEBF0FBECDBFDF9166
:1018F000CF911F910F91FF90EF90DF90CF90BF900D
:10190000AF909F908F907F906F905F904F903F909F
:101910002F9008954250510961097109848104C0D2
:10192000440F551F661F771F8A95D2F780899189CA
:10193000A289B389480F591F6A1F7B1FC801A9815B
:10194000BA818A1B9B0B76018C159D0508F47C01DE
:1019500029813A81232B09F0AECFAF81B88550960B
:101960008D909D90AD90BC90539758964D905D9002
:101970006D907C905B9784149504A604B70420F4C2
:1019800012968C9185FF97CF25E0CF0180960E941B
:10199000B204009709F4EBCEA701B101E981FA8105
:1019A0008E0F9F1F0E94FE1089819A818E0D9F1DB0
:1019B0008115924059F4AF81B88516968D919C910E
:1019C00080960E94B703882309F4D1CEEF81F88571
:1019D00080899189A289B3898E0D9F1DA11DB11D9A
:1019E000808B918BA28BB38B2E0C3F1CCE18DF0803
:1019F00006CE0C960C948D0ACF93DF931F92CDB731
:101A0000DEB7698341E050E0BE016F5F7F4F0C9607
:101A10000E948D0A0F90DF91CF9108951F920F922F
:101A20000FB60F9211242F933F938F939F93AF93F1
:101A3000BF938091E1019091E201A091E301B09107
:101A4000E4013091E00123E0230F2D3758F5019692
:101A5000A11DB11D2093E0018093E1019093E2016B
:101A6000A093E301B093E4018091DC019091DD014A
:101A7000A091DE01B091DF010196A11DB11D8093FF
:101A8000DC019093DD01A093DE01B093DF01BF91F3
:101A9000AF919F918F913F912F910F900FBE0F901B
:101AA0001F90189526E8230F0296A11DB11DD2CFD5
:101AB0001F920F920FB60F9211242F933F934F93C3
:101AC0005F936F937F938F939F93AF93BF93EF93A6
:101AD000FF9389EE91E00E94FD00FF91EF91BF918D
:101AE000AF919F918F917F916F915F914F913F91B6
:101AF0002F910F900FBE0F901F9018951F920F926D
:101B00000FB60F9211242F938F939F93EF93FF9310
:101B1000E091F901F091FA018081E091FF01F091EB
:101B2000000282FD1BC09081809102028F5F8F7343
:101B300020910302821741F0E0910202F0E0E751A8
:101B4000FE4F958F80930202FF91EF919F918F91AD
:101B50002F910F900FBE0F901F9018958081F4CF9A
:101B6000CF93DF93EB0188819981A3EEB2E01196C8
:101B70009C938E932A813B810697EC01E881F98141
:101B8000ED51FD4F3183208312961D921D921D92BF
:101B90001C92159781E290E09483838389EE92E012
:101BA000948B838B1582158ADF91CF910895CF9303
:101BB000DF93C3EED2E081E290E09C8F8B8F1D8E8D
:101BC0001E8E1F8E86E090E0A0E0B0E088A399A36F
:101BD000AAA3BBA31CA21DA21EA21FA282E391E086
:101BE000998F888F80E288A71AA619A61DA689EE6C
:101BF00092E09CA78BA7AC0160E871E0CE010E9447
:101C0000B00D8CE891E09983888386E991E0998F03
:101C1000888F1A8619861C861B861E861D86188A42
:101C20001F861A8A198A1C8A1B8A8AE391E09F837D
:101C30008E8389EE91E09F8B8E8B88E08D8BDF9178
:101C4000CF910895DB018D919C9111979093BA02E9
:101C50008093B90212962D913C910697DC01ED918B
:101C6000FC91E754FD4F3183208381E290E094831F
:101C700083838BEB92E0948B838B1582158A089576
:101C8000CF93DF93C9EBD2E081E290E0988F8F8B06
:101C9000198E1A8E1B8E86E090E0A0E0B0E08C8F4B
:101CA0009D8FAE8FBF8F18A219A21AA21BA282E32A
:101CB00091E09D8B8C8B80E28CA31EA21DA219A6A5
:101CC0008BEB92E098A78FA3AC016CE971E0CE0199
:101CD0000E94220E88EA91E09983888382EB91E04A
:101CE0009D8B8C8B1E821D8218861F821A861986F8
:101CF0001C861B861E861D86188A1F868AE391E035
:101D00009B838A8389EE91E09B8B8A8B80E1898B10
:101D1000DF91CF910895CF92DF92EF92FF920F93D0
:101D20001F93CF93DF93C9EED1E01B821A8288EE16
:101D3000C82E83E0D82EE12CF12CCC82DD82EE82FD
:101D4000FF828AEB91E09983888385EC90E09D8700
:101D50008C8784EC90E09F878E8780EC90E0998B55
:101D6000888B81EC90E09B8B8A8B82EC90E09D8B42
:101D70008C8B86EC90E09F8B8E8B198E1A8E1B8E2F
:101D80001C8EBE0189EB92E00E94400EBE0183EEE4
:101D900092E00E94D70D05EE11E0F8011382128245
:101DA000D183C08368EA70E083E890E00E94650F09
:101DB000F80193838283C2EBD2E088E090E09B83BA
:101DC0008A831D821C8280E690E00E94CC0F99835A
:101DD0008883E6E8F2E013821282C482D582E6822A
:101DE000F7821486158616868CEC91E091838083A9
:101DF000DF91CF911F910F91FF90EF90DF90CF90E7
:101E00000895789484B5826084BD84B5816084BD72
:101E100085B5826085BD85B5816085BD80916E0088
:101E2000816080936E0010928100809181008260B9
:101E300080938100809181008160809381008091F6
:101E400080008160809380008091B10084608093E5
:101E5000B1008091B00081608093B00080917A00E1
:101E6000846080937A0080917A00826080937A0007
:101E700080917A00816080937A0080917A008068F6
:101E800080937A001092C10041E050E06AED71E069
:101E900089EE91E00E94F301C0E0D0E02097F1F3D9
:101EA0000E948C018823D1F30E940000F7CF80911B
:101EB000B2029091B3020E94681083EE92E00E94F9
:101EC000D00789EB92E00C9418080F931F93CF93DF
:101ED000DF93009759F46115710541F4F0E0E0E0FB
:101EE000CF01DF91CF911F910F9108958B01EC01EC
:101EF0006EE070E081E090E00E94B00FFC01892B61
:101F000069F380E883830115110571F01387028757
:101F100081E883838091110390911203892B21F42E
:101F2000F0931203E09311032097D1F2D187C08779
:101F30008381826083838091130390911403892BA2
:101F400079F6F0931403E0931303809115039091B5
:101F50001603892B29F6F0931603E0931503C0CFDF
:101F60000F931F93CF93DF93869F8001879F100D60
:101F7000969F100D1124C8010E94CC0FEC01009710
:101F800029F0A80170E060E00E94F110CE01DF911D
:101F9000CF911F910F9108950F931F93CF93DF93CC
:101FA0008230910510F482E090E0E0911903F09105
:101FB0001A0330E020E0B0E0A0E0309799F421155A
:101FC000310509F44AC0281B390B24303105D8F5F6
:101FD0008A819B816115710589F1FB01938382835D
:101FE000FE0111C0408151810281138148175907B8
:101FF000E0F04817590799F4109761F012960C9386
:10200000129713961C933296CF01DF91CF911F91B7
:102010000F9108950093190310931A03F4CF21151B
:10202000310551F04217530738F0A901DB019A013D
:10203000BD01DF01F801C1CFEF01F9CF90931A0381
:1020400080931903CDCFFE01E20FF31F819391938B
:102050002250310939832883D7CF2091170330913B
:102060001803232B41F42091020130910301309396
:1020700018032093170320910001309101012115CD
:10208000310541F42DB73EB740910401509105014F
:10209000241B350BE0911703F0911803E217F307A7
:1020A000A0F42E1B3F0B2817390778F0AC014E5FC8
:1020B0005F4F2417350748F04E0F5F1F50931803EA
:1020C00040931703819391939FCFF0E0E0E09CCF82
:1020D000CF93DF930097E9F0FC01329713821282CD
:1020E000A0911903B0911A03ED0130E020E01097A0
:1020F000A1F420813181820F931F20911703309129
:1021000018032817390709F061C0F0931803E0930A
:102110001703DF91CF910895EA01CE17DF07E8F5A5
:102120004A815B819E0141155105B1F7E901FB83AD
:10213000EA8349915991C40FD51FEC17FD0761F44B
:10214000808191810296840F951FE901998388838C
:10215000828193819B838A83F0E0E0E012968D91E7
:102160009C9113970097B9F52D913C911197CD0152
:102170000296820F931F209117033091180328179E
:10218000390739F6309751F510921A031092190356
:10219000B0931803A0931703BCCFD383C2834081AD
:1021A0005181840F951FC817D90761F44E5F5F4FA7
:1021B00088819981480F591F518340838A819B816F
:1021C000938382832115310509F0B0CFF0931A0370
:1021D000E09319039ECFFD01DC01C0CF1382128270
:1021E000D7CFDC0101C06D9341505040E0F7089516
:1021F000EE0FFF1F0590F491E02D0994FB01DC0127
:1022000002C001900D9241505040D8F7089510E05F
:10221000C8E5D0E004C0FE010E94F8102196C9353F
:08222000D107C9F7F894FFCFC4
:1022280000001B03800018000000000000000000F0
:10223800E8FFE8FF000000000000140000000000B4
:1022480000000000ECFFECFF0000000000000000B0
:1022580000002F084D0900000000E7073F099E070E
:102268009B0706099807B8068D0752073907200704
:102278001E07DF06BB06020000000000FA0741093E
:10228800FEFFFEFF0000E80743090600000000000B
:10229800B2073309FAFFFAFF0000A00735098C01DD
:1022A8000C0116019601180000000000D0071D0956
:1022B800E8FFE8FF0000DD072709A80120012A013F
:1022C800B20114000000000018080909ECFFECFF37
:1022D800000025081309000000001F01F301C000D9
:1022E8006C01F100CF00E30000000000FC0CF90CC9
:0C22F800B80650083108770A3A0A650061
:00000001FF
