:100000000C945E000C9486000C9486000C94860080
:100010000C9486000C9486000C9486000C94860048
:100020000C9486000C9486000C9486000C94C30EED
:100030000C9486000C9486000C9486000C94860028
:100040000C94210E0C9486000C94910E0C946B0E63
:100050000C9486000C9486000C9486000C94860008
:100060000C9486000C9486000000000024002700F9
:100070002A0000000000250028002B0004040404CE
:100080000404040402020202020203030303030342
:10009000010204081020408001020408102001021F
:1000A00004081020000000080002010000030407FB
:1000B0000000000000000000FA10E11311241FBE30
:1000C000CFEFD8E0DEBFCDBF12E0A0E0B1E0E0E6C8
:1000D000FCE202C005900D92AA3DB107D9F725E0D8
:1000E000AAEDB2E001C01D92A031B207E1F710E025
:1000F000CDE5D0E004C02197FE010E941416CC3556
:10010000D107C9F70E9404130C9423160C94000025
:10011000FC01428353836483758386819781A08524
:10012000B185840F951FA61FB71F82879387A48769
:10013000B58708951F93CF93DF93182FC091E402E2
:10014000D091E5028A3041F4E881F9810190F08193
:10015000E02D6DE0CE010995E881F9810190F081F3
:10016000E02D612FCE01099521E030E0019711F4D7
:1001700030E020E0C901DF91CF911F910895CF9326
:10018000DF93C091E402D091E502E881F981008417
:10019000F185E02DCE010995892BB9F3E881F9812C
:1001A0000284F385E02DCE01DF91CF910994CF92A7
:1001B000DF92EF92FF920F931F93CF93DF93FC0197
:1001C000C480D580F12CE12C00811181E091AE0436
:1001D000F091AF0436970190F081E02DE255FB4F8E
:1001E000C389D4898F8580FF0BC0E881F9810084A1
:1001F000F185E02D20E144E070E060E0CE0109955A
:10020000E881F981008CF18DE02DA7019601B801FC
:10021000CE0109956F3F7F4F89F4E091AE04F091D4
:10022000AF0436970190F081E02DE255FB4F8581B8
:1002300023893489232B69F0826085838EEA94E0D8
:10024000DF91CF911F910F91FF90EF90DF90CF90B2
:1002500008958360F2CF90E0FC01EC55FF4F2491AC
:10026000FC01E057FF4F3491FC01E458FF4FE4914B
:10027000EE23C9F0222339F0233001F1A8F4213014
:1002800019F1223029F1F0E0EE0FFF1FEE58FF4F79
:10029000A591B4918FB7F894EC91611126C0309577
:1002A0003E233C938FBF08952730A9F02830C9F032
:1002B000243049F7809180008F7D03C080918000B9
:1002C0008F7780938000DFCF84B58F7784BDDBCFBD
:1002D00084B58F7DFBCF8091B0008F778093B00085
:1002E000D2CF8091B0008F7DF9CF3E2BDACF3FB7D0
:1002F000F8948091E0029091E102A091E202B09125
:10030000E30226B5A89B05C02F3F19F00196A11D59
:10031000B11D3FBFBA2FA92F982F8827BC01CD014F
:10032000620F711D811D911D42E0660F771F881FAE
:10033000991F4A95D1F708952FB7F8946091DC0280
:100340007091DD028091DE029091DF022FBF08954F
:10035000DC01ED91FC910190F081E02D0994AF92C8
:10036000BF92CF92DF92EF92FF920F931F93CF93A2
:10037000DF936C017B018B01040F151FEB015E0104
:10038000AE18BF08C017D10759F06991D601ED9199
:10039000FC910190F081E02DC6010995892B79F738
:1003A000C501DF91CF911F910F91FF90EF90DF90EA
:1003B000CF90BF90AF900895FC01538D448D252FB1
:1003C00030E0842F90E0821B930B541710F0CF96EF
:1003D000089501970895FC01918D828D981761F021
:1003E000A28DAE0FBF2FB11D5D968C91928D9F5F38
:1003F0009F73928F90E008958FEF9FEF0895FC0117
:10040000918D828D981731F0828DE80FF11D858DC9
:1004100090E008958FEF9FEF0895FC01918D228D5C
:10042000892F90E0805C9F4F821B91098F739927E1
:10043000089588EE92E00E940D0221E0892B09F4D4
:1004400020E0822F089580E090E0892B29F00E941F
:10045000190281110C9400000895FC01A48DA80FCD
:10046000B92FB11DA35ABF4F2C91848D90E00196F6
:100470008F739927848FA689B7892C93A089B18916
:100480008C91837080648C93938D848D981306C0B7
:100490000288F389E02D80818F7D80830895EF921B
:1004A000FF920F931F93CF93DF93EC0181E0888F2E
:1004B0009B8D8C8D98131AC0E889F989808185FFFE
:1004C00015C09FB7F894EE89FF896083E889F989A0
:1004D00080818370806480839FBF81E090E0DF91A2
:1004E000CF911F910F91FF90EF900895F62E0B8DF5
:1004F00010E00F5F1F4F0F731127E02E8C8D8E11B0
:100500000CC00FB607FCFACFE889F989808185FF16
:10051000F5CFCE010E942D02F1CFEB8DEC0FFD2F18
:10052000F11DE35AFF4FF0829FB7F8940B8FEA89D1
:10053000FB8980818062CFCFCF93DF93EC01888DE0
:100540008823B9F0AA89BB89E889F9898C9185FD4E
:1005500003C0808186FD0DC00FB607FCF7CF8C91DC
:1005600085FFF2CF808185FFEDCFCE010E942D0265
:10057000E9CFDF91CF9108958EBD00000DB407FE45
:10058000FDCF8EB50895CF93DF93EC010E949C01BF
:10059000C60FD71F8FEF0E94BC028F3F59F00E94F9
:1005A0009C01CE01861B970B97FFF4CF80E0DF9173
:1005B000CF91089581E0FBCFCF93DF93FC0127819A
:1005C000222349F0EC0161E085810E942B018FEF2D
:1005D0000E94BC021F82DF91CF9108951F93CF9399
:1005E000DF93EC0188E592E00E94C302182F882374
:1005F00061F08DEF0E94BC02CE010E94DC021886E1
:10060000812FDF91CF911F9108958FE18E83CE01CD
:100610000E94DC02F5CF0F931F93CF93DF938C01E1
:10062000862FEA010E94BC02FE0181918EBDDE5F31
:10063000EC17FD0741F08191000000000DB407FEAA
:10064000FDCF8EBDF5CF0DB407FEFDCF8FEF0E941D
:10065000BC028FEF0E94BC028FEF0E94BC02F80127
:1006600081878F71853059F081E28683C8010E94AD
:10067000DC0280E0DF91CF911F910F91089581E01E
:10068000F9CFDF92EF92FF920F931F93CF93DF93F7
:10069000EC01162F022FF32EE42ED52E0E946D05AD
:1006A000882309F441C08F8181110DC09A818B810B
:1006B0009CBD8DBD81E08F8360E08D810E942B0108
:1006C0008FEF0E94BC021C3031F08CE291E00E945E
:1006D000C302882349F1812F80640E94BC028D2DC2
:1006E0000E94BC028E2D0E94BC028F2D0E94BC0273
:1006F000802F0E94BC0287E80E94BC028FEF0E94FC
:10070000BC020AE010E08FEF0E94BC02898787FFDD
:1007100003C001501109B9F7DF91CF911F910F91DB
:10072000FF90EF90DF9008958FEFF6CFAF92BF92DA
:10073000CF92DF92EF92FF921F93CF93DF93EC0162
:100740006A017B0159011F85112309F45EC0888568
:10075000823049F48B859C85AD85BE85C816D90647
:10076000EA06FB0649F18A85A7019601833039F034
:1007700099E0220F331F441F551F9A95D1F769E165
:10078000CE010E944103882389F08EE08E83CE0142
:100790000E94DC0210E0812FDF91CF911F91FF902A
:1007A000EF90DF90CF90BF90AF90089582E0888760
:1007B000CB86DC86ED86FE8688E592E00E94C30249
:1007C000811102C085E2E2CFA5016CEFCE010E944B
:1007D0000B038823E1F28B859C85AD85BE85019650
:1007E000A11DB11D8B879C87AD87BE871F85111109
:1007F000D2CFCE01DF91CF911F91FF90EF90DF908C
:10080000CF90BF90AF900C94EE028A85833039F080
:1008100089E0CC0CDD1CEE1CFF1C8A95D1F7A701EA
:10082000960168E1CE010E944103882331F08DE0FA
:100830008E83CE010E94DC02AECFA5016EEFCE0109
:100840000E940B038823A9F388E592E00E94C3026B
:10085000F82E84E2FF2061F320E030E0A9016DE092
:10086000CE010E944103882311F08AE0E1CF8FEF8F
:100870000E94BC028111F9CFCE010E94DC021F2D23
:100880008ACFEF92FF921F93CF93DF93FC012081D9
:1008900011E020FF12C0EC017C01FBE0EF0EF11C27
:1008A0004F81588569857A85970189819A810E944F
:1008B0009603182F811108C010E0812FDF91CF918E
:1008C0001F91FF90EF900895888181FD04C0888179
:1008D0008E7F8883F2CF4F81588569857A858B8199
:1008E0009C81AD81BE81480F591F6A1F7B1F9701F4
:1008F00089819A810E9496038111E9CFDDCFCF9340
:10090000DF93EC01188620E030E0A9016CE00E9442
:100910004103882349F089E08E83CE010E94DC02E6
:1009200080E0DF91CF910895CE010E94DC0281E04A
:10093000F8CFCF92DF92EF92FF920F931F93CF9356
:10094000DF93EC016A017B0189018885813049F4DC
:100950008B859C85AD85BE858C159D05AE05BF0537
:1009600039F18A85A7019601833039F089E0220F99
:10097000331F441F551F8A95D1F762E1CE010E94B3
:100980004103882379F08CE08E83CE010E94DC0243
:1009900080E0DF91CF911F910F91FF90EF90DF905A
:1009A000CF90089581E08887CB86DC86ED86FE8631
:1009B0000E949C017B0124EDE21A2EEFF20A8FEFD8
:1009C0000E94BC0289878F3F49F40E949C01C701A5
:1009D000861B970B97FFF3CF8EE1D6CF8E3F11F09A
:1009E00089E1D2CF8FEF8EBDF801D801A150BE4F63
:1009F0009FEFEA17FB0749F0000000000DB407FE67
:100A0000FDCF8EB59EBD8193F4CF0DB407FEFDCF13
:100A10008EB58C9319868FEF0E94BC028FEF0E94D7
:100A2000BC028B859C85AD85BE850196A11DB11D3F
:100A30008B879C87AD87BE878F858111AACFCE011A
:100A4000DF91CF911F910F91FF90EF90DF90CF90AA
:100A50000C947F04CF92DF92EF92FF921F93CF937B
:100A6000DF93DC011196ED91FC91EF2B51F490E0B6
:100A700080E0DF91CF911F91FF90EF90DF90CF90BA
:100A80000895122F6A017B01EC018F819885A98559
:100A9000BA858C159D05AE05BF0561F0CE010E949B
:100AA0004104882321F312FF0CC01882CF82D8861C
:100AB000E986FA8613702881122B1883CE010B96D3
:100AC000D8CF9E01255F3F4FB701A60189819A814A
:100AD0000E9499048111E9CFCACFFC012085223000
:100AE00011F40C94EE02213011F40C947F0481E097
:100AF00008958F929F92AF92BF92CF92DF92EF9222
:100B0000FF920F931F93423051056105710560F408
:100B100080E01F910F91FF90EF90DF90CF90BF90FA
:100B2000AF909F908F900895FC01C08CD18CE28C87
:100B3000F38CC416D506E606F70650F348015901B2
:100B40006A018581803229F584899589A689B789CA
:100B500017E076956795579547951A95D1F7480F01
:100B6000591F6A1F7B1F23E0CF0180960E942A0530
:100B7000009771F2CC0CDD1CCC0CDD1CF1E0DF2207
:100B80008C0D9D1DFC0180829182A282B38281E046
:100B9000C0CF803109F0BCCF4489558966897789F7
:100BA0004D0D511D611D711D23E0CF0180960E94E6
:100BB0002A05009709F4ACCFCC0CDD1CF1E0DF2254
:100BC000C80ED91EF60111830083E1CFCF92DF92C8
:100BD000EF92FF920F931F93CF93DF934230510513
:100BE0006105710550F48FEFDF91CF911F910F9147
:100BF000FF90EF90DF90CF900895FC01C08CD18CD6
:100C0000E28CF38CC416D506E606F70660F389017C
:100C10006A01EC018581803299F584899589A689DC
:100C2000B789E7E07695679557954795EA95D1F7A7
:100C3000480F591F6A1F7B1F22E0CE0180960E9439
:100C40002A05009781F2CC0CDD1CCC0CDD1CF1E0F8
:100C5000DF228C0D9D1DFC0180819181A281B381D9
:100C6000488D598D6A8D7B8D481759076A077B0718
:100C700030F1F80180839183A283B38381E0B4CF04
:100C8000803109F0B0CF44895589668977894D0D47
:100C9000511D611D711D22E0CF0180960E942A0521
:100CA000009709F4A0CFCC0CDD1CF1E0DF22C80EC8
:100CB000D91EF60180819181B0E0A0E0D1CF80E023
:100CC00093CF3F924F925F926F927F928F929F92BB
:100CD000AF92BF92CF92DF92EF92FF920F931F934A
:100CE000CF93DF9300D000D0CDB7DEB75C01FC011D
:100CF000448455846684778486809780F401C08418
:100D0000D184E284F384C414D504E604F704C0F467
:100D10007301620110E0FFEFCF1ADF0AEF0AFF0A4A
:100D2000F401808D918DA28DB38D8C159D05AE053E
:100D3000BF0540F4111132C0C084D184E284F38431
:100D400011E0E9CF4C145D046E047F0439F19E017B
:100D50002F5F3F4FB701A601C4010E94E60587FD42
:100D60001DC08823C1F289819A81AB81BC81892B06
:100D70008A2B8B2B81F6112329F0F401C086D186B2
:100D8000E286F3860FEF1FEF2FEF3FE0B701A601DA
:100D9000C4010E947905382E811118C0312C832D91
:100DA0000F900F900F900F90DF91CF911F910F91A7
:100DB000FF90EF90DF90CF90BF90AF909F908F907B
:100DC0007F906F905F904F903F9008954114510431
:100DD00061047104B9F4F501C486D586E686F78608
:100DE00082814114510461047104B1F0FFEF4F1A84
:100DF0005F0A6F0A7F0A4C145D046E047F0479F069
:100E00008F7B0BC097018601B301A201C4010E9430
:100E100079058111E0CFC2CF8064F5018283F501AD
:100E2000828180688283BBCF8F929F92AF92BF9264
:100E3000CF92DF92EF92FF920F931F93CF93DF93A6
:100E4000EC01EE85FF85309709F009950E949C0121
:100E50004B015C018E010D5E1F4F6E0121E3C20E3E
:100E6000D11CF12CE12C89A99AA98E159F0514F1AA
:100E7000D8018D919D918D010097C9F0BFEFEB1ABC
:100E8000FB0ADC01ED91FC910280F381E02DB501BC
:100E9000A4010995882359F0F80132978081918146
:100EA000DC01ED91FC910480F581E02D0995C016DF
:100EB000D106C9F60E949C016E837F83888799873B
:100EC0000A811B812C813D81DC01CB01800F911FA8
:100ED000A21FB31F8A879B87AC87BD87DF91CF9105
:100EE0001F910F91FF90EF90DF90CF90BF90AF9048
:100EF0009F908F9008950F931F93CF93DF93EC01F2
:100F0000EE85FF85309709F009950E949C016E835C
:100F10007F83888799870A811B812C813D81DC0131
:100F2000CB01800F911FA21FB31F8A879B87AC87BD
:100F3000BD87DF91CF911F910F9108950F931F935C
:100F4000FC010285138524853585401B510B620BFE
:100F5000730B80E077FF80891F910F910895CF93E5
:100F6000DF93EC01E881F9810288F389E02D09958E
:100F70008F3F980731F02D813E812F5F3F4F3E8399
:100F80002D83DF91CF9108958FEF9FEF089560E05B
:100F900070E0CB01089590E080E00895FF920F93F8
:100FA0001F93CF93DF938C01EB016F3F7607B9F06E
:100FB000F62EEAE06E1306C06DE0F8018089918993
:100FC0000E94A8016F2DF801808991890E94A801D3
:100FD000CE01DF91CF911F910F91FF900895D0E046
:100FE000C0E0F6CF7F928F929F92AF92BF92CF9246
:100FF000DF92EF92FF920F931F93CF93DF938C01B9
:1010000049015A01EB01C12CD12C7601C814D90435
:10101000EA04FB04B4F479908AE0781206C06DE02B
:10102000F801808991890E94A801672DF8018089C3
:1010300091890E94A801FFEFCF1ADF0AEF0AFF0A89
:10104000E5CFC501B401DF91CF911F910F91FF90C2
:10105000EF90DF90CF90BF90AF909F908F907F9058
:101060000895CB010895CF93DF93EC018889998986
:10107000DC01ED91FC910084F185E02D0995892B2F
:10108000A9F388899989DC01ED91FC910284F385AB
:10109000E02DDF91CF910994CF93DF93EC01888904
:1010A0009989DC01ED91FC910084F185E02D099591
:1010B000892BA9F388899989DC01ED91FC9104843D
:1010C000F585E02DDF91CF9109948F929F92AF9299
:1010D000BF92CF92DF92EF92FF920F931F93CF9325
:1010E000DF938C0149015A01EB01C12CD12C76010F
:1010F000D80150968D919C91DC01ED91FC91028478
:10110000F385E02D09958F3F61F0C814D904EA04F6
:10111000FB043CF48993BFEFCB1ADB0AEB0AFB0A12
:10112000E7CFC701B601DF91CF911F910F91FF90DB
:10113000EF90DF90CF90BF90AF909F908F900895E9
:10114000DC0150968D919C91DC01ED91FC91008425
:10115000F185E02D099490E080E0089590E080E032
:10116000089508950895DC01ED91FC913697019062
:10117000F081E02DE80FF91F80E791E091838083F3
:101180008AE791E097838683089520E731E0FC01A8
:10119000318320832AE731E0378326830895FB01DA
:1011A00020813181FC0131832083FB014281538105
:1011B00026503109F90120813181820F931FFC01F2
:1011C0005183408308952CE831E0FC013183208372
:1011D00026E931E0318F208F60E871E00C94CF0870
:1011E000DC01ED91FC91369720813181820F931FB4
:1011F0000C94E3080895DC01ED91FC913697019081
:10120000F081E02DE80FF91F8CE591E09183808358
:1012100086E691E09383828308952CE531E0FC011A
:101220003183208326E631E0338322830895FB0156
:1012300020813181FC0131832083FB014281538174
:1012400026503109F90120813181820F931FFC0161
:1012500051834083089528EA31E0FC0131832083E3
:1012600022EB31E0358B248B6CE971E00C9417098B
:10127000DC01ED91FC91369720813181820F931F23
:101280000C942B0908950895FC01848583FF17C0F1
:1012900084A195A1A6A1B7A1448D558D668D778DAA
:1012A000841B950BA60BB70B811520E89207A105AF
:1012B000B10520F08FEF9FE7A0E0B0E0089580E057
:1012C00090E0DC01F1CF0F931F93CF93DF93FC01EC
:1012D0002485222399F0EC01868587FF3DC040A13B
:1012E00051A162A173A18289938921E080960E9415
:1012F0002A05009741F48D8581608D87DF91CF911C
:101300001F910F910895E889F989EF70FF2725E073
:10131000EE0FFF1F2A95E1F7E80FF91F309759F3F9
:101320008081853E41F38C85877383878C8583FF1D
:1013300008C08CA19DA1AEA1BFA1848F958FA68F5F
:10134000B78F88A599A5AAA5BBA5938F828FB58BCA
:10135000A48B8E858F778E870A891B89C80180961A
:101360000E944104882339F2F801808191810E9412
:101370006D05882309F4BFCFC1CF4F925F926F9262
:101380007F92BF92CF92DF92EF92FF920F931F93C3
:10139000CF93DF93EC0129013A018B01C12CD12CB1
:1013A0007601C414D504E604F7040CF03FC0F8013C
:1013B000B1908F018F8580FF0BC0E881F981008497
:1013C000F185E02D20E144E070E060E0CE01099578
:1013D000EB85FC858D859E85E817F90760F4B08262
:1013E0008B859C8501969C878B872FEFC21AD20A2A
:1013F000E20AF20AD6CF6B2D70E0E881F981028C07
:10140000F38DE02DCE010995019679F7C701B6015C
:10141000DF91CF911F910F91FF90EF90DF90CF90D0
:10142000BF907F906F905F904F900895730162011D
:10143000EDCF90E080E00895CF93DF93EC010E9420
:101440002B09CE01DF91CF910C948415DC01ED9135
:10145000FC91369720813181820F931F0C941C0AD6
:10146000CF93DF93EC010E94E308CE01DF91CF918F
:101470000C948415DC01ED91FC913697208131812B
:10148000820F931F0C94300A0C9484150C948415CD
:10149000DC01ED91FC91369720813181820F931F01
:1014A0000C94460A0C9484150C948415DC01ED917F
:1014B000FC91369720813181820F931F0C94540A3E
:1014C0000C9484150C9484158F929F92AF92BF92C6
:1014D000CF92DF92EF92FF920F931F93CF93DF9300
:1014E000EC017B013A8130FFCAC028818888998845
:1014F000AA88BB88422F4870C42E23FF22C0888D43
:10150000998DAA8DBB8D88199909AA09BB098230CA
:101510009105A105B10520F5009711F530E020E017
:10152000A901481B590BCA01DF91CF911F910F915F
:10153000FF90EF90DF90CF90BF90AF909F908F90F3
:10154000089526FF0DC0EE81FF818681978145E0D9
:10155000880F991F4A95E1F78815990509F495C0F8
:10156000EE81FF8184011170B501A40189E07695B7
:101570006795579547958A95D1F726FF27C0848DA3
:10158000958DA68DB78D480F591F6A1F7B1F8E81C1
:101590009F8120E080960E942A05009709F46FC081
:1015A000800F911FFC018081F701808388899989D0
:1015B000AA89BB890196A11DB11D888B998BAA8B25
:1015C000BB8B21E030E090E080E0AACFD380D42232
:1015D0000115110581F4D1100EC089288A288B28A5
:1015E00081F527FF29C0848D958DA68DB78D8C87B9
:1015F0009D87AE87BF87EE81FF814C855D856E85B7
:101600007F854250510961097109848104C0440FEA
:10161000551F661F771F8A95D2F780899189A28905
:10162000B389840F951FA61FB71FAC01BD014D0DD7
:10163000511D611D711DABCF8C8D9D8DAE8DBF8DEC
:10164000D6CF4C855D856E857F85CC2059F036FFE1
:1016500009C04F5F5F4F6F4F7F4F4C875D876E872D
:101660007F87C9CF9E01245F3F4FCF010E94E605CF
:1016700087FD05C08111BFCF8881807D49F48981B4
:10168000826089838FEF9FEF4FCF30E020E09BCFC8
:1016900021E030E081E090E043CF8F929F92AF92C3
:1016A000BF92CF92DF92EF92FF920F931F93CF934F
:1016B000DF931F92CDB7DEB78C01FC01848C958C33
:1016C000A68CB78CC08CD18CE28CF38CBE016F5F82
:1016D0007F4F0C960E94640A0197C9F4898190E0BB
:1016E000F801848E958EA68EB78EC08ED18EE28E36
:1016F000F38E0F90DF91CF911F910F91FF90EF909C
:10170000DF90CF90BF90AF909F908F9008958FEF14
:101710009FEFE6CFCF93DF931F92CDB7DEB7BE0129
:101720006F5F7F4F0C960E94640A019731F48981A4
:1017300090E00F90DF91CF9108958FEF9FEFF9CF59
:101740002F923F924F925F926F927F928F929F92D1
:10175000AF92BF92CF92DF92EF92FF920F931F93BF
:10176000CF93DF93CDB7DEB728970FB6F894DEBFDF
:101770000FBECDBF98878F831B015C834B83DC0139
:1017800012968C91129781FF05C183FF2FC01C9682
:101790004D905D906D907C901F972C91222309F4C1
:1017A000F1C058968D909D90AD90BC905B975096EF
:1017B0004D915D916D917C91539784169506A60687
:1017C000B706A1F081149104A104B10409F0C2C0CC
:1017D000FD011486158616861786EF81F885808AA6
:1017E000918AA28AB38A82818F7D8283EB81FC8178
:1017F000AF0170E060E0EF81F88580899189A2896E
:10180000B38980959095A095B09584179507A60704
:10181000B70708F4BFC0CB80DC8000E012E03C9644
:10182000FE83ED83AF81B88550968D909D90AD90ED
:10183000BC905397C114D10409F452C116968D91EE
:101840009C911797FC01F380B501A40129E07695DE
:101850006795579547952A95D1F7F42294013170F1
:101860003A832983F1102AC01C964D915D916D91A8
:101870007C911F97232B09F060C14115510561052B
:10188000710509F409C112962C91129726FFF5C033
:1018900058964D905D906D907C905B978414950464
:1018A000A604B70408F0E9C04F5F5F4F6F4F7F4F4A
:1018B0001C964D935D936D937C931F97AF81B88574
:1018C0001696ED91FC9117971C964D915D916D9137
:1018D0007C911F974250510961097109848104C0AC
:1018E000440F551F661F771F8A95D2F7808991890B
:1018F000A289B389840F951FA61FB71FAC01BD0134
:101900004F0D511D611D711D29813A81232B09F055
:1019100028C1C11432E0D30608F423C187A190A5E1
:10192000A1A5B2A5481759076A077B0741F410A281
:101930008FEF9FEFDC0187A390A7A1A7B2A791012A
:1019400081A192A10E949603882321F1E12C82E0DB
:10195000F82E4FC1AF81B8851696ED91FC9123FD0D
:1019600021C026FF1FC08681978135E0880F991F0F
:101970003A95E1F7B0E0A0E088159905AA05BB0506
:1019800008F02BCFAF81B8851C964D925D926D9279
:101990007C921F97EF81F8858181816081831C8211
:1019A0001B82B0C03481375F75016401B1E0CB1A8E
:1019B000D108E108F108032E04C0F694E794D79407
:1019C000C7940A94D2F786FF0FC0EF81F885848D03
:1019D000958DA68DB78D8C0D9D1DAE1DBF1D848769
:1019E0009587A687B787F9CEDB01CA010197A109C0
:1019F000B10904C0B695A795979587953A95D2F702
:101A0000C816D906EA06FB0620F0452B462B472BC5
:101A100079F527FF2AC0848D958DA68DB78DEF812E
:101A2000F88584879587A687B7870F811885045F17
:101A30001F4FC114D104E104F10409F4CECEAF81EB
:101A4000B8851C964D915D916D917C911F97980181
:101A500016968D919C910E94E605B1E0CB1AD108B3
:101A6000E108F10818162CF38DCFEF81F885D3CF5C
:101A7000C81AD90AEA0AFB0AD8CF2D813E810E94F2
:101A8000E60587FD87CF811119CF8F8198850E9448
:101A90006106811113CF7ECFEF81F885848D958DFE
:101AA000A68DB78D0097A105B10589F4CF010E94DD
:101AB0006106882309F46ECFEF81F88584859585CA
:101AC000A685B785848F958FA68FB78FF7CEEF81C8
:101AD000F88584879587A687B787F0CE21E068C010
:101AE000EF81F885808D918DA28DB38D8815990534
:101AF000AA05BB0538F4808E918EA28EB38E8281AA
:101B0000806882838B819C8128960FB6F894DEBF13
:101B10000FBECDBFDF91CF911F910F91FF90EF903E
:101B2000DF90CF90BF90AF909F908F907F906F90FD
:101B30005F904F903F902F90089542505109610956
:101B40007109848104C0440F551F661F771F8A9551
:101B5000D2F780899189A289B389480F591F6A1FDA
:101B60007B1FC801A981BA818A1B9B0B76018C154A
:101B70009D0508F47C0129813A81232B09F0AECF21
:101B8000AF81B88550968D909D90AD90BC90539745
:101B900058964D905D906D907C905B978414950461
:101BA000A604B70420F412968C9185FF97CF25E008
:101BB000CF0180960E942A05009709F4EBCEA70179
:101BC000B101E981FA818E0F9F1F0E941A16898147
:101BD0009A818E0D9F1D8115924059F4AF81B88571
:101BE00016968D919C9180960E944104882309F459
:101BF000D1CEEF81F88580899189A289B3898E0D34
:101C00009F1DA11DB11D808B918BA28BB38B2E0CC0
:101C10003F1CCE18DF0806CE0C960C94A00BCF9379
:101C2000DF931F92CDB7DEB7698341E050E0BE017C
:101C30006F5F7F4F0C960E94A00B0F90DF91CF91AA
:101C400008951F920F920FB60F9211242F933F9376
:101C50008F939F93AF93BF938091DC029091DD02AD
:101C6000A091DE02B091DF023091DB0223E0230F6E
:101C70002D3758F50196A11DB11D2093DB028093ED
:101C8000DC029093DD02A093DE02B093DF0280912C
:101C9000E0029091E102A091E202B091E30201968C
:101CA000A11DB11D8093E0029093E102A093E20296
:101CB000B093E302BF91AF919F918F913F912F918C
:101CC0000F900FBE0F901F90189526E8230F0296D5
:101CD000A11DB11DD2CF1F920F920FB60F921124EA
:101CE0002F933F934F935F936F937F938F939F9324
:101CF000AF93BF93EF93FF9388EE92E00E942D0283
:101D0000FF91EF91BF91AF919F918F917F916F91D3
:101D10005F914F913F912F910F900FBE0F901F90A9
:101D200018951F920F920FB60F9211242F938F9335
:101D30009F93EF93FF93E091F802F091F902808175
:101D4000E091FE02F091FF0282FD1BC09081809124
:101D500001038F5F8F7320910203821741F0E0919E
:101D60000103F0E0E851FD4F958F80930103FF914F
:101D7000EF919F918F912F910F900FBE0F901F9019
:101D800018958081F4CF1F920F920FB60F921124F5
:101D90002F933F934F935F936F937F938F939F9373
:101DA000AF93BF93CF93DF93EF93FF938091DA02CA
:101DB000C091D503D0E087FF24C010928500109217
:101DC00084008091DA028F5F8093DA028091DA02D8
:101DD000082E000C990B8C179D0724F48091DA02D1
:101DE0008C30C4F1809184009091850004968034F9
:101DF0009C4908F47AC080918400909185000496F3
:101E000076C08091DA02082E000C990B8C179D0782
:101E1000C4F6E091DA028E2FEE0F990BFC01EE0F63
:101E2000FF1FE80FF91FEF54FC4F808186FFC9CFD9
:101E3000E091DA028E2FEE0F990BFC01EE0FFF1FDF
:101E4000E80FF91FEF54FC4F808160E08F730E9410
:101E50002B01B7CF2091840030918500E091DA0208
:101E60008E2FEE0F990BFC01EE0FFF1FE80FF91FED
:101E7000EF54FC4F81819281820F931F90938900D0
:101E800080938800E091DA028E2FEE0F990BFC010F
:101E9000EE0FFF1FE80FF91FEF54FC4F808186FF04
:101EA00011C0E091DA028E2FEE0F990BFC01EE0FBC
:101EB000FF1FE80FF91FEF54FC4F808161E08F7323
:101EC0000E942B01FF91EF91DF91CF91BF91AF91D4
:101ED0009F918F917F916F915F914F913F912F9142
:101EE0000F900FBE0F901F90189580E49CE990937F
:101EF0008900809388008FEF8093DA02E3CFCF933D
:101F0000DF93EC018AEB91E09983888381E0888BF1
:101F10001F861E861A861B861C861D860E949C01B3
:101F20006E837F8388879987DA8BC98B1A821B829D
:101F30001C821D826A877B878C879D87DF91CF916A
:101F40000895CF93DF93EB0188819981A8EDB4E0E8
:101F500011969C938E932A813B810697EC01E88130
:101F6000F981E852FB4F3183208312961D921D9216
:101F70001D921C92159781E290E0948383838EEDED
:101F800094E0948B838B1582158ADF91CF9108950D
:101F9000CF93DF93C8EDD4E081E290E09C8F8B8FEC
:101FA0001D8E1E8E1F8E86E090E0A0E0B0E088A31C
:101FB00099A3AAA3BBA31CA21DA21EA21FA282E3D7
:101FC00091E0998F888F80E288A71AA619A61DA68E
:101FD0008EED94E09CA78BA7AC0160E871E0CE0188
:101FE0000E94A10F8CE891E09983888386E991E0B3
:101FF000998F888F1A8619861C861B861E861D86D9
:10200000188A1F861A8A198A1C8A1B8A8AE391E019
:102010009F838E8388EE92E09F8B8E8B88E08D8BE2
:10202000DF91CF910895DB018D919C911197909351
:10203000AF048093AE0412962D913C910697DC017B
:10204000ED91FC91E255FB4F3183208381E290E0DA
:102050009483838380EB94E0948B838B1582158A21
:102060000895CF93DF93CEEAD4E081E290E0988F99
:102070008F8B198E1A8E1B8E86E090E0A0E0B0E068
:102080008C8F9D8FAE8FBF8F18A219A21AA21BA290
:1020900082E391E09D8B8C8B80E28CA31EA21DA21B
:1020A00019A680EB94E098A78FA3AC016CE971E0CE
:1020B000CE010E94131088EA91E09983888382EB15
:1020C00091E09D8B8C8B1E821D8218861F821A8642
:1020D00019861C861B861E861D86188A1F868AE323
:1020E00091E09B838A8388EE92E09B8B8A8B80E1D0
:1020F000898BDF91CF910895CF92DF92EF92FF927B
:102100000F931F93CF93DF938C017B0188E090E0C6
:10211000D80113969C938E93129715961C921E923B
:1021200014970E94E8146C01E80199838883E70101
:1021300009900020E9F72197CE19DF09D1F1C930C4
:10214000D10520F1CE010896F801938382830E9485
:10215000E814D8018D939C93F601CF018C199D0949
:10216000D8014D915C91119714962D913C91821755
:10217000930748F4DA01A80FB91F109711F0808176
:102180008C933196EACFC6010E948415F8018481B0
:102190009581D801ED91FC918C179D0738F4E80FDB
:1021A000F91F309709F010820196F3CFF801D5831B
:1021B000C483F701D8012D913C9140E050E0BA0171
:1021C000CE01B0E0A0E0481759076A077B0748F442
:1021D0001191E90119939E014F5F5F4F6F4F7F4F40
:1021E000F2CFDF91CF911F910F91FF90EF90DF9091
:1021F000CF900895CF92DF92EF92FF920F931F93AB
:10220000CF93DF931F92CDB7DEB71092EB021092FF
:10221000EA0248EEC42E43E0D42EE12CF12CC09209
:10222000EC02D092ED02E092EE02F092EF0284EC2A
:1022300091E09093E9028093E80285EC90E090931E
:10224000F5028093F40284EC90E09093F70280937F
:10225000F60280EC90E09093F9028093F80281EC12
:1022600090E09093FB028093FA0282EC90E09093CE
:10227000FD028093FC0286EC90E09093FF02809335
:10228000FE021092010310920203109203031092B7
:10229000040368EE72E08EEA94E00E94311068EE6A
:1022A00072E088ED94E00E94C80F1092E70210924D
:1022B000E60288EE92E09093E5028093E4026FEBF1
:1022C00070E08AE990E00E9481149093E702809385
:1022D000E60288E090E09093AA048093A90410920B
:1022E000AC041092AB0480E590E00E94E814909357
:1022F000A8048093A7041092880310928703C092C9
:102300008903D0928A03E0928B03F0928C0310929F
:102310009103109292031092930386ED91E09093B3
:1023200086038093850310929C0410929B04109264
:102330009D0410929E0410929F041092A00410928B
:10234000A1041092A2041092A3041092A40410926B
:10235000A5041092A6048091D5038C3008F04CC1DE
:1023600091E0980F9093D5038093980490E0FC013E
:10237000EE0FFF1FE80FF91FEF54FC4F88EB9BE0B7
:10238000928381838091D5038C3008F039C191E02C
:10239000980F9093D5038093950490E0FC01EE0F85
:1023A000FF1FE80FF91FEF54FC4F88EB9BE092836F
:1023B0008183AE014F5F5F4F6EEE71E08EE894E077
:1023C0000E947C10AE014F5F5F4F66EF71E087E8BF
:1023D00094E00E947C10AE014F5F5F4F6FEF71E0A1
:1023E00080E894E00E947C10AE014F5F5F4F6BE08D
:1023F00072E089E794E00E947C10AE014F5F5F4F6E
:1024000068E172E082E794E00E947C10AE014F5FC9
:102410005F4F66E272E08BE694E00E947C10AE01B2
:102420004F5F5F4F62E372E084E694E00E947C10AD
:10243000AE014F5F5F4F6FE372E08DE594E00E9465
:102440007C10AE014F5F5F4F6FE472E086E594E071
:102450000E947C10AE014F5F5F4F6DE572E08FE42C
:1024600094E00E947C10AE014F5F5F4F6CE672E01B
:1024700088E494E00E947C10AE014F5F5F4F6CE7F0
:1024800072E081E494E00E947C10AE014F5F5F4FE8
:102490006AE872E08AE394E00E947C10AE014F5F2C
:1024A0005F4F62E972E083E394E00E947C10AE012A
:1024B0004F5F5F4F66E972E08CE294E00E947C100F
:1024C000AE014F5F5F4F6DE972E085E294E00E94DC
:1024D0007C1008E010E01093210400932004109277
:1024E00023041092220488E390E00E94E814909361
:1024F0001F0480931E0410931A0400931904109271
:102500001C0410921B0480E590E00E94E814909354
:10251000180480931704109313040093120410926C
:1025200015041092140480E490E00E94E814909343
:1025300011048093100410930C0400930B04109268
:102540000E0410920D0480E490E00E94E814909331
:102550000A048093090486ED93E00E947F0F88EEC1
:1025600091E09093D7038093D603109208041092C1
:102570000704E9EEF3E087E094E0119211928E17E0
:102580009F07D9F71092D8031092D9031092DA035B
:102590001092DB038091DC039091DD03A091DE03B8
:1025A000B091DF038093E0039093E103A093E203F3
:1025B000B093E30383E190E00E94E8140E947F0F50
:1025C00083E190E00E94E8140E947F0F83E190E095
:1025D0000E94E8140E947F0F83E190E00E94E814BB
:1025E0000E947F0F0F90DF91CF911F910F91FF906D
:1025F000EF90DF90CF9008958FEF80939804C2CE34
:102600008FEF80939504D5CE789484B5826084BD95
:1026100084B5816084BD85B5826085BD85B58160E6
:1026200085BD80916E00816080936E001092810064
:10263000809181008260809381008091810081601F
:1026400080938100809180008160809380008091E0
:10265000B10084608093B1008091B000816080936C
:10266000B00080917A00846080937A0080917A0033
:10267000826080937A0080917A00816080937A00F2
:1026800080917A00806880937A001092C100E09176
:10269000F802F091F90282E08083E091F402F09177
:1026A000F5021082E091F602F091F7028FEC808340
:1026B00010920003E091FC02F091FD0286E080831D
:1026C000E091FA02F091FB02808180618083E091C9
:1026D000FA02F091FB02808188608083E091FA0227
:1026E000F091FB02808180688083E091FA02F09192
:1026F000FB0280818F7D808381E494E00E94D7007B
:102700008AE394E00E94D700EDE9F0E02491E9E843
:10271000F0E08491882399F090E0880F991FFC01E4
:10272000E859FF4FA591B491FC01EE58FF4F8591F8
:1027300094918FB7F894EC91E22BEC938FBFC5E0A6
:10274000D0E061E08DE00E942B010E9477014B01F7
:102750005C0184EFC82EDD24D394E12CF12C0E947F
:102760007701681979098A099B09683E73408105D8
:102770009105A8F321E0C21AD108E108F10888EE1A
:10278000880E83E0981EA11CB11CC114D104E10481
:10279000F10429F72197A9F6C0E0D0E02097F1F3E2
:1027A0000E9419028823D1F30E940000F7CFFC0198
:1027B000808191810C948415FC01808191810C941D
:1027C00084150F931F93CF93DF9389E094E00E94C9
:1027D000D71380E194E00E94D71380911704909161
:1027E00018040E948415D0E0C0E010E000E0809161
:1027F0001E0490911F04209122043091230402179B
:10280000130740F48C0F9D1F0E94D7130F5F1F4FBB
:102810002796EDCF0E94841585E294E00E94DC1398
:102820008CE294E00E94DC1383E394E00E94DC13CA
:102830008AE394E00E94DC1381E494E00E94DC13BC
:1028400088E494E00E94DC138FE494E00E94DC139F
:1028500086E594E00E94DC138DE594E00E94DC1391
:1028600084E694E00E94DC138BE694E00E94DC1383
:1028700082E794E00E94DC1389E794E00E94DC1375
:1028800080E894E00E94DC1387E894E00E94DC1367
:102890008EE894E00E94DC13C0919B04D0919C04CC
:1028A0002097E9F0E881F9810680F781E02DCE01DB
:1028B0000995EA89FB8980818F7E8083EA89FB897B
:1028C0008081877F8083EA89FB8980818F778083FD
:1028D000EA89FB8980818F7D80838A8D898F8091B1
:1028E000A7049091A8040E94841588ED94E00E94AA
:1028F000E3088EEA94E0DF91CF911F910F910C9441
:102900002B090F931F93CF93DF93009759F4611511
:10291000710541F4F0E0E0E0CF01DF91CF911F912C
:102920000F9108958B01EC016EE070E081E090E082
:102930000E94CC14FC01892B69F380E88383011584
:10294000110571F01387028781E883838091060562
:1029500090910705892B21F4F0930705E093060574
:102960002097D1F2D187C087838182608383809151
:10297000080590910905892B79F6F0930905E093F4
:10298000080580910A0590910B05892B29F6F09393
:102990000B05E0930A05C0CF0F931F93CF93DF93EE
:1029A000869F8001879F100D969F100D1124C801EE
:1029B0000E94E814EC01009729F0A80170E060E0A3
:1029C0000E940D16CE01DF91CF911F910F910895B6
:1029D0000F931F93CF93DF938230910510F482E021
:1029E00090E0E0910E05F0910F0530E020E0B0E0BE
:1029F000A0E0309799F42115310509F44AC0281B4D
:102A0000390B24303105D8F58A819B816115710518
:102A100089F1FB0193838283FE0111C040815181C2
:102A20000281138148175907E0F04817590799F4B4
:102A3000109761F012960C93129713961C9332968E
:102A4000CF01DF91CF911F910F91089500930E0553
:102A500010930F05F4CF2115310551F0421753079C
:102A600038F0A901DB019A01BD01DF01F801C1CFF6
:102A7000EF01F9CF90930F0580930E05CDCFFE01A6
:102A8000E20FF31F819391932250310939832883F8
:102A9000D7CF20910C0530910D05232B41F42091C7
:102AA00002013091030130930D0520930C05209114
:102AB0000001309101012115310541F42DB73EB7D8
:102AC0004091040150910501241B350BE0910C0548
:102AD000F0910D05E217F307A0F42E1B3F0B28170A
:102AE000390778F0AC014E5F5F4F2417350748F087
:102AF0004E0F5F1F50930D0540930C0581939193EA
:102B00009FCFF0E0E0E09CCFCF93DF930097E9F018
:102B1000FC01329713821282A0910E05B0910F052D
:102B2000ED0130E020E01097A1F420813181820F87
:102B3000931F20910C0530910D052817390709F0D6
:102B400061C0F0930D05E0930C05DF91CF910895DE
:102B5000EA01CE17DF07E8F54A815B819E01411546
:102B60005105B1F7E901FB83EA8349915991C40FFB
:102B7000D51FEC17FD0761F4808191810296840FC7
:102B8000951FE90199838883828193819B838A833E
:102B9000F0E0E0E012968D919C9113970097B9F5C3
:102BA0002D913C911197CD010296820F931F209198
:102BB0000C0530910D052817390739F6309751F576
:102BC00010920F0510920E05B0930D05A0930C0501
:102BD000BCCFD383C28340815181840F951FC81716
:102BE000D90761F44E5F5F4F88819981480F591F63
:102BF000518340838A819B81938382832115310590
:102C000009F0B0CFF0930F05E0930E059ECFFD01C4
:102C1000DC01C0CF13821282D7CFDC0101C06D93DB
:102C200041505040E0F70895EE0FFF1F0590F491DA
:102C3000E02D0994FB01DC0102C001900D9241508E
:102C40005040D8F7089510E0CDE5D0E004C0FE0173
:102C50000E9414162196CE35D107C9F7F894FFCFFC
:102C600000001005800018000000000000000000B7
:102C7000E8FFE8FF00000000000014000000000072
:102C800000000000ECFFECFF00000000000000006E
:102C900000004209600A00000000FA08520AB10868
:102CA000AE08190AAB08CB07A00865084C08330822
:102CB0003108F207CE070200000000000D09540A97
:102CC000FEFFFEFF0000FB08560A060000000000A1
:102CD000C508460AFAFFFAFF0000B308480A8C014B
:102CE0000C0116019601180000000000E308300AEC
:102CF000E8FFE8FF0000F0083A0AA80120012A01D5
:102D0000B2011400000000002B091C0AECFFECFFCC
:102D100000003809260A0000000088009E077B0793
:102D2000000000004F02AF01DC019C020D02EB012C
:102D3000FF01000000000F0E0C0ECB0763094409D1
:102D40008A0B4D0B0000000088009E071407487591
:102D5000623A204F4B004875623A20455252004279
:102D60006F6F74696E672048756200536572766F85
:102D7000206D313A204F4B00536572766F206D31D4
:102D80003A2045525200536572766F206D323A4FA9
:102D90004B00536572766F206D323A4552520042B5
:102DA0006F6F74696E6720536572766F206D005285
:102DB000504C69646172206C3A204F4B0052504C69
:102DC00069646172206C3A2045525200426F6F7400
:102DD000696E672052504C696461720053455455C6
:102DE00050202F2F2F2F2F2F2F00626F6F74696E9F
:102DF00067002E2E2E005469636B2023007B202257
:102E00006C656E677468223A205B5B2C2C5D2C200D
:102E10005B2C2C5D2C205B2C2C5D5D2022616E6771
:102E20006C65223A205B5B2C2C5D2C205B2C2C5D8E
:0A2E30002C205B2C2C5D5D7D000062
:00000001FF
