:100000000C949F000C94C7000C94C7000C94C7007C
:100010000C94C7000C94C7000C94C7000C94C70044
:100020000C94C7000C94C7000C94C7000C946A0E83
:100030000C94C7000C94C7000C94C7000C94C70024
:100040000C94C80D0C94C7000C94380E0C94120E2E
:100050000C94C7000C94C7000C94C7000C94C70004
:100060000C94C7000C94C70007634236B79BD8A70F
:100070001A39685618AEBAAB558C1D3CB7CC5763CD
:10008000BD6DEDFD753EF6177231BF000000803F7B
:1000900008000000BE922449123EABAAAA2ABECD97
:1000A000CCCC4C3E00000080BEABAAAAAA3E000009
:1000B0000000BF000000803F000000000008417801
:1000C000D3BB4387D1133D190E3CC3BD4282AD2B38
:1000D0003E68EC8276BED98FE1A93E4C80EFFFBE30
:1000E00001C4FF7F3F000000000000000008000284
:1000F00001000003040700000000000000000000F1
:100100000000250028002B0000000000240027002C
:100110002A00040404040404040402020202020289
:1001200003030303030301020408102040800102BB
:10013000040810200102040810203B109E15112411
:100140001FBECFEFD8E0DEBFCDBF13E0A0E0B1E02F
:10015000E6E2F7E302C005900D92A034B107D9F7AB
:1001600025E0A0E4B3E001C01D92AD38B207E1F78D
:1001700010E0CEE9D0E004C02197FE010E94BD1737
:10018000CD39D107C9F70E9486120C94861B0C94B6
:100190000000FC01428353836483758386819781C9
:1001A000A085B185840F951FA61FB71F82879387EF
:1001B000A487B58708951F93CF93DF93182FC0911D
:1001C0004E03D0914F038A3041F4E881F9810190C8
:1001D000F081E02D6DE0CE010995E881F981019073
:1001E000F081E02D612FCE01099521E030E00197EB
:1001F00011F430E020E0C901DF91CF911F91089503
:10020000CF93DF93C0914E03D0914F03E881F981E2
:100210000084F185E02DCE010995892BB9F3E881A1
:10022000F9810284F385E02DCE01DF91CF9109940D
:10023000CF92DF92EF92FF920F931F93CF93DF93B2
:100240008C016A017B01E0912B05F0912C0536971A
:100250000190F081E02DE55DFA4FC389D4898F8547
:1002600080FF0BC0E881F9810084F185E02D20E159
:1002700044E070E060E0CE010995E881F981008CEE
:10028000F18DE02DA7019601B801CE0109956F3FD0
:100290007F4F89F4E0912B05F0912C053697019062
:1002A000F081E02DE55DFA4F858123893489232B88
:1002B00069F0826085838BE295E0DF91CF911F9199
:1002C0000F91FF90EF90DF90CF9008958360F2CF71
:1002D000FC014481558170E060E0808191810C9443
:1002E000180190E0FC01EA5DFE4F24918E5E9E4F66
:1002F000FC018491882399F090E0880F991FFC01FC
:10030000E85FFE4FA591B491FC01E250FF4F85914B
:1003100094918FB7F894EC91E22BEC938FBF0895F2
:1003200090E0FC01E651FF4F2491FC01EA5DFE4F95
:100330003491FC01EE5EFE4FE491EE23C9F02223DE
:1003400039F0233001F1A8F4213019F1223029F1DC
:10035000F0E0EE0FFF1FE250FF4FA591B4918FB771
:10036000F894EC91611126C030953E233C938FBFE9
:1003700008952730A9F02830C9F0243049F780913A
:1003800080008F7D03C0809180008F7780938000F4
:10039000DFCF84B58F7784BDDBCF84B58F7DFBCF76
:1003A0008091B0008F778093B000D2CF8091B00061
:1003B0008F7DF9CF3E2BDACF3FB7F89480914A0377
:1003C00090914B03A0914C03B0914D0326B5A89B8F
:1003D00005C02F3F19F00196A11DB11D3FBFBA2FD7
:1003E000A92F982F8827BC01CD01620F711D811D97
:1003F000911D42E0660F771F881F991F4A95D1F71C
:1004000008958F929F92AF92BF92CF92DF92EF9218
:10041000FF926B017C010E94DC014B015C01C11465
:10042000D104E104F104B9F00E94DC0168197909F2
:100430008A099B09683E73408105910580F321E09C
:10044000C21AD108E108F10888EE880E83E0981EF0
:10045000A11CB11CE4CFFF90EF90DF90CF90BF9034
:10046000AF909F908F9008950F931F93CF93DF933A
:100470008C01D0E0C0E086E894E00E9468016AE068
:1004800070E080E090E00E94010221960C171D07A9
:1004900091F7DF91CF911F910F9108952FB7F894A5
:1004A00060914603709147038091480390914903FE
:1004B0002FBF0895DC01ED91FC910190F081E02DBA
:1004C0000994AF92BF92CF92DF92EF92FF920F9377
:1004D0001F93CF93DF936C017B018B01040F151FDA
:1004E000EB015E01AE18BF08C017D10759F0699142
:1004F000D601ED91FC910190F081E02DC6010995A6
:10050000892B79F7C501DF91CF911F910F91FF9052
:10051000EF90DF90CF90BF90AF900895FC01538D86
:10052000448D252F30E0842F90E0821B930B5417CD
:1005300010F0CF96089501970895FC01918D828D5A
:10054000981761F0A28DAE0FBF2FB11D5D968C91F3
:10055000928D9F5F9F73928F90E008958FEF9FEF32
:100560000895FC01918D828D981731F0828DE80FEE
:10057000F11D858D90E008958FEF9FEF0895FC01A8
:10058000918D228D892F90E0805C9F4F821B910975
:100590008F739927089582E593E00E94BF0221E0BE
:1005A000892B09F420E0822F089580E090E0892BC8
:1005B00029F00E94CB0281110C9400000895FC01E7
:1005C000A48DA80FB92FB11DA35ABF4F2C91848DB4
:1005D00090E001968F739927848FA689B7892C9311
:1005E000A089B1898C91837080648C93938D848D64
:1005F000981306C00288F389E02D80818F7D808367
:100600000895EF92FF920F931F93CF93DF93EC0126
:1006100081E0888F9B8D8C8D98131AC0E889F989A9
:10062000808185FF15C09FB7F894EE89FF896083AC
:10063000E889F98980818370806480839FBF81E02D
:1006400090E0DF91CF911F910F91FF90EF9008956F
:10065000F62E0B8D10E00F5F1F4F0F731127E02E4A
:100660008C8D8E110CC00FB607FCFACFE889F98982
:10067000808185FFF5CFCE010E94DF02F1CFEB8DA7
:10068000EC0FFD2FF11DE35AFF4FF0829FB7F89456
:100690000B8FEA89FB8980818062CFCFCF93DF9374
:1006A000EC01888D8823B9F0AA89BB89E889F9898A
:1006B0008C9185FD03C0808186FD0DC00FB607FCBF
:1006C000F7CF8C9185FFF2CF808185FFEDCFCE01F2
:1006D0000E94DF02E9CFDF91CF9108950F931F931E
:1006E000CF93DF93FC01C081D181209709F18C0168
:1006F000E881F9810680F781E02DCE010995EA892C
:10070000FB8980818F7E8083EA89FB898081877F56
:100710008083EA89FB8980818F778083EA89FB89DE
:1007200080818F7D80838A8D898FF801118210826C
:10073000DF91CF911F910F910895892B79F4109239
:10074000800082E0809381001092850010928400E6
:10075000B19A80916F00826080936F0008958F92AC
:100760009F92AF92BF92CF92DF92EF92FF920F9340
:100770001F93CF93DF93EC01EE85FF85309709F04F
:1007800009950E944E024B015C018E010D5E1F4FC8
:100790006E0121E3C20ED11CF12CE12C89A99AA98A
:1007A0008E159F0514F1D8018D919D918D010097B3
:1007B000C9F0BFEFEB1AFB0ADC01ED91FC9102805E
:1007C000F381E02DB501A4010995882359F0F801C2
:1007D000329780819181DC01ED91FC910480F5815B
:1007E000E02D0995C016D106C9F60E944E026E830F
:1007F0007F83888799870A811B812C813D81DC0159
:10080000CB01800F911FA21FB31F8A879B87AC87E4
:10081000BD87DF91CF911F910F91FF90EF90DF90F7
:10082000CF90BF90AF909F908F9008950F931F939C
:10083000CF93DF93EC01EE85FF85309709F00995A2
:100840000E944E026E837F83888799870A811B816D
:100850002C813D81DC01CB01800F911FA21FB31FB2
:100860008A879B87AC87BD87DF91CF911F910F91BE
:1008700008950F931F93FC01028513852485358508
:10088000401B510B620B730B80E077FF80891F9137
:100890000F910895CF93DF93EC01E881F9810288ED
:1008A000F389E02D09958F3F980731F02D813E8126
:1008B0002F5F3F4F3E832D83DF91CF9108958FEFC0
:1008C0009FEF089560E070E0CB01089590E080E034
:1008D0000895FF920F931F93CF93DF938C01EB0149
:1008E0006F3F7607B9F0F62EEAE06E1306C06DE0B2
:1008F000F801808991890E945A026F2DF801808940
:1009000091890E945A02CE01DF91CF911F910F91E0
:10091000FF900895D0E0C0E0F6CF7F928F929F9233
:10092000AF92BF92CF92DF92EF92FF920F931F93FD
:10093000CF93DF938C0149015A01EB01C12CD12CDB
:100940007601C814D904EA04FB04B4F479908AE06F
:10095000781206C06DE0F801808991890E945A02E0
:10096000672DF801808991890E945A02FFEFCF1A02
:10097000DF0AEF0AFF0AE5CFC501B401DF91CF918D
:100980001F910F91FF90EF90DF90CF90BF90AF90AD
:100990009F908F907F900895CB010895CF93DF9320
:1009A000EC0188899989DC01ED91FC910084F18545
:1009B000E02D0995892BA9F388899989DC01ED91AE
:1009C000FC910284F385E02DDF91CF910994CF93C0
:1009D000DF93EC0188899989DC01ED91FC91008419
:1009E000F185E02D0995892BA9F388899989DC0186
:1009F000ED91FC910484F585E02DDF91CF91099470
:100A00008F929F92AF92BF92CF92DF92EF92FF921E
:100A10000F931F93CF93DF938C0149015A01EB0190
:100A2000C12CD12C7601D80150968D919C91DC017E
:100A3000ED91FC910284F385E02D09958F3F61F0E3
:100A4000C814D904EA04FB043CF48993BFEFCB1A21
:100A5000DB0AEB0AFB0AE7CFC701B601DF91CF91B2
:100A60001F910F91FF90EF90DF90CF90BF90AF90CC
:100A70009F908F900895DC0150968D919C91DC01A0
:100A8000ED91FC910084F185E02D099490E080E0E7
:100A9000089590E080E0089508950895DC01ED91B7
:100AA000FC9136970190F081E02DE80FF91F80E767
:100AB00091E0918380838AE791E09783868308950C
:100AC00020E731E0FC01318320832AE731E03783DE
:100AD00026830895FB0120813181FC01318320832D
:100AE000FB014281538126503109F9012081318176
:100AF000820F931FFC015183408308952CE831E05D
:100B0000FC013183208326E931E0318F208F60E8BA
:100B100071E00C946A05DC01ED91FC91369720811F
:100B20003181820F931F0C947E050895DC01ED91B5
:100B3000FC9136970190F081E02DE80FF91F8CE5CC
:100B400091E09183808386E691E093838283089588
:100B50002CE531E0FC013183208326E631E033834C
:100B600022830895FB0120813181FC0131832083A0
:100B7000FB014281538126503109F90120813181E5
:100B8000820F931FFC0151834083089528EA31E0CE
:100B9000FC013183208322EB31E0358B248B6CE91F
:100BA00071E00C94B205DC01ED91FC913697208147
:100BB0003181820F931F0C94C605089508951F93E9
:100BC000CF93DF93EC01162F8F8580FF0BC0E88158
:100BD000F9810084F185E02D20E144E070E060E0DF
:100BE000CE010995EB85FC85812F90E02D853E8512
:100BF000E217F30758F410832B853C852F5F3F4F96
:100C00003C872B87DF91CF911F910895E881F9816F
:100C1000028CF38DE02DBC01CE01DF91CF911F91AD
:100C20000994E0912B05F0912C0536970190F08105
:100C3000E02DE55DFA4F682F838994890E94DF05D6
:100C4000019689F4E0912B05F0912C0536970190DF
:100C5000F081E02DE55DFA4F858123893489232BCE
:100C600029F0826085838BE295E008958360FACF56
:100C70008F929F92AF92BF92CF92DF92EF92FF92AC
:100C80000F931F93CF93DF938C0149015A01EB011E
:100C9000C12CD12C7601C814D904EA04FB0464F4F5
:100CA0006991C8010E94DF05019641F08FEFC81AD3
:100CB000D80AE80AF80AEFCF75016401C701B60146
:100CC000DF91CF911F910F91FF90EF90DF90CF9028
:100CD000BF90AF909F908F90089590E080E008952E
:100CE000CF92DF92EF92FF920F931F93FB01DC01F3
:100CF00000E010E098016A01F12CE12C0C151D05B3
:100D00002E053F0538F461916D930F5F1F4F2F4FF4
:100D10003F4FF4CF840F951F1F910F91FF90EF90DD
:100D2000DF90CF900895CF93DF93EC010E94C6052A
:100D3000CE01DF91CF910C942D17DC01ED91FC9148
:100D4000369720813181820F931F0C949306CF93A5
:100D5000DF93EC010E947E05CE01DF91CF910C94D0
:100D60002D17DC01ED91FC91369720813181820FA6
:100D7000931F0C94A7060C942D170C942D17DC01CF
:100D8000ED91FC91369720813181820F931F0C9455
:100D9000BD060C942D170C942D17DC01ED91FC91E0
:100DA000369720813181820F931F0C94CB060C94CF
:100DB0002D170C942D17FC01808191810C942D1717
:100DC000FC01808191810C942D17EF92FF920F937B
:100DD0001F93CF93DF937C01D0E0C0E010E000E0F0
:100DE000F70180819181248135810217130740F436
:100DF0008C0F9D1F0E94DB060F5F1F4F2796F0CFC1
:100E0000DF91CF911F910F91FF90EF900C942D17D0
:100E1000EF92FF920F931F93CF93DF937C01D0E06B
:100E2000C0E010E000E0F7018081918124813581EC
:100E30000217130740F48C0F9D1F0E94E0060F5FFE
:100E40001F4F2796F0CFDF91CF911F910F91FF9009
:100E5000EF900C942D17CF92DF92EF92FF920F93A9
:100E60001F93CF93DF93EC018C819D8186179707A9
:100E700008F045C07A018B012A813B81261737078C
:100E800018F5CB01089628173907F0F4C880D980E7
:100E90009B838A830E94911699838883F601CF01F0
:100EA0008C199D092C813D818217930750F4A881EC
:100EB000B981A80FB91F109711F080818C933196DA
:100EC000EECFC6010E942D178C819D81801791075E
:100ED00058F4E881F981E80FF91F309719F0D7012C
:100EE0002C9120830196F2CF1D830C83DF91CF914B
:100EF0001F910F91FF90EF90DF90CF9008956817AA
:100F00007907A0F77D836C83F1CFEF92FF920F9367
:100F10001F93CF93DF937C018B01DB011496CD915E
:100F2000DC91FC01D583C483CE0108969383828330
:100F3000880F991F880F991F0E949116D7018D93D2
:100F40009C93FC0130E020E0C217D307B9F0AF0159
:100F5000481B590B309771F0D8016D917C91DB01E2
:100F6000A40FB51F4D915D916D917C91408351838C
:100F7000628373832F5F3F4F3496E6CFDF91CF912B
:100F80001F910F91FF90EF900895EF92FF920F93B2
:100F90001F93CF93DF931F92CDB7DEB78C017B01F8
:100FA00088E090E0F80193838283158214820E9486
:100FB0009116F80191838083F7016481758119820C
:100FC000AE014F5F5F4FC8010E942B07F8014481BB
:100FD0005581F70160817181F801808191810E94C2
:100FE00070060F90DF91CF911F910F91FF90EF90BE
:100FF0000895CF92DF92EF92FF920F931F93CF93BA
:10100000DF931F92CDB7DEB78C01FB01E480F58042
:10101000E416F50610F40E94811BE41AF50A2E1559
:101020003F0508F47901FB01C080D180C40ED51EB4
:1010300088E090E0F80193838283158214820E94F5
:101040009116F80191838083FFEFEF16FF0619F3E5
:10105000F6018081181684F41982AE014F5F5F4F4C
:10106000B701C8010E942B07F80144815581B601E0
:10107000808191810E947006C8010F90DF91CF910D
:101080001F910F91FF90EF90DF90CF9008956F9296
:101090007F928F929F92AF92BF92CF92DF92EF9208
:1010A000FF920F931F93CF93DF93CDB7DEB7A59732
:1010B0000FB6F894DEBF0FBECDBF6B0188E090E0A5
:1010C00098A38F8F1AA219A288E390E00E9491162C
:1010D0009E8F8D8FD60114962D913C9190E080E0EB
:1010E0008217930759F0D601ED91FC91E80FF91F93
:1010F00040814C3709F48C010196F2CF98012150C0
:10110000310950E040E0B601FE0131967F01CF0188
:101110000E94F907980120953095A8014F5F5F4F15
:10112000B601CE0108960E94F90722273327201B1B
:10113000310B41E050E0B601CE010F960E94F90755
:101140008BE090E0998F888F83E090E09B8F8A8F6F
:101150008DE490E00E9491169F8B8E8B8701D12C9D
:10116000C12C8A8D9B8DC816D906A8F48E899F89BB
:1011700098012E193F09820F931F009731F0AE019D
:101180004C5D5F4FB8010E94C507FFEFCF1ADF0A21
:10119000095F1F4FE6CF2F8D38A12817390790F52B
:1011A000CD8CDE8C98A38F8F27E0AC01249FC001EB
:1011B000259F900D11240E9491169E8F8D8F860180
:1011C000B12CA12C89A19AA1A816B906C0F48D8DC5
:1011D0009E8D98012C193D09820F931F009731F0C5
:1011E000AE014C5D5F4FB8010E94C507C8010E9467
:1011F000E0065FEFA51AB50A095F1F4FE3CFC601EE
:101200000E942D1789A19AA18A8C9B8C881599051B
:1012100008F44C01D12CC12CB12CA12CA814B90478
:1012200099F16E887F886C0C7D1C0D8D1E8D0C0DC8
:101230001D1D6016710609F1D80114968D919C91BF
:101240001597892B21F015961C921E921497F30185
:10125000648175811DA2AE014B5D5F4FC8010E9484
:101260002B07D30114964D915C9115976D917C914C
:10127000F801808191810E947006FFEFAF1ABF0ACA
:1012800047E0C40ED11CCACF09A11AA18A8D9B8D3B
:101290000817190728F587E0809F6001819FD00C0F
:1012A00011248A8D9B8D08171907D0F48D8D9E8D82
:1012B0008C0D9D1D009749F06E897F896C0D7D1DF9
:1012C000AE014C5D5F4F0E94C50789A19AA10196AE
:1012D0009AA389A30F5F1F4F57E0C50ED11CE1CF22
:1012E0000A8D1B8D89A19AA108171907D8F487E0E8
:1012F000809F6001819FD00C1124580189A19AA17F
:10130000A816B90668F48D8D9E8D8C0D9D1D0E94CA
:10131000E0068FEFA81AB80A97E0C90ED11CEECFED
:101320001AA309A3CE0146960E940807CE010F9684
:101330000E94E006CE0108960E94E006C7010E94C6
:10134000E006CE014D960E940807A5960FB6F894C8
:10135000DEBF0FBECDBFDF91CF911F910F91FF90E8
:10136000EF90DF90CF90BF90AF909F908F907F9045
:101370006F9008954F925F926F927F928F929F929B
:10138000AF92BF92CF92DF92EF92FF92CF93DF9313
:10139000EC01E0912B05F0912C0536970190F0813E
:1013A000E02DE55DFA4FE188F288E114F10401F1E6
:1013B000D701ED91FC9136970190F081E02DEE0D73
:1013C000FF1D83899489DC01ED91FC910484F585EE
:1013D000E02D0995019661F4D701ED91FC913697C6
:1013E0000190F081E02DEE0DFF1D858181608583E8
:1013F000FE0101900020E9F73197EC1BFD0B4F0136
:10140000B12CA12CE0912B05F0912C053697019081
:10141000F081E02DE55DFA4FC484D584E684F7843D
:10142000C818D908EA08FB08838194818E7099272F
:10143000049729F52601370114141504160417041E
:101440009CF4B1E04B1A510861087108E0912B053A
:10145000F0912C0536970190F081E02DE55DFA4F73
:1014600080890E941106E8CFD701C601F7FE03C0AC
:1014700080E090E0DC01C81AD90AEA0AFB0AB5014B
:10148000A401CE010E941801E0912B05F0912C05DA
:1014900036970190F081E02DE55DFA4F83819481CC
:1014A0008E7099270297C1F4E0912B05F0912C05DD
:1014B00036970190F081E02DE55DFA4F1C141D0474
:1014C0001E041F044CF421E0C21AD108E108F108FF
:1014D00080890E941106E8CFE0912B05F0912C0540
:1014E00036970190F081E02DE55DFA4F1486158660
:1014F000168617868BE295E0DF91CF91FF90EF90F3
:10150000DF90CF90BF90AF909F908F907F906F9023
:101510005F904F9008952F923F924F925F926F92FB
:101520007F928F929F92AF92BF92CF92DF92EF9273
:10153000FF920F931F93CF93DF93CDB7DEB7A99799
:101540000FB6F894DEBF0FBECDBF1C017F8F6E8F2C
:1015500008E010E0DC0113961C930E931297159689
:101560001C921E92149788E390E00E949116F1015C
:10157000918380831B870A871D861C8680E290E00A
:101580000E949116998788871A8B098B1C8A1B8A5F
:1015900088E090E00E949116988B8F87512C412C07
:1015A0001D8E1C8E5DA24CA2AE8DBF8D14968D91AA
:1015B0009C9115974816590608F034C24D915C91DC
:1015C000440D551DFA018081803251F0853241F081
:1015D0006B897C896F5F7F4FCE010F960E942B072E
:1015E000AE8DBF8DED91FC91E40DF51D80818032B3
:1015F00009F079C1AE01495E5F4FBE01615F7F4F67
:10160000CE0101960E94C5076D807E80E981FA8136
:10161000FBA3EAA3F98FE88F90E080E0912C812C66
:1016200020E0861597050CF445C0222309F4FEC07E
:1016300010E000E019A218A25401F1E0AF1AB108BD
:1016400008151905F4F5B501601B710B072E000C88
:10165000880B990B0E94DF189B01AC0160E070E0E1
:1016600080E291E40E94FC196B017C016016710616
:10167000F9F0A88DB98D6D91B98FA88F062E000C49
:10168000770B60537109072E000C880B990B0E9491
:10169000DF18A70196010E948F190E94A718E8A1E0
:1016A000F9A1E60FF71FF9A3E8A30F5F1F4FC8CFFB
:1016B0000E94811B31913E3211F44C0121E00196D0
:1016C000B0CF84010F5F1F4FC12CD12C76010615BE
:1016D00017050CF049C0B80168197909072E000CEC
:1016E000880B990B0E94DF189B01AC0160E070E051
:1016F00080E291E40E94FC19688F798F8A8F9B8F1A
:1017000006151705A8F6EAA1FBA1E00FF11F6081FD
:10171000062E000C770B60537109072E000C880B06
:10172000990B0E94DF186EA37FA388A799A7288D25
:10173000398D4A8D5B8D60E070E080E89FE30E9408
:1017400035189B01AC016EA17FA188A599A50E94C7
:101750008F199B01AC01C701B6010E94C4176B0130
:101760007C010F5F1F4FB3CF28A139A1B901330FFF
:10177000880B990B0E94DF18A70196010E94C417DD
:101780004B015C01CE0101960E94E0068B899C8989
:10179000892B11F01C8A1B8A1E8AAE014A5E5F4F9C
:1017A00070E060E0CE010F960E942B0750E040E011
:1017B00064EF72E08F8598890E947006EC84FD8446
:1017C00087010F5F1F4FE016F10608F0DFC02A8582
:1017D0003B852017310708F06DC0C701099628170F
:1017E000390708F067C0C884D9849B878A87880F27
:1017F000991F880F991F0E94911688879987D60193
:10180000FC0190E080E0E816F90609F450C030973A
:1018100049F04D915D916D917C9113974083518377
:1018200062837383019614963496EDCFF12CE12CEC
:1018300010E000E0630131E0C31AD108E614F704B8
:101840007CF5B6016E197F09072E000C880B990BE9
:101850000E94DF189B01AC0160E070E080E291E43F
:101860000E94FC194B015C01A88DB98D6D91B98F57
:10187000A88F062E000C770B60537109072E000C01
:10188000880B990B0E94DF18A50194010E948F1903
:101890000E94A718060F171FBFEFEB1AFB0ACECF47
:1018A000B801110F880B990B0E94DF1869CFC60190
:1018B0000E942D178C859D859C01220F331F220FBE
:1018C000331FE885F985E20FF31F8017910748F46D
:1018D000309721F080829182A282B3820196349661
:1018E000F4CF1D870C87EFEF4E1A5E0AAE8DBF8DC9
:1018F000ED91FC912CA13DA1E20FF31F8081853277
:1019000009F050CED10114968D919C917C01BFEFCE
:10191000EB1AFB0A8E159F0508F06BC0F1012281BE
:1019200033812E153F05C0F5099628173907A0F514
:10193000C080D1809383828347E09C01429FC00195
:10194000439F900D11240E949116D1018D939C9379
:101950008601B12CA12CF10184819581A816B906CC
:10196000C0F48081918198012C193D09820F931F49
:10197000009719F0B8010E948507C8010E94DB0694
:10198000FFEFAF1ABF0A095F1F4FE5CF1D861C8608
:10199000AACFC6010E942D17D10114960D911C915A
:1019A000B7E0B09F6001B19FD00C11240E151F0548
:1019B00090F4F101808191818C0D9D1D009729F09B
:1019C000BE01685F7F4F0E9485070F5F1F4FF7E0E2
:1019D000CF0ED11CEBCFD1011596FC92EE9214974D
:1019E0008C859D85892B11F01D861C865D8E4C8E05
:1019F000D9CD10E000E0F12CE12CF101848195813A
:101A0000E816F90660F480819181800F911F0E9491
:101A1000DB06FFEFEF1AFF0A095F1F4FEECF1582BB
:101A20001482DECFF101848195819E838D83089697
:101A30009C838B8327E0AC01249FC001259F900DE0
:101A400011240E9491169A838983F12CE12CD12CC8
:101A5000C12C09811A818D819E81C816D90608F48E
:101A600042C06801F12CE12C2C8D3D8D2E153F05D7
:101A700009F04CC06801F12CE12C4C8D5D8D4E15A8
:101A80005F0509F45FC02701440C551C440C551C2C
:101A9000D6016D907C904801B12CA12CF30161918D
:101AA0007191819191913F01D401ED91FC91E40DEF
:101AB000F51D20813181428153810E9430188111AE
:101AC00041C0BFEFAB1ABB0AE7E08E0E911C2C8D14
:101AD0003D8D2A153B0511F73FEFE31AF30A47E066
:101AE000C40ED11CCACFC8018E0D9F1D009739F0BE
:101AF000D1016D917C916E0D7F1D0E948507BFEF16
:101B0000CB1ADB0AE7E0EE0EF11CA3CFD601ED9174
:101B1000FC91C701880F991F880F991FE80FF91FC3
:101B20006081718182819381B7E0CB0ED11C20E06E
:101B300030E0A9010E943018811104C0EFEFEE1AC5
:101B4000FE0A92CFCE0101960E94E506CE010F96C5
:101B50000E94E006CE0108960E94DB06C101A9960C
:101B60000FB6F894DEBF0FBECDBFDF91CF911F91AE
:101B70000F91FF90EF90DF90CF90BF90AF909F902C
:101B80008F907F906F905F904F903F902F9008952F
:101B90001F920F920FB60F9211242F933F938F93A2
:101BA0009F93AF93BF938091460390914703A09179
:101BB0004803B09149033091450323E0230F2D37AB
:101BC00058F50196A11DB11D20934503809346034E
:101BD00090934703A0934803B093490380914A032D
:101BE00090914B03A0914C03B0914D030196A11D20
:101BF000B11D80934A0390934B03A0934C03B09381
:101C00004D03BF91AF919F918F913F912F910F9075
:101C10000FBE0F901F90189526E8230F0296A11D66
:101C2000B11DD2CF1F920F920FB60F9211242F9396
:101C30003F934F935F936F937F938F939F93AF9354
:101C4000BF93EF93FF9382E593E00E94DF02FF9141
:101C5000EF91BF91AF919F918F917F916F915F9124
:101C60004F913F912F910F900FBE0F901F9018959D
:101C70001F920F920FB60F9211242F938F939F9361
:101C8000EF93FF93E0916203F09163038081E09111
:101C90006803F091690382FD1BC0908180916B0302
:101CA0008F5F8F7320916C03821741F0E0916B037B
:101CB000F0E0EE5AFC4F958F80936B03FF91EF910C
:101CC0009F918F912F910F900FBE0F901F9018959D
:101CD0008081F4CF1F920F920FB60F9211242F9391
:101CE0003F934F935F936F937F938F939F93AF93A4
:101CF000BF93CF93DF93EF93FF9380914003C09105
:101D00001304D0E087FF24C0109285001092840055
:101D1000809140038F5F8093400380914003082EA1
:101D2000000C990B8C179D0724F4809140038C3094
:101D3000C4F18091840090918500049680349C4980
:101D400008F47AC08091840090918500049676C052
:101D500080914003082E000C990B8C179D07C4F648
:101D6000E09140038E2FEE0F990BFC01EE0FFF1F49
:101D7000E80FF91FE151FC4F808186FFC9CFE09148
:101D800040038E2FEE0F990BFC01EE0FFF1FE80FA3
:101D9000F91FE151FC4F808160E08F730E94900138
:101DA000B7CF2091840030918500E09140038E2FC1
:101DB000EE0F990BFC01EE0FFF1FE80FF91FE15129
:101DC000FC4F81819281820F931F909389008093B1
:101DD0008800E09140038E2FEE0F990BFC01EE0F6F
:101DE000FF1FE80FF91FE151FC4F808186FF11C0F2
:101DF000E09140038E2FEE0F990BFC01EE0FFF1FB9
:101E0000E80FF91FE151FC4F808161E08F730E9460
:101E10009001FF91EF91DF91CF91BF91AF919F9191
:101E20008F917F916F915F914F913F912F910F9083
:101E30000FBE0F901F90189580E49CE99093890045
:101E4000809388008FEF80934003E3CFCF93DF939D
:101E5000EB0188819981A5E5B5E011969C938E935D
:101E60002A813B810697EC01E881F981EB5AFA4F10
:101E70003183208312961D921D921D921C921597FC
:101E800081E290E0948383838BE595E0948B838B50
:101E90001582158ADF91CF910895CF93DF93C5E521
:101EA000D5E081E290E09C8F8B8F1D8E1E8E1F8E61
:101EB00086E090E0A0E0B0E088A399A3AAA3BBA32A
:101EC0001CA21DA21EA21FA282E391E0998F888FFF
:101ED00080E288A71AA619A61DA68BE595E09CA707
:101EE0008BA7AC0160E871E0CE010E94260F8CE860
:101EF00091E09983888386E991E0998F888F1A868B
:101F000019861C861B861E861D86188A1F861A8ABD
:101F1000198A1C8A1B8A8AE391E09F838E8382E55B
:101F200093E09F8B8E8B88E08D8BDF91CF9108950E
:101F3000DB018D919C91119790932C0580932B053B
:101F400012962D913C910697DC01ED91FC91E55D97
:101F5000FA4F3183208381E290E0948383838DE282
:101F600095E0948B838B1582158A0895CF93DF9328
:101F7000CBE2D5E081E290E0988F8F8B198E1A8E9C
:101F80001B8E86E090E0A0E0B0E08C8F9D8FAE8F3E
:101F9000BF8F18A219A21AA21BA282E391E09D8B07
:101FA0008C8B80E28CA31EA21DA219A68DE295E067
:101FB00098A78FA3AC016CE971E0CE010E94980F45
:101FC00088EA91E09983888382EB91E09D8B8C8BEA
:101FD0001E821D8218861F821A8619861C861B8601
:101FE0001E861D86188A1F868AE391E09B838A835A
:101FF00082E593E09B8B8A8B80E1898BDF91CF9187
:102000000895CF92DF92EF92FF920F931F93CF9399
:10201000DF931F92CDB7DEB77C016B0188E090E0C3
:10202000F70193838283158214820E949116F7012F
:1020300091838083F60101900020E9F731978F01A9
:102040000C191D091982AE014F5F5F4FB801C7011E
:102050000E942B07A801B601F701808191810E949F
:1020600070060F90DF91CF911F910F91FF90EF902D
:10207000DF90CF9008950F931F93CF93DF931F921C
:10208000CDB7DEB7109255031092540388EE93E05B
:10209000A0E0B0E08093560390935703A0935803B9
:1020A000B09359038AEB91E09093530380935203CA
:1020B00085EC90E090935F0380935E0384EC90E066
:1020C000909361038093600380EC90E090936303AE
:1020D0008093620381EC90E09093650380936403A6
:1020E00082EC90E0909367038093660386EC90E027
:1020F000909369038093680310926B0310926C03B2
:1021000010926D0310926E0362E573E08BE295E02E
:102110000E94B60F62E573E085E595E00E944D0FE1
:10212000109251031092500382E593E090934F0375
:1021300080934E0360E071E08BED90E00E942A16E0
:10214000909351038093500388E090E0909327058B
:1021500080932605109229051092280580E690E0CC
:102160000E949116909325058093240510921905DD
:102170001092180510921A0510921B0510921C055A
:1021800010921D0510921E0510921F051092200539
:1021900010922105109222051092230580911304BC
:1021A0008C3008F0ABC191E0980F909313048093AA
:1021B000150590E0FC01EE0FFF1FE80FF91FE1513C
:1021C000FC4F88EB9BE092838183809113048C30D9
:1021D00008F098C191E0980F909313048093120532
:1021E00090E0FC01EE0FFF1FE80FF91FE151FC4FDB
:1021F00088EB9BE092838183AE014F5F5F4F6CED74
:1022000071E08BE095E00E940110AE014F5F5F4FDF
:1022100065EE71E084E095E00E940110AE014F5F31
:102220005F4F6FEE71E08DEF94E00E940110AE0100
:102230004F5F5F4F6BEF71E086EF94E00E940110FB
:10224000AE014F5F5F4F69E072E08FEE94E00E9455
:102250000110AE014F5F5F4F68E172E088EE94E0DD
:102260000E940110AE014F5F5F4F65E272E081EEA8
:1022700094E00E940110AE014F5F5F4F63E372E094
:102280008AED94E00E940110AE014F5F5F4F63E45E
:1022900072E083ED94E00E940110AE014F5F5F4F4A
:1022A00062E572E08CEC94E00E940110AE014F5F99
:1022B0005F4F62E672E085EC94E00E940110AE018F
:1022C0004F5F5F4F62E772E08EEB94E00E94011077
:1022D000AE014F5F5F4F61E872E087EB94E00E94D0
:1022E0000110AE014F5F5F4F6CE872E080EB94E04D
:1022F0000E94011008E010E01093AC040093AB04BE
:102300001092AE041092AD0488E090E00E94911605
:102310009093AA048093A904AE014F5F5F4F61EAD6
:1023200072E082EA94E00E940110AE014F5F5F4FBD
:102330006AEB72E08BE994E00E940110AE014F5FFE
:102340005F4F65ED72E084E994E00E940110AE01F8
:102350004F5F5F4F6BEE72E08DE894E00E940110DA
:10236000AE014F5F5F4F6AEF72E086E894E00E9433
:102370000110AE014F5F5F4F6DEE72E08FE794E0AA
:102380000E940110AE014F5F5F4F62EF72E088E77D
:1023900094E00E940110AE014F5F5F4F65EF72E065
:1023A00081E794E00E940110AE014F5F5F4F6CEF38
:1023B00072E08AE694E00E94011010936604009394
:1023C0006504109268041092670488E390E00E940C
:1023D0009116909364048093630410935F040093B8
:1023E0005E04109261041092600488E390E00E9401
:1023F000911690935D0480935C04109358040093AD
:10240000570410925A041092590480E690E00E94FA
:1024100091169093560480935504109351040093A1
:102420005004109253041092520480E490E00E94F1
:10243000911690934F0480934E0410934A04009396
:10244000490410924C0410924B0480E490E00E94E6
:10245000911690934804809347048CEC91E09093FC
:1024600015048093140481E08093240410922304C3
:102470001092220410921E0410921F041092200445
:10248000109221040E944E0260931A0470931B0460
:1024900080931C0490931D0424E134E030932604BF
:1024A0002093250410921604109217041092180419
:1024B0001092190460931E0470931F0480932004EB
:1024C0009093210486ED91E0909315048093140479
:1024D0001092460410924504E7E2F4E01192119242
:1024E00084E0E534F807D1F70E944E020E944E02C4
:1024F0000F90DF91CF911F910F9108958FEF8093EF
:10250000150563CE8FEF8093120576CECF93DF93C0
:10251000CDB7DEB7EA970FB6F894DEBF0FBECDBFDA
:10252000789484B5826084BD84B5816084BD85B5AE
:10253000826085BD85B5816085BD80916E008160BA
:1025400080936E0010928100809181008260809360
:102550008100809181008160809381008091800062
:102560008160809380008091B10084608093B1008D
:102570008091B00081608093B00080917A00846087
:1025800080937A0080917A00826080937A008091B3
:102590007A00816080937A0080917A0080688093CD
:1025A0007A001092C100E0916203F091630382E02F
:1025B0008083E0915E03F0915F031082E0916003FD
:1025C000F09161038FEC808310926A03E0916603BF
:1025D000F091670386E08083E0916403F0916503E6
:1025E000808180618083E0916403F0916503808144
:1025F00088608083E0916403F09165038081806846
:102600008083E0916403F091650380818F7D8083F6
:102610006CE271E080E090E00E94010283EF92E0C2
:102620000E94BA098EEB94E00E9468018DE00E943E
:10263000710161E08DE00E94900187EB94E00E94BF
:10264000680160E08DE00E94900161E08DE00E94F1
:1026500090018CE0E8E1F5E0DE019D9601900D929D
:102660008A95E1F78CE0FE01BD96DE01919601901E
:102670000D928A95E1F70E944E026B017C0189A1BF
:102680009AA1009709F40AC225EA298320E52A8342
:10269000DC01ED91FC910280F381E02D42E050E0FD
:1026A000BE016F5F7F4F09950E944E024B015C0196
:1026B00010E00E944E02681979098A099B09653663
:1026C00071058105910508F0E4C189A19AA1DC0199
:1026D000ED91FC910284F385E02D099597FDE9CFFA
:1026E000112309F4CCC1113009F4CEC191E0910F4E
:1026F000E5E1F0E0EC0FFD1FE10FF11D8083973065
:1027000009F0BBC180E090E0DC01B7FD36C08B8DE5
:10271000843009F0C8C18F89988DA98D2A8DB22F78
:10272000BF734497A105B10508F4BDC18E010F5FC9
:102730001F4F5E01B5E1AB0EB11C0E944E026C1939
:102740007D098E099F09653671058105910508F09F
:10275000AEC189A19AA1DC01ED91FC910284F385BF
:10276000E02D099597FDE9CFF80181938F01EA15D6
:10277000FB0519F780E090E0DC01B7FD9DC11092E8
:102780004203109241030AE010E086E894E00E94C0
:1027900068016AE070E080E090E00E940102015070
:1027A000110999F7CE0181960E946E03CE018D9694
:1027B0000E946E0360E08DE00E94900161E08DE078
:1027C0000E9490018091150590911605A091170522
:1027D00089839A83AB838091120590911305A09110
:1027E00014058C839D83AE838EE190E00E94911648
:1027F0008C01892B39F089819A81AB81F801808322
:102800009183A2830D3FFFEF1F0739F08C819D81DB
:10281000AE81F80183839483A583D12CC12CD80188
:10282000C114D10409F060C1EC90BBE0BE1578F191
:1028300081E00E947101F12C5701AA0CBB1CF5012B
:10284000EE0DFF1DE151FC4F8081807C8160808313
:10285000F8011182128290E080E0FC01EE0FFF1F70
:10286000E80FF91FE151FC4F208126FD08C00196B9
:102870008C30910591F790E080E00E949D03F50176
:10288000EE0DFF1DE151FC4F8081806480838AE062
:10289000E82EF12C86E894E00E9468016AE070E07E
:1028A00080E090E00E940102F1E0EF1AF10891F758
:1028B000CA94CD2809F014C1C8010E942D1760E008
:1028C0008DE00E94900161E08DE00E9490011092E5
:1028D0004403109243038091410390914203892B5A
:1028E000A1F486E894E00E9468016AE070E080E06C
:1028F00090E00E94010286E894E00E9468016AE08C
:1029000070E080E090E00E94010260E08DE00E94B3
:10291000900186E393E00E94BA0961E08DE00E9495
:1029200090018BE994E00E94680160E08DE00E94D4
:10293000900161E08DE00E94900180EB94E00E94A4
:10294000680160E08DE00E94900161E08DE00E94EE
:102950009001AE01465C5F4F6AE674E0CE0181965D
:102960000E94C507BE016F5D7F4FCE0145960E9454
:1029700047086D897E89AE01475C5F4FCE010196A5
:102980000E94C507BE016F5F7F4FCE018D960E94EA
:102990008B0ACE0101960E94E006CE0145960E9468
:1029A0000807CE0181960E94E00688E090E00E9430
:1029B000340260E08DE00E94900161E08DE00E94B1
:1029C000900188E090E00E94340260E08DE00E9477
:1029D000900161E08DE00E94900188E090E00E940B
:1029E000340260E08DE00E94900161E08DE00E9481
:1029F000900188E090E00E94340260E08DE00E9447
:102A0000900161E08DE00E94900188E090E00E94DA
:102A1000340260E08DE00E94900161E08DE00E9450
:102A200090018AE090E00E94340260E08DE00E9414
:102A3000900186E393E00E94BA0961E08DE00E9474
:102A4000900184E994E00E94680160E08DE00E94BA
:102A5000900182EA94E00E946801CE018D960E9466
:102A6000E50600E010E001151105E9F30E94CB0234
:102A70008823C9F30E940000F6CF192F1ACE853A99
:102A8000910509F433CE15CE8A35910509F42ECE81
:102A90000FCE82E090E8A0E0B0E837CE81E090E889
:102AA000A0E0B0E86ACE80E090E8DC0166CE82E08B
:102AB00090E8A0E0B0E861CE81E090E0909342031E
:102AC000809341038CE0FE01B196DE0155960190A2
:102AD0000D928A95E1F7CE0145960E946E0353CE82
:102AE000CC24C394D12C9BCE1396EC90BBE0BE15A6
:102AF00008F4CDCE82E00E947101F12C5701AA0C9E
:102B0000BB1CF501EE0DFF1DE151FC4F8081807C67
:102B100082608083F8011482158290E080E0FC01DD
:102B2000EE0FFF1FE80FF91FE151FC4F208126FD3A
:102B3000A6CE01968C30910591F79DCE80914704E9
:102B4000909148040E942D1780914E0490914F045B
:102B50000E942D1780915504909156040E942D17C4
:102B60008CE594E00E94E50683E694E00E94E50689
:102B70008AE694E00E94E00681E794E00E94E00685
:102B800088E794E00E94E0068FE794E00E94E00668
:102B900086E894E00E94E0068DE894E00E94E0065A
:102BA00084E994E00E94E0068BE994E00E94E0064C
:102BB00082EA94E00E94E00689EA94E00E94E0063E
:102BC00080EB94E00E94E00687EB94E00E94E00630
:102BD0008EEB94E00E94E00685EC94E00E94E00613
:102BE0008CEC94E00E94E00683ED94E00E94E00605
:102BF0008AED94E00E94E00681EE94E00E94E006F7
:102C000088EE94E00E94E0068FEE94E00E94E006D9
:102C100086EF94E00E94E0068DEF94E00E94E006CB
:102C200084E095E00E94E0068BE095E00E94E006DB
:102C300088E195E00E946E0380912405909125051E
:102C40000E942D1785E595E00E947E058BE295E0B8
:102C50000C94C6050F931F93CF93DF93009759F4FD
:102C60006115710541F4F0E0E0E0CF01DF91CF9113
:102C70001F910F9108958B01EC016EE070E081E0EF
:102C800090E00E947516FC01892B69F380E883832C
:102C90000115110571F01387028781E88383809104
:102CA000830590918405892B21F4F0938405E093AA
:102CB00083052097D1F2D187C08783818260838387
:102CC0008091850590918605892B79F6F09386058C
:102CD000E09385058091870590918805892B29F6D9
:102CE000F0938805E0938705C0CF0F931F93CF9390
:102CF000DF93869F8001879F100D969F100D1124F2
:102D0000C8010E949116EC01009729F0A80170E01B
:102D100060E00E94B617CE01DF91CF911F910F9115
:102D200008950F931F93CF93DF938230910510F492
:102D300082E090E0E0918B05F0918C0530E020E09E
:102D4000B0E0A0E0309799F42115310509F44AC0AC
:102D5000281B390B24303105D8F58A819B816115F8
:102D6000710589F1FB0193838283FE0111C04081CB
:102D700051810281138148175907E0F0481759071C
:102D800099F4109761F012960C93129713961C9376
:102D90003296CF01DF91CF911F910F91089500934B
:102DA0008B0510938C05F4CF2115310551F0421796
:102DB000530738F0A901DB019A01BD01DF01F801D9
:102DC000C1CFEF01F9CF90938C0580938B05CDCFC8
:102DD000FE01E20FF31F8193919322503109398351
:102DE0002883D7CF2091890530918A05232B41F480
:102DF000209102013091030130938A0520938905C7
:102E000020910001309101012115310541F42DB7C8
:102E10003EB74091040150910501241B350BE09110
:102E20008905F0918A05E217F307A0F42E1B3F0BEA
:102E30002817390778F0AC014E5F5F4F241735072C
:102E400048F04E0F5F1F50938A0540938905819388
:102E500091939FCFF0E0E0E09CCFCF93DF9300977A
:102E6000E9F0FC01329713821282A0918B05B09198
:102E70008C05ED0130E020E01097A1F42081318134
:102E8000820F931F2091890530918A0528173907F1
:102E900009F061C0F0938A05E0938905DF91CF9135
:102EA0000895EA01CE17DF07E8F54A815B819E01AC
:102EB00041155105B1F7E901FB83EA834991599125
:102EC000C40FD51FEC17FD0761F480819181029634
:102ED000840F951FE90199838883828193819B8365
:102EE0008A83F0E0E0E012968D919C911397009711
:102EF000B9F52D913C911197CD010296820F931F48
:102F00002091890530918A052817390739F63097BD
:102F100051F510928C0510928B05B0938A05A09301
:102F20008905BCCFD383C28340815181840F951F13
:102F3000C817D90761F44E5F5F4F88819981480FA8
:102F4000591F518340838A819B81938382832115FA
:102F5000310509F0B0CFF0938C05E0938B059ECF3F
:102F6000FD01DC01C0CF13821282D7CFDC0101C08A
:102F70006D9341505040E0F70895EE0FFF1F05900C
:102F8000F491E02D09945058BB27AA270E94DB1723
:102F90000C9455190E94471938F00E944E1920F0E0
:102FA00039F49F3F19F426F40C9444190EF4E0957B
:102FB000E7FB0C943E19E92F0E94661958F3BA17E3
:102FC000620773078407950720F079F4A6F50C943F
:102FD00088190EF4E0950B2EBA2FA02D0B01B90124
:102FE00090010C01CA01A0011124FF27591B99F07F
:102FF000593F50F4503E68F11A16F040A22F232F8B
:10300000342F4427585FF3CF469537952795A795DA
:10301000F0405395C9F77EF41F16BA0B620B730B81
:10302000840BBAF09150A1F0FF0FBB1F661F771FF2
:10303000881FC2F70EC0BA0F621F731F841F48F4A7
:10304000879577956795B795F7959E3F08F0B0CF30
:103050009395880F08F09927EE0F97958795089517
:103060000E941A1908F481E008950E9449180C94EE
:1030700055190E944E1958F00E94471940F029F442
:103080005F3F29F00C943E1951110C9489190C944E
:1030900044190E94661968F39923B1F3552391F3FB
:1030A000951B550BBB27AA2762177307840738F0B7
:1030B0009F5F5F4F220F331F441FAA1FA9F335D014
:1030C0000E2E3AF0E0E832D091505040E695001CC8
:1030D000CAF72BD0FE2F29D0660F771F881FBB1F82
:1030E000261737074807AB07B0E809F0BB0B802D60
:1030F000BF01FF2793585F4F3AF09E3F510578F08C
:103100000C943E190C9489195F3FE4F3983ED4F374
:10311000869577956795B795F7959F5FC9F7880F5F
:10312000911D9695879597F90895E1E0660F771FB1
:10313000881FBB1F621773078407BA0720F0621B42
:10314000730B840BBA0BEE1F88F7E09508950E946D
:10315000AE186894B1110C94891908950E946E19E3
:1031600088F09F5798F0B92F9927B751B0F0E1F048
:10317000660F771F881F991F1AF0BA95C9F714C0F8
:10318000B13091F00E948819B1E008950C9488192B
:10319000672F782F8827B85F39F0B93FCCF3869531
:1031A00077956795B395D9F73EF49095809570958E
:1031B00061957F4F8F4F9F4F0895E89409C097FB0B
:1031C0003EF490958095709561957F4F8F4F9F4FFE
:1031D0009923A9F0F92F96E9BB279395F695879542
:1031E00077956795B795F111F8CFFAF4BB0F11F405
:1031F00060FF1BC06F5F7F4F8F4F9F4F16C08823AC
:1032000011F096E911C0772321F09EE8872F762FE1
:1032100005C0662371F096E8862F70E060E02AF022
:103220009A95660F771F881FDAF7880F969587950E
:1032300097F90895990F0008550FAA0BE0E8FEEFE3
:1032400016161706E807F907C0F012161306E4076A
:10325000F50798F0621B730B840B950B39F40A2663
:1032600061F0232B242B252B21F408950A2609F441
:10327000A140A6958FEF811D811D089597F99F6745
:1032800080E870E060E008959FEF80EC08950024EE
:103290000A941616170618060906089500240A94BB
:1032A00012161306140605060895092E0394000C41
:1032B00011F4882352F0BB0F40F4BF2B11F460FFD0
:1032C00004C06F5F7F4F8F4F9F4F089557FD9058F9
:1032D000440F551F59F05F3F71F04795880F97FBDA
:1032E000991F61F09F3F79F0879508951216130694
:1032F0001406551FF2CF4695F1DF08C016161706C3
:103300001806991FF1CF86957105610508940895F7
:10331000E894BB2766277727CB0197F908950E9489
:10332000A2190C9455190E94471938F00E944E19A1
:1033300020F0952311F00C943E190C94441911249B
:103340000C9489190E94661970F3959FC1F3950F2B
:1033500050E0551F629FF001729FBB27F00DB11D19
:10336000639FAA27F00DB11DAA1F649F6627B00DA9
:10337000A11D661F829F2227B00DA11D621F739F92
:10338000B00DA11D621F839FA00D611D221F749FA0
:103390003327A00D611D231F849F600D211D822FE7
:1033A000762F6A2F11249F5750409AF0F1F088230E
:1033B0004AF0EE0FFF1FBB1F661F771F881F91503B
:1033C0005040A9F79E3F510580F00C943E190C9493
:1033D00089195F3FE4F3983ED4F386957795679516
:1033E000B795F795E7959F5FC1F7FE2B880F911D65
:1033F0009695879597F90895FA01EE0FFF1F30967D
:1034000021053105A1F16115710561F48038BFE333
:103410009B0749F168949038810561F08038BFEFCF
:103420009B0741F099234AF5FF3FE105310521054E
:1034300019F1E8940894E795D901AA2329F4AB2F50
:10344000BE2FF85FD0F310C0FF5F70F4A695E0F7D1
:10345000F73950F019F0FF3A38F49F779F930DD069
:103460000F9007FC9058089546F00C94441960E0C2
:1034700070E080E89FE308954FE79F775F934F9355
:103480003F932F930E94F71A2F913F914F915F9195
:103490000E948F190C94541A29F416F00C943E19BA
:1034A0000C9488190C9444190E946E19A8F396384C
:1034B000A0F707F80F92E8942BE33AEA48EB5FE7AE
:1034C0000E94A5190F920F920F924DB75EB70F92FF
:1034D0000E943F1BE8E6F0E00E94861A4F915F9140
:1034E000EF91FF91E595EE1FFF1F49F0FE57E06851
:1034F0004427EE0F441FFA95E1F74195550B0E94C2
:10350000B91A0F9007FE0C94AD1A0895DF93CF936C
:103510001F930F93FF92EF92DF927B018C016894CF
:1035200006C0DA2EEF010E94A219FE01E894A591CF
:103530002591359145915591A6F3EF010E94DB1736
:10354000FE019701A801DA9469F7DF90EF90FF90F0
:103550000F911F91CF91DF9108959B01AC0160E025
:1035600070E080E89FE30C9435180C943E190C949D
:10357000731B0E946E19D8F39923C9F3940F511D40
:10358000A3F39150504094F059F0882332F0660F25
:10359000771F881F91505040C1F79E3F51052CF76F
:1035A000880F911D9695879597F908955F3FACF028
:1035B000983E9CF0BB27869577956795B79508F45C
:1035C000B1609395C1F7BB0F58F711F460FFE8CFD6
:1035D0006F5F7F4F8F4F9F4FE3CF0C94891916F089
:1035E0000C94731B0C94441968940C943E190E941B
:1035F0006E19A8F39923C1F3AEF3DF93CF931F9312
:103600000F93FF92C92FDD2788232AF02197660F99
:10361000771F881FDAF720E030E040E85FEB9FE398
:10362000883920F0803E38F021968F770E94C417A9
:10363000E0E9F0E004C00E94C417EDEBF0E00E9466
:10364000861A8B01BE01EC01FB2E6F57710975952F
:10365000771F880B990B0E94DF1828E132E741E3BE
:103660005FE30E94A219AF2D9801AE01FF900F9168
:103670001F91CF91DF910E94DB170C945519FA012D
:10368000DC01AA0FBB1F9B01AC01BF5728F4222706
:1036900033274427507820C0B75190F4AB2F002433
:1036A000469537952795011CA395D2F3002071F01C
:1036B000220F331F441FB395DAF30ED00C94C317B7
:1036C00061307105A0E88A07B94630F49B01AC016E
:1036D0006627772788279078309621F020833183DA
:1036E0004283538308959F3F31F0915020F4879592
:1036F00077956795B795880F911D9695879597F95A
:10370000089581E090E0F8940C94861B10E0CEE9D7
:10371000D0E004C0FE010E94BD172196CF39D10729
:06372000C9F7F894FFCF89
:1037260000008D0580001800000000000000000069
:10373600E8FFE8FF000000000000140000000000A1
:1037460000000000ECFFECFF00000000000000009D
:103756000000DD05D706000000009505C9064C05EA
:1037660049056D06460566043B050005E704CE04DB
:10377600CC048D046904020000000000A805CB06F5
:10378600FEFFFEFF00009605CD06060000000000C5
:103796006005BD06FAFFFAFF00004E05BF068C0164
:1037A6000C01160196011800000000007E05A70610
:1037B600E8FFE8FF00008B05B106A80120012A01F9
:1037C600B201140000000000C6059306ECFFECFFF2
:1037D6000000D3059D0600000000010361028E0271
:1037E6004E03BF029D02B10200000000C900390469
:1037F600160400000000C9003904AF034875623A98
:10380600204F4B0A004875623A204552520A004240
:103816006F6F74696E672048756200536572766FC4
:10382600206D313A204F4B0A00536572766F206D3A
:10383600313A204552520A00536572766F206D3236
:103846003A4F4B0A00536572766F206D323A4552F5
:10385600520A00426F6F74696E6720536572766F05
:10386600206D0052504C69646172206C3A204F4BB7
:103876000A0052504C69646172206C3A20455252DB
:103886000A00426F6F74696E672052504C6964611A
:1038960072005345545550202F2F2F2F2F2F2F0AAC
:1038A60000426F6F74696E67207C200043616C6311
:1038B600756C6174696E6720526F757465207C2023
:1038C60000534554555020436F6D706C65746564A4
:1038D600202F2F2F2F2F2F2F0A00426F6F74696E04
:1038E6006720436F6D706C65746564202F2F2F2FD2
:1038F6002F2F2F0A00526F75746520466F756E6400
:1039060021202F2F2F2F2F2F2F0A0058002E2E2E3B
:103916000A00210A005469636B2023003020332EED
:103926003220352E3625332E322030203025352EC6
:103936003620302030257C3020333020302533307F
:1039460020302030253020302030257C3330203484
:10395600302030257C00207C2031303025200000AE
:00000001FF
