:100000000C9459000C9481000C9481000C94810094
:100010000C9481000C9481000C9481000C9481005C
:100020000C9481000C9481000C9481000C947D113F
:100030000C9481000C9481000C9481000C9481003C
:100040000C94DB100C9481000C944B110C94251132
:100050000C9481000C9481000C9481000C9481001C
:100060000C9481000C948100000000002500280001
:100070002B00040404040404040402020202020229
:10008000030303030303010204081020408001025C
:1000900004081020010204081020000000080002DB
:1000A0000100000304070000000000000000181415
:1000B000021911241FBECFEFD8E0DEBFCDBF12E082
:1000C000A0E0B1E0EEEFFDE302C005900D92A43B8D
:1000D000B107D9F726E0A4EBB2E001C01D92AF3C16
:1000E000B207E1F710E0C8E5D0E004C02197FE01B7
:1000F0000E94071BC735D107C9F70E942F160C9421
:10010000F21E0C940000FC014283538364837583C8
:1001100086819781A085B185840F951FA61FB71F83
:1001200082879387A487B58708951F93CF93DF9322
:10013000182FC091C604D091C7048A3041F4E881D9
:10014000F9810190F081E02D6DE0CE010995E88103
:10015000F9810190F081E02D612FCE01099521E018
:1001600030E0019711F430E020E0C901DF91CF9138
:100170001F910895CF93DF93C091C604D091C70417
:10018000E881F9810084F185E02DCE010995892B64
:10019000B9F3E881F9810284F385E02DCE01DF9186
:1001A000CF910994CF93DF93A9EBB5E0FD01C19105
:1001B000D191209741F049895A89EC0129893A89DE
:1001C00042175307D1F0D5E0E73DFD0781F730E056
:1001D00020E04D915D91452B91F4220F331FF901E1
:1001E000EA55FA4F948B838B8091D7059091D8056F
:1001F00001969093D8058093D70581E006C02F5FC4
:100200003F4F2F30310529F780E0DF91CF910895DE
:1002100090E0FC01E656FF4F2491FC01EA57FF4FA6
:100220003491FC01EE58FF4FE491EE23C9F02223F4
:1002300039F0233001F1A8F4213019F1223029F1ED
:10024000F0E0EE0FFF1FE859FF4FA591B4918FB773
:10025000F894EC91611126C030953E233C938FBFFA
:1002600008952730A9F02830C9F0243049F780914B
:1002700080008F7D03C0809180008F778093800005
:10028000DFCF84B58F7784BDDBCF84B58F7DFBCF87
:100290008091B0008F778093B000D2CF8091B00072
:1002A0008F7DF9CF3E2BDACF2FB7F8946091BB0248
:1002B0007091BC028091BD029091BE022FBF089543
:1002C000DC01ED91FC910190F081E02D0994AF9259
:1002D000BF92CF92DF92EF92FF920F931F93CF9333
:1002E000DF936C017B018B01040F151FEB015E0195
:1002F000AE18BF08C017D10759F06991D601ED912A
:10030000FC910190F081E02DC6010995892B79F7C8
:10031000C501DF91CF911F910F91FF90EF90DF907A
:10032000CF90BF90AF900895FC01538D448D252F41
:1003300030E0842F90E0821B930B541710F0CF967F
:10034000089501970895FC01918D828D981761F0B1
:10035000A28DAE0FBF2FB11D5D968C91928D9F5FC8
:100360009F73928F90E008958FEF9FEF0895FC01A7
:10037000918D828D981731F0828DE80FF11D858D5A
:1003800090E008958FEF9FEF0895FC01918D228DED
:10039000892F90E0805C9F4F821B91098F73992772
:1003A00008958AEC94E00E94C50121E0892B09F4AC
:1003B00020E0822F089580E090E0892B29F00E94B0
:1003C000D10181110C9400000895FC01A48DA80FA7
:1003D000B92FB11DA35ABF4F2C91848D90E0019687
:1003E0008F739927848FA689B7892C93A089B189A7
:1003F0008C91837080648C93938D848D981306C048
:100400000288F389E02D80818F7D80830895EF92AB
:10041000FF920F931F93CF93DF93EC0181E0888FBE
:100420009B8D8C8D98131AC0E889F989808185FF8E
:1004300015C09FB7F894EE89FF896083E889F98930
:1004400080818370806480839FBF81E090E0DF9132
:10045000CF911F910F91FF90EF900895F62E0B8D85
:1004600010E00F5F1F4F0F731127E02E8C8D8E1140
:100470000CC00FB607FCFACFE889F989808185FFA7
:10048000F5CFCE010E94E501F1CFEB8DEC0FFD2FF2
:10049000F11DE35AFF4FF0829FB7F8940B8FEA8962
:1004A000FB8980818062CFCFCF93DF93EC01888D71
:1004B0008823B9F0AA89BB89E889F9898C9185FDDF
:1004C00003C0808186FD0DC00FB607FCF7CF8C916D
:1004D00085FFF2CF808185FFEDCFCE010E94E5013F
:1004E000E9CFDF91CF9108950F931F93CF93DF93BF
:1004F000FC01C081D181209709F18C01E881F9814B
:100500000680F781E02DCE010995EA89FB8980817B
:100510008F7E8083EA89FB898081877F8083EA8957
:10052000FB8980818F778083EA89FB8980818F7D39
:1005300080838A8D898FF80111821082DF91CF919B
:100540001F910F91089561E0FC0184810E940801D0
:100550008091B50281111092B50208958EBD000000
:100560000DB407FEFDCF8EB508958FEF0C94AE024B
:100570000F931F93CF93DF93EC010E9454018B01E3
:100580000E94B5028F3F69F00E945401601B710BFD
:100590006C177D07A8F380E0DF91CF911F910F9139
:1005A000089581E0F9CFCF92DF92EF92FF920F93FF
:1005B0001F93CF93DF93EC01162F69017A018E818F
:1005C000882389F08F8198859C012F5F3F4F388762
:1005D0002F838230924018F40E94B502F3CFCE01EF
:1005E0000E94A3021E828091B502811109C081E0A0
:1005F0008093B5029091C4048091C5049CBD8DBDCB
:1006000060E08C810E9408018CE291E00E94B802B7
:10061000812F80640E94AE0208E110E0D701C6017C
:10062000002E04C0B695A795979587950A94D2F7A2
:100630000E94AE0208501109083F8FEF180771F7AA
:100640008FEF0E94AE0210E00E94B5028A8787FFFA
:1006500004C01F3F11F01F5FF7CFDF91CF911F91B3
:100660000F91FF90EF90DF90CF900895AF92BF92DF
:10067000CF92DF92EF92FF920F931F93CF93DF936E
:10068000EC016901C801820F931F8130924050F53F
:100690008E81882379F088819981AA81BB81841712
:1006A0009507A607B70731F48F819885C816D90634
:1006B00008F042C0488359836A837B838B858330EB
:1006C00039F089E0440F551F661F771F8A95D1F7CF
:1006D0009A01AB0161E1CE010E94D302882389F027
:1006E00083E08D83CE010E94A30280E0DF91CF9151
:1006F0001F910F91FF90EF90DF90CF90BF90AF9040
:1007000008950E9454015B010E94B5028A878F3FC1
:1007100069F40E9454016A197B096D327140A0F39B
:100720008FE08D83CE010E94A302DCCF8E3F89F43F
:1007300018861F8281E08E838F8198858C159D0598
:1007400050F40E94B5028F819885019698878F8317
:10075000F3CF8DE0E6CF6701E00EF11E0E94B502F7
:10076000F60181936F01EE15FF05C1F78F81988522
:10077000080F191F18870F838985882319F0011521
:100780001240A0F08E81882389F08F8198859C018A
:100790002F5F3F4F38872F838230924018F40E949A
:1007A000B502F3CFCE010E94A3021E8281E09ECF4C
:1007B000CF92DF92EF92FF920F93CF93DF93EC01F2
:1007C000690182E1411551056105710599F08B853B
:1007D000833039F089E0440F551F661F771F8A95D3
:1007E000D1F79A01AB0168E1CE010E94D3028823C0
:1007F00019F084E08D832DC08EEF0E94AE02760149
:100800008EEFD81AF70181917F010E94AE02EC149D
:10081000FD04C1F78FEF0E94AE028FEF0E94AE027F
:100820000E94B5028A878F71853071F4011116C05C
:10083000CE010E94A30281E0DF91CF910F91FF9042
:10084000EF90DF90CF90089581E18D83CE010E94DB
:10085000A302CE010E94A30280E0EECF88E592E0E1
:100860000E94B802811102C085E1C4CF20E030E0CF
:10087000A9016DE0CE010E94D302882311F084E12A
:10088000B9CF0E94B5028111FACFD2CF0F938091D8
:10089000C3048823A1F140910001509101016091AE
:1008A00002017091030101E023EC32E090E080E06E
:1008B0000E94D803811103C080E00F9108954091F8
:1008C000BF025091C0026091C1027091C2024115F5
:1008D00051056105710589F001E023EC32E090E0FB
:1008E00080E00E94D803882339F31092BF0210924F
:1008F000C0021092C1021092C2021092C30481E0A1
:10090000DCCF8F929F92AF92BF92EF92FF920F93A4
:100910001F93CF934B015C01C42F809100019091F4
:100920000101A0910201B091030188159905AA0562
:10093000BB0539F10E94460481110BC080E0CF91C4
:100940001F910F91FF90EF90BF90AF909F908F906D
:10095000089583ECE82E82E0F82E00E012E030E00B
:1009600020E0B501A40190E080E00E9436038823D6
:1009700029F38092000190920101A0920201B092AD
:1009800003014091C3044C2B4093C30481E0D7CFB3
:10099000CF93DF93FC01248127FF2BC0EC016685F8
:1009A00077858089918941E00E948104882329F11B
:1009B000EA8980E2E89FF0011124ED53FD4F309762
:1009C000E1F08D81823040F48B899C89AD89BE89AC
:1009D000848F958FA68FB78F8F89988D938F828FF5
:1009E0008F89988DA98DBA8DB58BA48B8C818F77CB
:1009F0008C83DF91CF910C94460480E0DF91CF91FE
:100A000008954F925F926F927F928F929F92AF92D2
:100A1000BF92CF92DF92EF92FF920F931F93CF93EB
:100A2000DF93EC01423051056105710590F480E0DF
:100A3000DF91CF911F910F91FF90EF90DF90CF90BA
:100A4000BF90AF909F908F907F906F905F904F90EE
:100A5000089589859A85AB85BC850196A11DB11D38
:100A600084179507A607B70710F3CB88DC88ED88B5
:100A7000FE888F89803109F042C0BB27A72F962FAF
:100A8000852F480159012A013B01C80ED91EEA1ED3
:100A9000FB1E8091000190910101A0910201B09193
:100AA0000301C816D906EA06FB0699F58F8980313D
:100AB000C1F5B301A201552766277727440F551FBB
:100AC0004D535D4FFA01918280828091C304816011
:100AD0008093C3048A89823080F08D819E81AF81AA
:100AE000B8858C0D9D1DAE1DBF1D8093BF029093D8
:100AF000C002A093C102B093C20281E099CFDB0192
:100B0000CA01E7E0B695A79597958795EA95D1F73D
:100B1000B8CF40E0C701B6010E9481048111C6CF61
:100B200086CFB301A2014F77552766277727440F59
:100B3000551F440F551F4D535D4FFA01808291821E
:100B4000A282B382C2CF8F929F92AF92BF92CF9276
:100B5000DF92EF92FF920F931F93CF93DF93FC01ED
:100B600081859285A385B4850196A11DB11D841749
:100B70009507A607B70770F480E0DF91CF911F912A
:100B80000F91FF90EF90DF90CF90BF90AF909F902C
:100B90008F90089583889488A588B6888789803146
:100BA00089F5BB27A72F962F852FE9016A017B01C5
:100BB0008F01BC01CD01680D791D8A1D9B1D8090A0
:100BC000000190900101A0900201B09003018616EF
:100BD0009706A806B90601F5F8018789803111F555
:100BE000DD24EE24FF24F601EE0FFF1FED53FD4F31
:100BF00080819181B0E0A0E088839983AA83BB8340
:100C000081E0BBCFDB01CA01C7E0B695A7959795F8
:100C10008795CA95D1F7C9CF40E00E948104811120
:100C2000DBCFAACFE894C7F8DD24EE24FF24F60139
:100C3000EE0FFF1FEE0FFF1FED53FD4F80819181DF
:100C4000A281B381BF70D8CF2F923F924F925F9213
:100C50006F927F928F929F92AF92BF92CF92DF92CC
:100C6000EF92FF920F931F93CF93DF93EC014B0111
:100C70008D81811115C08FEF9FEFDF91CF911F9173
:100C80000F91FF90EF90DF90CF90BF90AF909F902B
:100C90008F907F906F905F904F903F902F9008952E
:100CA0008C8180FFE8CF4B895C896D897E898A853C
:100CB0009B85AC85BD85412C481759076A077B0782
:100CC00011F044244394512C52011E0126E0220EBF
:100CD000311CA114B10409F4B1C04A855B856C854F
:100CE0007D856A0181E0D8228B8D9C8D8A019B01D4
:100CF000E9E03695279517950795EA95D1F7ED81A7
:100D0000E230E1F5FC01628D738D848D958D600F6D
:100D1000711F821F931F612C22E0722E6C187D08B8
:100D2000A614B70408F435012C8126FD04C0611413
:100D3000F2E07F0671F40091000110910101209111
:100D4000020130910301061717072807390709F038
:100D500053C040E00E948104882309F48CCFC6016F
:100D60008D539D4FD4019C01260D371DFC012E177C
:100D70003F0709F45EC041914D93F9CFFC017480A7
:100D80007A947022C114D10471F471100CC0452BF7
:100D9000462B472B39F58F89988DA98DBA8D8E8377
:100DA0009F83A887B987EB8DFC8D6E817F818885B5
:100DB00099856250710981099109258504C0660FE2
:100DC000771F881F991F2A95D2F7068517852089D6
:100DD0003189600F711F821F931F670D711D811D67
:100DE000911D99CF4E815F816885798591010E941F
:100DF000A3058111D8CF3FCF740183019601AB01C8
:100E0000BC0190E080E00E943603882309F433CFD0
:100E1000860C971C8A859B85AC85BD85860D971DA4
:100E2000A11DB11D8A879B87AC87BD87A618B7080F
:100E300050CF281B390B820E931EECCFC2011DCF61
:100E40008F929F92AF92BF92CF92DF92EF92FF92DA
:100E50000F931F93CF93DF93EC018D8181110EC00F
:100E600080E0DF91CF911F910F91FF90EF90DF9085
:100E7000CF90BF90AF909F908F9008950B891C8961
:100E80002D893E89041715072607370748F34A01BD
:100E90005B01823031F48A869B86AC86BD8681E018
:100EA000E0CF81149104A104B10449F41E821F8291
:100EB000188619861A861B861C861D86F0CF0A8521
:100EC0001B852C853D85EB8DFC8D858590E00996F5
:100ED000B901A8014150510961097109082E04C0E6
:100EE00076956795579547950A94D2F775016401F1
:100EF000E1E0CE1AD108E108F10804C0F694E794C5
:100F0000D794C7948A95D2F7C416D506E606F70695
:100F100020F0012B022B032B11F58F89988DA98DC1
:100F2000BA8D8E839F83A887B9878E010A5F1F4F72
:100F3000C114D104E104F10409F4ADCF4E815F8105
:100F40006885798598018B8D9C8D0E94A30591E021
:100F5000C91AD108E108F1088111EACF81CFC41A7A
:100F6000D50AE60AF70AE1CF3F924F925F926F925D
:100F70007F928F929F92AF92BF92CF92DF92EF9229
:100F8000FF920F931F93CF93DF93CDB7DEB72C97CC
:100F90000FB6F894DEBF0FBECDBF5C01DC015B96DF
:100FA0008D909C905C9716964D905D906D907C9086
:100FB0001997411451046104710409F468C0BFEF2A
:100FC0004B1A5B0A6B0A7B0A312CF40181859285EE
:100FD000A385B4859C01AD012F5F3F4F4F4F5F4FFD
:100FE00029873A874B875C87730162011D821E82C5
:100FF0001F821886F40181859285A385B4852D8191
:101000003E814F815885281739074A075B0708F04A
:1010100056C089859A85AB85BC858C159D05AE0526
:10102000BF0550F482E0C82ED12CE12CF12C92E0C7
:10103000492E512C612C712C9E012F5F3F4FB7011F
:10104000A601C4010E94A3058823C9F189819A8160
:10105000AB81BC81892B8A2B8B2B09F126013701AF
:101060009FEF491A590A690A790A2D813E814F81F9
:1010700058852F5F3F4F4F4F5F4F2D833E834F83E8
:1010800058873FEFC31AD30AE30AF30AB3CFF40138
:1010900040805180628073803324339496CFC4148F
:1010A000D504E604F70409F70FEF1FEF2FEF3FE039
:1010B000B701A601C4010E940105811119C080E099
:1010C0002C960FB6F894DEBF0FBECDBFDF91CF9147
:1010D0001F910F91FF90EF90DF90CF90BF90AF9056
:1010E0009F908F907F906F905F904F903F9008956A
:1010F000D50116964D915D916D917C911997411591
:1011000051056105710539F097018601C4010E94FE
:1011100001058823A1F2D5011696CD92DD92ED92BC
:10112000FC921997332051F0D701C6010196A11DF9
:10113000B11DF40180839183A283B383F501878974
:10114000908DA18DB28D892B8A2B8B2B39F48481C4
:10115000C78AD08EE18EF28E80688483F501848107
:101160008062848381E0ACCFFC01818D928D0097F9
:1011700029F0FC01258121110C94C8040895DC019B
:101180005996ED91FC913097B9F083899489A5899E
:10119000B6894285538564857585841B950BA60B9E
:1011A000B70B811520E89207A105B10538F08FEF44
:1011B0009FE7A0E0B0E0089590E080E00895CF932D
:1011C000DF931F92CDB7DEB7FC01818D928D009722
:1011D00069F0BE016F5F7F4F0E942406019731F4D2
:1011E000898190E00F90DF91CF9108958FEF9FEF6D
:1011F000F9CFEF92FF920F931F93CF93DF931F923C
:10120000CDB7DEB7FC01818D928D10E000E0009734
:10121000D1F07F01BE016F5F7F4F0E9424060FEF68
:101220001FEF019781F4098110E0F701818D928D04
:10123000FC014285538564857585415051096109DA
:1012400071090E942007C8010F90DF91CF911F9173
:101250000F91FF90EF900895DC0159968D919C912C
:10126000009739F0DC01ED91FC910480F581E02DCF
:10127000099490E080E008952F923F924F925F9200
:101280006F927F928F929F92AF92BF92CF92DF9296
:10129000EF92FF920F931F93CF93DF9300D000D074
:1012A00000D01F92CDB7DEB79E838D835B01342EB5
:1012B0005F83DC015996ED91FC91309709F581E04F
:1012C00090E0ED81FE819383828380E090E0279619
:1012D0000FB6F894DEBF0FBECDBFDF91CF911F9147
:1012E0000F91FF90EF90DF90CF90BF90AF909F90C5
:1012F0008F907F906F905F904F903F902F900895C8
:1013000013821282AD81BE815996ED90FC90F70157
:101310008581813009F0C3C0248021FEC0C022FC39
:10132000ABC0C32CDF8022947FE027222094F22DD3
:10133000F1702F2EF7014285538564857585C114A0
:10134000D10409F41DC1838D948DDC0114967C9029
:101350007A948A019B0169E0369527951795079540
:101360006A95D1F770228A01117071101CC00115A5
:101370001105C9F446815781608571854115510574
:101380006105710509F092C08789908DA18DB28D9C
:101390000097A105B10509F0ABC0C7010E94B407D1
:1013A000882309F47CC080E092E0801B910B460109
:1013B0008C159D0508F44C01D7015B964D915C910D
:1013C0005C9716968D919D910D90BC91A02D0297E2
:1013D000A109B109FA01258504C0880F991FAA1F28
:1013E000BB1F2A95D2F74685578560897189840F7E
:1013F000951FA61FB71F9C01AD01270D311D411D73
:10140000511D29013A01811432E0930609F076C09A
:101410008091000190910101A0910201B09103011E
:10142000481659066A067B0659F48FEF9FEFDC01D8
:101430008093000190930101A0930201B0930301F6
:10144000022D9501B301A20190E080E00E94D80333
:10145000882329F19EEFB91AC818D908F7018285A7
:101460009385A485B585880D991DA11DB11D828721
:101470009387A487B5875ECF438954896589768928
:1014800082859385A485B585481759076A077B0728
:1014900009F447CFC7010E942007811142CF81E0A4
:1014A00090E0F7019383828380E007C09E012F5F65
:1014B0003F4F0E94A305811102C090E077C089814F
:1014C0009A81AB81BC81F701238D348DF901278985
:1014D00048EF5FEF60E070E0203121F048EF5FEF10
:1014E0006FEF7FE084179507A607B70708F055CF81
:1014F000F70186839783A087B18755CF0115110522
:1015000091F5D7011A964D915D916D917C911D9742
:1015100053968D919D910D90BC91A02D4817590720
:101520006A077B0700F10E944604882309F4B7CFBD
:1015300040920001509201016092020170920301F9
:101540008091C30481608093C304C8018D539D4F73
:10155000D5019C01280D391DFC012E173F0759F0BC
:101560004D914193FACF41E0C301B2010E94810441
:101570008111EBCF94CF281B390BA20EB31E6CCF79
:1015800083899489A589B68984179507A607B70723
:1015900038F48481438B548B658B768B806884838D
:1015A000F701848183FD0DC0832D9F81AD81BE81B4
:1015B0005996ED91FC9122813381232B09F07FCE46
:1015C00086CE8581882309F46ACFC7010E94C804AA
:1015D0008111EACF64CFCF93DF931F92CDB7DEB7EF
:1015E0006983DC01ED91FC910280F381E02D41E003
:1015F00050E0BE016F5F7F4F09950F90DF91CF9153
:1016000008958F929F92AF92BF92CF92DF92EF9206
:10161000FF920F931F93CF93DF93EC01EE85FF852D
:10162000309709F009950E9454014B015C018E012D
:101630000D5E1F4F6E0121E3C20ED11CF12CE12C77
:1016400089A99AA98E159F0514F1D8018D919D91B4
:101650008D010097C9F0BFEFEB1AFB0ADC01ED9199
:10166000FC910280F381E02DB501A4010995882346
:1016700059F0F801329780819181DC01ED91FC9164
:101680000480F581E02D0995C016D106C9F60E94A7
:1016900054016E837F83888799870A811B812C81FF
:1016A0003D81DC01CB01800F911FA21FB31F8A87F0
:1016B0009B87AC87BD87DF91CF911F910F91FF90E2
:1016C000EF90DF90CF90BF90AF909F908F90089554
:1016D0000F931F93CF93DF93EC01EE85FF85309737
:1016E00009F009950E9454016E837F83888799874A
:1016F0000A811B812C813D81DC01CB01800F911F70
:10170000A21FB31F8A879B87AC87BD87DF91CF91CC
:101710001F910F9108950F931F93FC01028513856C
:1017200024853585401B510B620B730B80E077FFDE
:1017300080891F910F910895CF93DF93EC01E88189
:10174000F9810288F389E02D09958F3F980731F0E0
:101750002D813E812F5F3F4F3E832D83DF91CF91BF
:1017600008958FEF9FEF089560E070E0CB0108953A
:1017700090E080E00895FF920F931F93CF93DF9343
:101780008C01EB016F3F7607B9F0F62EEAE06E139D
:1017900006C06DE0F801808991890E9460016F2D7B
:1017A000F801808991890E946001CE01DF91CF917B
:1017B0001F910F91FF900895D0E0C0E0F6CF7F9287
:1017C0008F929F92AF92BF92CF92DF92EF92FF9251
:1017D0000F931F93CF93DF938C0149015A01EB01C3
:1017E000C12CD12C7601C814D904EA04FB04B4F44A
:1017F00079908AE0781206C06DE0F80180899189BD
:101800000E946001672DF801808991890E94600122
:10181000FFEFCF1ADF0AEF0AFF0AE5CFC501B401D7
:10182000DF91CF911F910F91FF90EF90DF90CF90BC
:10183000BF90AF909F908F907F900895CB010895B7
:10184000CF93DF93EC0188899989DC01ED91FC91BC
:101850000084F185E02D0995892BA9F38889998960
:10186000DC01ED91FC910284F385E02DDF91CF91B5
:101870000994CF93DF93EC0188899989DC01ED917C
:10188000FC910084F185E02D0995892BA9F38889C5
:101890009989DC01ED91FC910484F585E02DDF91BF
:1018A000CF9109948F929F92AF92BF92CF92DF9285
:1018B000EF92FF920F931F93CF93DF938C01490117
:1018C0005A01EB01C12CD12C7601D80150968D9193
:1018D0009C91DC01ED91FC910284F385E02D09954A
:1018E0008F3F61F0C814D904EA04FB043CF48993E7
:1018F000BFEFCB1ADB0AEB0AFB0AE7CFC701B60141
:10190000DF91CF911F910F91FF90EF90DF90CF90DB
:10191000BF90AF909F908F900895DC0150968D916D
:101920009C91DC01ED91FC910084F185E02D0994FE
:1019300090E080E0089590E080E008950895089593
:10194000DC01ED91FC9136970190F081E02DE80FDC
:10195000F91F84E791E0918380838EE791E097837C
:101960008683089524E731E0FC01318320832EE74C
:1019700031E0378326830895FB0120813181FC010A
:1019800031832083FB014281538126503109F901C3
:1019900020813181820F931FFC0151834083089580
:1019A00020E931E0FC01318320832AE931E0318FE5
:1019B000208F64E871E00C94BC0CDC01ED91FC918B
:1019C000369720813181820F931F0C94D00C08959B
:1019D000DC01ED91FC9136970190F081E02DE80F4C
:1019E000F91F80E691E0918380838AE691E09383FA
:1019F0008283089520E631E0FC01318320832AE6CA
:101A000031E0338322830895FB0120813181FC0181
:101A100031832083FB014281538126503109F90132
:101A200020813181820F931FFC01518340830895EF
:101A30002CEA31E0FC013183208326EB31E0358B49
:101A4000248B60EA71E00C94040DDC01ED91FC91B3
:101A5000369720813181820F931F0C94180D0895C1
:101A600008951F93CF93DF93EC01162F8F8580FF8E
:101A70000BC0E881F9810084F185E02D20E144E08C
:101A800070E060E0CE010995EB85FC85812F90E048
:101A90002D853E85E217F30758F410832B853C858E
:101AA0002F5F3F4F3C872B87DF91CF911F91089588
:101AB000E881F981028CF38DE02DBC01CE01DF912C
:101AC000CF911F910994CF93DF93EC01E881F981C5
:101AD00036970190F081E02DE80FF91F83899489F2
:101AE0000E94310D019679F4E881F98136970190D1
:101AF000F081E02DEC0FFD1F858123893489232B94
:101B000031F082608583CE01DF91CF9108958360AB
:101B1000F9CFCF93DF93EC01E881F98136970190FB
:101B2000F081E02DE80FF91F83899489DC01ED91A4
:101B3000FC910484F585E02D0995019659F4E8811E
:101B4000F98136970190F081E02DEC0FFD1F858122
:101B500081608583CE01DF91CF9108958F929F920E
:101B6000AF92BF92CF92DF92EF92FF920F931F93AB
:101B7000CF93DF938C0149015A01EB01C12CD12C89
:101B80007601C814D904EA04FB0464F46991C8011D
:101B90000E94310D019641F08FEFC81AD80AE80A69
:101BA000F80AEFCF75016401C701B601DF91CF914B
:101BB0001F910F91FF90EF90DF90CF90BF90AF906B
:101BC0009F908F90089590E080E008958F929F926B
:101BD000AF92BF92EF92FF920F931F93CF93DF9339
:101BE000EC017B0149015A01E881F98136970190A6
:101BF000F081E02DE80FF91F03891489D8011F96A1
:101C00008C911F9780FF0BC0ED91FC910084F185B2
:101C1000E02D20E144E070E060E0C8010995D801C2
:101C2000ED91FC91008CF18DE02DA5019401B7019F
:101C3000C80109956F3F7F4F79F4E881F9813697A4
:101C40000190F081E02DEC0FFD1F858123893489FF
:101C5000232B71F082608583CE01DF91CF911F919C
:101C60000F91FF90EF90BF90AF909F908F9008954D
:101C70008360F1CF4F925F926F927F928F929F928B
:101C8000AF92BF92CF92DF92EF92FF920F931F938A
:101C9000CF93DF93EC018B0129013A01E881F981AF
:101CA00036970190F081E02DE80FF91FC484D584A8
:101CB000E684F784C418D508E608F7088381948180
:101CC0008E709927049791F446015701181419044E
:101CD0001A041B04B4F1D701C601F7FE03C080E06B
:101CE00090E0DC01C81AD90AEA0AFB0AA3019201B2
:101CF000B801CE010E94E60DE881F9813697019086
:101D0000F081E02DEC0FFD1F838194818E70992767
:101D1000029749F5E881F98136970190F081E02D2D
:101D2000EC0FFD1F1C141D041E041F04E4F481E0CD
:101D3000C81AD108E108F1086089CE010E94630D3C
:101D4000E9CF81E0881A9108A108B108E881F981FA
:101D500036970190F081E02DEC0FFD1F6089CE01D8
:101D60000E94630DB3CFE881F9813697808191811C
:101D7000C80FD91F1C861D861E861F86DF91CF9136
:101D80001F910F91FF90EF90DF90CF90BF90AF9099
:101D90009F908F907F906F905F904F900895FB0180
:101DA0002481358150E040E0608171810C94E60D22
:101DB0000F931F93CF93DF93EC01E881F9810281A8
:101DC00013810E945401AB01BC01CE01F801DF91E7
:101DD000CF911F910F9109940895EF92FF920F9365
:101DE0001F93CF93DF937C018B01DB011496CD9180
:101DF000DC91FC01D583C483CE0108969383828352
:101E000023E0880F991F2A95E1F70E94B919D7019D
:101E10008D939C939C0150E040E0C417D507B1F02E
:101E2000B901681B790B2115310559F0D801ED91E5
:101E3000FC91E60FF71F68E0D90101900D926A95B9
:101E4000E1F74F5F5F4F285F3F4FE7CFDF91CF91C3
:101E50001F910F91FF90EF900895CF92DF92EF9234
:101E6000FF920F931F93CF93DF93CDB7DEB7A19768
:101E70000FB6F894DEBF0FBECDBF9B01AC0119A217
:101E80008E010F5D1F4F8AE0C82ED12CE12CF12C62
:101E9000CA01B901A70196010E94E51A605DF80127
:101EA00062938F01211531054105510589F730975E
:101EB00031F101900020E9F73197AF01401B510B40
:101EC000B8018AEC94E00E9467018C0142E050E086
:101ED00062EF71E08AEC94E00E946701800F911F2D
:101EE000A1960FB6F894DEBF0FBECDBFDF91CF91A4
:101EF0001F910F91FF90EF90DF90CF90089510E029
:101F000000E0E4CF0E9454010C942D0F0C94820F3A
:101F10000C94551ACF93DF93EC010E94180DCE015B
:101F2000DF91CF910C94551ADC01ED91FC9136971D
:101F300020813181820F931F0C948A0FCF93DF93FE
:101F4000EC010E94D00CCE01DF91CF910C94551A78
:101F5000DC01ED91FC91369720813181820F931F36
:101F60000C949E0F0C94551A0C94551ADC01ED91AB
:101F7000FC91369720813181820F931F0C94B40F0E
:101F80000C94551A0C94551ADC01ED91FC9136977E
:101F900020813181820F931F0C94C20F0C94551A2B
:101FA000FC01808191810C94551AFC018081918102
:101FB0000C94551AEF92FF920F931F93CF93DF93D8
:101FC0007C01D0E0C0E010E000E0F7018081918169
:101FD000248135810217130740F48C0F9D1F0E9446
:101FE000D00F0F5F1F4F2796F0CFDF91CF911F913A
:101FF0000F91FF90EF900C94551A0E94081CEF92DD
:10200000FF920F931F93CF93DF93CDB7DEB7649703
:102010000FB6F894DEBF0FBECDBF8C017B01DC0193
:10202000ED91FC9136970190F081E02DE80FF91FBA
:1020300081899289009711F00E94890DA701FF0CF8
:10204000660B770BD801ED91FC9136970190F081EA
:10205000E02DE00FF11F8381948185FD59C086FF3B
:1020600040C092FF58C089EF91E07F936F935F93D8
:102070004F939F938F931F9284E18F939E012F5FC5
:102080003F4F79013F932F930E940D1C9C01990FA4
:10209000440B550BB701C8010E943A0ED801ED91CF
:1020A000FC9136970190F081E02DE00FF11F8381C4
:1020B00094810FB6F894DEBF0FBECDBF96FF03C06C
:1020C000C8010E94890DC80164960FB6F894DEBF5E
:1020D0000FBECDBFDF91CF911F910F91FF90EF9079
:1020E000089587FF1BC09C012227307292FF08C011
:1020F00082E092E0232B09F0B8CF87E092E0B5CFE1
:102100008CE092E0232B09F0B0CF80E192E0ADCFDC
:1021100085EF91E0AACF8EEF91E0A7CF90E080E02D
:10212000A4CFCF93DF9300D000D000D01F92CDB7C3
:10213000DEB766E376E0CE0101960E94ED0E61E027
:1021400070E08DE696E00E94FF0F0E9454010E940D
:102150002D0FCE0101960E94D00F27960FB6F8944E
:10216000DEBF0FBECDBFDF91CF910895CF93DF9338
:1021700000D000D000D01F92CDB7DEB76FE276E07E
:10218000CE0101960E94ED0E61E070E08DE696E0D2
:102190000E94FF0F0E9454010E942D0FCE01019654
:1021A0000E94D00F27960FB6F894DEBF0FBECDBFAA
:1021B000DF91CF9108951F920F920FB60F921124C5
:1021C0002F933F938F939F93AF93BF938091BB02C5
:1021D0009091BC02A091BD02B091BE023091BA02B2
:1021E00023E0230F2D3758F50196A11DB11D209333
:1021F000BA028093BB029093BC02A093BD02B0933D
:10220000BE028091B6029091B702A091B802B0913F
:10221000B9020196A11DB11D8093B6029093B70239
:10222000A093B802B093B902BF91AF919F918F91E3
:102230003F912F910F900FBE0F901F90189526E899
:10224000230F0296A11DB11DD2CF1F920F920FB680
:102250000F9211242F933F934F935F936F937F932C
:102260008F939F93AF93BF93EF93FF938AEC94E088
:102270000E94E501FF91EF91BF91AF919F918F91E6
:102280007F916F915F914F913F912F910F900FBE72
:102290000F901F9018951F920F920FB60F92112456
:1022A0002F938F939F93EF93FF93E091DA04F09134
:1022B000DB048081E091E004F091E10482FD1BC029
:1022C00090818091E3048F5F8F732091E4048217E3
:1022D00041F0E091E304F0E0E653FB4F958F8093EB
:1022E000E304FF91EF919F918F912F910F900FBE7B
:1022F0000F901F9018958081F4CF1F920F920FB608
:102300000F9211242F933F934F935F936F937F937B
:102310008F939F93AF93BF93CF93DF93EF93FF93ED
:102320008091B402C0918B05D0E087FF24C0109249
:102330008500109284008091B4028F5F8093B40274
:102340008091B402082E000C990B8C179D0724F481
:102350008091B4028C30C4F180918400909185000A
:10236000049680349C4908F47AC08091840090914E
:102370008500049676C08091B402082E000C990B5B
:102380008C179D07C4F6E091B4028E2FEE0F990BC7
:10239000FC01EE0FFF1FE80FF91FE959FA4F80818A
:1023A00086FFC9CFE091B4028E2FEE0F990BFC018E
:1023B000EE0FFF1FE80FF91FE959FA4F808160E027
:1023C0008F730E940801B7CF20918400309185005F
:1023D000E091B4028E2FEE0F990BFC01EE0FFF1F60
:1023E000E80FF91FE959FA4F81819281820F931FFB
:1023F0009093890080938800E091B4028E2FEE0FB5
:10240000990BFC01EE0FFF1FE80FF91FE959FA4F76
:10241000808186FF11C0E091B4028E2FEE0F990BE0
:10242000FC01EE0FFF1FE80FF91FE959FA4F8081F9
:1024300061E08F730E940801FF91EF91DF91CF91CE
:10244000BF91AF919F918F917F916F915F914F91CC
:102450003F912F910F900FBE0F901F90189580E421
:102460009CE990938900809388008FEF8093B40259
:10247000E3CF08950895CF93DF93EC018EEB91E0C5
:102480009983888381E0888B1F861E861A861B8627
:102490001C861D860E9454016E837F8388879987DE
:1024A000DA8BC98B1A821B821C821D826A877B870A
:1024B0008C879D87DF91CF910895CF93DF93EB01B8
:1024C00088819981A7E9B6E011969C938E932A8121
:1024D0003B810697EC01E881F981E956F94F318398
:1024E000208312961D921D921D921C92159781E2D7
:1024F00090E0948383838DE996E0948B838B15829F
:10250000158ADF91CF910895CF93DF93C7E9D6E085
:1025100081E290E09C8F8B8F1D8E1E8E1F8E86E039
:1025200090E0A0E0B0E088A399A3AAA3BBA31CA25B
:102530001DA21EA21FA286E391E0998F888F80E2E0
:1025400088A71AA619A61DA68DE996E09CA78BA7B9
:10255000AC0164E871E0CE010E945D1280E991E077
:10256000998388838AE991E0998F888F1A861986E2
:102570001C861B861E861D86188A1F861A8A198A43
:102580001C8A1B8A8EE391E09F838E838AEC94E001
:102590009F8B8E8B88E08D8BDF91CF910895DB012F
:1025A0008D919C91119790936E0680936D06129673
:1025B0002D913C910697DC01ED91FC91E359F94F87
:1025C0003183208381E290E0948383838FE696E0D9
:1025D000948B838B1582158A0895CF93DF93CDE674
:1025E000D6E081E290E0988F8F8B198E1A8E1B8E29
:1025F00086E090E0A0E0B0E08C8F9D8FAE8FBF8F23
:1026000018A219A21AA21BA286E391E09D8B8C8BC3
:1026100080E28CA31EA21DA219A68FE696E098A7C1
:102620008FA3AC0160EA71E0CE010E94CF128CEA68
:1026300091E09983888386EB91E09D8B8C8B1E8241
:102640001D8218861F821A8619861C861B861E8686
:102650001D86188A1F868EE391E09B838A838AEC0D
:1026600094E09B8B8A8B80E1898BDF91CF910895D9
:102670000F931F93CF93DF938C01C0914106D091AC
:102680004206FC01D583C483CE01089693838283DE
:102690002AE0AC01249FC001259F900D11240E94C7
:1026A000B919F801918380839C0150E040E0C41780
:1026B000D507B9F0B901681B790B2115310561F017
:1026C000E0913D06F0913E06E60FF71F6AE0D90162
:1026D00001900D926A95E1F74F5F5F4F265F3F4F84
:1026E000E6CFDF91CF911F910F910895CF93DF93A4
:1026F000EC0189E090E09B838A8381E090E09D83F8
:102700008C8388E490E00E94B919998388830097AC
:1027100069F0FC01108211821282138240E050E0C5
:1027200060E87FE34483558366837783CE01DF913E
:10273000CF910895CF92DF92EF92FF920F931F9364
:10274000CF93DF938C017B0188E090E0D801139652
:102750009C938E93129715961C921E9214970E942A
:10276000B9196C01E80199838883E7010990002079
:10277000E9F72197CE19DF09D1F1C930D10520F150
:10278000CE010896F801938382830E94B919D8017B
:102790008D939C93F601CF018C199D09D8014D9121
:1027A0005C91119714962D913C918217930748F4F0
:1027B000DA01A80FB91F109711F080818C93319620
:1027C000EACFC6010E94551AF80184819581D8018B
:1027D000ED91FC918C179D0738F4E80FF91F3097A5
:1027E00009F010820196F3CFF801D583C483F70175
:1027F000D8012D913C9140E050E0BA01CE01B0E00B
:10280000A0E0481759076A077B0748F41191E901CE
:1028100019939E014F5F5F4F6F4F7F4FF2CFDF9154
:10282000CF911F910F91FF90EF90DF90CF9008957F
:10283000CF92DF92EF92FF920F931F93CF93DF938C
:1028400000D000D000D01F92CDB7DEB71092CD04DB
:102850001092CC0448EEC42E43E0D42EE12CF12C8F
:10286000C092CE04D092CF04E092D004F092D10472
:1028700088EC91E09093CB048093CA0485EC90E0BF
:102880009093D7048093D60484EC90E09093D9047D
:102890008093D80480EC90E09093DB048093DA047A
:1028A00081EC90E09093DD048093DC0482EC90E076
:1028B0009093DF048093DE0486EC90E09093E10433
:1028C0008093E0041092E3041092E4041092E50473
:1028D0001092E60480E58093C4041092C5046AEC6B
:1028E00074E08DE696E00E94ED126AEC74E087E9F0
:1028F00096E00E9484121092C9041092C8048AECD7
:1029000094E09093C7048093C6046AEB70E085E975
:1029100090E00E9452199093C9048093C80488E003
:1029200090E0909369068093680610926B0610926F
:102930006A0680E590E00E94B9199093670680933B
:10294000660610924E0610924D06C0924F06D09227
:102950005006E0925106F092520684EE91E0909378
:102960004C0680934B0610926506109264061092F6
:10297000570684E496E00E943A12809148069091AE
:1029800049069E838D8308969C838B8327E0AC0148
:10299000249FC001259F900D11240E94B9199A838C
:1029A000898310E000E0F12CE12C8D819E81E816F6
:1029B000F906A0F489819A81800F911F009741F058
:1029C0006091440670914506600F711F0E94ED0EE4
:1029D0005FEFE51AF50A095F1F4FE7CF8DE396E039
:1029E0000E943912CE0101960E94DA0FCE010196A3
:1029F0000E94381386E396E00E947613CE0101967A
:102A00000E94D50FCE0101960E9438138FE296E006
:102A10000E947613CE0101960E94D50FAE014F5F42
:102A20005F4F64E172E08BED95E00E949A13AE0176
:102A30004F5F5F4F61E272E082EE95E00E949A1371
:102A4000AE014F5F5F4F6FE272E089EE95E00E944A
:102A50009A13AE014F5F5F4F6BE372E080EF95E03A
:102A60000E949A13AE014F5F5F4F68E472E087EFF8
:102A700095E00E949A13AE014F5F5F4F68E572E0E8
:102A80008EEF95E00E949A13AE014F5F5F4F66E6AE
:102A900072E085E096E00E949A13AE014F5F5F4FAF
:102AA00065E772E08CE096E00E949A13AE014F5FFA
:102AB0005F4F68E872E083E196E00E949A13AE01EE
:102AC0004F5F5F4F66E972E08AE196E00E949A13D9
:102AD000AE014F5F5F4F60EB72E081E296E00E94D3
:102AE0009A13AE014F5F5F4F6EE972E088E296E0A5
:102AF0000E949A1386EA95E00E943B128AED91E0CB
:102B00009093A7058093A6051092D8051092D7053B
:102B1000E9EBF5E01192119285E0E73DF807D1F776
:102B20001092A8051092A9051092AA051092AB0563
:102B30008091AC059091AD05A091AE05B091AF0527
:102B40008093B0059093B105A093B205B093B305FF
:102B500083E190E00E94B9198C010E943B1210930E
:102B6000A5050093A40583E190E00E94B9198C01AA
:102B70000E943B121093A3050093A20583E190E00D
:102B80000E94B9198C010E943B121093A105009379
:102B9000A00583E190E00E94B9198C010E943B12CC
:102BA00010939F0500939E05109293051092920535
:102BB0001092940510929505109296051092970523
:102BC000109298051092990510929A0510929B0503
:102BD00010929C0510929D0580918B058C30B8F564
:102BE00091E0980F90938B0580938F0590E0FC0106
:102BF000EE0FFF1FE80FF91FE959FA4F88EB9BE032
:102C00009283818380918B058C3028F591E0980F19
:102C100090938B0580938C0590E0FC01EE0FFF1FD5
:102C2000E80FF91FE959FA4F88EB9BE09283818303
:102C300027960FB6F894DEBF0FBECDBFDF91CF91C0
:102C40001F910F91FF90EF90DF90CF9008958FEF3D
:102C500080938F05D7CF8FEF80938C05E9CFCF93EB
:102C6000DF93CDB7DEB7E8970FB6F894DEBF0FBE9F
:102C7000CDBF789484B5826084BD84B5816084BD05
:102C800085B5826085BD85B5816085BD80916E000A
:102C9000816080936E00109281008091810082603B
:102CA0008093810080918100816080938100809178
:102CB00080008160809380008091B1008460809367
:102CC000B1008091B00081608093B00080917A0063
:102CD000846080937A0080917A00826080937A0089
:102CE00080917A00816080937A0080917A00806878
:102CF00080937A001092C10063E176E08DE696E061
:102D00000E94CF0E6AE176E08DE696E00E94CF0E3B
:102D10008091A4059091A50526E83FE0DC011F966F
:102D20003C932E931E97C090A205D090A30522E855
:102D30003FE0F60137872687E090A005F090A105D7
:102D400021E930E1D7011F963C932E931E97009105
:102D50009E0510919F0526EB30E1F8013787268705
:102D60000E94D200C6010E94D200C7010E94D20078
:102D7000C8010E94D200E091DA04F091DB0482E005
:102D80008083E091D604F091D7041082E091D804BA
:102D9000F091D9048FEC80831092E204E091DE047C
:102DA000F091DF0486E08083E091DC04F091DD04A3
:102DB000808180618083E091DC04F091DD0480817A
:102DC00088608083E091DC04F091DD04808180687C
:102DD0008083E091DC04F091DD0480818F7D80832D
:102DE000E0916D06F0916E0636970190F081E02D2E
:102DF000E359F94F81899289009711F00E94890D5A
:102E00002EE030E040E050E065EA72E08DE696E0CA
:102E10000E943A0E8CE0E2E9F5E0DE019D96019019
:102E20000D928A95E1F76CE076E08DE696E00E94DF
:102E3000CF0E8CE0FE01BD96DE01919601900D92C1
:102E40008A95E1F70E9454016B017C0189A19AA146
:102E5000009709F49DC125EA298320E52A83DC0136
:102E6000ED91FC910280F381E02D42E050E0BE0143
:102E70006F5F7F4F09950E9454014B015C0110E088
:102E80000E945401681979098A099B096536710500
:102E90008105910508F077C189A19AA1DC01ED9126
:102EA000FC910284F385E02D099597FDE9CF11236C
:102EB00009F45FC1113009F461C191E0910FE5E1BE
:102EC000F0E0EC0FFD1FE10FF11D8083973009F05A
:102ED0004EC180E090E0DC01B7FD36C08B8D8430C0
:102EE00009F05BC18F89988DA98D2A8DB22FBF7390
:102EF0004497A105B10508F450C18E010F5F1F4F23
:102F00005E01B5E1AB0EB11C0E9454016C197D0944
:102F10008E099F09653671058105910508F041C14B
:102F200089A19AA1DC01ED91FC910284F385E02D49
:102F3000099597FDE9CFF80181938F01AE16BF0681
:102F400019F780E090E0DC01B7FD43C10E94540115
:102F50006B017C0110E00E9454016C197D098E09FF
:102F60009F09653F71408105910508F02DC189A138
:102F70009AA1DC01ED91FC910284F385E02D099585
:102F800097FDE9CF112309F413C1113009F419C1D8
:102F900091E0910FE5E1F0E0EC0FFD1FE10FF11D75
:102FA0008083953009F002C1688D798D90E080E0D2
:102FB0000E940D1B20E030E040E85EE30E944A1BC7
:102FC0006BA37CA38DA39EA36E897F89769567955D
:102FD00090E080E00E940D1B20E030E040E85CE3E0
:102FE0000E944A1B6FA378A789A79AA78D89282FCB
:102FF00030E035952795359527952BA781708CA7BF
:1030000080E090E0DC01B7FDE4C06EEF75E08DE696
:1030100096E00E94CF0ECE0181960E947402CE01EE
:103020008D960E94740280918F0590919005A091D9
:10303000910589839A83AB8380918C0590918D054E
:10304000A0918E058C839D83AE838EE190E00E94DB
:10305000B9198C01892B39F089819A81AB81F801EA
:1030600080839183A2830D3FFFEF1F0739F08C818E
:103070009D81AE81F80183839483A58367EF75E01A
:103080008DE696E00E94CF0E70E060E00E94FF0F98
:1030900061E276E00E94CF0E67EF75E08DE696E084
:1030A0000E94CF0E61E070E00E94FF0F61E276E0C7
:1030B0000E94CF0EC8010E94551A00E010E08091D6
:1030C000A4059091A5050E94D80E882359F08091FF
:1030D000A4059091A505DC01ED91FC910480F5819A
:1030E000E02D09958091A2059091A3050E94D80E2C
:1030F000882359F08091A2059091A305DC01ED9100
:10310000FC910480F581E02D09958091A0059091B6
:10311000A1050E94D80E882359F08091A0059091B6
:10312000A105DC01ED91FC910480F581E02D09956C
:1031300080919E0590919F050E94D80E882359F09A
:1031400080919E0590919F05DC01ED91FC9104809A
:10315000F581E02D09950115110509F4B0CF0E9404
:10316000D101882309F4ABCF0E940000A8CF192F0A
:1031700087CE853A910509F4A0CE82CE8A35910595
:1031800009F49BCE7CCE82E090E8A0E0B0E8A4CE2B
:1031900081E090E8A0E0B0E8D7CE80E090E8DC01E4
:1031A000D3CE82E090E8A0E0B0E8CECE192FD3CE07
:1031B0009C0135952795FC01E2279F0120FDE8CE73
:1031C000CACE80FDE5CEC6CE82E090E8A0E0B0E8B1
:1031D0001ACF65E076E08DE696E00E94CF0E8CE097
:1031E000FE01B196DE01559601900D928A95E1F7A8
:1031F000CE0145960E9474020ECFFC018081918120
:103200000C94551A82E995E00E94740288E296E0D7
:103210000E94FD1881E296E00E94FD188AE196E086
:103220000E94FD1883E196E00E94FD188CE096E074
:103230000E94FD1885E096E00E94FD188EEF95E053
:103240000E94FD1887EF95E00E94FD1880EF95E041
:103250000E94FD1889EE95E00E94FD1882EE95E02F
:103260000E94FD188BED95E00E94FD188FE296E01C
:103270000E94D00F86E396E00E94D00F8DE396E087
:103280000E94D50F84E496E00E94DA0F86E696E06D
:103290000E94D50F87E996E00E94D00C8DE696E05B
:1032A0000C94180D0F931F93CF93DF93009759F44D
:1032B0006115710541F4F0E0E0E0CF01DF91CF91BD
:1032C0001F910F9108958B01EC016EE070E081E099
:1032D00090E00E949D19FC01892B69F380E88383AB
:1032E0000115110571F01387028781E883838091AE
:1032F000C5069091C606892B21F4F093C606E0938B
:10330000C5062097D1F2D187C087838182608383ED
:103310008091C7069091C806892B79F6F093C8066C
:10332000E093C7068091C9069091CA06892B29F6B9
:10333000F093CA06E093C906C0CF0F931F93CF93B3
:10334000DF93869F8001879F100D969F100D11249B
:10335000C8010E94B919EC01009729F0A80170E09A
:1033600060E00E94DE1ACE01DF91CF911F910F9194
:1033700008950F931F93CF93DF938230910510F43C
:1033800082E090E0E091CD06F091CE0630E020E0C2
:10339000B0E0A0E0309799F42115310509F44AC056
:1033A000281B390B24303105D8F58A819B816115A2
:1033B000710589F1FB0193838283FE0111C0408175
:1033C00051810281138148175907E0F048175907C6
:1033D00099F4109761F012960C93129713961C9320
:1033E0003296CF01DF91CF911F910F9108950093F5
:1033F000CD061093CE06F4CF2115310551F04217BA
:10340000530738F0A901DB019A01BD01DF01F80182
:10341000C1CFEF01F9CF9093CE068093CD06CDCFEB
:10342000FE01E20FF31F81939193225031093983FA
:103430002883D7CF2091CB063091CC06232B41F4A3
:1034400020910601309107013093CC062093CB06E2
:1034500020910401309105012115310541F42DB76A
:103460003EB74091080150910901241B350BE091B2
:10347000CB06F091CC06E217F307A0F42E1B3F0B0E
:103480002817390778F0AC014E5F5F4F24173507D6
:1034900048F04E0F5F1F5093CC064093CB068193AC
:1034A00091939FCFF0E0E0E09CCFCF93DF93009724
:1034B000E9F0FC01329713821282A091CD06B091FF
:1034C000CE06ED0130E020E01097A1F4208131819B
:1034D000820F931F2091CB063091CC062817390715
:1034E00009F061C0F093CC06E093CB06DF91CF9159
:1034F0000895EA01CE17DF07E8F54A815B819E0156
:1035000041155105B1F7E901FB83EA8349915991CE
:10351000C40FD51FEC17FD0761F4808191810296DD
:10352000840F951FE90199838883828193819B830E
:103530008A83F0E0E0E012968D919C9113970097BA
:10354000B9F52D913C911197CD010296820F931FF1
:103550002091CB063091CC062817390739F63097E1
:1035600051F51092CE061092CD06B093CC06A093E2
:10357000CB06BCCFD383C28340815181840F951F7A
:10358000C817D90761F44E5F5F4F88819981480F52
:10359000591F518340838A819B81938382832115A4
:1035A000310509F0B0CFF093CE06E093CD069ECF63
:1035B000FD01DC01C0CF13821282D7CFDC0101C034
:1035C0006D9341505040E0F70895A1E21A2EAA1BD6
:1035D000BB1BFD010DC0AA1FBB1FEE1FFF1FA217C3
:1035E000B307E407F50720F0A21BB30BE40BF50BC0
:1035F000661F771F881F991F1A9469F76095709549
:10360000809590959B01AC01BD01CF010895EE0F0F
:10361000FF1F0590F491E02D0994E89409C097FBF1
:103620003EF490958095709561957F4F8F4F9F4F99
:103630009923A9F0F92F96E9BB279395F6958795DD
:1036400077956795B795F111F8CFFAF4BB0F11F4A0
:1036500060FF1BC06F5F7F4F8F4F9F4F16C0882347
:1036600011F096E911C0772321F09EE8872F762F7D
:1036700005C0662371F096E8862F70E060E02AF0BE
:103680009A95660F771F881FDAF7880F96958795AA
:1036900097F908950E945D1B0C94CE1B0E94C01BDD
:1036A00038F00E94C71B20F0952311F00C94B71B33
:1036B0000C94BD1B11240C94021C0E94DF1B70F3A0
:1036C000959FC1F3950F50E0551F629FF001729FC7
:1036D000BB27F00DB11D639FAA27F00DB11DAA1FD6
:1036E000649F6627B00DA11D661F829F2227B00D23
:1036F000A11D621F739FB00DA11D621F839FA00DAE
:10370000611D221F749F3327A00D611D231F849FFD
:10371000600D211D822F762F6A2F11249F57504054
:103720009AF0F1F088234AF0EE0FFF1FBB1F661FCF
:10373000771F881F91505040A9F79E3F510580F098
:103740000C94B71B0C94021C5F3FE4F3983ED4F337
:10375000869577956795B795F795E7959F5FC1F73C
:10376000FE2B880F911D9695879597F9089597F9E7
:103770009F6780E870E060E008959FEF80EC089517
:1037800000240A9416161706180609060895002440
:103790000A9412161306140605060895092E0394BA
:1037A000000C11F4882352F0BB0F40F4BF2B11F42E
:1037B00060FF04C06F5F7F4F8F4F9F4F089557FD8D
:1037C0009058440F551F59F05F3F71F04795880F8F
:1037D00097FB991F61F09F3F79F087950895121626
:1037E00013061406551FF2CF4695F1DF08C01616D2
:1037F00017061806991FF1CF869571056105089483
:103800000895E894BB2766277727CB0197F9089599
:1038100081E090E0F8940C94F21EAEE0B0E0E3E1B9
:10382000FCE10C94C91E0D891E898F89988D26E0B4
:103830002C831A83098397FF02C080E090E80197E8
:103840009E838D83AE01455E5F4F698D7A8DCE017B
:1038500001960E943D1C4D815E8157FD0AC02F815B
:103860003885421753070CF49A01020F131FF80111
:1038700010822E96E4E00C94E51EABE0B0E0E3E4A9
:10388000FCE10C94BB1E7C013B018A01FC01178208
:103890001682838181FFC8C1CE0101965C01F701C8
:1038A0009381F30193FD859193FF81913F018823DB
:1038B00009F453C1853239F493FD859193FF8191C9
:1038C0003F01853229F4B70190E00E942D1EE7CF19
:1038D000912C212C312CFFE1F31538F08B3211F1B2
:1038E00090F4803209F1833229F137FC3CC020ED9D
:1038F000280F2A3050F536FE20C08AE0989E200D11
:103900001124922E06C08D3291F0803371F76894A5
:1039100030F8F30193FD859193FF81913F0181116F
:10392000DACF21C0689431F8689432F8F2CF689405
:1039300033F8EFCF689434F8ECCFEAE02E9E200DF8
:103940001124222E689435F8E4CF8E3229F436FC07
:1039500004C1689436F8DDCF8C3619F4689437F8D2
:10396000D8CF8836B1F2982F9F7D95549330E0F0F0
:103970008336A1F18337C1F1833509F063C0280193
:10398000F2E04F0E511CF801C080D180692D70E02B
:1039900036FC02C06FEF7FEFC6010E94171E4C017C
:1039A000689437F882010AC00C5F1F4FFFE3F98368
:1039B00088248394912C6501E89437F833FE2DC058
:1039C000522C8114910471F5552009F468CFB70188
:1039D00080E290E00E942D1E5A94F6CFF80180817B
:1039E00089830E5F1F4FE4CF2801F2E04F0E511C78
:1039F000F801C080D180692D70E036FC02C06FEF05
:103A00007FEFC6010E94221E4C018201D5CFB70173
:103A100080E290E00E942D1E2A942814190409F0D7
:103A2000B0F7CECFF60137FC859137FE81916F015B
:103A3000B70190E00E942D1E51105A94F1E08F1AA8
:103A40009108BFCF843619F0893609F077C0F801A4
:103A500037FE6BC060817181828193810C5F1F4F43
:103A6000F32DFF763F2E97FF09C0909580957095B6
:103A700061957F4F8F4F9F4F689437F82AE030E071
:103A8000A5010E945D1EC82ECA188C2C432C36FE40
:103A90000CC0E89440F8C91440F434FE05C032FC70
:103AA00003C0F32DFE7E4F2E892C44FE95C0FE01EF
:103AB000EC0DF11D8081803309F087C0242D297E13
:103AC000422E842D8870582E43FC95C040FE8FC036
:103AD0009C2C821418F42C0C922C981844FE91C043
:103AE000B70180E390E00E942D1E42FE09C088E7E6
:103AF00090E041FE02C088E590E0B7010E942D1ED3
:103B0000C91408F48AC0CA94D12C9FEFC91AD90AE3
:103B1000CA0CDB1CF60182916F01B70190E00E9494
:103B20002D1EAC14BD04B1F74FCF60817181072EFB
:103B3000000C880B990B0E5F1F4F92CFD32CE8948B
:103B4000D4F82AE030E0853739F1232D297FD22EB1
:103B50008F3601F148F48835A9F0F7018681978105
:103B60002B96E2E10C94D71E803749F08837A9F7ED
:103B7000D4FE02C06894D2F820E130E00DC0689411
:103B8000D4F8F6CF34FE03C0822F8660D82E20E111
:103B900032E002C028E030E0F801D7FE0FC06081BB
:103BA0007181828193810C5F1F4FA5010E945D1E70
:103BB000C82ECA183D2CE89437F867CF6081718110
:103BC00090E080E00E5F1F4FF0CF42FC02C0839474
:103BD00078CF8394839475CF842D867809F471CF40
:103BE000F6CFB70180E290E00E942D1E83948214EC
:103BF000C0F3512C73CF522C5818821408F46ECF96
:103C0000F8CF842D867809F47BCF8BE241FE80E2E9
:103C100047FC8DE2B70190E071CFB70180E390E0FF
:103C20000E942D1E9A946CCF8FEF9FEF99CFFC01CD
:103C30000590615070400110D8F7809590958E0FD7
:103C40009F1F0895FC016150704001900110D8F74A
:103C5000809590958E0F9F1F08950F931F93CF937C
:103C6000DF93182F092FEB018B8181FD09C01FEF16
:103C70000FEF812F902FDF91CF911F910F9108951A
:103C800082FF14C02E813F818C819D8128173907C6
:103C90003CF4E881F981CF010196998388831083F0
:103CA0008E819F8101969F838E83E3CFE885F9857E
:103CB000812F0995892BA1F3DACFFA01AA272830A1
:103CC00051F1203181F1E8946F936E7F6E5F7F4FE9
:103CD0008F4F9F4FAF4FB1E03ED0B4E03CD0670F65
:103CE000781F891F9A1FA11D680F791F8A1F911DB8
:103CF000A11D6A0F711D811D911DA11D20D009F408
:103D000068943F912AE0269F11243019305D319349
:103D1000DEF6CF010895462F4770405D4193B3E032
:103D20000FD0C9F7F6CF462F4F70405D4A3318F0D9
:103D3000495D31FD4052419302D0A9F7EACFB4E08A
:103D4000A6959795879577956795BA95C9F7009742
:103D50006105710508959B01AC010A2E06945795E3
:103D6000479537952795BA95C9F7620F731F841F3A
:103D7000951FA01D08952F923F924F925F926F92D0
:103D80007F928F929F92AF92BF92CF92DF92EF92EB
:103D9000FF920F931F93CF93DF93CDB7DEB7CA1B6C
:103DA000DB0B0FB6F894DEBF0FBECDBF09942A8897
:103DB000398848885F846E847D848C849B84AA843F
:103DC000B984C884DF80EE80FD800C811B81AA81CC
:103DD000B981CE0FD11D0FB6F894DEBF0FBECDBF97
:103DE000ED01089510E0C8E5D0E004C0FE010E9496
:0E3DF000071B2196C935D107C9F7F894FFCFFC
:103DFE00FFFFFFFF0000CF0680001800000000004C
:103E0E0000000000E8FFE8FF0000000000001400C2
:103E1E000000000000000000ECFFECFF00000000BE
:103E2E000000000000002F0DCE0F00000000E70C78
:103E3E00C00F9E0C9B0CE30D980CB80B8D0C520C06
:103E4E00390C200C1E0CDF0BBB0B02000000000017
:103E5E00FA0CC20FFEFFFEFF0000E80CC40F0600B6
:103E6E0000000000B20CB40FFAFFFAFF0000A00C25
:103E7E00B60F900110011A019A01180000000000FF
:103E8E00D00C9E0FE8FFE8FF0000DD0CA80FAC0180
:103E9E0024012E01B601140000000000180D8A0F37
:103EAE00ECFFECFF0000250D940F000000008300D6
:103EBE008B0B680B0000000007026701940154028F
:103ECE00C501A301B7010000000083008B0B010B9D
:103EDE0000000000EB0A3C092C09B408BF08DF08FB
:103EEE00F9080D0A00256C640025236C6F00256C03
:103EFE006F0025236C580025236C7800256C580024
:103F0E00256C7800536572766F206D313A204F4BD9
:103F1E0000536572766F206D313A20455252005330
:103F2E006572766F206D323A4F4B00536572766F25
:103F3E00206D323A45525200426F6F74696E67209F
:103F4E00536572766F206D0052504C696461722019
:103F5E006C3A204F4B0052504C69646172206C3A9F
:103F6E002045525200426F6F74696E672052504C5A
:103F7E00696461722E2E2E005345545550202F2FFA
:103F8E002F2F2F2F2F00626F6F74696E6700546989
:103F9E00636B202300426F6F74696E6720687562D1
:043FAE002E2E2E0085
:00000001FF
