:100000000C949F000C94C7000C94C7000C94C7007C
:100010000C94C7000C94C7000C94C7000C94C70044
:100020000C94C7000C94C7000C94C7000C941218D1
:100030000C94C7000C94C7000C94C7000C94C70024
:100040000C9470170C94C7000C94E0170C94BA171A
:100050000C94C7000C94C7000C94C7000C94C70004
:100060000C94C7000C94C70007634236B79BD8A70F
:100070001A39685618AEBAAB558C1D3CB7CC5763CD
:10008000BD6DEDFD753EF6177231BF000000803F7B
:1000900008000000BE922449123EABAAAA2ABECD97
:1000A000CCCC4C3E00000080BEABAAAAAA3E000009
:1000B0000000BF000000803F000000000008417801
:1000C000D3BB4387D1133D190E3CC3BD4282AD2B38
:1000D0003E68EC8276BED98FE1A93E4C80EFFFBE30
:1000E00001C4FF7F3F000000000000000008000284
:1000F00001000003040700000000000000000000F1
:100100000000250028002B0000000000240027002C
:100110002A00040404040404040402020202020289
:1001200003030303030301020408102040800102BB
:1001300004081020010204081020E419DC1F112417
:100140001FBECFEFD8E0DEBFCDBF13E0A0E0B1E02F
:10015000EEE6F1E502C005900D92AE35B107D9F794
:1001600025E0AEE5B3E001C01D92A93CB207E1F77E
:1001700010E0CEE9D0E004C02197FE010E94F321F7
:10018000CD39D107C9F70E94331C0C94AA280C94CE
:100190000000FC01428353836483758386819781C9
:1001A000A085B185840F951FA61FB71F82879387EF
:1001B000A487B58708951F93CF93DF93182FC0911D
:1001C0006C03D0916D038A3041F4E881F98101908C
:1001D000F081E02D6DE0CE010995E881F981019073
:1001E000F081E02D612FCE01099521E030E00197EB
:1001F00011F430E020E0C901DF91CF911F91089503
:10020000CF93DF93C0916C03D0916D03E881F981A6
:100210000084F185E02DCE010995892BB9F3E881A1
:10022000F9810284F385E02DCE01DF91CF9109940D
:1002300090E0FC01EA5DFE4F24918E5E9E4FFC0132
:100240008491882399F090E0880F991FFC01E85F62
:10025000FE4FA591B491FC01E250FF4F859194911E
:100260008FB7F894EC91E22BEC938FBF089590E058
:10027000FC01E651FF4F2491FC01EA5DFE4F3491F1
:10028000FC01EE5EFE4FE491EE23C9F0222339F02B
:10029000233001F1A8F4213019F1223029F1F0E0E6
:1002A000EE0FFF1FE250FF4FA591B4918FB7F89466
:1002B000EC91611126C030953E233C938FBF089589
:1002C0002730A9F02830C9F0243049F78091800008
:1002D0008F7D03C0809180008F7780938000DFCF77
:1002E00084B58F7784BDDBCF84B58F7DFBCF8091C4
:1002F000B0008F778093B000D2CF8091B0008F7D17
:10030000F9CF3E2BDACF3FB7F894809168039091F4
:100310006903A0916A03B0916B0326B5A89B05C041
:100320002F3F19F00196A11DB11D3FBFBA2FA92F74
:10033000982F8827BC01CD01620F711D811D911D71
:1003400042E0660F771F881F991F4A95D1F70895DD
:100350008F929F92AF92BF92CF92DF92EF92FF92D5
:100360006B017C010E9483014B015C01C114D1042B
:10037000E104F104B9F00E948301681979098A093E
:100380009B09683E73408105910580F321E0C21A04
:10039000D108E108F10888EE880E83E0981EA11CC0
:1003A000B11CE4CFFF90EF90DF90CF90BF90AF9063
:1003B0009F908F9008952FB7F89460916403709187
:1003C000650380916603909167032FBF0895DC0158
:1003D000ED91FC910190F081E02D0994AF92BF92D4
:1003E000CF92DF92EF92FF920F931F93CF93DF9301
:1003F0006C017B018B01040F151FEB015E01AE1830
:10040000BF08C017D10759F06991D601ED91FC9151
:100410000190F081E02DC6010995892B79F7C5017E
:10042000DF91CF911F910F91FF90EF90DF90CF90D0
:10043000BF90AF900895FC01538D448D252F30E07F
:10044000842F90E0821B930B541710F0CF960895E1
:1004500001970895FC01918D828D981761F0A28D0E
:10046000AE0FBF2FB11D5D968C91928D9F5F9F73D4
:10047000928F90E008958FEF9FEF0895FC01918D8A
:10048000828D981731F0828DE80FF11D858D90E0F7
:1004900008958FEF9FEF0895FC01918D228D892F94
:1004A00090E0805C9F4F821B91098F73992708957C
:1004B00080E793E00E944C0221E0892B09F420E0C0
:1004C000822F089580E090E0892B29F00E94580245
:1004D00081110C9400000895FC01A48DA80FB92F80
:1004E000B11DA35ABF4F2C91848D90E001968F735C
:1004F0009927848FA689B7892C93A089B1898C917B
:10050000837080648C93938D848D981306C00288C9
:10051000F389E02D80818F7D80830895EF92FF9293
:100520000F931F93CF93DF93EC0181E0888F9B8D16
:100530008C8D98131AC0E889F989808185FF15C0D0
:100540009FB7F894EE89FF896083E889F9898081F3
:100550008370806480839FBF81E090E0DF91CF91C2
:100560001F910F91FF90EF900895F62E0B8D10E0E4
:100570000F5F1F4F0F731127E02E8C8D8E110CC053
:100580000FB607FCFACFE889F989808185FFF5CF9E
:10059000CE010E946C02F1CFEB8DEC0FFD2FF11D0F
:1005A000E35AFF4FF0829FB7F8940B8FEA89FB89DB
:1005B00080818062CFCFCF93DF93EC01888D882339
:1005C000B9F0AA89BB89E889F9898C9185FD03C0B6
:1005D000808186FD0DC00FB607FCF7CF8C9185FF9B
:1005E000F2CF808185FFEDCFCE010E946C02E9CF72
:1005F000DF91CF9108950F931F93CF93DF93FC0169
:10060000C081D181209709F18C01E881F9810680B0
:10061000F781E02DCE010995EA89FB8980818F7EE3
:100620008083EA89FB898081877F8083EA89FB89CF
:1006300080818F778083EA89FB8980818F7D8083A9
:100640008A8D898FF80111821082DF91CF911F91DD
:100650000F9108958EBD00000DB407FEFDCF8EB53D
:100660000895CF93DF93EC010E94DB01C60FD71FE3
:100670008FEF0E942A038F3F59F00E94DB01CE01C9
:10068000861B970B97FFF4CF80E0DF91CF91089501
:1006900081E0FBCFCF93DF93FC012781222349F038
:1006A000EC0161E085810E9437018FEF0E942A03EF
:1006B0001F82DF91CF9108951F93CF93DF93EC01B9
:1006C00088E592E00E943103182F882361F08DEFB6
:1006D0000E942A03CE010E944A031886812FDF91CF
:1006E000CF911F9108958FE18E83CE010E944A031E
:1006F000F5CF0F931F93CF93DF938C01862FEA01E1
:100700000E942A03FE0181918EBDDE5FEC17FD077A
:1007100041F08191000000000DB407FEFDCF8EBDB9
:10072000F5CF0DB407FEFDCF8FEF0E942A038FEFA8
:100730000E942A038FEF0E942A03F80181878F719C
:10074000853059F081E28683C8010E944A0380E027
:10075000DF91CF911F910F91089581E0F9CFDF9242
:10076000EF92FF920F931F93CF93DF93EC01162F1D
:10077000022FF32EE42ED52E0E94DB05882309F4E8
:1007800041C08F8181110DC09A818B819CBD8DBD2F
:1007900081E08F8360E08D810E9437018FEF0E949E
:1007A0002A031C3031F08CE291E00E94310388234F
:1007B00049F1812F80640E942A038D2D0E942A0313
:1007C0008E2D0E942A038F2D0E942A03802F0E94C3
:1007D0002A0387E80E942A038FEF0E942A030AE077
:1007E00010E08FEF0E942A03898787FF03C0015022
:1007F0001109B9F7DF91CF911F910F91FF90EF9001
:10080000DF9008958FEFF6CFAF92BF92CF92DF9235
:10081000EF92FF921F93CF93DF93EC016A017B016C
:1008200059011F85112309F45EC08885823049F47F
:100830008B859C85AD85BE85C816D906EA06FB0664
:1008400049F18A85A7019601833039F099E0220F9A
:10085000331F441F551F9A95D1F769E1CE010E94BD
:10086000AF03882389F08EE08E83CE010E944A0375
:1008700010E0812FDF91CF911F91FF90EF90DF90DB
:10088000CF90BF90AF90089582E08887CB86DC86BA
:10089000ED86FE8688E592E00E943103811102C058
:1008A00085E2E2CFA5016CEFCE010E947903882397
:1008B000E1F28B859C85AD85BE850196A11DB11D9C
:1008C0008B879C87AD87BE871F851111D2CFCE0144
:1008D000DF91CF911F91FF90EF90DF90CF90BF906D
:1008E000AF900C945C038A85833039F089E0CC0C9E
:1008F000DD1CEE1CFF1C8A95D1F7A701960168E16B
:10090000CE010E94AF03882331F08DE08E83CE01AB
:100910000E944A03AECFA5016EEFCE010E9479037B
:100920008823A9F388E592E00E943103F82E84E23F
:10093000FF2061F320E030E0A9016DE0CE010E94CC
:10094000AF03882311F08AE0E1CF8FEF0E942A03E2
:100950008111F9CFCE010E944A031F2D8ACFEF9259
:10096000FF921F93CF93DF93FC01208111E020FFC2
:1009700012C0EC017C01FBE0EF0EF11C4F815885A9
:1009800069857A85970189819A810E940404182FCC
:10099000811108C010E0812FDF91CF911F91FF904E
:1009A000EF900895888181FD04C088818E7F8883BF
:1009B000F2CF4F81588569857A858B819C81AD8185
:1009C000BE81480F591F6A1F7B1F970189819A8139
:1009D0000E9404048111E9CFDDCFCF93DF93EC01B6
:1009E000188620E030E0A9016CE00E94AF03882364
:1009F00049F089E08E83CE010E944A0380E0DF91B6
:100A0000CF910895CE010E944A0381E0F8CFCF92A2
:100A1000DF92EF92FF920F931F93CF93DF93EC013E
:100A20006A017B0189018885813049F48B859C8529
:100A3000AD85BE858C159D05AE05BF0539F18A854E
:100A4000A7019601833039F089E0220F331F441F3C
:100A5000551F8A95D1F762E1CE010E94AF0388232A
:100A600079F08CE08E83CE010E944A0380E0DF9112
:100A7000CF911F910F91FF90EF90DF90CF9008954D
:100A800081E08887CB86DC86ED86FE860E94DB01CE
:100A90007B0124EDE21A2EEFF20A8FEF0E942A0367
:100AA00089878F3F49F40E94DB01C701861B970BA2
:100AB00097FFF3CF8EE1D6CF8E3F11F089E1D2CFF1
:100AC0008FEF8EBDF801D801A150BE4F9FEFEA17FE
:100AD000FB0749F0000000000DB407FEFDCF8EB506
:100AE0009EBD8193F4CF0DB407FEFDCF8EB58C93E0
:100AF00019868FEF0E942A038FEF0E942A038B85AD
:100B00009C85AD85BE850196A11DB11D8B879C87F7
:100B1000AD87BE878F858111AACFCE01DF91CF919E
:100B20001F910F91FF90EF90DF90CF900C94ED0408
:100B3000CF92DF92EF92FF921F93CF93DF93DC016E
:100B40001196ED91FC91EF2B51F490E080E0DF9154
:100B5000CF911F91FF90EF90DF90CF900895122FCB
:100B60006A017B01EC018F819885A985BA858C1576
:100B70009D05AE05BF0561F0CE010E94AF0488233C
:100B800021F312FF0CC01882CF82D886E986FA863C
:100B900013702881122B1883CE010B96D8CF9E019B
:100BA000255F3F4FB701A60189819A810E94070501
:100BB0008111E9CFCACFFC012085223011F40C94B9
:100BC0005C03213011F40C94ED0481E008958F92C0
:100BD0009F92AF92BF92CF92DF92EF92FF920F93CC
:100BE0001F93423051056105710560F480E01F914B
:100BF0000F91FF90EF90DF90CF90BF90AF909F90BC
:100C00008F900895FC01C08CD18CE28CF38CC416BB
:100C1000D506E606F70650F3480159016A018581B9
:100C2000803229F584899589A689B78917E0769558
:100C30006795579547951A95D1F7480F591F6A1F21
:100C40007B1F23E0CF0180960E949805009771F2E8
:100C5000CC0CDD1CCC0CDD1CF1E0DF228C0D9D1DCD
:100C6000FC0180829182A282B38281E0C0CF803178
:100C700009F0BCCF44895589668977894D0D511D8E
:100C8000611D711D23E0CF0180960E949805009799
:100C900009F4ACCFCC0CDD1CF1E0DF22C80ED91E6C
:100CA000F60111830083E1CFCF92DF92EF92FF92A2
:100CB0000F931F93CF93DF93423051056105710568
:100CC00050F48FEFDF91CF911F910F91FF90EF9034
:100CD000DF90CF900895FC01C08CD18CE28CF38C16
:100CE000C416D506E606F70660F389016A01EC0131
:100CF0008581803299F584899589A689B789E7E04D
:100D00007695679557954795EA95D1F7480F591FFE
:100D10006A1F7B1F22E0CE0180960E9498050097F3
:100D200081F2CC0CDD1CCC0CDD1CF1E0DF228C0D43
:100D30009D1DFC0180819181A281B381488D598DD7
:100D40006A8D7B8D481759076A077B0730F1F801D8
:100D500080839183A283B38381E0B4CF803109F093
:100D6000B0CF44895589668977894D0D511D611D24
:100D7000711D22E0CF0180960E949805009709F42A
:100D8000A0CFCC0CDD1CF1E0DF22C80ED91EF6018D
:100D900080819181B0E0A0E0D1CF80E093CF3F92FD
:100DA0004F925F926F927F928F929F92AF92BF927B
:100DB000CF92DF92EF92FF920F931F93CF93DF9327
:100DC00000D000D0CDB7DEB75C01FC01448455846F
:100DD0006684778486809780F401C084D184E2841D
:100DE000F384C414D504E604F704C0F4730162016B
:100DF00010E0FFEFCF1ADF0AEF0AFF0AF401808D3F
:100E0000918DA28DB38D8C159D05AE05BF0540F467
:100E1000111132C0C084D184E284F38411E0E9CF9F
:100E20004C145D046E047F0439F19E012F5F3F4F27
:100E3000B701A601C4010E94540687FD1DC0882386
:100E4000C1F289819A81AB81BC81892B8A2B8B2B42
:100E500081F6112329F0F401C086D186E286F3865B
:100E60000FEF1FEF2FEF3FE0B701A601C4010E9473
:100E7000E705382E811118C0312C832D0F900F906B
:100E80000F900F90DF91CF911F910F91FF90EF90F6
:100E9000DF90CF90BF90AF909F908F907F906F909A
:100EA0005F904F903F900895411451046104710484
:100EB000B9F4F501C486D586E686F78682814114A9
:100EC000510461047104B1F0FFEF4F1A5F0A6F0A19
:100ED0007F0A4C145D046E047F0479F08F7B0BC095
:100EE00097018601B301A201C4010E94E7058111A7
:100EF000E0CFC2CF8064F5018283F50182818068F2
:100F00008283BBCF892B79F41092800082E080939A
:100F100081001092850010928400B19A80916F0038
:100F2000826080936F0008958F929F92AF92BF92DC
:100F3000CF92DF92EF92FF920F931F93CF93DF93A5
:100F4000EC01EE85FF85309709F009950E94DB01E1
:100F50004B015C018E010D5E1F4F6E0121E3C20E3D
:100F6000D11CF12CE12C89A99AA98E159F0514F1A9
:100F7000D8018D919D918D010097C9F0BFEFEB1ABB
:100F8000FB0ADC01ED91FC910280F381E02DB501BB
:100F9000A4010995882359F0F80132978081918145
:100FA000DC01ED91FC910480F581E02D0995C016DE
:100FB000D106C9F60E94DB016E837F8388879987FB
:100FC0000A811B812C813D81DC01CB01800F911FA7
:100FD000A21FB31F8A879B87AC87BD87DF91CF9104
:100FE0001F910F91FF90EF90DF90CF90BF90AF9047
:100FF0009F908F9008950F931F93CF93DF93EC01F1
:10100000EE85FF85309709F009950E94DB016E831C
:101010007F83888799870A811B812C813D81DC0130
:10102000CB01800F911FA21FB31F8A879B87AC87BC
:10103000BD87DF91CF911F910F9108950F931F935B
:10104000FC010285138524853585401B510B620BFD
:10105000730B80E077FF80891F910F910895CF93E4
:10106000DF93EC01E881F9810288F389E02D09958D
:101070008F3F980731F02D813E812F5F3F4F3E8398
:101080002D83DF91CF9108958FEF9FEF089560E05A
:1010900070E0CB01089590E080E00895FF920F93F7
:1010A0001F93CF93DF938C01EB016F3F7607B9F06D
:1010B000F62EEAE06E1306C06DE0F8018089918992
:1010C0000E94E7016F2DF801808991890E94E70154
:1010D000CE01DF91CF911F910F91FF900895D0E045
:1010E000C0E0F6CF7F928F929F92AF92BF92CF9245
:1010F000DF92EF92FF920F931F93CF93DF938C01B8
:1011000049015A01EB01C12CD12C7601C814D90434
:10111000EA04FB04B4F479908AE0781206C06DE02A
:10112000F801808991890E94E701672DF801808983
:1011300091890E94E701FFEFCF1ADF0AEF0AFF0A49
:10114000E5CFC501B401DF91CF911F910F91FF90C1
:10115000EF90DF90CF90BF90AF909F908F907F9057
:101160000895CB010895CF93DF93EC018889998985
:10117000DC01ED91FC910084F185E02D0995892B2E
:10118000A9F388899989DC01ED91FC910284F385AA
:10119000E02DDF91CF910994CF93DF93EC01888903
:1011A0009989DC01ED91FC910084F185E02D099590
:1011B000892BA9F388899989DC01ED91FC9104843C
:1011C000F585E02DDF91CF9109948F929F92AF9298
:1011D000BF92CF92DF92EF92FF920F931F93CF9324
:1011E000DF938C0149015A01EB01C12CD12C76010E
:1011F000D80150968D919C91DC01ED91FC91028477
:10120000F385E02D09958F3F61F0C814D904EA04F5
:10121000FB043CF48993BFEFCB1ADB0AEB0AFB0A11
:10122000E7CFC701B601DF91CF911F910F91FF90DA
:10123000EF90DF90CF90BF90AF909F908F900895E8
:10124000DC0150968D919C91DC01ED91FC91008424
:10125000F185E02D099490E080E0089590E080E031
:10126000089508950895DC01ED91FC913697019061
:10127000F081E02DE80FF91F80E791E091838083F2
:101280008AE791E097838683089520E731E0FC01A7
:10129000318320832AE731E0378326830895FB01D9
:1012A00020813181FC0131832083FB014281538104
:1012B00026503109F90120813181820F931FFC01F1
:1012C0005183408308952CE831E0FC013183208371
:1012D00026E931E0318F208F60E871E00C944F09EE
:1012E000DC01ED91FC91369720813181820F931FB3
:1012F0000C9463090895DC01ED91FC9136970190FF
:10130000F081E02DE80FF91F8CE591E09183808357
:1013100086E691E09383828308952CE531E0FC0119
:101320003183208326E631E0338322830895FB0155
:1013300020813181FC0131832083FB014281538173
:1013400026503109F90120813181820F931FFC0160
:1013500051834083089528EA31E0FC0131832083E2
:1013600022EB31E0358B248B6CE971E00C9497090A
:10137000DC01ED91FC91369720813181820F931F22
:101380000C94AB0908950895FC01848583FF17C070
:1013900084A195A1A6A1B7A1448D558D668D778DA9
:1013A000841B950BA60BB70B811520E89207A105AE
:1013B000B10520F08FEF9FE7A0E0B0E0089580E056
:1013C00090E0DC01F1CF0F931F93CF93DF93FC01EB
:1013D0002485222399F0EC01868587FF3DC040A13A
:1013E00051A162A173A18289938921E080960E9414
:1013F0009805009741F48D8581608D87DF91CF91AD
:101400001F910F910895E889F989EF70FF2725E072
:10141000EE0FFF1F2A95E1F7E80FF91F309759F3F8
:101420008081853E41F38C85877383878C8583FF1C
:1014300008C08CA19DA1AEA1BFA1848F958FA68F5E
:10144000B78F88A599A5AAA5BBA5938F828FB58BC9
:10145000A48B8E858F778E870A891B89C801809619
:101460000E94AF04882339F2F801808191810E94A3
:10147000DB05882309F4BFCFC1CF1F93CF93DF9340
:10148000EC01162F8F8580FF0BC0E881F981008465
:10149000F185E02D20E144E070E060E0CE010995A7
:1014A000EB85FC85812F90E02D853E85E217F307C3
:1014B00058F410832B853C852F5F3F4F3C872B874B
:1014C000DF91CF911F910895E881F981028CF38D0E
:1014D000E02DBC01CE01DF91CF911F910994CF93F4
:1014E000DF93EC01E881F98136970190F081E02DDE
:1014F000E80FF91F838994890E943D0A019679F4C7
:10150000E881F98136970190F081E02DEC0FFD1F05
:10151000858123893489232B31F082608583CE0134
:10152000DF91CF9108958360F9CFCF93DF93EC01E2
:10153000E881F98136970190F081E02DE80FF91FDD
:1015400083899489DC01ED91FC910484F585E02D7B
:101550000995019659F4E881F98136970190F08157
:10156000E02DEC0FFD1F858181608583CE01DF9129
:10157000CF9108958F929F92AF92BF92CF92DF92B8
:10158000EF92FF920F931F93CF93DF938C0149014A
:101590005A01EB01C12CD12C7601C814D904EA04FC
:1015A000FB0464F46991C8010E943D0A019641F070
:1015B0008FEFC81AD80AE80AF80AEFCF750164015C
:1015C000C701B601DF91CF911F910F91FF90EF906E
:1015D000DF90CF90BF90AF909F908F90089590E054
:1015E00080E008958F929F92AF92BF92EF92FF9208
:1015F0000F931F93CF93DF93EC017B0149015A01B5
:10160000E881F98136970190F081E02DE80FF91F0C
:1016100003891489D8011F968C911F9780FF0BC0F6
:10162000ED91FC910084F185E02D20E144E070E033
:1016300060E0C8010995D801ED91FC91008CF18D15
:10164000E02DA5019401B701C80109956F3F7F4FB7
:1016500079F4E881F98136970190F081E02DEC0F63
:10166000FD1F858123893489232B71F08260858356
:10167000CE01DF91CF911F910F91FF90EF90BF901E
:10168000AF909F908F9008958360F1CF4F925F92BB
:101690006F927F928F929F92AF92BF92CF92DF9282
:1016A000EF92FF920F931F93CF93DF93EC018B0187
:1016B00029013A01E881F98136970190F081E02D06
:1016C000E80FF91FC484D584E684F784C418D508CC
:1016D000E608F708838194818E709927049791F426
:1016E00046015701181419041A041B04B4F1D70158
:1016F000C601F7FE03C080E090E0DC01C81AD90AF9
:10170000EA0AFB0AA3019201B801CE010E94F20A83
:10171000E881F98136970190F081E02DEC0FFD1FF3
:10172000838194818E709927029749F5E881F98128
:1017300036970190F081E02DEC0FFD1F1C141D0465
:101740001E041F04E4F481E0C81AD108E108F1087E
:101750006089CE010E946F0AE9CF81E0881A910862
:10176000A108B108E881F98136970190F081E02D58
:10177000EC0FFD1F6089CE010E946F0AB3CFE88194
:10178000F981369780819181C80FD91F1C861D86EB
:101790001E861F86DF91CF911F910F91FF90EF90D2
:1017A000DF90CF90BF90AF909F908F907F906F9081
:1017B0005F904F900895CF92DF92EF92FF920F9338
:1017C0001F93FB01DC0100E010E098016A01F12C9D
:1017D000E12C0C151D052E053F0538F461916D9324
:1017E0000F5F1F4F2F4F3F4FF4CF840F951F1F9157
:1017F0000F91FF90EF90DF90CF900895CF93DF93FC
:10180000EC010E94AB09CE01DF91CF910C946321D2
:10181000DC01ED91FC91369720813181820F931F7D
:101820000C94FE0BCF93DF93EC010E946309CE0171
:10183000DF91CF910C946321DC01ED91FC913697FF
:1018400020813181820F931F0C94120C0C94632120
:101850000C946321DC01ED91FC913697208131815C
:10186000820F931F0C94280C0C9463210C94632119
:10187000DC01ED91FC91369720813181820F931F1D
:101880000C94360C0C9463210C946321FC01808130
:1018900091810C946321FC01808191810C946321DE
:1018A000EF92FF920F931F93CF93DF937C01D0E0D1
:1018B000C0E010E000E0F701808191812481358152
:1018C0000217130740F48C0F9D1F0E944B0C0F5FF3
:1018D0001F4F2796F0CFDF91CF911F910F91FF906F
:1018E000EF900C946321EF92FF920F931F93CF938D
:1018F000DF937C01D0E0C0E010E000E0F7018081E0
:101900009181248135810217130740F48C0F9D1FAC
:101910000E94460C0F5F1F4F2796F0CFDF91CF91AB
:101920001F910F91FF90EF900C946321CF93DF9361
:10193000EC0188E090E09B838A831D821C820E94D8
:10194000C72099838883DF91CF910895EF92FF920A
:101950000F931F93CF93DF937C018B01DB011496D0
:10196000CD91DC91FC01D583C483CE01089693838D
:101970008283880F991F880F991F0E94C720D70163
:101980008D939C93FC0130E020E0C217D307B9F09F
:10199000AF01481B590B309771F0D8016D917C91C4
:1019A000DB01A40FB51F4D915D916D917C9140833A
:1019B0005183628373832F5F3F4F3496E6CFDF916D
:1019C000CF911F910F91FF90EF900895AF92BF922A
:1019D000CF92DF92EF92FF920F931F93CF93DF93FB
:1019E000EC018B017A012A813B812617370760F5CC
:1019F000CB0108962817390738F5CC80DD80A88000
:101A0000B9809B838A83880F991F880F991F0E9432
:101A1000C72088839983D501FC0190E080E0C81637
:101A2000D90679F0309749F04D915D916D917C9197
:101A3000139740835183628373830196149634967F
:101A4000EECFC5010E9463218C819D819C01220FF4
:101A5000331F220F331F8017910798F4E881F98113
:101A6000E20FF31F309749F0D7014D915D916D91D1
:101A70007C91408351836283738301962C5F3F4F37
:101A8000EACF1D830C83DF91CF911F910F91FF90BF
:101A9000EF90DF90CF90BF90AF900895CF92DF92FC
:101AA000EF92FF920F931F93CF93DF93EC017B0193
:101AB000FB01848195819D838C8308969B838A8317
:101AC00027E0AC01249FC001259F900D11240E94A6
:101AD000C7209983888310E000E0D12CC12C8C8131
:101AE0009D81C816D90698F488819981800F911F2D
:101AF000009739F0F70160817181600F711F0E94BA
:101B0000A60CFFEFCF1ADF0A095F1F4FE8CFDF9166
:101B1000CF911F910F91FF90EF90DF90CF9008959C
:101B2000CF92DF92EF92FF920F931F93CF93DF93A9
:101B3000EC018C819D818617970708F045C07A01DA
:101B40008B012A813B812617370718F5CB010896B0
:101B500028173907F0F4C880D9809B838A830E94B4
:101B6000C72099838883F601CF018C199D092C81A8
:101B70003D818217930750F4A881B981A80FB91F3E
:101B8000109711F080818C933196EECFC6010E94A0
:101B900063218C819D818017910758F4E881F98138
:101BA000E80FF91F309719F0D7012C912083019687
:101BB000F2CF1D830C83DF91CF911F910F91FF9086
:101BC000EF90DF90CF90089568177907A0F77D8395
:101BD0006C83F1CF0F931F93CF93DF931F92CDB7F9
:101BE000DEB78C01FC0184819581892B11F015826F
:101BF00014821982AE014F5F5F4F70E060E0C80150
:101C00000E94900D50E040E060EE72E0F8018081AB
:101C100091810E94DB0BC8010F90DF91CF911F9142
:101C20000F910895EF92FF920F931F93CF93DF933D
:101C30001F92CDB7DEB78C017B01FC0184819581B9
:101C4000892B11F015821482F70164817581198244
:101C5000AE014F5F5F4FC8010E94900DF7014481B4
:101C6000558160817181F801808191810E94DB0B37
:101C70000F90DF91CF911F910F91FF90EF900895FA
:101C8000EF92FF920F931F93CF93DF931F92CDB7E5
:101C9000DEB78C017B010E94960CF701648175818F
:101CA0001982AE014F5F5F4FC8010E94900DF8018D
:101CB00044815581F70160817181F80180819181B2
:101CC0000E94DB0B0F90DF91CF911F910F91FF903E
:101CD000EF900895CF92DF92EF92FF920F931F93B0
:101CE000CF93DF931F92CDB7DEB77C01FB01048158
:101CF00015810417150710F40E94B725041B150B56
:101D00002017310708F48901FB01C080D180C40E7F
:101D1000D51EC7010E94960C0F3F100769F3F6010C
:101D20008081181684F41982AE014F5F5F4FB801AD
:101D3000C7010E94900DF70144815581B601808151
:101D400091810E94DB0BC7010F90DF91CF911F9112
:101D50000F91FF90EF90DF90CF900895FC012481C8
:101D600035816217730710F00E94B7258081918139
:101D7000860F971F0895AF92BF92CF92DF92EF9296
:101D8000FF920F931F93CF93DF93CDB7DEB7A49746
:101D90000FB6F894DEBF0FBECDBF6B0188E090E0B8
:101DA00098A38F8F1AA219A288E390E00E94C720FF
:101DB0009E8F8D8FF601A480B580F12CE12CEA1462
:101DC000FB0469F0B701C6010E94AE0EFC018081E0
:101DD0008C3709F48701FFEFEF1AFF0AF0CF980163
:101DE0002150310950E040E0B601CE0101967C015E
:101DF0000E946A0E980120953095A8014F5F5F4FB1
:101E0000B601CE0108960E946A0E22273327201BB6
:101E1000310B41E050E0B601CE010F960E946A0EF0
:101E20008BE090E0998F888F83E090E09B8F8A8F82
:101E30008DE490E00E94C7209F8B8E8B8701D12C70
:101E4000C12C8A8D9B8DC816D906A8F48E899F89CE
:101E500098012E193F09820F931F009731F0AE01B0
:101E60004C5D5F4FB8010E94400E9FEFC91AD90A1E
:101E7000095F1F4FE6CF2F8D38A12817390790F53E
:101E8000CD8CDE8C98A38F8F27E0FC012E9FC001A4
:101E90002F9F900D11240E94C7209E8F8D8F860149
:101EA000B12CA12C89A19AA1A816B906C0F48D8DD8
:101EB0009E8D98012C193D09820F931F009731F0D8
:101EC000AE014C5D5F4FB8010E94400EC8010E94F8
:101ED000460CFFEFAF1ABF0A095F1F4FE3CFC601E1
:101EE0000E94632189A19AA1AA8CBB8C8A159B05AB
:101EF00008F45C0110E000E0D12CC12CCA14DB0412
:101F000099F06E897F89600F711F8D8D9E8D800F76
:101F1000911F6817790711F00E94120E4FEFC41A33
:101F2000D40A095F1F4FEACF09A11AA18A8D9B8DA0
:101F30000817190728F587E0809F6001819FD00C62
:101F400011248A8D9B8D08171907D0F48D8D9E8DD5
:101F50008C0D9D1D009749F06E897F896C0D7D1D4C
:101F6000AE014C5D5F4F0E94400E89A19AA101967F
:101F70009AA389A30F5F1F4F57E0C50ED11CE1CF75
:101F80000A8D1B8D89A19AA108171907D8F487E03B
:101F9000809F6001819FD00C1124580189A19AA1D2
:101FA000A816B90668F48D8D9E8D8C0D9D1D0E941E
:101FB000460C8FEFA81AB80A97E0C90ED11CEECFD5
:101FC0001AA309A3CE0146960E94730CCE010F9668
:101FD0000E94460CCE0108960E94460CC7010E9442
:101FE000460CCE014D960E94730CA4960FB6F89441
:101FF000DEBF0FBECDBFDF91CF911F910F91FF903C
:10200000EF90DF90CF90BF90AF9008950F931F9304
:10201000CF93DF93EC018B01E881F9813697019032
:10202000F081E02DE80FF91F81899289009711F066
:102030000E94950AF80101900020E9F73197E01B12
:10204000F10B9F0150E040E0B801CE010E94460B29
:10205000CE01DF91CF911F910F9108952F923F9262
:102060004F925F926F927F928F929F92AF92BF92A8
:10207000CF92DF92EF92FF920F931F93CF93DF9354
:1020800000D000D000D0CDB7DEB79E838D83FC0199
:1020900064807580F12CE12C10E000E0D12CE61476
:1020A000F70484F4B7018D819E810E94AE0EFC017D
:1020B00080818E3219F48701DD24D394FFEFEF1A6B
:1020C000FF0AEDCFDD2009F4AAC06801F12CE12C54
:1020D000512C412C81E0C81AD108E016F1067CF59C
:1020E000B6010D2C000C880B990B0E9415239B0147
:1020F000AC0160E070E080E291E40E9432244B0188
:102100005C01B7018D819E810E94AE0EFC01608151
:10211000062E000C770B60537109072E000C880BFC
:10212000990B0E941523A50194010E94C5230E94CA
:10213000DD22460E571EFFEFEF1AFF0ACBCF180124
:10214000C12CD12C76018FEF281A380A26143704B7
:102150000CF042C0B101601B710B072E000C880B04
:10216000990B0E9415239B01AC0160E070E080E2B6
:1021700091E40E9432244B015C01B1018D819E816A
:102180000E94AE0EFC016081062E000C770B60539E
:102190007109072E000C880B990B0E941523698387
:1021A0007A838B839C83A501940160E070E080E8D2
:1021B0009FE30E946B229B01AC0169817A818B8134
:1021C0009C810E94C5239B01AC01C701B6010E94FE
:1021D000FA216B017C01B7CFB201550C880B990B2A
:1021E0000E941523A70196010E94FA2126960FB698
:1021F000F894DEBF0FBECDBFDF91CF911F910F913D
:10220000FF90EF90DF90CF90BF90AF909F908F9016
:102210007F906F905F904F903F902F900895F12C9A
:10222000E12C10E000E06301F1E0CF1AD108E614E0
:10223000F7048CF5B6016E197F09072E000C880B88
:10224000990B0E9415239B01AC0160E070E080E2D5
:1022500091E40E9432244B015C01B7018D819E8183
:102260000E94AE0EFC016081062E000C770B6053BD
:102270007109072E000C880B990B0E941523A501EC
:1022800094010E94C5230E94DD22060F171FFFEF55
:10229000EF1AFF0ACCCFB801110F880B990B0E94DF
:1022A0001523A4CFBF92CF92DF92EF92FF920F93AC
:1022B0001F93CF93DF93CDB7DEB764970FB6F89433
:1022C000DEBF0FBECDBF8C016B0188E090E0F8014E
:1022D000938382831582148280E290E00E94C7205B
:1022E000F80191838083CE0108960E94960CF12C10
:1022F000E12CF60184819581E816F90608F058C0B2
:10230000B701C6010E94AE0EFC01B080F0E2AE0142
:102310004D5E5F4FBE01685F7F4FBF1611F185E2D2
:10232000B816F9F0CE0101960E94400EBC8A6D816C
:102330007E816F5F7F4FAE014C5E5F4FCE01019695
:102340000E94900DBE016F5F7F4FCE0108960E94E4
:10235000120ECE0101960E94460CFFEFEF1AFF0A03
:10236000C8CFCE0101960E94400ECE0101960E9478
:102370002E106F87788B898B9A8BCE0101960E94E5
:10238000460CF80184819581BC016F5F7F4F8617F1
:10239000970758F4AE01415F5F4FC8010E94E60CF9
:1023A000CE0108960E94EA0DD8CF15821482F8CF8C
:1023B000CE0108960E94460CC80164960FB6F894A8
:1023C000DEBF0FBECDBFDF91CF911F910F91FF9068
:1023D000EF90DF90CF90BF9008952F923F924F9251
:1023E0005F926F927F928F929F92AF92BF92CF92A5
:1023F000DF92EF92FF920F931F93CF93DF93CDB7AE
:10240000DEB7A3970FB6F894DEBF0FBECDBF5C0159
:102410002B0108E010E01B870A871D861C8688E3D5
:1024200090E00E94C720998788871A8B098B1C8AA5
:102430001B8A80E290E00E94C720988B8F87CE0194
:1024400046960E94960C10E000E0F12CE12C47E04B
:10245000342E6801D20114968D919C91159708171E
:10246000190708F0D8C04D915C91400F511FFA0137
:102470008081803251F0853241F06A8D7B8D6F5FB3
:102480007F4FCE0146960E94900DD201ED91FC91B6
:10249000E00FF11F8081803271F5AE014F5D5F4F1B
:1024A000BE016A5E7F4FCE0101960E94400ECE01B2
:1024B00001960E942E106D8F7E8F8F8F98A3CE0174
:1024C00001960E94460CCE0146960E94EA0D8B8929
:1024D0009C89BC016F5F7F4F8617970708F056C035
:1024E000AE01435E5F4FCE010F960E94E60C1D8E3B
:1024F0001E8E1F8E18A20F5F1F4FF20180819181E7
:10250000C80ED91ED6018C91853209F0A2CF8C85D8
:102510009D856C01BFEFCB1ADB0A8C159D0508F079
:1025200061C02A853B852C153D05B0F50996281715
:10253000390790F5888499849B878A87FC013E9EA1
:10254000C0013F9E900D11240E94C7209987888763
:102550007401712C612C8C859D8568167906C8F4F0
:1025600088859985970128193909820F931F00974B
:1025700019F0B7010E94A60CC7010E944B0CFFEF97
:102580006F1A7F0A27E0E20EF11CE5CF1C8A1B8A36
:10259000AECFC4010E946321EC84FD843E9C4001C7
:1025A0003F9C900C1124EC14FD0490F488859985CF
:1025B000880D991D009729F0BE01615F7F4F0E9431
:1025C000A60C3FEFE31AF30A87E0880E911CEBCFCD
:1025D000DD86CC868B899C89892B11F01C8A1B8A0D
:1025E000780137CFF12CE12CD12CC12C8C859D8525
:1025F000C816D90668F4888599858E0D9F1D0E949E
:102600004B0CAFEFCA1ADA0AB7E0EB0EF11CEECFB3
:102610001D861C86DFCFBE01685F7F4FCE0101960D
:102620000E944E0DE981EAA3FA81FBA38F01D12C10
:10263000C12CEC14FD04B1F56AA07BA0D12CC12CF7
:10264000EC14FD0409F449C01601220C331C220CC1
:10265000331CD3014D905C900AA11BA1912C812CBD
:10266000F20161917191819191912F01D801ED91C8
:10267000FC91E20DF31D20813181428153810E9442
:10268000662281115DC0BFEF8B1A9B0A095F1F4F45
:10269000E814F90429F7EFEFCE1ADE0AF7E06F0E1F
:1026A000711CCECFD801ED91FC91C601880F991F06
:1026B000880F991FE80FF91F6081718182819381D2
:1026C000095F1F4F20E030E0A9010E9466228111BE
:1026D00037C0BFEFCB1ADB0AACCF11E0CE010196B9
:1026E0000E94500C112371F1BE01685F7F4FC5013C
:1026F0000E944E0DCE0146960E94460CCE010F96CA
:102700000E944B0CCE0108960E94500CC501A39666
:102710000FB6F894DEBF0FBECDBFDF91CF911F91F2
:102720000F91FF90EF90DF90CF90BF90AF909F9070
:102730008F907F906F905F904F903F902F90089573
:1027400010E0CCCF6EEE71E087E695E00E940610B7
:10275000CE0146960E94460CCE010F960E944B0C6D
:10276000CE010896D1CF8F929F92AF92BF92CF9217
:10277000DF92EF92FF920F931F93CF93DF93EC01C1
:102780007B013A8130FFCAC0288188889988AA884D
:10279000BB88422F4870C42E23FF22C0888D998D9C
:1027A000AA8DBB8D88199909AA09BB0982309105A8
:1027B000A105B10520F5009711F530E020E0A90151
:1027C000481B590BCA01DF91CF911F910F91FF90C8
:1027D000EF90DF90CF90BF90AF909F908F90089533
:1027E00026FF0DC0EE81FF818681978145E0880F2D
:1027F000991F4A95E1F78815990509F495C0EE816E
:10280000FF8184011170B501A40189E07695679577
:10281000579547958A95D1F726FF27C0848D958DCA
:10282000A68DB78D480F591F6A1F7B1F8E819F8110
:1028300020E080960E949805009709F46FC0800FF1
:10284000911FFC018081F701808388899989AA8979
:10285000BB890196A11DB11D888B998BAA8BBB8B5F
:1028600021E030E090E080E0AACFD380D4220115AF
:10287000110581F4D1100EC089288A288B2881F592
:1028800027FF29C0848D958DA68DB78D8C879D8758
:10289000AE87BF87EE81FF814C855D856E857F8524
:1028A0004250510961097109848104C0440F551FC8
:1028B000661F771F8A95D2F780899189A289B3898B
:1028C000840F951FA61FB71FAC01BD014D0D511DF3
:1028D000611D711DABCF8C8D9D8DAE8DBF8DD6CF03
:1028E0004C855D856E857F85CC2059F036FF09C00B
:1028F0004F5F5F4F6F4F7F4F4C875D876E877F873E
:10290000C9CF9E01245F3F4FCF010E94540687FD2F
:1029100005C08111BFCF8881807D49F489818260A3
:1029200089838FEF9FEF4FCF30E020E09BCF21E0F6
:1029300030E081E090E043CF8F929F92AF92BF92C0
:10294000CF92DF92EF92FF920F931F93CF93DF937B
:102950001F92CDB7DEB78C01FC01848C958CA68CC0
:10296000B78CC08CD18CE28CF38CBE016F5F7F4F33
:102970000C960E94B3130197C9F4898190E0F80185
:10298000848E958EA68EB78EC08ED18EE28EF38EFB
:102990000F90DF91CF911F910F91FF90EF90DF90FB
:1029A000CF90BF90AF909F908F9008958FEF9FEF43
:1029B000E6CFCF93DF931F92CDB7DEB7BE016F5F37
:1029C0007F4F0C960E94B313019731F4898190E0F8
:1029D0000F90DF91CF9108958FEF9FEFF9CF2F9256
:1029E0003F924F925F926F927F928F929F92AF929F
:1029F000BF92CF92DF92EF92FF920F931F93CF93EC
:102A0000DF93CDB7DEB728970FB6F894DEBF0FBEC1
:102A1000CDBF98878F831B015C834B83DC011296AB
:102A20008C91129781FF05C183FF2FC01C964D909A
:102A30005D906D907C901F972C91222309F4F1C03A
:102A400058968D909D90AD90BC905B9750964D910F
:102A50005D916D917C91539784169506A606B706F5
:102A6000A1F081149104A104B10409F0C2C0FD01D8
:102A70001486158616861786EF81F885808A918AD6
:102A8000A28AB38A82818F7D8283EB81FC81AF0130
:102A900070E060E0EF81F88580899189A289B3892F
:102AA00080959095A095B09584179507A607B707D0
:102AB00008F4BFC0CB80DC8000E012E03C96FE83CF
:102AC000ED83AF81B88550968D909D90AD90BC9070
:102AD0005397C114D10409F452C116968D919C915B
:102AE0001797FC01F380B501A40129E0769567955D
:102AF000579547952A95D1F7F422940131703A837E
:102B00002983F1102AC01C964D915D916D917C91A5
:102B10001F97232B09F060C141155105610571050F
:102B200009F409C112962C91129726FFF5C0589608
:102B30004D905D906D907C905B9784149504A604F5
:102B4000B70408F0E9C04F5F5F4F6F4F7F4F1C968F
:102B50004D935D936D937C931F97AF81B8851696C7
:102B6000ED91FC9117971C964D915D916D917C9123
:102B70001F974250510961097109848104C0440FB3
:102B8000551F661F771F8A95D2F780899189A28980
:102B9000B389840F951FA61FB71FAC01BD014F0D50
:102BA000511D611D711D29813A81232B09F028C116
:102BB000C11432E0D30608F423C187A190A5A1A5D2
:102BC000B2A5481759076A077B0741F410A28FEF97
:102BD0009FEFDC0187A390A7A1A7B2A7910181A1D4
:102BE00092A10E940404882321F1E12C82E0F82EB6
:102BF0004FC1AF81B8851696ED91FC9123FD21C0A0
:102C000026FF1FC08681978135E0880F991F3A956E
:102C1000E1F7B0E0A0E088159905AA05BB0508F02A
:102C20002BCFAF81B8851C964D925D926D927C92B0
:102C30001F97EF81F8858181816081831C821B82CF
:102C4000B0C03481375F75016401B1E0CB1AD1089F
:102C5000E108F108032E04C0F694E794D794C794D2
:102C60000A94D2F786FF0FC0EF81F885848D958D89
:102C7000A68DB78D8C0D9D1DAE1DBF1D84879587BC
:102C8000A687B787F9CEDB01CA010197A109B1096F
:102C900004C0B695A795979587953A95D2F7C8162B
:102CA000D906EA06FB0620F0452B462B472B79F583
:102CB00027FF2AC0848D958DA68DB78DEF81F8856D
:102CC00084879587A687B7870F811885045F1F4F74
:102CD000C114D104E104F10409F4CECEAF81B8856A
:102CE0001C964D915D916D917C911F979801169660
:102CF0008D919C910E945406B1E0CB1AD108E10855
:102D0000F10818162CF38DCFEF81F885D3CFC81AB0
:102D1000D90AEA0AFB0AD8CF2D813E810E945406C7
:102D200087FD87CF811119CF8F8198850E94CF06AB
:102D3000811113CF7ECFEF81F885848D958DA68D7F
:102D4000B78D0097A105B10589F4CF010E94CF0688
:102D5000882309F46ECFEF81F88584859585A68553
:102D6000B785848F958FA68FB78FF7CEEF81F885C3
:102D700084879587A687B787F0CE21E068C0EF816A
:102D8000F885808D918DA28DB38D88159905AA0542
:102D9000BB0538F4808E918EA28EB38E82818068BE
:102DA00082838B819C8128960FB6F894DEBF0FBE7C
:102DB000CDBFDF91CF911F910F91FF90EF90DF90EA
:102DC000CF90BF90AF909F908F907F906F905F90CB
:102DD0004F903F902F900895425051096109710919
:102DE000848104C0440F551F661F771F8A95D2F750
:102DF00080899189A289B389480F591F6A1F7B1F57
:102E0000C801A981BA818A1B9B0B76018C159D058F
:102E100008F47C0129813A81232B09F0AECFAF81E0
:102E2000B88550968D909D90AD90BC9053975896D4
:102E30004D905D906D907C905B9784149504A604F2
:102E4000B70420F412968C9185FF97CF25E0CF012F
:102E500080960E949805009709F4EBCEA701B10176
:102E6000E981FA818E0F9F1F0E94BC2589819A817A
:102E70008E0D9F1D8115924059F4AF81B88516962D
:102E80008D919C9180960E94AF04882309F4D1CE45
:102E9000EF81F88580899189A289B3898E0D9F1D64
:102EA000A11DB11D808B918BA28BB38B2E0C3F1C6F
:102EB000CE18DF0806CE0C960C94EF14CF93DF9358
:102EC0001F92CDB7DEB7698341E050E0BE016F5F6E
:102ED0007F4F0C960E94EF140F90DF91CF910895D1
:102EE0001F920F920FB60F9211242F933F938F933F
:102EF0009F93AF93BF938091640390916503A091DA
:102F00006603B09167033091630323E0230F2D37ED
:102F100058F50196A11DB11D2093630380936403AE
:102F200090936503A0936603B09367038091680351
:102F300090916903A0916A03B0916B030196A11D62
:102F4000B11D8093680390936903A0936A03B093C3
:102F50006B03BF91AF919F918F913F912F910F90F4
:102F60000FBE0F901F90189526E8230F0296A11D03
:102F7000B11DD2CF1F920F920FB60F9211242F9333
:102F80003F934F935F936F937F938F939F93AF93F1
:102F9000BF93EF93FF9380E793E00E946C02FF9151
:102FA000EF91BF91AF919F918F917F916F915F91C1
:102FB0004F913F912F910F900FBE0F901F9018953A
:102FC0001F920F920FB60F9211242F938F939F93FE
:102FD000EF93FF93E0918003F09181038081E09172
:102FE0008603F091870382FD1BC090818091890345
:102FF0008F5F8F7320918A03821741F0E0918903DC
:10300000F0E0E059FC4F958F80938903FF91EF9199
:103010009F918F912F910F900FBE0F901F90189539
:103020008081F4CF1F920F920FB60F9211242F932D
:103030003F934F935F936F937F938F939F93AF9340
:10304000BF93CF93DF93EF93FF9380915E03C09183
:103050005D04D0E087FF24C01092850010928400A8
:1030600080915E038F5F80935E0380915E03082EE4
:10307000000C990B8C179D0724F480915E038C3013
:10308000C4F18091840090918500049680349C491D
:1030900008F47AC08091840090918500049676C0EF
:1030A00080915E03082E000C990B8C179D07C4F6C7
:1030B000E0915E038E2FEE0F990BFC01EE0FFF1FC8
:1030C000E80FF91FE75CFB4F808186FFC9CFE091D5
:1030D0005E038E2FEE0F990BFC01EE0FFF1FE80F22
:1030E000F91FE75CFB4F808160E08F730E9437011E
:1030F000B7CF2091840030918500E0915E038E2F40
:10310000EE0F990BFC01EE0FFF1FE80FF91FE75CB4
:10311000FB4F81819281820F931F9093890080934E
:103120008800E0915E038E2FEE0F990BFC01EE0FED
:10313000FF1FE80FF91FE75CFB4F808186FF11C07E
:10314000E0915E038E2FEE0F990BFC01EE0FFF1F37
:10315000E80FF91FE75CFB4F808161E08F730E94ED
:103160003701FF91EF91DF91CF91BF91AF919F9187
:103170008F917F916F915F914F913F912F910F9020
:103180000FBE0F901F90189580E49CE990938900E2
:10319000809388008FEF80935E03E3CFCF93DF931C
:1031A000EB0188819981A1E9B5E011969C938E93FA
:1031B0002A813B810697EC01E881F981EF56FA4FAD
:1031C0003183208312961D921D921D921C92159799
:1031D00081E290E09483838387E995E0948B838BED
:1031E0001582158ADF91CF910895CF93DF93C1E9BE
:1031F000D5E081E290E09C8F8B8F1D8E1E8E1F8EFE
:1032000086E090E0A0E0B0E088A399A3AAA3BBA3C6
:103210001CA21DA21EA21FA282E391E0998F888F9B
:1032200080E288A71AA619A61DA687E995E09CA7A3
:103230008BA7AC0160E871E0CE010E94CE188CE84B
:1032400091E09983888386E991E0998F888F1A8627
:1032500019861C861B861E861D86188A1F861A8A5A
:10326000198A1C8A1B8A8AE391E09F838E8380E7F8
:1032700093E09F8B8E8B88E08D8BDF91CF910895AB
:10328000DB018D919C911197909368058093670560
:1032900012962D913C910697DC01ED91FC91E95934
:1032A000FA4F3183208381E290E09483838389E61F
:1032B00095E0948B838B1582158A0895CF93DF93C5
:1032C000C7E6D5E081E290E0988F8F8B198E1A8E39
:1032D0001B8E86E090E0A0E0B0E08C8F9D8FAE8FDB
:1032E000BF8F18A219A21AA21BA282E391E09D8BA4
:1032F0008C8B80E28CA31EA21DA219A689E695E004
:1033000098A78FA3AC016CE971E0CE010E9440192F
:1033100088EA91E09983888382EB91E09D8B8C8B86
:103320001E821D8218861F821A8619861C861B869D
:103330001E861D86188A1F868AE391E09B838A83F6
:1033400080E793E09B8B8A8B80E1898BDF91CF9123
:103350000895AF92BF92CF92DF92EF92FF920F93B8
:103360001F93CF93DF931F92CDB7DEB77C016B0124
:103370000E94960CF60101900020E9F731978F0129
:103380000C191D09F701A480B5801982B8016A0DD6
:103390007B1DAE014F5F5F4FC7010E94900DF7018B
:1033A00080819181A801B6018A0D9B1D0E94DB0BD3
:1033B0000F90DF91CF911F910F91FF90EF90DF90D1
:1033C000CF90BF90AF900895CF92DF92EF92FF928F
:1033D0000F931F93CF93DF931F92CDB7DEB7109259
:1033E00073031092720348EEC42E43E0D42EE12CF6
:1033F000F12CC0927403D0927503E0927603F092A0
:1034000077038AEB91E0909371038093700385ECCE
:1034100090E090937D0380937C0384EC90E0909304
:103420007F0380937E0380EC90E0909381038093F0
:10343000800381EC90E0909383038093820382EC7D
:1034400090E0909385038093840386EC90E09093C2
:103450008703809386031092890310928A03109247
:103460008B0310928C0360E773E087E695E00E947F
:103470005E1960E773E081E995E00E94F51810920B
:103480006F0310926E0380E793E090936D03809337
:103490006C0360E071E08BED90E00E9460209093FF
:1034A0006F0380936E0388E090E0909363058093B0
:1034B0006205109265051092640580E690E00E9416
:1034C000C7209093610580936005109210041092BC
:1034D0000F04C0921104D0921204E0921304F092EF
:1034E00014041092190410921A0410921B048CEC0C
:1034F00091E090930E0480930D0410925505109264
:1035000054051092560510925705109258051092C6
:10351000590510925A0510925B0510925C051092A5
:103520005D0510925E0510925F0580915D048C3000
:1035300008F091C191E0980F90935D04809351053C
:1035400090E0FC01EE0FFF1FE80FF91FE75CFB4F57
:1035500088EB9BE09283818380915D048C3008F03E
:103560007EC191E0980F90935D0480934E0590E0AA
:10357000FC01EE0FFF1FE80FF91FE75CFB4F88EB24
:103580009BE092838183AE014F5F5F4F6EEF71E0EE
:1035900087E495E00E94A919AE014F5F5F4F67E095
:1035A00072E080E495E00E94A919AE014F5F5F4F81
:1035B00061E172E089E395E00E94A919AE014F5FD5
:1035C0005F4F6DE172E082E395E00E94A919AE01C0
:1035D0004F5F5F4F6BE272E08BE295E00E94A919AA
:1035E000AE014F5F5F4F6AE372E084E295E00E94B4
:1035F000A919AE014F5F5F4F67E472E08DE195E07E
:103600000E94A919AE014F5F5F4F65E572E086E148
:1036100095E00E94A919AE014F5F5F4F65E672E029
:103620008FE095E00E94A919AE014F5F5F4F64E7FC
:1036300072E088E095E00E94A919AE014F5F5F4FEC
:1036400064E872E081E095E00E94A919AE014F5F45
:103650005F4F64E972E08AEF94E00E94A919AE011D
:103660004F5F5F4F63EA72E083EF94E00E94A91915
:103670008CEE94E00E94960CAE014F5F5F4F6EEAB5
:1036800072E085EE94E00E94A919AE014F5F5F4F92
:1036900067EC72E08EED94E00E94A919AE014F5FD5
:1036A0005F4F62E373E087ED94E00E94A919AE01D9
:1036B0004F5F5F4F66EE72E080ED94E00E94A919C3
:1036C000AE014F5F5F4F69ED72E089EC94E00E94BC
:1036D000A919AE014F5F5F4F6EED72E082EC94E08E
:1036E0000E94A919AE014F5F5F4F61EE72E08BEB54
:1036F00094E00E94A919AE014F5F5F4F68EE72E03F
:1037000084EB94E00E94A91908E010E01093B00443
:103710000093AF041092B2041092B10488E390E0D9
:103720000E94C7209093AE048093AD041093A90427
:103730000093A8041092AB041092AA0488E390E0CE
:103740000E94C7209093A7048093A6041093A2041C
:103750000093A1041092A4041092A30480E690E0C8
:103760000E94C7209093A00480939F0410939B0411
:1037700000939A0410929D0410929C0480E490E0BF
:103780000E94C72090939904809398041093940406
:1037900000939304109296041092950480E490E0B4
:1037A0000E94C72090939204809391048EED91E043
:1037B00090935F0480935E0481E080936E04109286
:1037C0006D0410926C0410926804109269041092B7
:1037D0006A0410926B040E94DB016093640470938E
:1037E000650480936604909367042EE534E030937B
:1037F000700420936F041092600410926104109280
:103800006204109263046093680470936904809367
:103810006A0490936B0488EE91E090935F04809328
:103820005E041092900410928F04E1E7F4E011928C
:10383000119284E0EF38F807D1F70E94DB010E9473
:10384000DB010F90DF91CF911F910F91FF90EF90CF
:10385000DF90CF9008958FEF809351057DCE8FEF4D
:1038600080934E0590CECF93DF93CDB7DEB7C8548B
:10387000D1090FB6F894DEBF0FBECDBF789484B5E2
:10388000826084BD84B5816084BD85B5826085BD5C
:1038900085B5816085BD80916E00816080936E00EA
:1038A00010928100809181008260809381008091DC
:1038B000810081608093810080918000816080938D
:1038C00080008091B10084608093B1008091B0004D
:1038D00081608093B00080917A00846080937A0048
:1038E00080917A00826080937A0080917A00816072
:1038F00080937A0080917A00806880937A00109299
:10390000C100E0918003F091810382E08083E09127
:103910007C03F0917D031082E0917E03F0917F03A0
:103920008FEC808310928803E0918403F0918503EB
:1039300086E08083E0918203F0918303808180613F
:103940008083E0918203F09183038081886080838B
:10395000E0918203F0918303808180688083E0910D
:103960008203F091830380818F7D808361E473E023
:1039700087E695E00E9406106CE271E080E090E03E
:103980000E94A8016FED72E087E695E00E940610A4
:103990002091FE043091FF0450E040E06091FA0471
:1039A0007091FB0487E695E00E94F20A8DE00E9488
:1039B000180105E010E061E08DE00E94370164EF3E
:1039C00071E080E090E00E94A80160E08DE00E943C
:1039D000370164EF71E080E090E00E94A80101509F
:1039E000110949F72091F7043091F80450E040E0C4
:1039F0006091F3047091F40487E695E00E94F20A66
:103A00000E94DB012B018CE0E4E5F5E0DE019D96F0
:103A100001900D928A95E1F78CE0FE01BD96DE01E2
:103A2000919601900D928A95E1F70E94DB014B017E
:103A30005C0189A19AA1009709F44EC225EA298365
:103A400020E52A83DC01ED91FC910280F381E02DD9
:103A500042E050E0BE016F5F7F4F09950E94DB019D
:103A60006B017C0110E00E94DB016C197D098E095D
:103A70009F09653671058105910508F028C289A165
:103A80009AA1DC01ED91FC910284F385E02D09956A
:103A900097FDE9CF112309F410C2113009F412C2C5
:103AA00091E0910FE5E1F0E0EC0FFD1FE10FF11D5A
:103AB0008083973009F0FFC180E090E0DC01B7FD22
:103AC00036C08B8D843009F00CC28F89988DA98DFA
:103AD0002A8DB22FBF734497A105B10508F401C226
:103AE0008E010F5F1F4F7E01B5E1EB0EF11C0E94AE
:103AF000DB01681979098A099B0965367105810519
:103B0000910508F0F2C189A19AA1DC01ED91FC9127
:103B10000284F385E02D099597FDE9CFF8018193A3
:103B20008F01EE15FF0519F780E090E0DC01B7FD8D
:103B3000E1C11092600310925F030AE010E066EEAC
:103B400072E087E695E00E9406106AE070E080E08F
:103B500090E00E94A8010150110989F7CE018196D9
:103B60000E94FB02CE018D960E94FB0280915105BE
:103B700090915205A091530589839A83AB838091DC
:103B80004E0590914F05A09150058C839D83AE8387
:103B90008EE190E00E94C7208C01892B39F0898149
:103BA0009A81AB81F80180839183A2830D3FFFEF5F
:103BB0001F0739F08C819D81AE81F8018383948346
:103BC000A583D12CC12CD801C114D10409F0AAC1FC
:103BD000EC90BBE0BE1578F181E00E941801F12C59
:103BE0005701AA0CBB1CF501EE0DFF1DE75CFB4F56
:103BF0008081807C81608083F8011182128290E054
:103C000080E0FC01EE0FFF1FE80FF91FE75CFB4FA0
:103C1000208126FD08C001968C30910591F790E037
:103C200080E00E948207F501EE0DFF1DE75CFB4F6F
:103C30008081806480838AE0E82EF12C66EE72E059
:103C400087E695E00E9406106AE070E080E090E070
:103C50000E94A801F1E0EF1AF10881F7CA94CD287B
:103C600009F05CC1C8010E946321109262031092A6
:103C7000610380915F0390916003892BC1F466EE2C
:103C800072E087E695E00E9406106AE070E080E04E
:103C900090E00E94A80166EE72E087E695E00E943F
:103CA00006106AE070E080E090E00E94A8010E94A7
:103CB000DB018B010419150961E573E087E695E0E6
:103CC0000E9406107C01DC01ED91FC913697019079
:103CD000F081E02DE80FF91F81899289009711F09A
:103CE0000E94950AA801110F660B770BD701ED9181
:103CF000FC9136970190F081E02DEE0DFF1D838140
:103D0000948185FD50C186FF37C192FF4FC186E285
:103D100093E07F936F935F934F939F938F931F9243
:103D200084E18F938E010F5F1F4F1F930F930E94AB
:103D3000C5259C01990F440B550BB801C7010E9482
:103D4000460BD701ED91FC9136970190F081E02D63
:103D5000EE0DFF1D838194810FB6F894DEBF0FBE78
:103D6000CDBF96FF03C0C7010E94950A6AE573E0C4
:103D7000C7010E9406106FED72E00E94061064EF0A
:103D800071E080E090E00E94A801AE01475C5F4FC7
:103D900064EB74E0CE0181960E94400EBE016F5D1F
:103DA0007F4FCE0145960E94BB0E6D897E89AE0184
:103DB000435D5F4FC8010E94400EB801CE01805C98
:103DC0009F4F0E94ED11C8010E94460CCE014596FE
:103DD0000E94730CCE0181960E94460CAE01495B95
:103DE0005F4F64EB74E0CE0181960E94400EBE01ED
:103DF0006F5D7F4FCE0145960E94BB0E6D897E8917
:103E0000695F7F4FAE01435D5F4FC8010E94400E66
:103E1000B801CE01C9960E94ED11C8010E94460C5E
:103E2000CE0145960E94730CCE0181960E94460CED
:103E3000AE01485B5F4F64EB74E0CE0181960E9457
:103E4000400EBE016F5D7F4FCE0145960E94BB0EB6
:103E50006D897E89625F7F4FAE01495B5F4FC8010C
:103E60000E94400EB801CE018D960E945211C801E9
:103E70000E94460CCE0145960E94730CCE0181969D
:103E80000E94460CCE018D960E944B0CCE01C99625
:103E90000E94500CCE01805C9F4F0E94500C00E0AD
:103EA00010E001151105E9F30E9458028823C9F3B7
:103EB0000E940000F6CF192FD6CD853A910509F45E
:103EC000EFCDD1CD8A35910509F4EACDCBCD82E095
:103ED00090E8A0E0B0E8F3CD81E090E8A0E0B0E8A1
:103EE00026CE80E090E8DC0122CE82E090E8A0E0DF
:103EF000B0E81DCE81E090E09093600380935F0373
:103F00008CE0FE01B196DE01559601900D928A95E6
:103F1000E1F7CE0145960E94FB020FCECC24C3945C
:103F2000D12C51CE1396EC90BBE0BE1508F483CE95
:103F300082E00E941801F12C5701AA0CBB1CF5016C
:103F4000EE0DFF1DE75CFB4F8081807C82608083EB
:103F5000F8011482158290E080E0FC01EE0FFF1F53
:103F6000E80FF91FE75CFB4F208126FD5CCE019630
:103F70008C30910591F753CE87FF1BC09C012227FF
:103F8000307292FF08C08FE293E0232B09F0C1CE7C
:103F900084E393E0BECE89E393E0232B09F0B9CE0E
:103FA0008DE393E0B6CE82E293E0B3CE8BE293E072
:103FB000B0CE90E080E0ADCE8091910490919204DB
:103FC0000E94632180919804909199040E9463213A
:103FD00080919F049091A0040E94632186EA94E05E
:103FE0000E94500C8DEA94E00E94500C84EB94E007
:103FF0000E94460C8BEB94E00E94460C82EC94E00D
:104000000E94460C89EC94E00E94460C80ED94E0FE
:104010000E94460C87ED94E00E94460C8EED94E0E1
:104020000E94460C85EE94E00E94460C8CEE94E0D3
:104030000E94460C83EF94E00E94460C8AEF94E0C5
:104040000E94460C81E095E00E94460C88E095E0D5
:104050000E94460C8FE095E00E94460C86E195E0B8
:104060000E94460C8DE195E00E94460C84E295E0AA
:104070000E94460C8BE295E00E94460C82E395E09C
:104080000E94460C89E395E00E94460C80E495E08E
:104090000E94460C87E495E00E94460C84E595E07A
:1040A0000E94FB0280916005909161050E9463214E
:1040B00081E995E00E94630987E695E00C94AB09DD
:1040C0000F931F93CF93DF93009759F461157105F8
:1040D00041F4F0E0E0E0CF01DF91CF911F910F912B
:1040E00008958B01EC016EE070E081E090E00E94A9
:1040F000AB20FC01892B69F380E88383011511054E
:1041000071F01387028781E883838091BF059091C6
:10411000C005892B21F4F093C005E093BF052097DB
:10412000D1F2D187C0878381826083838091C1056A
:104130009091C205892B79F6F093C205E093C105F1
:104140008091C3059091C405892B29F6F093C4058D
:10415000E093C305C0CF0F931F93CF93DF93869F48
:104160008001879F100D969F100D1124C8010E9499
:10417000C720EC01009729F0A80170E060E00E94E0
:10418000EC21CE01DF91CF911F910F9108950F93F4
:104190001F93CF93DF938230910510F482E090E07B
:1041A000E091C705F091C80530E020E0B0E0A0E064
:1041B000309799F42115310509F44AC0281B390BB1
:1041C00024303105D8F58A819B816115710589F10B
:1041D000FB0193838283FE0111C0408151810281E2
:1041E000138148175907E0F04817590799F41097B9
:1041F00061F012960C93129713961C933296CF018E
:10420000DF91CF911F910F9108950093C7051093EF
:10421000C805F4CF2115310551F04217530738F086
:10422000A901DB019A01BD01DF01F801C1CFEF0156
:10423000F9CF9093C8058093C705CDCFFE01E20F5B
:10424000F31F819391932250310939832883D7CF6B
:104250002091C5053091C605232B41F42091020120
:10426000309103013093C6052093C50520910001CC
:10427000309101012115310541F42DB73EB7409130
:10428000040150910501241B350BE091C505F09107
:10429000C605E217F307A0F42E1B3F0B28173907BA
:1042A00078F0AC014E5F5F4F2417350748F04E0F92
:1042B0005F1F5093C6054093C505819391939FCF8F
:1042C000F0E0E0E09CCFCF93DF930097E9F0FC01B2
:1042D000329713821282A091C705B091C805ED01F3
:1042E00030E020E01097A1F420813181820F931FEC
:1042F0002091C5053091C6052817390709F061C01E
:10430000F093C605E093C505DF91CF910895EA01CA
:10431000CE17DF07E8F54A815B819E014115510503
:10432000B1F7E901FB83EA8349915991C40FD51F85
:10433000EC17FD0761F4808191810296840F951F2F
:10434000E90199838883828193819B838A83F0E04A
:10435000E0E012968D919C9113970097B9F52D91FD
:104360003C911197CD010296820F931F2091C505B4
:104370003091C6052817390739F6309751F5109254
:10438000C8051092C705B093C605A093C505BCCF5C
:10439000D383C28340815181840F951FC817D907E9
:1043A00061F44E5F5F4F88819981480F591F518397
:1043B00040838A819B81938382832115310509F093
:1043C000B0CFF093C805E093C7059ECFFD01DC0197
:1043D000C0CF13821282D7CFDC0101C06D93415050
:1043E0005040E0F70895EE0FFF1F0590F491E02D87
:1043F00009945058BB27AA270E9411220C948B23A2
:104400000E947D2338F00E94842320F039F49F3FDE
:1044100019F426F40C947A230EF4E095E7FB0C943F
:104420007423E92F0E949C2358F3BA17620773077D
:104430008407950720F079F4A6F50C94BE230EF4BA
:10444000E0950B2EBA2FA02D0B01B90190010C01A4
:10445000CA01A0011124FF27591B99F0593F50F4BC
:10446000503E68F11A16F040A22F232F342F442714
:10447000585FF3CF469537952795A795F04053950C
:10448000C9F77EF41F16BA0B620B730B840BBAF0DC
:104490009150A1F0FF0FBB1F661F771F881FC2F747
:1044A0000EC0BA0F621F731F841F48F4879577955B
:1044B0006795B795F7959E3F08F0B0CF9395880F15
:1044C00008F09927EE0F9795879508950E9450233D
:1044D00008F481E008950E947F220C948B230E94AF
:1044E000842358F00E947D2340F029F45F3F29F097
:1044F0000C94742351110C94BF230C947A230E94C2
:104500009C2368F39923B1F3552391F3951B550B25
:10451000BB27AA2762177307840738F09F5F5F4F96
:10452000220F331F441FAA1FA9F335D00E2E3AF0D5
:10453000E0E832D091505040E695001CCAF72BD0ED
:10454000FE2F29D0660F771F881FBB1F261737073E
:104550004807AB07B0E809F0BB0B802DBF01FF2770
:1045600093585F4F3AF09E3F510578F00C947423B6
:104570000C94BF235F3FE4F3983ED4F38695779580
:104580006795B795F7959F5FC9F7880F911D969529
:10459000879597F90895E1E0660F771F881FBB1F85
:1045A000621773078407BA0720F0621B730B840B32
:1045B000BA0BEE1F88F7E09508950E94E4226894F4
:1045C000B1110C94BF2308950E94A42388F09F5733
:1045D00098F0B92F9927B751B0F0E1F0660F771F27
:1045E000881F991F1AF0BA95C9F714C0B13091F01D
:1045F0000E94BE23B1E008950C94BE23672F782F4C
:104600008827B85F39F0B93FCCF3869577956795E1
:10461000B395D9F73EF490958095709561957F4F4D
:104620008F4F9F4F0895E89409C097FB3EF49095F3
:104630008095709561957F4F8F4F9F4F9923A9F07B
:10464000F92F96E9BB279395F6958795779567950A
:10465000B795F111F8CFFAF4BB0F11F460FF1BC04E
:104660006F5F7F4F8F4F9F4F16C0882311F096E9E1
:1046700011C0772321F09EE8872F762F05C066238F
:1046800071F096E8862F70E060E02AF09A95660F48
:10469000771F881FDAF7880F9695879597F9089501
:1046A000990F0008550FAA0BE0E8FEEF1616170643
:1046B000E807F907C0F012161306E407F50798F0AB
:1046C000621B730B840B950B39F40A2661F0232BC4
:1046D000242B252B21F408950A2609F4A140A69540
:1046E0008FEF811D811D089597F99F6780E870E025
:1046F00060E008959FEF80EC089500240A94161658
:10470000170618060906089500240A9412161306BF
:10471000140605060895092E0394000C11F488234D
:1047200052F0BB0F40F4BF2B11F460FF04C06F5F69
:104730007F4F8F4F9F4F089557FD9058440F551F3F
:1047400059F05F3F71F04795880F97FB991F61F013
:104750009F3F79F087950895121613061406551F8A
:10476000F2CF4695F1DF08C0161617061806991FF6
:10477000F1CF86957105610508940895E894BB27EB
:1047800066277727CB0197F908950E94D8230C94C8
:104790008B230E947D2338F00E94842320F09523F0
:1047A00011F00C9474230C947A2311240C94BF23DD
:1047B0000E949C2370F3959FC1F3950F50E0551F05
:1047C000629FF001729FBB27F00DB11D639FAA2766
:1047D000F00DB11DAA1F649F6627B00DA11D661FB5
:1047E000829F2227B00DA11D621F739FB00DA11DD6
:1047F000621F839FA00D611D221F749F3327A00D90
:10480000611D231F849F600D211D822F762F6A2F2B
:1048100011249F5750409AF0F1F088234AF0EE0F90
:10482000FF1FBB1F661F771F881F91505040A9F7BD
:104830009E3F510580F00C9474230C94BF235F3F7E
:10484000E4F3983ED4F3869577956795B795F795F9
:10485000E7959F5FC1F7FE2B880F911D9695879571
:1048600097F90895FA01EE0FFF1F309621053105E3
:10487000A1F16115710561F48038BFE39B0749F12F
:1048800068949038810561F08038BFEF9B0741F054
:1048900099234AF5FF3FE1053105210519F1E89417
:1048A0000894E795D901AA2329F4AB2FBE2FF85F0E
:1048B000D0F310C0FF5F70F4A695E0F7F73950F021
:1048C00019F0FF3A38F49F779F930DD00F9007FCB3
:1048D0009058089546F00C947A2360E070E080E8E8
:1048E0009FE308954FE79F775F934F933F932F93F5
:1048F0000E942D252F913F914F915F910E94C523DA
:104900000C948A2429F416F00C9474230C94BE237E
:104910000C947A230E94A423A8F39638A0F707F8F2
:104920000F92E8942BE33AEA48EB5FE70E94DB231F
:104930000F920F920F924DB75EB70F920E9475259E
:10494000E8E6F0E00E94BC244F915F91EF91FF9167
:10495000E595EE1FFF1F49F0FE57E0684427EE0F74
:10496000441FFA95E1F74195550B0E94EF240F90F3
:1049700007FE0C94E3240895DF93CF931F930F93C6
:10498000FF92EF92DF927B018C01689406C0DA2ED1
:10499000EF010E94D823FE01E894A591259135915D
:1049A00045915591A6F3EF010E941122FE01970156
:1049B000A801DA9469F7DF90EF90FF900F911F91B3
:1049C000CF91DF9108959B01AC0160E070E080E839
:1049D0009FE30C946B220C9474230C94A9250E94E1
:1049E000A423D8F39923C9F3940F511DA3F3915035
:1049F000504094F059F0882332F0660F771F881FDB
:104A000091505040C1F79E3F51052CF7880F911DE2
:104A10009695879597F908955F3FACF0983E9CF086
:104A2000BB27869577956795B79508F4B160939500
:104A3000C1F7BB0F58F711F460FFE8CF6F5F7F4FEE
:104A40008F4F9F4FE3CF0C94BF2316F00C94A925F2
:104A50000C947A2368940C9474230E94A423A8F3E2
:104A60009923C1F3AEF3DF93CF931F930F93FF927C
:104A7000C92FDD2788232AF02197660F771F881F0B
:104A8000DAF720E030E040E85FEB9FE3883920F080
:104A9000803E38F021968F770E94FA21E0E9F0E01D
:104AA00004C00E94FA21EDEBF0E00E94BC248B01CF
:104AB000BE01EC01FB2E6F5771097595771F880BAE
:104AC000990B0E94152328E132E741E35FE30E943E
:104AD000D823AF2D9801AE01FF900F911F91CF9178
:104AE000DF910E9411220C948B23FA01DC01AA0FA2
:104AF000BB1F9B01AC01BF5728F422273327442753
:104B0000507820C0B75190F4AB2F002446953795CC
:104B10002795011CA395D2F3002071F0220F331FBB
:104B2000441FB395DAF30ED00C94F921613071056E
:104B3000A0E88A07B94630F49B01AC0166277727C5
:104B400088279078309621F02083318342835383E5
:104B500008959F3F31F0915020F4879577956795A0
:104B6000B795880F911D9695879597F9089581E0DF
:104B700090E0F8940C94AA28FB01DC0102C001909B
:104B80000D9241505040D8F70895AEE0B0E0EBEC04
:104B9000F5E20C9481280D891E898F89988D26E075
:104BA0002C831A83098397FF02C080E090E8019765
:104BB0009E838D83AE01455E5F4F698D7A8DCE01F8
:104BC00001960E94F5254D815E8157FD0AC02F8117
:104BD0003885421753070CF49A01020F131FF8018E
:104BE00010822E96E4E00C949D28ABE0B0E0EBEF51
:104BF000F5E20C9473287C013B018A01FC011782C9
:104C00001682838181FFC8C1CE0101965C01F70144
:104C10009381F30193FD859193FF81913F01882357
:104C200009F453C1853239F493FD859193FF819145
:104C30003F01853229F4B70190E00E94E527E7CFD4
:104C4000912C212C312CFFE1F31538F08B3211F12E
:104C500090F4803209F1833229F137FC3CC020ED19
:104C6000280F2A3050F536FE20C08AE0989E200D8D
:104C70001124922E06C08D3291F0803371F7689422
:104C800030F8F30193FD859193FF81913F018111EC
:104C9000DACF21C0689431F8689432F8F2CF689482
:104CA00033F8EFCF689434F8ECCFEAE02E9E200D75
:104CB0001124222E689435F8E4CF8E3229F436FC84
:104CC00004C1689436F8DDCF8C3619F4689437F84F
:104CD000D8CF8836B1F2982F9F7D95549330E0F06D
:104CE0008336A1F18337C1F1833509F063C0280110
:104CF000F2E04F0E511CF801C080D180692D70E0A8
:104D000036FC02C06FEF7FEFC6010E94CF274C0137
:104D1000689437F882010AC00C5F1F4FFFE3F983E4
:104D200088248394912C6501E89437F833FE2DC0D4
:104D3000522C8114910471F5552009F468CFB70104
:104D400080E290E00E94E5275A94F6CFF801808136
:104D500089830E5F1F4FE4CF2801F2E04F0E511CF4
:104D6000F801C080D180692D70E036FC02C06FEF81
:104D70007FEFC6010E94DA274C018201D5CFB7012F
:104D800080E290E00E94E5272A942814190409F093
:104D9000B0F7CECFF60137FC859137FE81916F01D8
:104DA000B70190E00E94E52751105A94F1E08F1A64
:104DB0009108BFCF843619F0893609F077C0F80121
:104DC00037FE6BC060817181828193810C5F1F4FC0
:104DD000F32DFF763F2E97FF09C090958095709533
:104DE00061957F4F8F4F9F4F689437F82AE030E0EE
:104DF000A5010E941528C82ECA188C2C432C36FEFB
:104E00000CC0E89440F8C91440F434FE05C032FCEC
:104E100003C0F32DFE7E4F2E892C44FE95C0FE016B
:104E2000EC0DF11D8081803309F087C0242D297E8F
:104E3000422E842D8870582E43FC95C040FE8FC0B2
:104E40009C2C821418F42C0C922C981844FE91C0BF
:104E5000B70180E390E00E94E52742FE09C088E7A1
:104E600090E041FE02C088E590E0B7010E94E5278E
:104E7000C91408F48AC0CA94D12C9FEFC91AD90A60
:104E8000CA0CDB1CF60182916F01B70190E00E9411
:104E9000E527AC14BD04B1F74FCF60817181072EB7
:104EA000000C880B990B0E5F1F4F92CFD32CE89408
:104EB000D4F82AE030E0853739F1232D297FD22E2E
:104EC0008F3601F148F48835A9F0F7018681978182
:104ED0002B96E2E10C948F28803749F08837A9F7A8
:104EE000D4FE02C06894D2F820E130E00DC068948E
:104EF000D4F8F6CF34FE03C0822F8660D82E20E18E
:104F000032E002C028E030E0F801D7FE0FC0608137
:104F10007181828193810C5F1F4FA5010E9415282A
:104F2000C82ECA183D2CE89437F867CF608171818C
:104F300090E080E00E5F1F4FF0CF42FC02C08394F0
:104F400078CF8394839475CF842D867809F471CFBC
:104F5000F6CFB70180E290E00E94E52783948214A7
:104F6000C0F3512C73CF522C5818821408F46ECF12
:104F7000F8CF842D867809F47BCF8BE241FE80E266
:104F800047FC8DE2B70190E071CFB70180E390E07C
:104F90000E94E5279A946CCF8FEF9FEF99CFFC0189
:104FA0000590615070400110D8F7809590958E0F54
:104FB0009F1F0895FC016150704001900110D8F7C7
:104FC000809590958E0F9F1F08950F931F93CF93F9
:104FD000DF93182F092FEB018B8181FD09C01FEF93
:104FE0000FEF812F902FDF91CF911F910F91089597
:104FF00082FF14C02E813F818C819D812817390743
:105000003CF4E881F981CF0101969983888310836C
:105010008E819F8101969F838E83E3CFE885F985FA
:10502000812F0995892BA1F3DACFFA01AA2728301D
:1050300051F1203181F1E8946F936E7F6E5F7F4F65
:105040008F4F9F4FAF4FB1E03ED0B4E03CD0670FE1
:10505000781F891F9A1FA11D680F791F8A1F911D34
:10506000A11D6A0F711D811D911DA11D20D009F484
:1050700068943F912AE0269F11243019305D3193C6
:10508000DEF6CF010895462F4770405D4193B3E0AF
:105090000FD0C9F7F6CF462F4F70405D4A3318F056
:1050A000495D31FD4052419302D0A9F7EACFB4E007
:1050B000A6959795879577956795BA95C9F70097BF
:1050C0006105710508959B01AC010A2E0694579560
:1050D000479537952795BA95C9F7620F731F841FB7
:1050E000951FA01D08952F923F924F925F926F924D
:1050F0007F928F929F92AF92BF92CF92DF92EF9268
:10510000FF920F931F93CF93DF93CDB7DEB7CA1BE8
:10511000DB0B0FB6F894DEBF0FBECDBF09942A8813
:10512000398848885F846E847D848C849B84AA84BB
:10513000B984C884DF80EE80FD800C811B81AA8148
:10514000B981CE0FD11D0FB6F894DEBF0FBECDBF13
:10515000ED01089510E0CEE9D0E004C0FE010E9408
:0E516000F3212196CF39D107C9F7F894FFCF7C
:10516E000000C905800018000000000000000000CB
:10517E00E8FFE8FF0000000000001400000000003F
:10518E0000000000ECFFECFF00000000000000003B
:10519E000000C209420C000000007A09340C3109EB
:1051AE002E09EF0A2B094B082009E508CC08B30895
:1051BE00B10872084E080200000000008D09360C7E
:1051CE00FEFFFEFF00007B09380C06000000000009
:1051DE004509280CFAFFFAFF000033092A0C8C014E
:1051EE000C01160196011800000000006309120C54
:1051FE00E8FFE8FF000070091C0CA80120012A013D
:10520E00B201140000000000AB09FE0BECFFECFF36
:10521E000000B809080C000000008E02EE011B020F
:10522E00DB024C022A023E02000000005E175B17F2
:10523E004B08E309C409D9149C1400000000C900EE
:10524E001E08FB0700000000C9001E089407636FCC
:10525E006E765B662C722F615D20657272004875EA
:10526E00623A204F4B0A004875623A204552520A64
:10527E0000426F6F74696E672048756200536572E5
:10528E00766F206D313A204F4B0A00536572766F60
:10529E00206D313A204552520A00536572766F20C6
:1052AE006D323A4F4B0A00536572766F206D323A6B
:1052BE004552520A00426F6F74696E6720536572D1
:1052CE00766F206D0052504C69646172206C3A20EA
:1052DE004F4B0A0052504C69646172206C3A204563
:1052EE0052520A00426F6F74696E672052504C69B9
:1052FE00646172005345545550202F2F2F2F2F2F9E
:10530E002F0A00426F6F74696E67207C2000534530
:10531E0054555020436F6D706C65746564202F2F4B
:10532E002F2F2F2F2F0A00626F6F74696E67204325
:10533E006F6D706C65746564002E2E2E0A00210A46
:10534E00005469636B2023003020332E3220352E1B
:10535E003625332E322030203025352E3620302083
:10536E0030257C3020333020302533302030203033
:10537E00253020302030257C33302034302030252D
:10538E007C00256C640025236C6F00256C6F002556
:10539E00236C580025236C7800256C5800256C78FA
:1053AE00005E5E5E5E5E5E5E5E5E5E5E5E5E5E5E6D
:0E53BE0000207C203130302520006D7300006F
:00000001FF
