:100000000C945E000C9486000C9486000C94860080
:100010000C9486000C9486000C9486000C94860048
:100020000C9486000C9486000C9486000C94691045
:100030000C9486000C9486000C9486000C94860028
:100040000C94C70F0C9486000C9437100C9411106C
:100050000C9486000C9486000C9486000C94860008
:100060000C9486000C948600000000080002010039
:100070000003040700000000000000000000000072
:10008000250028002B0000000000240027002A0083
:10009000040404040404040402020202020203032E
:1000A0000303030301020408102040800102040836
:1000B00010200102040810202D13501111241FBE1E
:1000C000CFEFD8E0DEBFCDBF13E0A0E0B1E0E6E9BE
:1000D000FAE302C005900D92A833B107D9F725E0E5
:1000E000A8E3B3E001C01D92A53AB207E1F710E022
:1000F000CDE5D0E004C02197FE010E944A1ACC351C
:10010000D107C9F70E9488150C943E1D0C9400007D
:10011000FC01428353836483758386819781A08524
:10012000B185840F951FA61FB71F82879387A48769
:10013000B58708951F93CF93DF93182FC09148037D
:10014000D09149038A3041F4E881F9810190F0812E
:10015000E02D6DE0CE010995E881F9810190F081F3
:10016000E02D612FCE01099521E030E0019711F4D7
:1001700030E020E0C901DF91CF911F910895CF9326
:10018000DF93C0914803D0914903E881F98100844D
:10019000F185E02DCE010995892BB9F3E881F9812C
:1001A0000284F385E02DCE01DF91CF91099490E098
:1001B000FC01EC55FF4F249180579F4FFC01849127
:1001C000882399F090E0880F991FFC01EA57FF4FB0
:1001D000A591B491FC01E458FF4F859194918FB79C
:1001E000F894EC91E22BEC938FBF089590E0FC0122
:1001F000E859FF4F2491FC01EC55FF4F3491FC016D
:10020000E057FF4FE491EE23C9F0222339F0233069
:1002100001F1A8F4213019F1223029F1F0E0EE0FBC
:10022000FF1FE458FF4FA591B4918FB7F894EC915C
:10023000611126C030953E233C938FBF089527302F
:10024000A9F02830C9F0243049F7809180008F7DD3
:1002500003C0809180008F7780938000DFCF84B5CA
:100260008F7784BDDBCF84B58F7DFBCF8091B000CD
:100270008F778093B000D2CF8091B0008F7DF9CF7F
:100280003E2BDACF3FB7F894809144039091450319
:10029000A0914603B091470326B5A89B05C02F3F08
:1002A00019F00196A11DB11D3FBFBA2FA92F982F9C
:1002B0008827BC01CD01620F711D811D911D42E097
:1002C000660F771F881F991F4A95D1F708958F925F
:1002D0009F92AF92BF92CF92DF92EF92FF926B010B
:1002E0007C010E9442014B015C01C114D104E10474
:1002F000F104B9F00E944201681979098A099B0941
:10030000683E73408105910580F321E0C21AD1084F
:10031000E108F10888EE880E83E0981EA11CB11C4C
:10032000E4CFFF90EF90DF90CF90BF90AF909F9081
:100330008F9008952FB7F894609140037091410316
:1003400080914203909143032FBF0895DC01ED910A
:10035000FC910190F081E02D0994AF92BF92CF9271
:10036000DF92EF92FF920F931F93CF93DF936C0175
:100370007B018B01040F151FEB015E01AE18BF0856
:10038000C017D10759F06991D601ED91FC91019008
:10039000F081E02DC6010995892B79F7C501DF9120
:1003A000CF911F910F91FF90EF90DF90CF90BF9072
:1003B000AF900895FC01538D448D252F30E0842F9C
:1003C00090E0821B930B541710F0CF96089501977D
:1003D0000895FC01918D828D981761F0A28DAE0F6A
:1003E000BF2FB11D5D968C91928D9F5F9F73928FF1
:1003F00090E008958FEF9FEF0895FC01918D828D1D
:10040000981731F0828DE80FF11D858D90E00895E9
:100410008FEF9FEF0895FC01918D228D892F90E041
:10042000805C9F4F821B91098F73992708958CE4FC
:1004300093E00E940B0221E0892B09F420E0822F37
:10044000089580E090E0892B29F00E941702811125
:100450000C9400000895FC01A48DA80FB92FB11DC4
:10046000A35ABF4F2C91848D90E001968F739927EA
:10047000848FA689B7892C93A089B1898C918370C8
:1004800080648C93938D848D981306C00288F389C1
:10049000E02D80818F7D80830895EF92FF920F93EE
:1004A0001F93CF93DF93EC0181E0888F9B8D8C8D20
:1004B00098131AC0E889F989808185FF15C09FB714
:1004C000F894EE89FF896083E889F98980818370D7
:1004D000806480839FBF81E090E0DF91CF911F9186
:1004E0000F91FF90EF900895F62E0B8D10E00F5FA7
:1004F0001F4F0F731127E02E8C8D8E110CC00FB67D
:1005000007FCFACFE889F989808185FFF5CFCE0114
:100510000E942B02F1CFEB8DEC0FFD2FF11DE35A62
:10052000FF4FF0829FB7F8940B8FEA89FB89808197
:100530008062CFCFCF93DF93EC01888D8823B9F011
:10054000AA89BB89E889F9898C9185FD03C08081DE
:1005500086FD0DC00FB607FCF7CF8C9185FFF2CF5B
:10056000808185FFEDCFCE010E942B02E9CFDF9184
:10057000CF9108950F931F93CF93DF93FC01C08118
:10058000D181209709F18C01E881F9810680F781FA
:10059000E02DCE010995EA89FB8980818F7E8083D9
:1005A000EA89FB898081877F8083EA89FB89808152
:1005B0008F778083EA89FB8980818F7D80838A8D14
:1005C000898FF80111821082DF91CF911F910F91D5
:1005D00008958EBD00000DB407FEFDCF8EB50895C1
:1005E000CF93DF93EC010E949A01C60FD71F8FEFC4
:1005F0000E94E9028F3F59F00E949A01CE01861BAA
:10060000970B97FFF4CF80E0DF91CF91089581E0C1
:10061000FBCFCF93DF93FC012781222349F0EC012C
:1006200061E085810E94F6008FEF0E94E9021F823F
:10063000DF91CF9108951F93CF93DF93EC0188E56D
:1006400092E00E94F002182F882361F08DEF0E9443
:10065000E902CE010E9409031886812FDF91CF9114
:100660001F9108958FE18E83CE010E940903F5CF7B
:100670000F931F93CF93DF938C01862FEA010E9483
:10068000E902FE0181918EBDDE5FEC17FD0741F0AE
:100690008191000000000DB407FEFDCF8EBDF5CFA7
:1006A0000DB407FEFDCF8FEF0E94E9028FEF0E948D
:1006B000E9028FEF0E94E902F80181878F7185308E
:1006C00059F081E28683C8010E94090380E0DF912E
:1006D000CF911F910F91089581E0F9CFDF92EF92B2
:1006E000FF920F931F93CF93DF93EC01162F022FEE
:1006F000F32EE42ED52E0E949A05882309F441C0DA
:100700008F8181110DC09A818B819CBD8DBD81E04F
:100710008F8360E08D810E94F6008FEF0E94E902D6
:100720001C3031F08CE291E00E94F002882349F104
:10073000812F80640E94E9028D2D0E94E9028E2D96
:100740000E94E9028F2D0E94E902802F0E94E90297
:1007500087E80E94E9028FEF0E94E9020AE010E0B8
:100760008FEF0E94E902898787FF03C001501109BA
:10077000B9F7DF91CF911F910F91FF90EF90DF902C
:1007800008958FEFF6CFAF92BF92CF92DF92EF92A4
:10079000FF921F93CF93DF93EC016A017B01590114
:1007A0001F85112309F45EC08885823049F48B854A
:1007B0009C85AD85BE85C816D906EA06FB0649F1BB
:1007C0008A85A7019601833039F099E0220F331F03
:1007D000441F551F9A95D1F769E1CE010E946E031F
:1007E000882389F08EE08E83CE010E94090310E0F9
:1007F000812FDF91CF911F91FF90EF90DF90CF90ED
:10080000BF90AF90089582E08887CB86DC86ED8626
:10081000FE8688E592E00E94F002811102C085E226
:10082000E2CFA5016CEFCE010E9438038823E1F2EC
:100830008B859C85AD85BE850196A11DB11D8B87DD
:100840009C87AD87BE871F851111D2CFCE01DF9166
:10085000CF911F91FF90EF90DF90CF90BF90AF901E
:100860000C941B038A85833039F089E0CC0CDD1CA5
:10087000EE1CFF1C8A95D1F7A701960168E1CE0115
:100880000E946E03882331F08DE08E83CE010E949A
:100890000903AECFA5016EEFCE010E943803882375
:1008A000A9F388E592E00E94F002F82E84E2FF208E
:1008B00061F320E030E0A9016DE0CE010E946E03FB
:1008C000882311F08AE0E1CF8FEF0E94E9028111C5
:1008D000F9CFCE010E9409031F2D8ACFEF92FF921C
:1008E0001F93CF93DF93FC01208111E020FF12C002
:1008F000EC017C01FBE0EF0EF11C4F81588569850E
:100900007A85970189819A810E94C303182F8111EA
:1009100008C010E0812FDF91CF911F91FF90EF90E1
:100920000895888181FD04C088818E7F8883F2CFFD
:100930004F81588569857A858B819C81AD81BE8187
:10094000480F591F6A1F7B1F970189819A810E9456
:10095000C3038111E9CFDDCFCF93DF93EC0118867C
:1009600020E030E0A9016CE00E946E03882349F08A
:1009700089E08E83CE010E94090380E0DF91CF9150
:100980000895CE010E94090381E0F8CFCF92DF9253
:10099000EF92FF920F931F93CF93DF93EC016A01C5
:1009A0007B0189018885813049F48B859C85AD85E3
:1009B000BE858C159D05AE05BF0539F18A85A70159
:1009C0009601833039F089E0220F331F441F551FF1
:1009D0008A95D1F762E1CE010E946E03882379F0F7
:1009E0008CE08E83CE010E94090380E0DF91CF91DD
:1009F0001F910F91FF90EF90DF90CF90089581E0CD
:100A00008887CB86DC86ED86FE860E949A017B0174
:100A100024EDE21A2EEFF20A8FEF0E94E902898795
:100A20008F3F49F40E949A01C701861B970B97FFDD
:100A3000F3CF8EE1D6CF8E3F11F089E1D2CF8FEF89
:100A40008EBDF801D801A150BE4F9FEFEA17FB07FA
:100A500049F0000000000DB407FEFDCF8EB59EBD2D
:100A60008193F4CF0DB407FEFDCF8EB58C9319861C
:100A70008FEF0E94E9028FEF0E94E9028B859C852F
:100A8000AD85BE850196A11DB11D8B879C87AD8765
:100A9000BE878F858111AACFCE01DF91CF911F91A3
:100AA0000F91FF90EF90DF90CF900C94AC04CF9219
:100AB000DF92EF92FF921F93CF93DF93DC011196A9
:100AC000ED91FC91EF2B51F490E080E0DF91CF911C
:100AD0001F91FF90EF90DF90CF900895122F6A0141
:100AE0007B01EC018F819885A985BA858C159D05C0
:100AF000AE05BF0561F0CE010E946E04882321F38C
:100B000012FF0CC01882CF82D886E986FA8613704D
:100B10002881122B1883CE010B96D8CF9E01255F1A
:100B20003F4FB701A60189819A810E94C6048111B5
:100B3000E9CFCACFFC012085223011F40C941B03AD
:100B4000213011F40C94AC0481E008958F929F92AF
:100B5000AF92BF92CF92DF92EF92FF920F931F93CB
:100B6000423051056105710560F480E01F910F91DD
:100B7000FF90EF90DF90CF90BF90AF909F908F90BD
:100B80000895FC01C08CD18CE28CF38CC416D50680
:100B9000E606F70650F3480159016A018581803263
:100BA00029F584899589A689B78917E0769567958F
:100BB000579547951A95D1F7480F591F6A1F7B1F04
:100BC00023E0CF0180960E945705009771F2CC0C6C
:100BD000DD1CCC0CDD1CF1E0DF228C0D9D1DFC0129
:100BE00080829182A282B38281E0C0CF803109F0FD
:100BF000BCCF44895589668977894D0D511D611D8A
:100C0000711D23E0CF0180960E945705009709F4DB
:100C1000ACCFCC0CDD1CF1E0DF22C80ED91EF601F2
:100C200011830083E1CFCF92DF92EF92FF920F9377
:100C30001F93CF93DF93423051056105710550F446
:100C40008FEFDF91CF911F910F91FF90EF90DF9089
:100C5000CF900895FC01C08CD18CE28CF38CC4162B
:100C6000D506E606F70660F389016A01EC01858185
:100C7000803299F584899589A689B789E7E07695C8
:100C8000679557954795EA95D1F7480F591F6A1F01
:100C90007B1F22E0CE0180960E945705009781F2CB
:100CA000CC0CDD1CCC0CDD1CF1E0DF228C0D9D1D7D
:100CB000FC0180819181A281B381488D598D6A8D1B
:100CC0007B8D481759076A077B0730F1F80180834D
:100CD0009183A283B38381E0B4CF803109F0B0CF98
:100CE00044895589668977894D0D511D611D711D96
:100CF00022E0CF0180960E945705009709F4A0CF0B
:100D0000CC0CDD1CF1E0DF22C80ED91EF60180817B
:100D10009181B0E0A0E0D1CF80E093CF3F924F929D
:100D20005F926F927F928F929F92AF92BF92CF927B
:100D3000DF92EF92FF920F931F93CF93DF9300D038
:100D400000D0CDB7DEB75C01FC01448455846684D5
:100D5000778486809780F401C084D184E284F38410
:100D6000C414D504E604F704C0F47301620110E072
:100D7000FFEFCF1ADF0AEF0AFF0AF401808D918D91
:100D8000A28DB38D8C159D05AE05BF0540F41111E4
:100D900032C0C084D184E284F38411E0E9CF4C14E2
:100DA0005D046E047F0439F19E012F5F3F4FB70150
:100DB000A601C4010E94130687FD1DC08823C1F24D
:100DC00089819A81AB81BC81892B8A2B8B2B81F6FF
:100DD000112329F0F401C086D186E286F3860FEF55
:100DE0001FEF2FEF3FE0B701A601C4010E94A60547
:100DF000382E811118C0312C832D0F900F900F9039
:100E00000F90DF91CF911F910F91FF90EF90DF90A6
:100E1000CF90BF90AF909F908F907F906F905F909A
:100E20004F903F9008954114510461047104B9F446
:100E3000F501C486D586E686F78682814114510481
:100E400061047104B1F0FFEF4F1A5F0A6F0A7F0A65
:100E50004C145D046E047F0479F08F7B0BC0970106
:100E60008601B301A201C4010E94A6058111E0CF51
:100E7000C2CF8064F5018283F5018281806882831C
:100E8000BBCF892B79F41092800082E0809381009F
:100E90001092850010928400B19A80916F00826058
:100EA00080936F0008958F929F92AF92BF92CF92DE
:100EB000DF92EF92FF920F931F93CF93DF93EC019A
:100EC000EE85FF85309709F009950E949A014B0144
:100ED0005C018E010D5E1F4F6E0121E3C20ED11C1D
:100EE000F12CE12C89A99AA98E159F0514F1D8013E
:100EF0008D919D918D010097C9F0BFEFEB1AFB0A10
:100F0000DC01ED91FC910280F381E02DB501A4019B
:100F10000995882359F0F801329780819181DC018D
:100F2000ED91FC910480F581E02D0995C016D10664
:100F3000C9F60E949A016E837F83888799870A8108
:100F40001B812C813D81DC01CB01800F911FA21FF1
:100F5000B31F8A879B87AC87BD87DF91CF911F9195
:100F60000F91FF90EF90DF90CF90BF90AF909F9048
:100F70008F9008950F931F93CF93DF93EC01EE852D
:100F8000FF85309709F009950E949A016E837F834F
:100F9000888799870A811B812C813D81DC01CB01E7
:100FA000800F911FA21FB31F8A879B87AC87BD87C5
:100FB000DF91CF911F910F9108950F931F93FC0123
:100FC0000285138524853585401B510B620B730BFD
:100FD00080E077FF80891F910F910895CF93DF9371
:100FE000EC01E881F9810288F389E02D09958F3FB2
:100FF000980731F02D813E812F5F3F4F3E832D8337
:10100000DF91CF9108958FEF9FEF089560E070E03A
:10101000CB01089590E080E00895FF920F931F9315
:10102000CF93DF938C01EB016F3F7607B9F0F62E7B
:10103000EAE06E1306C06DE0F801808991890E9494
:10104000A6016F2DF801808991890E94A601CE0129
:10105000DF91CF911F910F91FF900895D0E0C0E0F4
:10106000F6CF7F928F929F92AF92BF92CF92DF92F4
:10107000EF92FF920F931F93CF93DF938C0149015F
:101080005A01EB01C12CD12C7601C814D904EA0411
:10109000FB04B4F479908AE0781206C06DE0F801A0
:1010A000808991890E94A601672DF8018089918924
:1010B0000E94A601FFEFCF1ADF0AEF0AFF0AE5CF71
:1010C000C501B401DF91CF911F910F91FF90EF9077
:1010D000DF90CF90BF90AF909F908F907F900895BA
:1010E000CB010895CF93DF93EC0188899989DC01C6
:1010F000ED91FC910084F185E02D0995892BA9F3F0
:1011000088899989DC01ED91FC910284F385E02DB9
:10111000DF91CF910994CF93DF93EC01888999896E
:10112000DC01ED91FC910084F185E02D0995892B7E
:10113000A9F388899989DC01ED91FC910484F585F6
:10114000E02DDF91CF9109948F929F92AF92BF9241
:10115000CF92DF92EF92FF920F931F93CF93DF9383
:101160008C0149015A01EB01C12CD12C7601D80127
:1011700050968D919C91DC01ED91FC910284F38558
:10118000E02D09958F3F61F0C814D904EA04FB04EF
:101190003CF48993BFEFCB1ADB0AEB0AFB0AE7CFDB
:1011A000C701B601DF91CF911F910F91FF90EF9092
:1011B000DF90CF90BF90AF909F908F900895DC010B
:1011C00050968D919C91DC01ED91FC910084F1850C
:1011D000E02D099490E080E0089590E080E008958B
:1011E00008950895DC01ED91FC9136970190F0810E
:1011F000E02DE80FF91F80E791E0918380838AE773
:1012000091E097838683089520E731E0FC013183E4
:1012100020832AE731E0378326830895FB0120816C
:101220003181FC0131832083FB01428153812650AF
:101230003109F90120813181820F931FFC01518313
:10124000408308952CE831E0FC013183208326E9B6
:1012500031E0318F208F60E871E00C940E09DC01E1
:10126000ED91FC91369720813181820F931F0C9470
:1012700022090895DC01ED91FC9136970190F081EF
:10128000E02DE80FF91F8CE591E09183808386E6DD
:1012900091E09383828308952CE531E0FC01318352
:1012A000208326E631E0338322830895FB012081E9
:1012B0003181FC0131832083FB014281538126501F
:1012C0003109F90120813181820F931FFC01518383
:1012D0004083089528EA31E0FC013183208322EB2A
:1012E00031E0358B248B6CE971E00C945609DC01FC
:1012F000ED91FC91369720813181820F931F0C94E0
:101300006A0908950895FC01848583FF17C084A1AC
:1013100095A1A6A1B7A1448D558D668D778D841BAF
:10132000950BA60BB70B811520E89207A105B10517
:1013300020F08FEF9FE7A0E0B0E0089580E090E01C
:10134000DC01F1CF0F931F93CF93DF93FC01248532
:10135000222399F0EC01868587FF3DC040A151A171
:1013600062A173A18289938921E080960E9457052A
:10137000009741F48D8581608D87DF91CF911F911A
:101380000F910895E889F989EF70FF2725E0EE0FA6
:10139000FF1F2A95E1F7E80FF91F309759F3808175
:1013A000853E41F38C85877383878C8583FF08C0D6
:1013B0008CA19DA1AEA1BFA1848F958FA68FB78F61
:1013C00088A599A5AAA5BBA5938F828FB58BA48B61
:1013D0008E858F778E870A891B89C80180960E9427
:1013E0006E04882339F2F801808191810E949A0568
:1013F000882309F4BFCFC1CF1F93CF93DF93EC01B4
:10140000162F8F8580FF0BC0E881F9810084F1855C
:10141000E02D20E144E070E060E0CE010995EB852D
:10142000FC85812F90E02D853E85E217F30758F467
:1014300010832B853C852F5F3F4F3C872B87DF91A7
:10144000CF911F910895E881F981028CF38DE02DF1
:10145000BC01CE01DF91CF911F910994CF93DF930F
:10146000EC01E881F98136970190F081E02DE80FD9
:10147000F91F838994890E94FC09019679F4E88117
:10148000F98136970190F081E02DEC0FFD1F8581E9
:1014900023893489232B31F082608583CE01DF914B
:1014A000CF9108958360F9CFCF93DF93EC01E8816A
:1014B000F98136970190F081E02DE80FF91F8389BB
:1014C0009489DC01ED91FC910484F585E02D09956A
:1014D000019659F4E881F98136970190F081E02D69
:1014E000EC0FFD1F858181608583CE01DF91CF9157
:1014F00008958F929F92AF92BF92CF92DF92EF9218
:10150000FF920F931F93CF93DF938C0149015A01F0
:10151000EB01C12CD12C7601C814D904EA04FB04D8
:1015200064F46991C8010E94FC09019641F08FEFB3
:10153000C81AD80AE80AF80AEFCF75016401C70192
:10154000B601DF91CF911F910F91FF90EF90DF9047
:10155000CF90BF90AF909F908F90089590E080E0E3
:1015600008958F929F92AF92BF92EF92FF920F9346
:101570001F93CF93DF93EC017B0149015A01E8816E
:10158000F98136970190F081E02DE80FF91F03896A
:101590001489D8011F968C911F9780FF0BC0ED9185
:1015A000FC910084F185E02D20E144E070E060E0F2
:1015B000C8010995D801ED91FC91008CF18DE02DC9
:1015C000A5019401B701C80109956F3F7F4F79F4D8
:1015D000E881F98136970190F081E02DEC0FFD1F35
:1015E000858123893489232B71F082608583CE0124
:1015F000DF91CF911F910F91FF90EF90BF90AF902F
:101600009F908F9008958360F1CF4F925F926F9279
:101610007F928F929F92AF92BF92CF92DF92EF9282
:10162000FF920F931F93CF93DF93EC018B0129015E
:101630003A01E881F98136970190F081E02DE80FB9
:10164000F91FC484D584E684F784C418D508E60855
:10165000F708838194818E709927049791F446014D
:101660005701181419041A041B04B4F1D701C60158
:10167000F7FE03C080E090E0DC01C81AD90AEA0A4C
:10168000FB0AA3019201B801CE010E94B10AE881D0
:10169000F98136970190F081E02DEC0FFD1F8381D9
:1016A00094818E709927029749F5E881F9813697E0
:1016B0000190F081E02DEC0FFD1F1C141D041E0491
:1016C0001F04E4F481E0C81AD108E108F108608938
:1016D000CE010E942E0AE9CF81E0881A9108A10864
:1016E000B108E881F98136970190F081E02DEC0F87
:1016F000FD1F6089CE010E942E0AB3CFE881F981D7
:10170000369780819181C80FD91F1C861D861E8641
:101710001F86DF91CF911F910F91FF90EF90DF9087
:10172000CF90BF90AF909F908F907F906F905F9081
:101730004F900895CF93DF93EC010E946A09CE0188
:10174000DF91CF910C94BA19DC01ED91FC913697A1
:1017500020813181820F931F0C949A0BCF93DF93DA
:10176000EC010E942209CE01DF91CF910C94BA19AD
:10177000DC01ED91FC91369720813181820F931F1E
:101780000C94AE0B0C94BA190C94BA19DC01ED91BF
:10179000FC91369720813181820F931F0C94C40BEA
:1017A0000C94BA190C94BA19DC01ED91FC9136979E
:1017B00020813181820F931F0C94D20B0C94BA19A3
:1017C0000C94BA198F929F92AF92BF92CF92DF92F0
:1017D000EF92FF920F931F93CF93DF93EC017B0166
:1017E0003A8130FFCAC0288188889988AA88BB8836
:1017F000422F4870C42E23FF22C0888D998DAA8D58
:10180000BB8D88199909AA09BB0982309105A105E8
:10181000B10520F5009711F530E020E0A901481B43
:10182000590BCA01DF91CF911F910F91FF90EF905B
:10183000DF90CF90BF90AF909F908F90089526FF3C
:101840000DC0EE81FF818681978145E0880F991F49
:101850004A95E1F78815990509F495C0EE81FF8155
:1018600084011170B501A40189E0769567955795BB
:1018700047958A95D1F726FF27C0848D958DA68D33
:10188000B78D480F591F6A1F7B1F8E819F8120E0F3
:1018900080960E945705009709F46FC0800F911F32
:1018A000FC018081F701808388899989AA89BB8995
:1018B0000196A11DB11D888B998BAA8BBB8B21E052
:1018C00030E090E080E0AACFD380D422011511054A
:1018D00081F4D1100EC089288A288B2881F527FF32
:1018E00029C0848D958DA68DB78D8C879D87AE87F9
:1018F000BF87EE81FF814C855D856E857F85425077
:10190000510961097109848104C0440F551F661F84
:10191000771F8A95D2F780899189A289B389840F2C
:10192000951FA61FB71FAC01BD014D0D511D611DB7
:10193000711DABCF8C8D9D8DAE8DBF8DD6CF4C855F
:101940005D856E857F85CC2059F036FF09C04F5FDD
:101950005F4F6F4F7F4F4C875D876E877F87C9CF03
:101960009E01245F3F4FCF010E94130687FD05C0F3
:101970008111BFCF8881807D49F48981826089830C
:101980008FEF9FEF4FCF30E020E09BCF21E030E0A2
:1019900081E090E043CF8F929F92AF92BF92CF921F
:1019A000DF92EF92FF920F931F93CF93DF931F92DB
:1019B000CDB7DEB78C01FC01848C958CA68CB78CDE
:1019C000C08CD18CE28CF38CBE016F5F7F4F0C9684
:1019D0000E94E20B0197C9F4898190E0F801848E9E
:1019E000958EA68EB78EC08ED18EE28EF38E0F901E
:1019F000DF91CF911F910F91FF90EF90DF90CF90EB
:101A0000BF90AF909F908F9008958FEF9FEFE6CF9C
:101A1000CF93DF931F92CDB7DEB7BE016F5F7F4FCD
:101A20000C960E94E20B019731F4898190E00F90AF
:101A3000DF91CF9108958FEF9FEFF9CF2F923F92D3
:101A40004F925F926F927F928F929F92AF92BF92CE
:101A5000CF92DF92EF92FF920F931F93CF93DF937A
:101A6000CDB7DEB728970FB6F894DEBF0FBECDBF57
:101A700098878F831B015C834B83DC0112968C91CA
:101A8000129781FF05C183FF2FC01C964D905D907A
:101A90006D907C901F972C91222309F4F1C05896E9
:101AA0008D909D90AD90BC905B9750964D915D91BF
:101AB0006D917C91539784169506A606B706A1F002
:101AC00081149104A104B10409F0C2C0FD0114867F
:101AD000158616861786EF81F885808A918AA28AF4
:101AE000B38A82818F7D8283EB81FC81AF0170E0BC
:101AF00060E0EF81F88580899189A289B38980951A
:101B00009095A095B09584179507A607B70708F498
:101B1000BFC0CB80DC8000E012E03C96FE83ED830A
:101B2000AF81B88550968D909D90AD90BC905397A5
:101B3000C114D10409F452C116968D919C91179746
:101B4000FC01F380B501A40129E0769567955795CE
:101B500047952A95D1F7F422940131703A8329836D
:101B6000F1102AC01C964D915D916D917C911F974B
:101B7000232B09F060C1411551056105710509F478
:101B800009C112962C91129726FFF5C058964D90D8
:101B90005D906D907C905B9784149504A604B704C7
:101BA00008F0E9C04F5F5F4F6F4F7F4F1C964D931A
:101BB0005D936D937C931F97AF81B8851696ED91D9
:101BC000FC9117971C964D915D916D917C911F979B
:101BD0004250510961097109848104C0440F551FA5
:101BE000661F771F8A95D2F780899189A289B38968
:101BF000840F951FA61FB71FAC01BD014F0D511DCE
:101C0000611D711D29813A81232B09F028C1C1145E
:101C100032E0D30608F423C187A190A5A1A5B2A5FF
:101C2000481759076A077B0741F410A28FEF9FEF0F
:101C3000DC0187A390A7A1A7B2A7910181A192A1DE
:101C40000E94C303882321F1E12C82E0F82E4FC1CA
:101C5000AF81B8851696ED91FC9123FD21C026FF3A
:101C60001FC08681978135E0880F991F3A95E1F76B
:101C7000B0E0A0E088159905AA05BB0508F02BCFB8
:101C8000AF81B8851C964D925D926D927C921F97A4
:101C9000EF81F8858181816081831C821B82B0C0C5
:101CA0003481375F75016401B1E0CB1AD108E108D6
:101CB000F108032E04C0F694E794D794C7940A94CD
:101CC000D2F786FF0FC0EF81F885848D958DA68DA4
:101CD000B78D8C0D9D1DAE1DBF1D84879587A68772
:101CE000B787F9CEDB01CA010197A109B10904C088
:101CF000B695A795979587953A95D2F7C816D906C0
:101D0000EA06FB0620F0452B462B472B79F527FFEB
:101D10002AC0848D958DA68DB78DEF81F885848737
:101D20009587A687B7870F811885045F1F4FC11459
:101D3000D104E104F10409F4CECEAF81B8851C963C
:101D40004D915D916D917C911F97980116968D91A3
:101D50009C910E941306B1E0CB1AD108E108F1086A
:101D600018162CF38DCFEF81F885D3CFC81AD90A76
:101D7000EA0AFB0AD8CF2D813E810E94130687FD17
:101D800087CF811119CF8F8198850E948E0681118E
:101D900013CF7ECFEF81F885848D958DA68DB78D7D
:101DA0000097A105B10589F4CF010E948E06882312
:101DB00009F46ECFEF81F88584859585A685B78572
:101DC000848F958FA68FB78FF7CEEF81F8858487A4
:101DD0009587A687B787F0CE21E068C0EF81F885A8
:101DE000808D918DA28DB38D88159905AA05BB05AF
:101DF00038F4808E918EA28EB38E82818068828329
:101E00008B819C8128960FB6F894DEBF0FBECDBFA4
:101E1000DF91CF911F910F91FF90EF90DF90CF90C6
:101E2000BF90AF909F908F907F906F905F904F90FA
:101E30003F902F90089542505109610971098481A2
:101E400004C0440F551F661F771F8A95D2F78089FB
:101E50009189A289B389480F591F6A1F7B1FC80146
:101E6000A981BA818A1B9B0B76018C159D0508F40C
:101E70007C0129813A81232B09F0AECFAF81B8854F
:101E800050968D909D90AD90BC90539758964D90E4
:101E90005D906D907C905B9784149504A604B704C4
:101EA00020F412968C9185FF97CF25E0CF01809684
:101EB0000E945705009709F4EBCEA701B101E98113
:101EC000FA818E0F9F1F0E94501A89819A818E0D70
:101ED0009F1D8115924059F4AF81B88516968D915A
:101EE0009C9180960E946E04882309F4D1CEEF81E4
:101EF000F88580899189A289B3898E0D9F1DA11DC6
:101F0000B11D808B918BA28BB38B2E0C3F1CCE18F6
:101F1000DF0806CE0C960C941E0DCF93DF931F9214
:101F2000CDB7DEB7698341E050E0BE016F5F7F4F00
:101F30000C960E941E0D0F90DF91CF9108950F9384
:101F40001F93CF93DF93EC018B01E881F9813697E2
:101F50000190F081E02DE80FF91F818992890097A7
:101F600011F00E94540AF80101900020E9F731971E
:101F7000E01BF10B9F0150E040E0B801CE010E9450
:101F8000050BCE01DF91CF911F910F9108951F9204
:101F90000F920FB60F9211242F933F938F939F931D
:101FA000AF93BF938091400390914103A09142036E
:101FB000B091430330913F0323E0230F2D3758F5B1
:101FC0000196A11DB11D20933F0380934003909380
:101FD0004103A0934203B093430380914403909143
:101FE0004503A0914603B09147030196A11DB11D81
:101FF0008093440390934503A0934603B093470313
:10200000BF91AF919F918F913F912F910F900FBEF4
:102010000F901F90189526E8230F0296A11DB11D61
:10202000D2CF1F920F920FB60F9211242F933F938E
:102030004F935F936F937F938F939F93AF93BF93D0
:10204000EF93FF938CE493E00E942B02FF91EF91BA
:10205000BF91AF919F918F917F916F915F914F91C0
:102060003F912F910F900FBE0F901F9018951F92C8
:102070000F920FB60F9211242F938F939F93EF938C
:10208000FF93E0915C03F0915D038081E091620336
:10209000F091630382FD1BC09081809165038F5F87
:1020A0008F7320916603821741F0E0916503F0E0A1
:1020B000E45BFC4F958F80936503FF91EF919F91B7
:1020C0008F912F910F900FBE0F901F9018958081C8
:1020D000F4CF1F920F920FB60F9211242F933F93BC
:1020E0004F935F936F937F938F939F93AF93BF9320
:1020F000CF93DF93EF93FF9380913803C09139041E
:10210000D0E087FF24C01092850010928400809157
:1021100038038F5F8093380380913803082E000CBA
:10212000990B8C179D0724F4809138038C30C4F1EF
:102130008091840090918500049680349C4908F435
:102140007AC08091840090918500049676C0809139
:102150003803082E000C990B8C179D07C4F6E091EC
:1021600038038E2FEE0F990BFC01EE0FFF1FE80FC7
:10217000F91FEB5EFB4F808186FFC9CFE0913803EA
:102180008E2FEE0F990BFC01EE0FFF1FE80FF91FCA
:10219000EB5EFB4F808160E08F730E94F600B7CF4B
:1021A0002091840030918500E09138038E2FEE0F4E
:1021B000990BFC01EE0FFF1FE80FF91FEB5EFB4FC1
:1021C00081819281820F931F909389008093880070
:1021D000E09138038E2FEE0F990BFC01EE0FFF1FDD
:1021E000E80FF91FEB5EFB4F808186FF11C0E09185
:1021F00038038E2FEE0F990BFC01EE0FFF1FE80F37
:10220000F91FEB5EFB4F808161E08F730E94F60047
:10221000FF91EF91DF91CF91BF91AF919F918F91FE
:102220007F916F915F914F913F912F910F900FBED2
:102230000F901F90189580E49CE9909389008093FB
:1022400088008FEF80933803E3CFEF92FF920F93D4
:102250001F93CF93DF937C01D0E0C0E010E000E05B
:10226000F70180819181248135810217130758F489
:102270008C0F9D1FFC01808191810E94BA190F5F14
:102280001F4F2796EDCFDF91CF911F910F91FF90B8
:10229000EF900C94BA19FC01808191810C94BA19C9
:1022A00080916D0490916E040E94BA19809174041B
:1022B000909175040E94BA1980917B0490917C04DE
:1022C0000E94BA1982E894E00E94251189E894E0FE
:1022D0000E94251180E994E00E944B1187E994E067
:1022E0000E944B118EE994E00E944B1185EA94E024
:1022F0000E944B118CEA94E00E944B1183EB94E016
:102300000E944B118AEB94E00E944B1181EC94E007
:102310000E944B1188EC94E00E944B118FEC94E0EA
:102320000E944B1186ED94E00E944B118DED94E0DC
:102330000E944B1184EE94E00E944B118BEE94E0CE
:102340000E944B1182EF94E00E944B1189EF94E0C0
:102350000E944B1180E095E00E944B1187E095E0D0
:102360000E944B118EE095E00E944B1185E195E0B3
:102370000E944B118CE195E00E944B1183E295E0A5
:102380000E944B1180E395E00E94BA0280913C05C7
:1023900090913D050E94BA198DE695E00E942209B0
:1023A00083E495E00C946A09CF93DF93EB01888175
:1023B0009981ADE6B5E011969C938E932A813B817D
:1023C0000697EC01E881F981E359FA4F31832083C4
:1023D00012961D921D921D921C92159781E290E01B
:1023E0009483838383E795E0948B838B1582158A8E
:1023F000DF91CF910895CF93DF93CDE6D5E081E2D1
:1024000090E09C8F8B8F1D8E1E8E1F8E86E090E03D
:10241000A0E0B0E088A399A3AAA3BBA31CA21DA21D
:102420001EA21FA282E391E0998F888F80E288A785
:102430001AA619A61DA683E795E09CA78BA7AC0159
:1024400060E871E0CE010E94D4118CE891E099839C
:10245000888386E991E0998F888F1A8619861C8671
:102460001B861E861D86188A1F861A8A198A1C8A50
:102470001B8A8AE391E09F838E838CE493E09F8B99
:102480008E8B88E08D8BDF91CF910895DB018D914C
:102490009C911197909344058093430512962D913A
:1024A0003C910697DC01ED91FC91ED5BFA4F318395
:1024B000208381E290E09483838385E495E0948B8C
:1024C000838B1582158A0895CF93DF93C3E4D5E0FB
:1024D00081E290E0988F8F8B198E1A8E1B8E86E08A
:1024E00090E0A0E0B0E08C8F9D8FAE8FBF8F18A2E0
:1024F00019A21AA21BA282E391E09D8B8C8B80E231
:102500008CA31EA21DA219A685E495E098A78FA30F
:10251000AC016CE971E0CE010E94461288EA91E0BC
:102520009983888382EB91E09D8B8C8B1E821D8228
:1025300018861F821A8619861C861B861E861D8693
:10254000188A1F868AE391E09B838A838CE493E058
:102550009B8B8A8B80E1898BDF91CF910895CF92FD
:10256000DF92EF92FF920F931F93CF93DF938C0133
:102570007B0188E090E0D80113969C938E9312978C
:1025800015961C921E9214970E941E196C01E80168
:1025900099838883E70109900020E9F72197CE19F4
:1025A000DF09D1F1C930D10520F1CE010896F8013B
:1025B000938382830E941E19D8018D939C93F60108
:1025C000CF018C199D09D8014D915C9111971496FA
:1025D0002D913C918217930748F4DA01A80FB91F97
:1025E000109711F080818C933196EACFC6010E943A
:1025F000BA19F80184819581D801ED91FC918C176D
:102600009D0738F4E80FF91F309709F01082019602
:10261000F3CFF801D583C483F701D8012D913C9104
:1026200040E050E0BA01CE01B0E0A0E04817590701
:102630006A077B0748F41191E90119939E014F5FE6
:102640005F4F6F4F7F4FF2CFDF91CF911F910F916F
:10265000FF90EF90DF90CF900895CF92DF92EF92AE
:10266000FF920F931F93CF93DF931F92CDB7DEB7E7
:1026700010924F0310924E0348EEC42E43E0D42E26
:10268000E12CF12CC0925003D0925103E0925203FE
:10269000F09253038AEB91E090934D0380934C03A7
:1026A00085EC90E0909359038093580384EC90E07C
:1026B00090935B0380935A0380EC90E090935D03CA
:1026C00080935C0381EC90E090935F0380935E03C2
:1026D00082EC90E0909361038093600386EC90E03D
:1026E00090936303809362031092650310926603D4
:1026F00010926703109268036CE473E083E495E042
:102700000E9464126CE473E08DE695E00E94FB1178
:1027100010924B0310924A038CE493E09093490388
:10272000809348036FEB70E08AE990E00E94B7184D
:1027300090934B0380934A0388E090E090933F0589
:1027400080933E05109241051092400580E690E08E
:102750000E941E1990933D0580933C051092EC0356
:102760001092EB03C092ED03D092EE03E092EF03E0
:10277000F092F0031092F5031092F6031092F70313
:102780008CEC91E09093EA038093E9031092310579
:1027900010923005109232051092330510923405D4
:1027A00010923505109236051092370510923805B3
:1027B0001092390510923A0510923B058091390428
:1027C0008C3008F09DC191E0980F9093390480936C
:1027D0002D0590E0FC01EE0FFF1FE80FF91FEB5EE7
:1027E000FB4F88EB9BE092838183809139048C308E
:1027F00008F08AC191E0980F9093390480932A05DC
:1028000090E0FC01EE0FFF1FE80FF91FEB5EFB4F9E
:1028100088EB9BE092838183AE014F5F5F4F6EEE4A
:1028200071E083E295E00E94AF12AE014F5F5F4F0F
:1028300067EF71E08CE195E00E94AF12AE014F5F4F
:102840005F4F61E072E085E195E00E94AF12AE015A
:102850004F5F5F4F6DE072E08EE095E00E94AF1237
:10286000AE014F5F5F4F6BE172E087E095E00E9441
:10287000AF12AE014F5F5F4F6AE272E080E095E019
:102880000E94AF12AE014F5F5F4F67E372E089EFC6
:1028900094E00E94AF12AE014F5F5F4F65E472E0BB
:1028A00082EF94E00E94AF12AE014F5F5F4F65E58B
:1028B00072E08BEE94E00E94AF12AE014F5F5F4F6B
:1028C00064E672E084EE94E00E94AF12AE014F5FC6
:1028D0005F4F64E772E08DED94E00E94AF12AE01AD
:1028E0004F5F5F4F64E872E086ED94E00E94AF12A4
:1028F000AE014F5F5F4F63E972E08FEC94E00E949E
:10290000AF1208E010E01093CB040093CA041092B9
:10291000CD041092CC0488E090E00E941E199093A0
:10292000C9048093C804AE014F5F5F4F6EE972E047
:1029300081EC94E00E94AF12AE014F5F5F4F67EBF6
:1029400072E08AEB94E00E94AF12AE014F5F5F4FDE
:102950006CE073E083EB94E00E94AF12AE014F5F36
:102960005F4F66ED72E08CEA94E00E94AF12AE0118
:102970004F5F5F4F69EC72E085EA94E00E94AF120E
:10298000AE014F5F5F4F6EEC72E08EE994E00E9403
:10299000AF12AE014F5F5F4F61ED72E087E994E0E7
:1029A0000E94AF12AE014F5F5F4F68ED72E080E9A9
:1029B00094E00E94AF1210938C0400938B04109249
:1029C0008E0410928D0488E390E00E941E1990936B
:1029D0008A048093890410938504009384041092E0
:1029E00087041092860488E390E00E941E19909359
:1029F00083048093820410937E0400937D041092DC
:102A0000800410927F0480E690E00E941E1990934B
:102A10007C0480937B0410937704009376041092D7
:102A200079041092780480E490E00E941E1990933B
:102A30007504809374041093700400936F041092D3
:102A400072041092710480E490E00E941E19909329
:102A50006E0480936D048EED91E090933B0480931F
:102A60003A0481E080934A04109249041092480489
:102A700010924404109245041092460410924704A8
:102A80000E949A0160934004709341048093420431
:102A9000909343042AE334E030934C0420934B0496
:102AA00010923C0410923D0410923E0410923F0498
:102AB00060934404709345048093460490934704C4
:102AC00088EE91E090933B0480933A0410926C045A
:102AD00010926B04EDE4F4E01192119284E0EB3675
:102AE000F807D1F70E949A010E949A010F90DF9196
:102AF000CF911F910F91FF90EF90DF90CF900895AD
:102B00008FEF80932D0571CE8FEF80932A0584CEB1
:102B1000CF93DF93CDB7DEB7EC970FB6F894DEBF57
:102B20000FBECDBF789484B5826084BD84B58160CA
:102B300084BD85B5826085BD85B5816085BD809188
:102B40006E00816080936E00109281008091810000
:102B500082608093810080918100816080938100F8
:102B6000809180008160809380008091B1008460BA
:102B70008093B1008091B00081608093B00080911B
:102B80007A00846080937A0080917A0082608093DA
:102B90007A0080917A00816080937A0080917A0037
:102BA000806880937A001092C100E0915C03F091FC
:102BB0005D0382E08083E0915803F0915903108215
:102BC000E0915A03F0915B038FEC808310926403D1
:102BD000E0916003F091610386E08083E0915E0301
:102BE000F0915F03808180618083E0915E03F091CA
:102BF0005F03808188608083E0915E03F0915F03D2
:102C0000808180688083E0915E03F0915F03808122
:102C10008F7D80836BE173E083E495E00E949F0FDA
:102C20006CE271E080E090E00E94670181E090E05A
:102C300090933E0380933D039E012F5F3F4F190108
:102C40007E0135E1E30EF11C80913D0390913E033E
:102C5000019761F000E010E001151105E9F30E9411
:102C600017028823C9F30E940000F6CF6FEC72E0D0
:102C700083E495E00E949F0F2091DA043091DB04F9
:102C800050E040E06091D6047091D70483E495E071
:102C90000E94B10A82E090E090933E0380933D034E
:102CA0008DE00E94D70005E010E061E08DE00E9419
:102CB000F60064EF71E080E090E00E94670160E060
:102CC0008DE00E94F60064EF71E080E090E00E94E9
:102CD00067010150110949F72091D3043091D404C0
:102CE00050E040E06091CF047091D00483E495E01F
:102CF0000E94B10A0E949A0169AF7AAF8BAF9CAF74
:102D00008CE0E0E3F5E0DE019D9601900D928A955E
:102D1000E1F78CE0FE01BD96DE01919601900D92E7
:102D20008A95E1F70E949A014B015C0189A19AA161
:102D3000009709F4A9C125EA298320E52A83DC014B
:102D4000ED91FC910280F381E02D42E050E0B10171
:102D500009950E949A012B013C0110E00E949A0102
:102D6000641975098609970965367105810591050C
:102D700008F085C189A19AA1DC01ED91FC91028442
:102D8000F385E02D099597FDE9CF112309F46DC175
:102D9000113009F46FC191E0910FF701E10FF11DBE
:102DA0008083973009F05FC180E090E0DC01B7FDDF
:102DB00030C08B8D843009F06CC18F89988DA98DBE
:102DC0002A8DB22FBF734497A105B10508F461C1E4
:102DD00081010E949A01681979098A099B0965365F
:102DE00071058105910508F058C189A19AA1DC01FE
:102DF000ED91FC910284F385E02D099597FDE9CFD3
:102E0000F80181938F01EE15FF0519F780E090E03E
:102E1000DC01B7FD47C110923A03109239030AE072
:102E200010E066ED72E083E495E00E949F0F6AE097
:102E300070E080E090E00E9467010150110989F77D
:102E4000CE0181960E94BA02CE018D960E94BA02EE
:102E500080912D0590912E05A0912F0589839A834D
:102E6000AB8380912A0590912B05A0912C058C8332
:102E70009D83AE838EE190E00E941E198C01892B08
:102E800039F089819A81AB81F80180839183A28393
:102E90000D3FFFEF1F0739F08C819D81AE81F80156
:102EA00083839483A583712C612CD80161147104F0
:102EB00009F00EC1CC90BBE0BC1578F181E00E9416
:102EC000D700D12C2601440C551CF201EC0DFD1D40
:102ED000EB5EFB4F8081807C81608083F8011182F2
:102EE000128290E080E0FC01EE0FFF1FE80FF91F57
:102EF000EB5EFB4F208126FD08C001968C309105CA
:102F000091F790E080E00E944107F201EC0DFD1D79
:102F1000EB5EFB4F8081806480838AE0C82ED12CD9
:102F200066ED72E083E495E00E949F0F6AE070E036
:102F300080E090E00E946701F1E0CF1AD10881F7AC
:102F400021E06216710409F0BFC0C8010E94BA19DD
:102F500010923C0310923B038091390390913A0305
:102F6000892B09F0DFC070923E0360923D0366ED4D
:102F700072E083E495E00E949F0F6AE070E080E0D9
:102F800090E00E94670166ED72E083E495E00E94A4
:102F90009F0F6AE070E080E090E00E9467010E946D
:102FA0009A016B01A9ADBAADCA1ADB0A6BE273E0F4
:102FB00083E495E00E949F0F8C01DC01ED91FC9170
:102FC00036970190F081E02DE80FF91F81899289F1
:102FD000009711F00E94540AA601DD0C660B770BD6
:102FE000D801ED91FC9136970190F081E02DE00F32
:102FF000F11F8381948185FDB1C086FF98C092FF47
:10300000B0C080E093E07F936F935F934F939F9363
:103010008F931F9284E18F933F922F920E94591AAF
:103020009C01990F440B550BB101C8010E94050B7F
:10303000D801ED91FC9136970190F081E02DE00FE1
:10304000F11F838194810FB6F894DEBF0FBECDBF10
:1030500096FF03C0C8010E94540A64E373E0C801EC
:103060000E949F0FF1CD192F79CE853A910509F471
:1030700092CE74CE8A35910509F48DCE6ECE82E063
:1030800090E8A0E0B0E893CE81E090E8A0E0B0E85E
:10309000C0CE80E090E8DC01BCCE82E090E8A0E009
:1030A000B0E8B7CE21E030E030933A032093390303
:1030B0008CE0FE01B196D70101900D928A95E1F75F
:1030C000C7010E94BA02ABCE66246394712CEDCE88
:1030D0001396CC90BBE0BC1508F41FCF82E00E9491
:1030E000D700D12C2601440C551CF201EC0DFD1D1E
:1030F000EB5EFB4F8081807C82608083F8011482CC
:10310000158290E080E0FC01EE0FFF1FE80FF91F31
:10311000EB5EFB4F208126FDF8CE01968C309105A9
:1031200091F7EFCE10923E0310923D0338CF87FF08
:103130001BC09C012227307292FF08C089E093E0F7
:10314000232B09F060CF8EE093E05DCF83E193E025
:10315000232B09F058CF87E193E055CF8CEF92E015
:1031600052CF85E093E04FCF90E080E04CCF0F93BB
:103170001F93CF93DF93009759F46115710541F4C4
:10318000F0E0E0E0CF01DF91CF911F910F91089522
:103190008B01EC016EE070E081E090E00E9402198A
:1031A000FC01892B69F380E883830115110571F017
:1031B0001387028781E8838380919B0590919C050A
:1031C000892B21F4F0939C05E0939B052097D1F285
:1031D000D187C08783818260838380919D05909190
:1031E0009E05892B79F6F0939E05E0939D058091CD
:1031F0009F059091A005892B29F6F093A005E093F7
:103200009F05C0CF0F931F93CF93DF93869F8001BD
:10321000879F100D969F100D1124C8010E941E1942
:10322000EC01009729F0A80170E060E00E94431AC9
:10323000CE01DF91CF911F910F9108950F931F93AE
:10324000CF93DF938230910510F482E090E0E0911B
:10325000A305F091A40530E020E0B0E0A0E03097B5
:1032600099F42115310509F44AC0281B390B243083
:103270003105D8F58A819B816115710589F1FB01C2
:1032800093838283FE0111C04081518102811381A9
:1032900048175907E0F04817590799F4109761F05B
:1032A00012960C93129713961C933296CF01DF91CE
:1032B000CF911F910F9108950093A3051093A4053A
:1032C000F4CF2115310551F04217530738F0A90109
:1032D000DB019A01BD01DF01F801C1CFEF01F9CF98
:1032E0009093A4058093A305CDCFFE01E20FF31FB9
:1032F000819391932250310939832883D7CF20912C
:10330000A1053091A205232B41F4209102013091B7
:1033100003013093A2052093A10520910001309173
:1033200001012115310541F42DB73EB7409104014B
:1033300050910501241B350BE091A105F091A205E8
:10334000E217F307A0F42E1B3F0B2817390778F07C
:10335000AC014E5F5F4F2417350748F04E0F5F1FDB
:103360005093A2054093A105819391939FCFF0E0E4
:10337000E0E09CCFCF93DF930097E9F0FC01329718
:1033800013821282A091A305B091A405ED0130E053
:1033900020E01097A1F420813181820F931F2091AA
:1033A000A1053091A2052817390709F061C0F093F3
:1033B000A205E093A105DF91CF910895EA01CE1710
:1033C000DF07E8F54A815B819E0141155105B1F7A0
:1033D000E901FB83EA8349915991C40FD51FEC178A
:1033E000FD0761F4808191810296840F951FE901A8
:1033F00099838883828193819B838A83F0E0E0E0D4
:1034000012968D919C9113970097B9F52D913C914F
:103410001197CD010296820F931F2091A105309143
:10342000A2052817390739F6309751F51092A405EF
:103430001092A305B093A205A093A105BCCFD3839E
:10344000C28340815181840F951FC817D90761F449
:103450004E5F5F4F88819981480F591F5183408388
:103460008A819B81938382832115310509F0B0CF36
:10347000F093A405E093A3059ECFFD01DC01C0CF2E
:1034800013821282D7CFDC0101C06D9341505040AE
:10349000E0F70895EE0FFF1F0590F491E02D0994D9
:1034A000FB01DC0102C001900D9241505040D8F761
:1034B0000895AEE0B0E0EFE5FAE10C94151D0D893A
:1034C0001E898F89988D26E02C831A83098397FFA4
:1034D00002C080E090E801979E838D83AE01455E37
:1034E0005F4F698D7A8DCE0101960E94891A4D81B8
:1034F0005E8157FD0AC02F813885421753070CF4AF
:103500009A01020F131FF80110822E96E4E00C942A
:10351000311DABE0B0E0EFE8FAE10C94071D7C014F
:103520003B018A01FC0117821682838181FFC8C199
:10353000CE0101965C01F7019381F30193FD859122
:1035400093FF81913F01882309F453C1853239F4F7
:1035500093FD859193FF81913F01853229F4B70155
:1035600090E00E94791CE7CF912C212C312CFFE1B7
:10357000F31538F08B3211F190F4803209F1833277
:1035800029F137FC3CC020ED280F2A3050F536FEDB
:1035900020C08AE0989E200D1124922E06C08D3204
:1035A00091F0803371F7689430F8F30193FD8591C1
:1035B00093FF81913F018111DACF21C0689431F8E6
:1035C000689432F8F2CF689433F8EFCF689434F807
:1035D000ECCFEAE02E9E200D1124222E689435F8BF
:1035E000E4CF8E3229F436FC04C1689436F8DDCF7E
:1035F0008C3619F4689437F8D8CF8836B1F2982F02
:103600009F7D95549330E0F08336A1F18337C1F16B
:10361000833509F063C02801F2E04F0E511CF80118
:10362000C080D180692D70E036FC02C06FEF7FEF63
:10363000C6010E94631C4C01689437F882010AC0DD
:103640000C5F1F4FFFE3F98388248394912C65015D
:10365000E89437F833FE2DC0522C8114910471F593
:10366000552009F468CFB70180E290E00E94791CF0
:103670005A94F6CFF801808189830E5F1F4FE4CF03
:103680002801F2E04F0E511CF801C080D180692D55
:1036900070E036FC02C06FEF7FEFC6010E946E1C27
:1036A0004C018201D5CFB70180E290E00E94791CE5
:1036B0002A942814190409F0B0F7CECFF60137FC8C
:1036C000859137FE81916F01B70190E00E94791CCE
:1036D00051105A94F1E08F1A9108BFCF843619F037
:1036E000893609F077C0F80137FE6BC060817181BF
:1036F000828193810C5F1F4FF32DFF763F2E97FF42
:1037000009C090958095709561957F4F8F4F9F4F21
:10371000689437F82AE030E0A5010E94A91CC82E61
:10372000CA188C2C432C36FE0CC0E89440F8C914FF
:1037300040F434FE05C032FC03C0F32DFE7E4F2E54
:10374000892C44FE95C0FE01EC0DF11D8081803373
:1037500009F087C0242D297E422E842D8870582E92
:1037600043FC95C040FE8FC09C2C821418F42C0C96
:10377000922C981844FE91C0B70180E390E00E941B
:10378000791C42FE09C088E790E041FE02C088E54E
:1037900090E0B7010E94791CC91408F48AC0CA9449
:1037A000D12C9FEFC91AD90ACA0CDB1CF6018291F1
:1037B0006F01B70190E00E94791CAC14BD04B1F711
:1037C0004FCF60817181072E000C880B990B0E5F23
:1037D0001F4F92CFD32CE894D4F82AE030E08537FD
:1037E00039F1232D297FD22E8F3601F148F4883507
:1037F000A9F0F701868197812B96E2E10C94231DB5
:10380000803749F08837A9F7D4FE02C06894D2F80F
:1038100020E130E00DC06894D4F8F6CF34FE03C048
:10382000822F8660D82E20E132E002C028E030E00E
:10383000F801D7FE0FC060817181828193810C5F96
:103840001F4FA5010E94A91CC82ECA183D2CE89440
:1038500037F867CF6081718190E080E00E5F1F4F85
:10386000F0CF42FC02C0839478CF8394839475CFC9
:10387000842D867809F471CFF6CFB70180E290E00D
:103880000E94791C83948214C0F3512C73CF522C64
:103890005818821408F46ECFF8CF842D867809F476
:1038A0007BCF8BE241FE80E247FC8DE2B70190E0E6
:1038B00071CFB70180E390E00E94791C9A946CCF9D
:1038C0008FEF9FEF99CFFC01059061507040011080
:1038D000D8F7809590958E0F9F1F0895FC01615039
:1038E000704001900110D8F7809590958E0F9F1F22
:1038F00008950F931F93CF93DF93182F092FEB0198
:103900008B8181FD09C01FEF0FEF812F902FDF9179
:10391000CF911F910F91089582FF14C02E813F8196
:103920008C819D81281739073CF4E881F981CF010A
:1039300001969983888310838E819F8101969F834E
:103940008E83E3CFE885F985812F0995892BA1F333
:10395000DACFFA01AA27283051F1203181F1E89419
:103960006F936E7F6E5F7F4F8F4F9F4FAF4FB1E072
:103970003ED0B4E03CD0670F781F891F9A1FA11D6D
:10398000680F791F8A1F911DA11D6A0F711D811D6E
:10399000911DA11D20D009F468943F912AE0269F33
:1039A00011243019305D3193DEF6CF010895462F92
:1039B0004770405D4193B3E00FD0C9F7F6CF462F73
:1039C0004F70405D4A3318F0495D31FD40524193DC
:1039D00002D0A9F7EACFB4E0A69597958795779599
:1039E0006795BA95C9F700976105710508959B0120
:1039F000AC010A2E06945795479537952795BA95A9
:103A0000C9F7620F731F841F951FA01D08952F9281
:103A10003F924F925F926F927F928F929F92AF925E
:103A2000BF92CF92DF92EF92FF920F931F93CF93AB
:103A3000DF93CDB7DEB7CA1BDB0B0FB6F894DEBF42
:103A40000FBECDBF09942A88398848885F846E8468
:103A50007D848C849B84AA84B984C884DF80EE80B2
:103A6000FD800C811B81AA81B981CE0FD11D0FB6BB
:103A7000F894DEBF0FBECDBFED01089510E0CDE597
:103A8000D0E004C0FE010E944A1A2196CE35D1072B
:063A9000C9F7F894FFCF16
:103A96000000A505800018000000000000000000DE
:103AA600E8FFE8FF0000000000001400000000002E
:103AB60000000000ECFFECFF00000000000000002A
:103AC60000008109DE0B000000003909D00BF00868
:103AD600ED08AE0AEA080A08DF08A4088B0872088F
:103AE600700831080D080200000000004C09D20BD6
:103AF600FEFFFEFF00003A09D40B0600000000009E
:103B06000409C40BFAFFFAFF0000F208C60B8C0189
:103B16000C01160196011800000000002209AE0BE8
:103B2600E8FFE8FF00002F09B80BA80120012A01D1
:103B3600B2011400000000006A099A0BECFFECFFCA
:103B460000007709A40B000000004D02AD01DA0168
:103B56009A020B02E901FD01000000008D0F8A0F99
:103B66000A08A2098309080DCB0C00000000880092
:103B7600DD07BA07000000008800DD075307487517
:103B8600623A204F4B0A004875623A204552520A63
:103B960000426F6F74696E672048756200536572E4
:103BA600766F206D313A204F4B0A00536572766F5F
:103BB600206D313A204552520A00536572766F20C5
:103BC6006D323A4F4B0A00536572766F206D323A6A
:103BD6004552520A00426F6F74696E6720536572D0
:103BE600766F206D0052504C69646172206C3A20E9
:103BF6004F4B0A0052504C69646172206C3A204562
:103C060052520A00426F6F74696E672052504C69B7
:103C1600646172005345545550202F2F2F2F2F2F9C
:103C26002F0A00426F6F74696E67207C200053452F
:103C360054555020436F6D706C65746564202F2F4A
:103C46002F2F2F2F2F0A00626F6F74696E67204324
:103C56006F6D706C65746564002E2E2E0A00210A45
:103C6600005469636B20230030203020302030253B
:103C760020302030203020302520302030203020C9
:103C8600302520302030203020302500256C64007F
:103C960025236C6F00256C6F0025236C58002523A7
:103CA6006C7800256C5800256C78005E5E5E5E5E62
:103CB6005E5E5E5E5E5E5E5E5E5E00207C20313035
:083CC600302520006D730000A1
:00000001FF
