:100000000C9459000C9481000C9481000C94810094
:100010000C9481000C9481000C9481000C9481005C
:100020000C9481000C9481000C9481000C942F128C
:100030000C9481000C9481000C9481000C9481003C
:100040000C948D110C9481000C94FD110C94D7111B
:100050000C9481000C9481000C9481000C9481001C
:100060000C9481000C948100000000002500280001
:100070002B00040404040404040402020202020229
:10008000030303030303010204081020408001025C
:1000900004081020010204081020000000080002DB
:1000A00001000003040700000000000000009C1491
:1000B0004B1B11241FBECFEFD8E0DEBFCDBF12E037
:1000C000A0E0B1E0E0EDF2E402C005900D92AC3C9E
:1000D000B107D9F727E0ACECB2E001C01D92A93618
:1000E000B207E1F710E0C8E5D0E004C02197FE01B7
:1000F0000E949E1EC735D107C9F70E942E170C9487
:100100005B210C940000FC0142835383648375835C
:1001100086819781A085B185840F951FA61FB71F83
:1001200082879387A487B58708951F93CF93DF9322
:10013000182FC091D602D091D7028A3041F4E881BD
:10014000F9810190F081E02D6DE0CE010995E88103
:10015000F9810190F081E02D612FCE01099521E018
:1001600030E0019711F430E020E0C901DF91CF9138
:100170001F910895CF93DF93C091D602D091D702FB
:10018000E881F9810084F185E02DCE010995892B64
:10019000B9F3E881F9810284F385E02DCE01DF9186
:1001A000CF910994CF93DF93A0E4B6E0FD01C19114
:1001B000D191209741F049895A89EC0129893A89DE
:1001C00042175307D1F0D6E0EE35FD0781F730E056
:1001D00020E04D915D91452B91F4220F331FF901E1
:1001E000E35DF94F948B838B80915E0690915F065F
:1001F000019690935F0680935E0681E006C02F5FB4
:100200003F4F2F30310529F780E0DF91CF910895DE
:1002100090E0FC01E656FF4F2491FC01EA57FF4FA6
:100220003491FC01EE58FF4FE491EE23C9F02223F4
:1002300039F0233001F1A8F4213019F1223029F1ED
:10024000F0E0EE0FFF1FE859FF4FA591B4918FB773
:10025000F894EC91611126C030953E233C938FBFFA
:1002600008952730A9F02830C9F0243049F780914B
:1002700080008F7D03C0809180008F778093800005
:10028000DFCF84B58F7784BDDBCF84B58F7DFBCF87
:100290008091B0008F778093B000D2CF8091B00072
:1002A0008F7DF9CF3E2BDACF2FB7F8946091D20231
:1002B0007091D3028091D4029091D5022FBF0895FE
:1002C000DC01ED91FC910190F081E02D0994AF9259
:1002D000BF92CF92DF92EF92FF920F931F93CF9333
:1002E000DF936C017B018B01040F151FEB015E0195
:1002F000AE18BF08C017D10759F06991D601ED912A
:10030000FC910190F081E02DC6010995892B79F7C8
:10031000C501DF91CF911F910F91FF90EF90DF907A
:10032000CF90BF90AF900895FC01538D448D252F41
:1003300030E0842F90E0821B930B541710F0CF967F
:10034000089501970895FC01918D828D981761F0B1
:10035000A28DAE0FBF2FB11D5D968C91928D9F5FC8
:100360009F73928F90E008958FEF9FEF0895FC01A7
:10037000918D828D981731F0828DE80FF11D858D5A
:1003800090E008958FEF9FEF0895FC01918D228DED
:10039000892F90E0805C9F4F821B91098F73992772
:1003A00008958AED92E00E94C50121E0892B09F4AD
:1003B00020E0822F089580E090E0892B29F00E94B0
:1003C000D10181110C9400000895FC01A48DA80FA7
:1003D000B92FB11DA35ABF4F2C91848D90E0019687
:1003E0008F739927848FA689B7892C93A089B189A7
:1003F0008C91837080648C93938D848D981306C048
:100400000288F389E02D80818F7D80830895EF92AB
:10041000FF920F931F93CF93DF93EC0181E0888FBE
:100420009B8D8C8D98131AC0E889F989808185FF8E
:1004300015C09FB7F894EE89FF896083E889F98930
:1004400080818370806480839FBF81E090E0DF9132
:10045000CF911F910F91FF90EF900895F62E0B8D85
:1004600010E00F5F1F4F0F731127E02E8C8D8E1140
:100470000CC00FB607FCFACFE889F989808185FFA7
:10048000F5CFCE010E94E501F1CFEB8DEC0FFD2FF2
:10049000F11DE35AFF4FF0829FB7F8940B8FEA8962
:1004A000FB8980818062CFCFCF93DF93EC01888D71
:1004B0008823B9F0AA89BB89E889F9898C9185FDDF
:1004C00003C0808186FD0DC00FB607FCF7CF8C916D
:1004D00085FFF2CF808185FFEDCFCE010E94E5013F
:1004E000E9CFDF91CF9108950F931F93CF93DF93BF
:1004F000FC01C081D181209709F18C01E881F9814B
:100500000680F781E02DCE010995EA89FB8980817B
:100510008F7E8083EA89FB898081877F8083EA8957
:10052000FB8980818F778083EA89FB8980818F7D39
:1005300080838A8D898FF80111821082DF91CF919B
:100540001F910F9108958EBD00000DB407FEFDCFE1
:100550008EB50895CF93DF93EC010E945401C60F2E
:10056000D71F8FEF0E94A3028F3F59F00E945401C2
:10057000CE01861B970B97FFF4CF80E0DF91CF91E0
:10058000089581E0FBCFCF93DF93FC0127812223E5
:1005900049F0EC0161E085810E9408018FEF0E9423
:1005A000A3021F82DF91CF9108951F93CF93DF9312
:1005B000EC0188E592E00E94AA02182F882361F0DE
:1005C0008DEF0E94A302CE010E94C3021886812FE4
:1005D000DF91CF911F9108958FE18E83CE010E940C
:1005E000C302F5CF0F931F93CF93DF938C01862F18
:1005F000EA010E94A302FE0181918EBDDE5FEC172D
:10060000FD0741F08191000000000DB407FEFDCF11
:100610008EBDF5CF0DB407FEFDCF8FEF0E94A30274
:100620008FEF0E94A3028FEF0E94A302F80181873F
:100630008F71853059F081E28683C8010E94C30220
:1006400080E0DF91CF911F910F91089581E0F9CF64
:10065000DF92EF92FF920F931F93CF93DF93EC0102
:10066000162F022FF32EE42ED52E0E945405882338
:1006700009F441C08F8181110DC09A818B819CBD8D
:100680008DBD81E08F8360E08D810E9408018FEF36
:100690000E94A3021C3031F08CE291E00E94AA0279
:1006A000882349F1812F80640E94A3028D2D0E942E
:1006B000A3028E2D0E94A3028F2D0E94A302802FE1
:1006C0000E94A30287E80E94A3028FEF0E94A30268
:1006D0000AE010E08FEF0E94A302898787FF03C022
:1006E00001501109B9F7DF91CF911F910F91FF9040
:1006F000EF90DF9008958FEFF6CFAF92BF92CF9239
:10070000DF92EF92FF921F93CF93DF93EC016A0188
:100710007B0159011F85112309F45EC08885823051
:1007200049F48B859C85AD85BE85C816D906EA0639
:10073000FB0649F18A85A7019601833039F099E0DB
:10074000220F331F441F551F9A95D1F769E1CE013F
:100750000E942803882389F08EE08E83CE010E94B8
:10076000C30210E0812FDF91CF911F91FF90EF9096
:10077000DF90CF90BF90AF90089582E08887CB86BE
:10078000DC86ED86FE8688E592E00E94AA02811151
:1007900002C085E2E2CFA5016CEFCE010E94F20219
:1007A0008823E1F28B859C85AD85BE850196A11DD0
:1007B000B11D8B879C87AD87BE871F851111D2CF56
:1007C000CE01DF91CF911F91FF90EF90DF90CF90FE
:1007D000BF90AF900C94D5028A85833039F089E0C0
:1007E000CC0CDD1CEE1CFF1C8A95D1F7A7019601ED
:1007F00068E1CE010E942803882331F08DE08E83CA
:10080000CE010E94C302AECFA5016EEFCE010E94C1
:10081000F2028823A9F388E592E00E94AA02F82E4A
:1008200084E2FF2061F320E030E0A9016DE0CE0119
:100830000E942803882311F08AE0E1CF8FEF0E9405
:10084000A3028111F9CFCE010E94C3021F2D8ACFCE
:10085000EF92FF921F93CF93DF93FC01208111E071
:1008600020FF12C0EC017C01FBE0EF0EF11C4F8178
:10087000588569857A85970189819A810E947D03CF
:10088000182F811108C010E0812FDF91CF911F91A7
:10089000FF90EF900895888181FD04C088818E7F4C
:1008A0008883F2CF4F81588569857A858B819C81B9
:1008B000AD81BE81480F591F6A1F7B1F9701898137
:1008C0009A810E947D038111E9CFDDCFCF93DF9321
:1008D000EC01188620E030E0A9016CE00E942803BA
:1008E000882349F089E08E83CE010E94C30280E014
:1008F000DF91CF910895CE010E94C30281E0F8CF2D
:10090000CF92DF92EF92FF920F931F93CF93DF93DB
:10091000EC016A017B0189018885813049F48B856E
:100920009C85AD85BE858C159D05AE05BF0539F14D
:100930008A85A7019601833039F089E0220F331FA1
:10094000441F551F8A95D1F762E1CE010E9428030A
:10095000882379F08CE08E83CE010E94C30280E070
:10096000DF91CF911F910F91FF90EF90DF90CF908B
:10097000089581E08887CB86DC86ED86FE860E941E
:1009800054017B0124EDE21A2EEFF20A8FEF0E9450
:10099000A30289878F3F49F40E945401C701861B37
:1009A000970B97FFF3CF8EE1D6CF8E3F11F089E101
:1009B000D2CF8FEF8EBDF801D801A150BE4F9FEF6F
:1009C000EA17FB0749F0000000000DB407FEFDCF59
:1009D0008EB59EBD8193F4CF0DB407FEFDCF8EB5CD
:1009E0008C9319868FEF0E94A3028FEF0E94A302BF
:1009F0008B859C85AD85BE850196A11DB11D8B871C
:100A00009C87AD87BE878F858111AACFCE01DF91EC
:100A1000CF911F910F91FF90EF90DF90CF900C94AA
:100A20006604CF92DF92EF92FF921F93CF93DF93F2
:100A3000DC011196ED91FC91EF2B51F490E080E0F8
:100A4000DF91CF911F91FF90EF90DF90CF900895AD
:100A5000122F6A017B01EC018F819885A985BA85E7
:100A60008C159D05AE05BF0561F0CE010E942804DE
:100A7000882321F312FF0CC01882CF82D886E98622
:100A8000FA8613702881122B1883CE010B96D8CFCB
:100A90009E01255F3F4FB701A60189819A810E947F
:100AA00080048111E9CFCACFFC012085223011F4E6
:100AB0000C94D502213011F40C94660481E0089561
:100AC0008F929F92AF92BF92CF92DF92EF92FF925E
:100AD0000F931F93423051056105710560F480E06A
:100AE0001F910F91FF90EF90DF90CF90BF90AF904C
:100AF0009F908F900895FC01C08CD18CE28CF38C78
:100B0000C416D506E606F70650F3480159016A01F6
:100B10008581803229F584899589A689B78917E06E
:100B200076956795579547951A95D1F7480F591FB0
:100B30006A1F7B1F23E0CF0180960E94110500975A
:100B400071F2CC0CDD1CCC0CDD1CF1E0DF228C0D35
:100B50009D1DFC0180829182A282B38281E0C0CF80
:100B6000803109F0BCCF44895589668977894D0D5C
:100B7000511D611D711D23E0CF0180960E9411055A
:100B8000009709F4ACCFCC0CDD1CF1E0DF22C80EDD
:100B9000D91EF60111830083E1CFCF92DF92EF924D
:100BA000FF920F931F93CF93DF934230510561055E
:100BB000710550F48FEFDF91CF911F910F91FF904E
:100BC000EF90DF90CF900895FC01C08CD18CE28C27
:100BD000F38CC416D506E606F70660F389016A01B0
:100BE000EC018581803299F584899589A689B78938
:100BF000E7E07695679557954795EA95D1F7480FC1
:100C0000591F6A1F7B1F22E0CE0180960E941105AA
:100C1000009781F2CC0CDD1CCC0CDD1CF1E0DF2256
:100C20008C0D9D1DFC0180819181A281B381488D35
:100C3000598D6A8D7B8D481759076A077B0730F1FC
:100C4000F80180839183A283B38381E0B4CF8031A4
:100C500009F0B0CF44895589668977894D0D511DBA
:100C6000611D711D22E0CF0180960E941105009741
:100C700009F4A0CFCC0CDD1CF1E0DF22C80ED91E98
:100C8000F60180819181B0E0A0E0D1CF80E093CFE8
:100C90003F924F925F926F927F928F929F92AF920C
:100CA000BF92CF92DF92EF92FF920F931F93CF9359
:100CB000DF9300D000D0CDB7DEB75C01FC014484E7
:100CC00055846684778486809780F401C084D184BB
:100CD000E284F384C414D504E604F704C0F4730179
:100CE000620110E0FFEFCF1ADF0AEF0AFF0AF401FA
:100CF000808D918DA28DB38D8C159D05AE05BF05A0
:100D000040F4111132C0C084D184E284F38411E034
:100D1000E9CF4C145D046E047F0439F19E012F5F0E
:100D20003F4FB701A601C4010E94CD0587FD1DC03C
:100D30008823C1F289819A81AB81BC81892B8A2B5E
:100D40008B2B81F6112329F0F401C086D186E2862F
:100D5000F3860FEF1FEF2FEF3FE0B701A601C401AD
:100D60000E946005382E811118C0312C832D0F9000
:100D70000F900F900F90DF91CF911F910F91FF90E7
:100D8000EF90DF90CF90BF90AF909F908F907F902B
:100D90006F905F904F903F9008954114510461040B
:100DA0007104B9F4F501C486D586E686F78682819A
:100DB0004114510461047104B1F0FFEF4F1A5F0A4E
:100DC0006F0A7F0A4C145D046E047F0479F08F7BF8
:100DD0000BC097018601B301A201C4010E94600506
:100DE0008111E0CFC2CF8064F5018283F501828159
:100DF00080688283BBCF8F929F92AF92BF92CF9237
:100E0000DF92EF92FF920F931F93CF93DF93EC014A
:100E1000EE85FF85309709F009950E9454014B013A
:100E20005C018E010D5E1F4F6E0121E3C20ED11CCD
:100E3000F12CE12C89A99AA98E159F0514F1D801EE
:100E40008D919D918D010097C9F0BFEFEB1AFB0AC0
:100E5000DC01ED91FC910280F381E02DB501A4014C
:100E60000995882359F0F801329780819181DC013E
:100E7000ED91FC910480F581E02D0995C016D10615
:100E8000C9F60E9454016E837F83888799870A81FF
:100E90001B812C813D81DC01CB01800F911FA21FA2
:100EA000B31F8A879B87AC87BD87DF91CF911F9146
:100EB0000F91FF90EF90DF90CF90BF90AF909F90F9
:100EC0008F9008950F931F93CF93DF93EC01EE85DE
:100ED000FF85309709F009950E9454016E837F8346
:100EE000888799870A811B812C813D81DC01CB0198
:100EF000800F911FA21FB31F8A879B87AC87BD8776
:100F0000DF91CF911F910F9108950F931F93FC01D3
:100F10000285138524853585401B510B620B730BAD
:100F200080E077FF80891F910F91089560E070E065
:100F3000CB01089590E080E00895FF920F931F93F6
:100F4000CF93DF938C01EB016F3F7607B9F0F62E5C
:100F5000EAE06E1306C06DE0F801808991890E9475
:100F600060016F2DF801808991890E946001CE0196
:100F7000DF91CF911F910F91FF900895D0E0C0E0D5
:100F8000F6CF7F928F929F92AF92BF92CF92DF92D5
:100F9000EF92FF920F931F93CF93DF938C01490140
:100FA0005A01EB01C12CD12C7601C814D904EA04F2
:100FB000FB04B4F479908AE0781206C06DE0F80181
:100FC000808991890E946001672DF801808991894B
:100FD0000E946001FFEFCF1ADF0AEF0AFF0AE5CF98
:100FE000C501B401DF91CF911F910F91FF90EF9058
:100FF000DF90CF90BF90AF909F908F907F9008959B
:10100000CF93DF93EC0188899989DC01ED91FC9104
:101010000084F185E02D0995892BA9F388899989A8
:10102000DC01ED91FC910284F385E02DDF91CF91FD
:101030000994CF93DF93EC0188899989DC01ED91C4
:10104000FC910084F185E02D0995892BA9F388890D
:101050009989DC01ED91FC910484F585E02DDF9107
:10106000CF9109948F929F92AF92BF92CF92DF92CD
:10107000EF92FF920F931F93CF93DF938C0149015F
:101080005A01EB01C12CD12C7601D80150968D91DB
:101090009C91DC01ED91FC910284F385E02D099592
:1010A0008F3F61F0C814D904EA04FB043CF489932F
:1010B000BFEFCB1ADB0AEB0AFB0AE7CFC701B60189
:1010C000DF91CF911F910F91FF90EF90DF90CF9024
:1010D000BF90AF909F908F900895DC0150968D91B6
:1010E0009C91DC01ED91FC910084F185E02D099447
:1010F00090E080E0089590E080E0089508950895DC
:10110000DC01ED91FC9136970190F081E02DE80F24
:10111000F91F80E791E0918380838AE791E09783CC
:101120008683089520E731E0FC01318320832AE79C
:1011300031E0378326830895FB0120813181FC0152
:1011400031832083FB014281538126503109F9010B
:1011500020813181820F931FFC01518340830895C8
:101160002CE831E0FC013183208326E931E0318F26
:10117000208F60E871E00C949C08DC01ED91FC91FB
:10118000369720813181820F931F0C94B008089507
:10119000DC01ED91FC9136970190F081E02DE80F94
:1011A000F91F8CE591E09183808386E691E093833B
:1011B000828308952CE531E0FC013183208326E60B
:1011C00031E0338322830895FB0120813181FC01CA
:1011D00031832083FB014281538126503109F9017B
:1011E00020813181820F931FFC0151834083089538
:1011F00028EA31E0FC013183208322EB31E0358B9A
:10120000248B6CE971E00C94E408DC01ED91FC9115
:10121000369720813181820F931F0C94F80808952E
:101220000895FC01848583FF17C084A195A1A6A120
:10123000B7A1448D558D668D778D841B950BA60BBC
:10124000B70B811520E89207A105B10520F08FEFBB
:101250009FE7A0E0B0E0089580E090E0DC01F1CFEE
:101260000F931F93CF93DF93FC012485222399F0E2
:10127000EC01868587FF3DC040A151A162A173A109
:101280008289938921E080960E941105009741F49C
:101290008D8581608D87DF91CF911F910F9108958A
:1012A000E889F989EF70FF2725E0EE0FFF1F2A95E7
:1012B000E1F7E80FF91F309759F38081853E41F33C
:1012C0008C85877383878C8583FF08C08CA19DA143
:1012D000AEA1BFA1848F958FA68FB78F88A599A542
:1012E000AAA5BBA5938F828FB58BA48B8E858F7794
:1012F0008E870A891B89C80180960E94280488234A
:1013000039F2F801808191810E945405882309F403
:10131000BFCFC1CFCB010895CF93DF93EC01E8811C
:10132000F9810288F389E02D09958F3F980731F004
:101330002D813E812F5F3F4F3E832D83DF91CF91E3
:1013400008958FEF9FEF08951F93CF93DF93EC01E4
:10135000162F8F8580FF0BC0E881F9810084F1850D
:10136000E02D20E144E070E060E0CE010995EB85DE
:10137000FC85812F90E02D853E85E217F30758F418
:1013800010832B853C852F5F3F4F3C872B87DF9158
:10139000CF911F910895E881F981028CF38DE02DA2
:1013A000BC01CE01DF91CF911F910994DC0113960E
:1013B0008D919C911497892B59F01596ED91FC9184
:1013C000169717968D919C911897E817F90741F495
:1013D000ED91FC9111970488F589E02DCD010994D8
:1013E00081911696FC93EE93159790E00895DC0199
:1013F00013962D913C911497232B51F01596ED9156
:10140000FC91169717962D913C91E217F30739F44A
:10141000DC01ED91FC910288F389E02D0994808133
:1014200090E008958F929F92AF92BF92CF92DF92F9
:10143000EF92FF920F931F93CF93DF938C0149019B
:101440005A01EB01C12CD12C7601C814D904EA044D
:10145000FB0464F46991C8010E94A409019641F05B
:101460008FEFC81AD80AE80AF80AEFCF75016401AD
:10147000C701B601DF91CF911F910F91FF90EF90BF
:10148000DF90CF90BF90AF909F908F90089590E0A5
:1014900080E00895FC018581682B83899489892BDC
:1014A00011F0658308956160FCCFCF93DF93EC0169
:1014B000E881F98136970190F081E02DE80FF91F5E
:1014C000838994890E94A409019651F4E881F981E5
:1014D00036978081918162E08C0F9D1F0E944A0A9D
:1014E000CE01DF91CF910895CF93DF93EC01E88196
:1014F000F98136970190F081E02DE80FF91F83897B
:101500009489DC01ED91FC910484F585E02D099529
:10151000019651F4E881F98136978081918161E0EB
:101520008C0F9D1F0E944A0ACE01DF91CF91089532
:101530008F929F92AF92BF92EF92FF920F931F9361
:10154000CF93DF93EC017B0149015A01E881F981D6
:1015500036970190F081E02DE80FF91F0389148977
:10156000D8011F968C911F9780FF0BC0ED91FC91C5
:101570000084F185E02D20E144E070E060E0C801E6
:101580000995D801ED91FC91008CF18DE02DA5011C
:101590009401B701C80109956F3F7F4F51F4E8816D
:1015A000F98136978081918162E08C0F9D1F0E94A6
:1015B0004A0ACE01DF91CF911F910F91FF90EF90DA
:1015C000BF90AF909F908F900895FB01248135814B
:1015D00050E040E0608171810C94980A0F931F9352
:1015E000CF93DF93EC01E881F981028113810E949E
:1015F0005401AB01BC01CE01F801DF91CF911F91E5
:101600000F910994EF92FF920F931F93CF93DF9363
:101610007C018B01DB011496CD91DC91FC01D5831B
:10162000C483CE0108969383828323E0880F991F99
:101630002A95E1F70E94C51CD7018D939C939C01CC
:1016400050E040E0C417D507B1F0B901681B790B31
:101650002115310559F0D801ED91FC91E60FF71FE6
:1016600068E0D90101900D926A95E1F74F5F5F4FF5
:10167000285F3F4FE7CFDF91CF911F910F91FF90F0
:10168000EF900895CF92DF92EF92FF920F931F9306
:10169000CF93DF93CDB7DEB7A1970FB6F894DEBF37
:1016A0000FBECDBF9B01AC0119A28E010F5D1F4F74
:1016B0008AE0C82ED12CE12CF12CCA01B901A70176
:1016C00096010E94451E605DF80162938F0121150D
:1016D00031054105510589F7309731F1019000201E
:1016E000E9F73197AF01401B510BB8018AED92E049
:1016F0000E9467018C0142E050E06EEE71E08AEDDD
:1017000092E00E946701800F911FA1960FB6F89496
:10171000DEBF0FBECDBFDF91CF911F910F91FF9024
:10172000EF90DF90CF90089510E000E0E4CF0E94AA
:1017300054010C94420B0C94970B8F929F92AF9292
:10174000BF92CF92DF92EF92FF920F931F93CF93AE
:10175000DF93EC017B013A8130FFCAC02881888881
:101760009988AA88BB88422F4870C42E23FF22C0C4
:10177000888D998DAA8DBB8D88199909AA09BB09F5
:1017800082309105A105B10520F5009711F530E0F3
:1017900020E0A901481B590BCA01DF91CF911F918D
:1017A0000F91FF90EF90DF90CF90BF90AF909F9000
:1017B0008F90089526FF0DC0EE81FF81868197816D
:1017C00045E0880F991F4A95E1F78815990509F4B6
:1017D00095C0EE81FF8184011170B501A40189E0FB
:1017E00076956795579547958A95D1F726FF27C037
:1017F000848D958DA68DB78D480F591F6A1F7B1F4D
:101800008E819F8120E080960E941105009709F447
:101810006FC0800F911FFC018081F7018083888950
:101820009989AA89BB890196A11DB11D888B998BC5
:10183000AA8BBB8B21E030E090E080E0AACFD38080
:10184000D4220115110581F4D1100EC089288A28EF
:101850008B2881F527FF29C0848D958DA68DB78DA6
:101860008C879D87AE87BF87EE81FF814C855D8524
:101870006E857F854250510961097109848104C0D8
:10188000440F551F661F771F8A95D2F7808991896B
:10189000A289B389840F951FA61FB71FAC01BD0194
:1018A0004D0D511D611D711DABCF8C8D9D8DAE8D6C
:1018B000BF8DD6CF4C855D856E857F85CC2059F058
:1018C00036FF09C04F5F5F4F6F4F7F4F4C875D877B
:1018D0006E877F87C9CF9E01245F3F4FCF010E9453
:1018E000CD0587FD05C08111BFCF8881807D49F47A
:1018F0008981826089838FEF9FEF4FCF30E020E0B6
:101900009BCF21E030E081E090E043CF8F929F9227
:10191000AF92BF92CF92DF92EF92FF920F931F93FD
:10192000CF93DF931F92CDB7DEB78C01FC01848C7F
:10193000958CA68CB78CC08CD18CE28CF38CBE01BC
:101940006F5F7F4F0C960E949D0B0197C9F48981B0
:1019500090E0F801848E958EA68EB78EC08ED18EC3
:10196000E28EF38E0F90DF91CF911F910F91FF9038
:10197000EF90DF90CF90BF90AF909F908F900895A1
:101980008FEF9FEFE6CFCF93DF931F92CDB7DEB7F8
:10199000BE016F5F7F4F0C960E949D0B019731F443
:1019A000898190E00F90DF91CF9108958FEF9FEFA5
:1019B000F9CF2F923F924F925F926F927F928F92C8
:1019C0009F92AF92BF92CF92DF92EF92FF920F93CE
:1019D0001F93CF93DF93CDB7DEB728970FB6F89458
:1019E000DEBF0FBECDBF98878F831B015C834B8307
:1019F000DC0112968C91129781FF05C183FF2FC0E5
:101A00001C964D905D906D907C901F972C91222399
:101A100009F4F1C058968D909D90AD90BC905B9765
:101A200050964D915D916D917C91539784169506DA
:101A3000A606B706A1F081149104A104B10409F02F
:101A4000C2C0FD011486158616861786EF81F885BB
:101A5000808A918AA28AB38A82818F7D8283EB8178
:101A6000FC81AF0170E060E0EF81F88580899189A9
:101A7000A289B38980959095A095B0958417950714
:101A8000A607B70708F4BFC0CB80DC8000E012E0F7
:101A90003C96FE83ED83AF81B88550968D909D90E6
:101AA000AD90BC905397C114D10409F452C116965D
:101AB0008D919C911797FC01F380B501A40129E059
:101AC00076956795579547952A95D1F7F422940115
:101AD00031703A832983F1102AC01C964D915D9193
:101AE0006D917C911F97232B09F060C14115510521
:101AF0006105710509F409C112962C91129726FF10
:101B0000F5C058964D905D906D907C905B978414D5
:101B10009504A604B70408F0E9C04F5F5F4F6F4F0C
:101B20007F4F1C964D935D936D937C931F97AF8170
:101B3000B8851696ED91FC9117971C964D915D9185
:101B40006D917C911F9742505109610971098481FF
:101B500004C0440F551F661F771F8A95D2F78089EE
:101B60009189A289B389840F951FA61FB71FAC0165
:101B7000BD014F0D511D611D711D29813A81232B1E
:101B800009F028C1C11432E0D30608F423C187A1AB
:101B900090A5A1A5B2A5481759076A077B0741F48C
:101BA00010A28FEF9FEFDC0187A390A7A1A7B2A798
:101BB000910181A192A10E947D03882321F1E12C52
:101BC00082E0F82E4FC1AF81B8851696ED91FC9159
:101BD00023FD21C026FF1FC08681978135E0880F35
:101BE000991F3A95E1F7B0E0A0E088159905AA059C
:101BF000BB0508F02BCFAF81B8851C964D925D9246
:101C00006D927C921F97EF81F8858181816081833D
:101C10001C821B82B0C03481375F75016401B1E062
:101C2000CB1AD108E108F108032E04C0F694E7941A
:101C3000D794C7940A94D2F786FF0FC0EF81F88536
:101C4000848D958DA68DB78D8C0D9D1DAE1DBF1DF0
:101C500084879587A687B787F9CEDB01CA010197EC
:101C6000A109B10904C0B695A795979587953A95AE
:101C7000D2F7C816D906EA06FB0620F0452B462BFC
:101C8000472B79F527FF2AC0848D958DA68DB78DBA
:101C9000EF81F88584879587A687B7870F81188598
:101CA000045F1F4FC114D104E104F10409F4CECE46
:101CB000AF81B8851C964D915D916D917C911F9778
:101CC000980116968D919C910E94CD05B1E0CB1A9A
:101CD000D108E108F10818162CF38DCFEF81F885B3
:101CE000D3CFC81AD90AEA0AFB0AD8CF2D813E8180
:101CF0000E94CD0587FD87CF811119CF8F819885EF
:101D00000E944806811113CF7ECFEF81F885848D24
:101D1000958DA68DB78D0097A105B10589F4CF01EA
:101D20000E944806882309F46ECFEF81F8858485E8
:101D30009585A685B785848F958FA68FB78FF7CEAB
:101D4000EF81F88584879587A687B787F0CE21E055
:101D500068C0EF81F885808D918DA28DB38D881537
:101D60009905AA05BB0538F4808E918EA28EB38E9C
:101D70008281806882838B819C8128960FB6F8943B
:101D8000DEBF0FBECDBFDF91CF911F910F91FF90AE
:101D9000EF90DF90CF90BF90AF909F908F907F900B
:101DA0006F905F904F903F902F900895425051094F
:101DB00061097109848104C0440F551F661F771F94
:101DC0008A95D2F780899189A289B389480F591FD2
:101DD0006A1F7B1FC801A981BA818A1B9B0B7601F0
:101DE0008C159D0508F47C0129813A81232B09F08B
:101DF000AECFAF81B88550968D909D90AD90BC9040
:101E0000539758964D905D906D907C905B9784149D
:101E10009504A604B70420F412968C9185FF97CF01
:101E200025E0CF0180960E941105009709F4EBCEC2
:101E3000A701B101E981FA818E0F9F1F0E94A41EA4
:101E400089819A818E0D9F1D8115924059F4AF8131
:101E5000B88516968D919C9180960E9428048823BF
:101E600009F4D1CEEF81F88580899189A289B3895F
:101E70008E0D9F1DA11DB11D808B918BA28BB38BED
:101E80002E0C3F1CCE18DF0806CE0C960C94D90CF5
:101E9000CF93DF931F92CDB7DEB7698341E050E067
:101EA000BE016F5F7F4F0C960E94D90C0F90DF919F
:101EB000CF910895CF93DF93EC010E94F808CE01F3
:101EC000DF91CF910C94611DDC01ED91FC9136976F
:101ED00020813181820F931F0C945A0FCF93DF938F
:101EE000EC010E94B008CE01DF91CF910C94611DEE
:101EF000DC01ED91FC91369720813181820F931F97
:101F00000C946E0F0C94611D0C94611DDC01ED911D
:101F1000FC91369720813181820F931F0C94840F9E
:101F20000C94611D0C94611DDC01ED91FC913697C0
:101F300020813181820F931F0C94920F0C94611DAC
:101F40000C94611DFC01808191810C94611DEF92C4
:101F5000FF920F931F93CF93DF937C01D0E0C0E0FB
:101F600010E000E0F7018081918124813581021722
:101F7000130740F48C0F9D1F0E94A20F0F5F1F4F8D
:101F80002796F0CFDF91CF911F910F91FF90EF90A7
:101F90000C94611DCF92DF92EF92FF920F931F93EB
:101FA000CF93DF93EC018C819D818617970708F012
:101FB00045C07A018B012A813B812617370718F526
:101FC000CB01089628173907F0F4C880D9809B8385
:101FD0008A830E94C51C99838883F601CF018C19DE
:101FE0009D092C813D818217930750F4A881B98106
:101FF000A80FB91F109711F080818C933196EECF06
:10200000C6010E94611D8C819D818017910758F443
:10201000E881F981E80FF91F309719F0D7012C9169
:1020200020830196F2CF1D830C83DF91CF911F9106
:102030000F91FF90EF90DF90CF9008956817790788
:10204000A0F77D836C83F1CFFC01808191810C949A
:10205000611DFC01808191810C94611D2F923F9242
:102060004F925F926F927F928F929F92AF92BF92A8
:10207000CF92DF92EF92FF920F931F93CF93DF9354
:10208000CDB7DEB764970FB6F894DEBF0FBECDBFF5
:102090008C017B01DC01ED91FC9136970190F08180
:1020A000E02DE80FF91F81899289009711F00E94B5
:1020B000740AA701FF0C660B770BD801ED91FC9118
:1020C00036970190F081E02DE00FF11F838194811C
:1020D00085FD8FC086FF76C092FF8EC085EF91E0B0
:1020E0007F936F935F934F939F938F931F9284E19E
:1020F0008F939E012F5F3F4F19013F932F930E94B3
:10210000AD1E4C01990FAA08BB08D801ED91FC91B6
:1021100036970190F081E02DE00FF11FC484D58443
:10212000E684F784C818D908EA08FB0883819481FB
:102130008E7099270FB6F894DEBF0FBECDBF0497FF
:1021400099F42601370114141504160417040CF42D
:1021500059C0D701C601F7FE03C080E090E0DC0162
:10216000C81AD90AEA0AFB0AA5019401B101C801FB
:102170000E94980AD801ED91FC9136970190F08168
:10218000E02DE00FF11F838194818E7099270297D3
:1021900009F04BC0D801ED91FC9136970190F08188
:1021A000E02DE00FF11F1C141D041E041F04ECF5AC
:1021B000B1E0CB1AD108E108F1086089C8010E949A
:1021C000550AE8CF87FF1BC09C012227307292FF7F
:1021D00008C08EEF91E0232B09F082CF83E092E0DC
:1021E0007FCF88E092E0232B09F07ACF8CE092E059
:1021F00077CF81EF91E074CF8AEF91E071CF90E0DB
:1022000080E06ECF31E0431A510861087108D801AF
:10221000ED91FC9136970190F081E02DE00FF11FD8
:102220006089C8010E94550A8ECFD801ED91FC91BA
:1022300036970190F081E02DE00FF11F148615868E
:10224000168617868381948196FF03C0C8010E9479
:10225000740AC80164960FB6F894DEBF0FBECDBFF6
:10226000DF91CF911F910F91FF90EF90DF90CF9072
:10227000BF90AF909F908F907F906F905F904F90A6
:102280003F902F900895CF93DF9300D000D000D0DF
:102290001F92CDB7DEB762ED76E0CE0101960E94C7
:1022A000020B61E070E087E097E00E942E100E9430
:1022B00054010E94420BCE0101960E94A20F279664
:1022C0000FB6F894DEBF0FBECDBFDF91CF9108955A
:1022D000CF93DF9300D000D000D01F92CDB7DEB7F0
:1022E0006BEC76E0CE0101960E94020B61E070E09B
:1022F00087E097E00E942E100E9454010E94420B3A
:10230000CE0101960E94A20F27960FB6F894DEBF69
:102310000FBECDBFDF91CF9108951F920F920FB6E0
:102320000F9211242F933F938F939F93AF93BF935B
:102330008091D2029091D302A091D402B091D502A3
:102340003091D10223E0230F2D3758F50196A11DBE
:10235000B11D2093D1028093D2029093D302A09317
:10236000D402B093D5028091CD029091CE02A0917B
:10237000CF02B091D0020196A11DB11D8093CD0274
:102380009093CE02A093CF02B093D002BF91AF91B1
:102390009F918F913F912F910F900FBE0F901F90A3
:1023A000189526E8230F0296A11DB11DD2CF1F92CA
:1023B0000F920FB60F9211242F933F934F935F9379
:1023C0006F937F938F939F93AF93BF93EF93FF93FD
:1023D0008AED92E00E94E501FF91EF91BF91AF91EC
:1023E0009F918F917F916F915F914F913F912F912D
:1023F0000F900FBE0F901F9018951F920F920FB65F
:102400000F9211242F938F939F93EF93FF93E0915B
:10241000EA02F091EB028081E091F002F091F1028A
:1024200082FD1BC090818091F3028F5F8F7320919A
:10243000F402821741F0E091F302F0E0E652FD4F22
:10244000958F8093F302FF91EF919F918F912F9140
:102450000F900FBE0F901F9018958081F4CF1F92A0
:102460000F920FB60F9211242F933F934F935F93C8
:102470006F937F938F939F93AF93BF93CF93DF938C
:10248000EF93FF938091CC02C0912406D0E087FFA8
:1024900024C010928500109284008091CC028F5F3E
:1024A0008093CC028091CC02082E000C990B8C17E3
:1024B0009D0724F48091CC028C30C4F1809184007B
:1024C00090918500049680349C4908F47AC08091EC
:1024D000840090918500049676C08091CC02082EED
:1024E000000C990B8C179D07C4F6E091CC028E2F3F
:1024F000EE0F990BFC01EE0FFF1FE80FF91FE050E4
:10250000FA4F808186FFC9CFE091CC028E2FEE0F6B
:10251000990BFC01EE0FFF1FE80FF91FE050FA4F77
:10252000808160E08F730E940801B7CF2091840002
:1025300030918500E091CC028E2FEE0F990BFC01BB
:10254000EE0FFF1FE80FF91FE050FA4F81819281D3
:10255000820F931F9093890080938800E091CC02B2
:102560008E2FEE0F990BFC01EE0FFF1FE80FF91FE6
:10257000E050FA4F808186FF11C0E091CC028E2F8F
:10258000EE0F990BFC01EE0FFF1FE80FF91FE05053
:10259000FA4F808161E08F730E940801FF91EF91F3
:1025A000DF91CF91BF91AF919F918F917F916F916B
:1025B0005F914F913F912F910F900FBE0F901F9001
:1025C000189580E49CE990938900809388008FEFB0
:1025D0008093CC02E3CF08950895CF93DF93EC016D
:1025E0008AEB91E09983888381E0888B1F861E8621
:1025F0001A861B861C861D860E9454016E837F836B
:1026000088879987DA8BC98B1A821B821C821D826C
:102610006A877B878C879D87DF91CF910895CF93C1
:10262000DF93EB0188819981A1E3B7E011969C9338
:102630008E932A813B810697EC01E881F981EF5C5A
:10264000F84F3183208312961D921D921D921C9289
:10265000159781E290E09483838387E397E0948BDE
:10266000838B1582158ADF91CF910895CF93DF93E5
:10267000C1E3D7E081E290E09C8F8B8F1D8E1E8E90
:102680001F8E86E090E0A0E0B0E088A399A3AAA303
:10269000BBA31CA21DA21EA21FA282E391E0998FE0
:1026A000888F80E288A71AA619A61DA687E397E05F
:1026B0009CA78BA7AC0160E871E0CE010E940F13CC
:1026C0008CE891E09983888386E991E0998F888FDF
:1026D0001A8619861C861B861E861D86188A1F86EA
:1026E0001A8A198A1C8A1B8A8AE391E09F838E8347
:1026F0008AED92E09F8B8E8B88E08D8BDF91CF915E
:102700000895DB018D919C91119790930807809318
:10271000070712962D913C910697DC01ED91FC91F3
:10272000E95FF84F3183208381E290E094838383D3
:1027300089E097E0948B838B1582158A0895CF9357
:10274000DF93C7E0D7E081E290E0988F8F8B198EFE
:102750001A8E1B8E86E090E0A0E0B0E08C8F9D8FFB
:10276000AE8FBF8F18A219A21AA21BA282E391E01A
:102770009D8B8C8B80E28CA31EA21DA219A689E0E2
:1027800097E098A78FA3AC016CE971E0CE010E949D
:10279000811388EA91E09983888382EB91E09D8B95
:1027A0008C8B1E821D8218861F821A8619861C86B3
:1027B0001B861E861D86188A1F868AE391E09B83EE
:1027C0008A838AED92E09B8B8A8B80E1898BDF91F3
:1027D000CF9108950F931F93CF93DF938C01C091F6
:1027E000DD06D091DE06FC01D583C483CE010896B8
:1027F000938382832AE0AC01249FC001259F900D22
:1028000011240E94C51CF801918380839C0150E033
:1028100040E0C417D507B9F0B901681B790B211541
:10282000310561F0E091D906F091DA06E60FF71F65
:102830006AE0D90101900D926A95E1F74F5F5F4F11
:10284000265F3F4FE6CFDF91CF911F910F91089503
:10285000CF93DF93EC0189E090E09B838A8381E052
:1028600090E09D838C8388E490E00E94C51C99834E
:102870008883009769F0FC01108211821282138212
:1028800040E050E060E87FE34483558366837783CC
:10289000CE01DF91CF910895CF92DF92EF92FF9218
:1028A0000F931F93CF93DF931F92CDB7DEB78C01A9
:1028B0006B0188E090E0D80113969C938E93129759
:1028C00015961C921E9214970E94C51CF8019183C4
:1028D0008083F60101900020E9F731977F01EC1821
:1028E000FD081982AE014F5F5F4FB701C8010E941A
:1028F000CA0FD8012D913C9140E050E0BA01C701C8
:10290000B0E0A0E0481759076A077B0758F4F601C2
:1029100011916F01F90111939F014F5F5F4F6F4F4D
:102920007F4FF0CF0F90DF91CF911F910F91FF90CC
:10293000EF90DF90CF900895CF92DF92EF92FF92C9
:102940000F931F93CF93DF93CDB7DEB728970FB6C2
:10295000F894DEBF0FBECDBF1092DD021092DC02F4
:1029600048EEC42E43E0D42EE12CF12CC092DE02BE
:10297000D092DF02E092E002F092E10284EC91E07A
:102980009093DB028093DA0285EC90E09093E7026B
:102990008093E60284EC90E09093E9028093E80251
:1029A00080EC90E09093EB028093EA0281EC90E05F
:1029B0009093ED028093EC0282EC90E09093EF0212
:1029C0008093EE0286EC90E09093F1028093F00207
:1029D0001092F3021092F4021092F5021092F60295
:1029E0006AED72E087E097E00E949F136AED72E063
:1029F00081E397E00E9436131092D9021092D80218
:102A00008AED92E09093D7028093D6026AEB70E051
:102A100085E990E00E94B41B9093D9028093D8027C
:102A200088E090E0909303078093020710920507D7
:102A30001092040780E590E00E94C51C9093010766
:102A4000809300071092A8031092CE051092CF0534
:102A50001092D0051092EF051092EE0580E580935C
:102A6000F2051092F3051092F4058AE28093F605C0
:102A70001092FA051092FF0510927A0310927903D2
:102A8000C0927B03D0927C03E0927D03F0927E03A0
:102A900010928303109284031092850386ED91E0D7
:102AA00090937803809377031092F5061092F406C2
:102AB0001092F6061092F7061092F8061092F90698
:102AC0001092FA061092FB061092FC061092FD0678
:102AD0001092FE061092FF06809124068C3008F0BA
:102AE0006BC091E0980F909324068093F10690E0DC
:102AF000FC01EE0FFF1FE80FF91FE050FA4F88EBC3
:102B00009BE092838183809124068C3008F058C02A
:102B100091E0980F909324068093EE0690E0FC01DC
:102B2000EE0FFF1FE80FF91FE050FA4F88EB9BE014
:102B30009283818308E010E01093EA060093E9068F
:102B40001092EC061092EB0688E090E00E94C51C03
:102B50009093E8068093E7061C830B831E821D82F8
:102B600088E090E00E94C51C9A8389831886AE0194
:102B7000485F5F4F70E060E0CE0101960E94CA0F8F
:102B80004D815E812091E7063091E806E980FA8068
:102B900080E090E0DC0170E060E084179507A60714
:102BA000B70790F4F90111919F01F70111937F018B
:102BB0000196A11DB11DF1CF8FEF8093F106A3CF38
:102BC0008FEF8093EE06B6CF80EE96E00E94EC1277
:102BD000CE0101960E9424108091E4069091E506B2
:102BE0009E838D8308969C838B8327E0AC01249F72
:102BF000C001259F900D11240E94C51C9A838983D2
:102C000010E000E0F12CE12C8D819E81E816F906A0
:102C1000A0F489819A81800F911F009741F0609103
:102C2000E0067091E106600F711F0E94020B5FEFDA
:102C3000E51AF50A095F1F4FE7CF89ED96E00E947C
:102C4000EB12CE0101960E94A70FCE0101960E94C1
:102C5000EA1382ED96E00E942814CE0101960E94AC
:102C60002910CE0101960E94EA138BEC96E00E9497
:102C70002814CE0101960E942910AE014F5F5F4FCC
:102C800060E172E082E696E00E944C14AE014F5F74
:102C90005F4F68E172E089E696E00E944C14AE0155
:102CA0004F5F5F4F61E272E080E796E00E944C1454
:102CB000AE014F5F5F4F6DE272E087E796E00E94E2
:102CC0004C14AE014F5F5F4F6AE372E08EE796E00F
:102CD0000E944C14AE014F5F5F4F68E472E085E8DC
:102CE00096E00E944C14AE014F5F5F4F64E572E0C6
:102CF0008CE896E00E944C14AE014F5F5F4F61E696
:102D000072E083E996E00E944C14AE014F5F5F4F82
:102D100061E772E08AE996E00E944C14AE014F5FD1
:102D20005F4F6FE772E081EA96E00E944C14AE01BB
:102D30004F5F5F4F6EE872E088EA96E00E944C14A5
:102D4000AE014F5F5F4F6EE972E08FEA96E00E943E
:102D50004C14AE014F5F5F4F6CEA72E086EB96E079
:102D60000E944C14AE014F5F5F4F64EB72E08DEB3D
:102D700096E00E944C14AE014F5F5F4F68EB72E02B
:102D800084EC96E00E944C148DE296E00E94ED12D5
:102D900088EE91E090932E0680932D0610925F06A8
:102DA00010925E06E0E4F6E08EE596E01192119254
:102DB0008E179F07D9F710922F06109230061092A7
:102DC0003106109232068091330690913406A0911C
:102DD0003506B09136068093370690933806A09357
:102DE0003906B0933A0683E190E00E94C51C8C013D
:102DF0000E94ED1210932C0600932B0683E190E0C5
:102E00000E94C51C8C010E94ED1210932A060093AB
:102E1000290683E190E00E94C51C8C010E94ED12FE
:102E2000109328060093270683E190E00E94C51CBA
:102E30008C010E94ED121093260600932506289619
:102E40000FB6F894DEBF0FBECDBFDF91CF911F91BB
:102E50000F91FF90EF90DF90CF900895CF93DF9385
:102E6000CDB7DEB7E8970FB6F894DEBF0FBECDBF83
:102E7000789484B5826084BD84B5816084BD85B555
:102E8000826085BD85B5816085BD80916E00816061
:102E900080936E0010928100809181008260809307
:102EA0008100809181008160809381008091800009
:102EB0008160809380008091B10084608093B10034
:102EC0008091B00081608093B00080917A0084602E
:102ED00080937A0080917A00826080937A0080915A
:102EE0007A00816080937A0080917A008068809374
:102EF0007A001092C1006FEA76E087E097E00E94C6
:102F0000E50A66EB76E087E097E00E94E50A8091AB
:102F10002B0690912C062BE93BE0DC011F963C939D
:102F20002E931E97C0902906D0902A0627E93BE0F1
:102F3000F60137872687E0902706F090280623E4DD
:102F400031E1D7011F963C932E931E9700912506E1
:102F50001091260628E631E1F801378726870E947E
:102F6000D200C6010E94D200C7010E94D200C8014F
:102F70000E94D200E091EA02F091EB0282E08083AD
:102F8000E091E602F091E7021082E091E802F09110
:102F9000E9028FEC80831092F202E091EE02F09150
:102FA000EF0286E08083E091EC02F091ED028081F7
:102FB00080618083E091EC02F091ED028081886075
:102FC0008083E091EC02F091ED0280818068808343
:102FD000E091EC02F091ED0280818F7D80838CE0A6
:102FE000E4EFF6E0DE019D9601900D928A95E1F7FF
:102FF00068EA76E087E097E00E94E50A6DEB76E00C
:103000000E94E50A8CE0FE01BD96DE0191960190DA
:103010000D928A95E1F70E9454016B017C0189A110
:103020009AA1009709F4BBC125EA298320E52A83E8
:10303000DC01ED91FC910280F381E02D42E050E053
:10304000BE016F5F7F4F09950E9454014B015C01E7
:1030500010E00E945401681979098A099B096536B4
:1030600071058105910508F095C189A19AA1DC013E
:10307000ED91FC910284F385E02D099597FDE9CF50
:10308000112309F47DC1113009F47FC191E0910F42
:10309000E5E1F0E0EC0FFD1FE10FF11D80839730BB
:1030A00009F06CC180E090E0DC01B7FD36C08B8D8B
:1030B000843009F079C18F89988DA98D2A8DB22F1E
:1030C000BF734497A105B10508F46EC18E010F5F6F
:1030D0001F4F5E01B5E1AB0EB11C0E9454016C198B
:1030E0007D098E099F09653671058105910508F0F6
:1030F0005FC189A19AA1DC01ED91FC910284F38565
:10310000E02D099597FDE9CFF80181938F01EA152C
:10311000FB0519F780E090E0DC01B7FD61C10E947A
:1031200054016B017C0110E00E9454016C197D096F
:103130008E099F09653F71408105910508F04BC1DB
:1031400089A19AA1DC01ED91FC910284F385E02D27
:10315000099597FDE9CF112309F431C1113009F424
:1031600037C191E0910FE5E1F0E0EC0FFD1FE10FB9
:10317000F11D8083953009F020C1688D798D90E034
:1031800080E00E94FF1B20E030E040E85EE30E9408
:103190003C1C6BA37CA38DA39EA36E897F8976952F
:1031A000679590E080E00E94FF1B20E030E040E85F
:1031B0005CE30E943C1C6FA378A789A79AA78D891E
:1031C000282F30E035952795359527952BA78170C9
:1031D0008CA780E090E0DC01B7FD02C16AE976E0EF
:1031E00087E097E00E94E50ACE0181960E94740272
:1031F000CE018D960E9474028091F1069091F206A4
:10320000A091F30689839A83AB838091EE06909117
:10321000EF06A091F0068C839D83AE838EE190E053
:103220000E94C51C8C01892B39F089819A81AB8160
:10323000F80180839183A2830D3FFFEF1F0739F0D0
:103240008C819D81AE81F80183839483A583F12CC9
:10325000E12C5FEBC52E52E0D52E63E976E087E0E6
:1032600097E00E94E50AB7010E942E106DEB76E010
:103270000E94E50AF5ECCF16F2E0DF06B1F4E0912A
:10328000F1068E2F90E0FC01EE0FFF1FE80FF91FF3
:10329000E050FA4F808167E776E086FD02C06EE776
:1032A00076E087E097E00E94E50A28ECC21622E06B
:1032B000D206B1F4E091EE068E2F90E0FC01EE0F05
:1032C000FF1FE80FF91FE050FA4F808165E876E0B4
:1032D00086FD02C06CE876E087E097E00E94E50A90
:1032E000EA94EF2809F090C0C8010E94611D60E7D0
:1032F00076E087E097E00E94E50A6DEB76E00E94B9
:10330000E50A62E676E087E097E00E94E50AE09150
:103310003107F091320736970190F081E02DEF5C94
:10332000F84F81899289009711F00E94740AE09108
:103330003107F091320736970190F081E02DEF5C74
:10334000F84F838994890E94F70900913107109101
:1033500032078F3F980709F4A9C00E94AB1B892B45
:1033600009F4ADC0F80136970190F081E02DEF5CD3
:10337000F84F838994890E94D609D9CF192F69CE35
:10338000853A910509F482CE64CE8A35910509F417
:103390007DCE5ECE82E090E8A0E0B0E886CE81E00F
:1033A00090E8A0E0B0E8B9CE80E090E8DC01B5CECE
:1033B00082E090E8A0E0B0E8B0CE192FB5CE9C0135
:1033C00035952795FC01E2279F0120FDCACEACCEA2
:1033D00080FDC7CEA8CE82E090E8A0E0B0E8FCCEA9
:1033E00061EA76E087E097E00E94E50A8CE0FE0162
:1033F000B196DE01559601900D928A95E1F7CE01C6
:1034000045960E947402F0CEEE24E394F12C25CF71
:103410008092330790923407A0923507B092360716
:103420000697DC01ED91FC91EF5CF84F838994895C
:103430000E94D609C8010E94AB1B892B09F097C0D6
:10344000E114F10409F493C0C80101978F3F91057D
:1034500008F000E009836091EB067091EC066F5F65
:103460007F4FAE014F5F5F4F87EE96E00E94CA0F1D
:10347000B1E0EB1AF10843C0B8017727ED91FC9158
:1034800011970688F789E02DCD010995019609F07D
:10349000A8C0E0913107F091320736978081918181
:1034A00061E08F5C984F0E944A0A9BC0F8013697F2
:1034B0008081918162E08F5C984F0E944A0A8091DE
:1034C000EB069091EC06892B21F01092EC061092FD
:1034D000EB06E0913107F091320736970190F081C9
:1034E000E02DEF5CF84FE484F584E114F10419F465
:1034F000EE24EA94FE2C812C912C54018394E091CB
:103500003107F091320736970190F081E02DEF5CA2
:10351000F84F81899289009711F00E94740AE09116
:103520003107F091320736970190F081E02DEF5C82
:10353000F84F838994890E94F7098C0180913107A3
:10354000909132070F3F100709F062CF10923307B6
:103550001092340710923507109236070697FC0137
:103560008081918162E08F5C984F0E944A0AE091CD
:103570003107F091320736970190F081E02DEF5C32
:10358000F84F81899289009711F00E94740AE091A6
:103590003107F09132073697808191818F5C984F87
:1035A000FC01258164E021117ECFA389B48961E00B
:1035B000109709F478CF13968D919C9114970097EA
:1035C00009F45ACF1596ED91FC9116978E179F0727
:1035D00009F452CF829180134FCF1696FC93EE934D
:1035E000159700E010E080912B0690912C060E9428
:1035F000EE0A882359F080912B0690912C06DC016D
:10360000ED91FC910480F581E02D099580912906CA
:1036100090912A060E94EE0A882359F0809129068B
:1036200090912A06DC01ED91FC910480F581E02D5A
:10363000099580912706909128060E94EE0A88231A
:1036400059F08091270690912806DC01ED91FC91BC
:103650000480F581E02D099580912506909126063C
:103660000E94EE0A882359F0809125069091260643
:10367000DC01ED91FC910480F581E02D09950115A7
:10368000110509F4B0CF0E94D101882309F4ABCF12
:103690000E940000A8CF84EC96E00E9424108DEBDD
:1036A00096E00E94241086EB96E00E9424108FEA98
:1036B00096E00E94241088EA96E00E94241081EA95
:1036C00096E00E9424108AE996E00E94241083E983
:1036D00096E00E9424108CE896E00E94241085E871
:1036E00096E00E9424108EE796E00E94241087E75F
:1036F00096E00E94241080E796E00E94241089E65C
:1037000096E00E94241082E696E00E9424108BEC42
:1037100096E00E94A20F82ED96E00E94A20F89ED32
:1037200096E00E94291080EE96E00E94A70F87EE97
:1037300096E00E94241084EF96E00E94740280E0DC
:1037400097E00E94291081E397E00E94B00887E08B
:1037500097E00C94F80891110C94EA1D803219F04E
:1037600089508550C8F708950F931F93CF93DF9327
:10377000009759F46115710541F4F0E0E0E0CF01E4
:10378000DF91CF911F910F9108958B01EC016EE0B5
:1037900070E081E090E00E94A91CFC01892B69F394
:1037A00080E883830115110571F01387028781E892
:1037B000838380915F0790916007892B21F4F093B8
:1037C0006007E0935F072097D1F2D187C08783819C
:1037D000826083838091610790916207892B79F6DB
:1037E000F0936207E093610780916307909164070B
:1037F000892B29F6F0936407E0936307C0CFE89420
:1038000009C097FB3EF490958095709561957F4F28
:103810008F4F9F4F9923A9F0F92F96E9BB279395D6
:10382000F695879577956795B795F111F8CFFAF4E6
:10383000BB0F11F460FF1BC06F5F7F4F8F4F9F4F17
:1038400016C0882311F096E911C0772321F09EE875
:10385000872F762F05C0662371F096E8862F70E0DB
:1038600060E02AF09A95660F771F881FDAF7880FB5
:103870009695879597F908950E944F1C0C940B1EFE
:103880000E94FD1D38F00E94041E20F0952311F0C7
:103890000C94F41D0C94FA1D11240C943F1E0E94EC
:1038A0001C1E70F3959FC1F3950F50E0551F629F4A
:1038B000F001729FBB27F00DB11D639FAA27F00D89
:1038C000B11DAA1F649F6627B00DA11D661F829FB0
:1038D0002227B00DA11D621F739FB00DA11D621F95
:1038E000839FA00D611D221F749F3327A00D611DB2
:1038F000231F849F600D211D822F762F6A2F112494
:103900009F5750409AF0F1F088234AF0EE0FFF1FC6
:10391000BB1F661F771F881F91505040A9F79E3F1D
:10392000510580F00C94F41D0C943F1E5F3FE4F3AE
:10393000983ED4F3869577956795B795F795E79573
:103940009F5FC1F7FE2B880F911D9695879597F97C
:1039500008950F931F93CF93DF93869F8001879FD6
:10396000100D969F100D1124C8010E94C51CEC017A
:10397000009729F0A80170E060E00E94ED1DCE01E3
:10398000DF91CF911F910F9108950F931F93CF93C4
:10399000DF938230910510F482E090E0E0916707B8
:1039A000F091680730E020E0B0E0A0E0309799F4B3
:1039B0002115310509F44AC0281B390B2430310583
:1039C000D8F58A819B816115710589F1FB0193838B
:1039D0008283FE0111C04081518102811381481709
:1039E0005907E0F04817590799F4109761F01296BB
:1039F0000C93129713961C933296CF01DF91CF91BF
:103A00001F910F9108950093670710936807F4CFF3
:103A10002115310551F04217530738F0A901DB0198
:103A20009A01BD01DF01F801C1CFEF01F9CF9093F9
:103A3000680780936707CDCFFE01E20FF31F8193E4
:103A400091932250310939832883D7CF209165077C
:103A500030916607232B41F420910201309103013C
:103A60003093660720936507209100013091010192
:103A70002115310541F42DB73EB740910401509115
:103A80000501241B350BE0916507F0916607E217ED
:103A9000F307A0F42E1B3F0B2817390778F0AC0171
:103AA0004E5F5F4F2417350748F04E0F5F1F50934E
:103AB000660740936507819391939FCFF0E0E0E024
:103AC0009CCFCF93DF930097E9F0FC0132971382EC
:103AD0001282A0916707B0916807ED0130E020E005
:103AE0001097A1F420813181820F931F20916507E7
:103AF000309166072817390709F061C0F09366070F
:103B0000E0936507DF91CF910895EA01CE17DF07B3
:103B1000E8F54A815B819E0141155105B1F7E90144
:103B2000FB83EA8349915991C40FD51FEC17FD0718
:103B300061F4808191810296840F951FE901998338
:103B40008883828193819B838A83F0E0E0E01296F0
:103B50008D919C9113970097B9F52D913C911197F8
:103B6000CD010296820F931F209165073091660761
:103B70002817390739F6309751F5109268071092D7
:103B80006707B0936607A0936507BCCFD383C28352
:103B900040815181840F951FC817D90761F44E5F8A
:103BA0005F4F88819981480F591F518340838A81D3
:103BB0009B81938382832115310509F0B0CFF09367
:103BC0006807E09367079ECFFD01DC01C0CF138239
:103BD0001282D7CF992788270895DC0101C06D9301
:103BE00041505040E0F7089597F99F6780E870E0F2
:103BF00060E008959FEF80EC089500240A94161663
:103C0000170618060906089500240A9412161306CA
:103C1000140605060895092E0394000C11F4882358
:103C200052F0BB0F40F4BF2B11F460FF04C06F5F74
:103C30007F4F8F4F9F4F089557FD9058440F551F4A
:103C400059F05F3F71F04795880F97FB991F61F01E
:103C50009F3F79F087950895121613061406551F95
:103C6000F2CF4695F1DF08C0161617061806991F01
:103C7000F1CF86957105610508940895E894BB27F6
:103C800066277727CB0197F90895A1E21A2EAA1B80
:103C9000BB1BFD010DC0AA1FBB1FEE1FFF1FA217FC
:103CA000B307E407F50720F0A21BB30BE40BF50BF9
:103CB000661F771F881F991F1A9469F76095709582
:103CC000809590959B01AC01BD01CF0108952F9285
:103CD0003F924F925F926F927F928F929F92AF929C
:103CE000BF92CF92DF92EF92FF920F931F93CF93E9
:103CF000DF93CDB7DEB7CA1BDB0B0FB6F894DEBF80
:103D00000FBECDBF09942A88398848885F846E84A5
:103D10007D848C849B84AA84B984C884DF80EE80EF
:103D2000FD800C811B81AA81B981CE0FD11D0FB6F8
:103D3000F894DEBF0FBECDBFED010895EE0FFF1F5B
:103D40000590F491E02D0994FB01DC0102C0019083
:103D50000D9241505040D8F70895AEE0B0E0E3EB4B
:103D6000FEE10C94751E0D891E898F89988D26E0C1
:103D70002C831A83098397FF02C080E090E80197A3
:103D80009E838D83AE01455E5F4F698D7A8DCE0136
:103D900001960E94DD1E4D815E8157FD0AC02F8174
:103DA0003885421753070CF49A01020F131FF801CC
:103DB00010822E96E4E00C94911EABE0B0E0E3EEAE
:103DC000FEE10C94671E7C013B018A01FC01178215
:103DD0001682838181FFC8C1CE0101965C01F70183
:103DE0009381F30193FD859193FF81913F01882396
:103DF00009F453C1853239F493FD859193FF819184
:103E00003F01853229F4B70190E00E94CD20E7CF31
:103E1000912C212C312CFFE1F31538F08B3211F16C
:103E200090F4803209F1833229F137FC3CC020ED57
:103E3000280F2A3050F536FE20C08AE0989E200DCB
:103E40001124922E06C08D3291F0803371F7689460
:103E500030F8F30193FD859193FF81913F0181112A
:103E6000DACF21C0689431F8689432F8F2CF6894C0
:103E700033F8EFCF689434F8ECCFEAE02E9E200DB3
:103E80001124222E689435F8E4CF8E3229F436FCC2
:103E900004C1689436F8DDCF8C3619F4689437F88D
:103EA000D8CF8836B1F2982F9F7D95549330E0F0AB
:103EB0008336A1F18337C1F1833509F063C028014E
:103EC000F2E04F0E511CF801C080D180692D70E0E6
:103ED00036FC02C06FEF7FEFC6010E94B7204C0195
:103EE000689437F882010AC00C5F1F4FFFE3F98323
:103EF00088248394912C6501E89437F833FE2DC013
:103F0000522C8114910471F5552009F468CFB70142
:103F100080E290E00E94CD205A94F6CFF801808193
:103F200089830E5F1F4FE4CF2801F2E04F0E511C32
:103F3000F801C080D180692D70E036FC02C06FEFBF
:103F40007FEFC6010E94C2204C018201D5CFB7018C
:103F500080E290E00E94CD202A942814190409F0F0
:103F6000B0F7CECFF60137FC859137FE81916F0116
:103F7000B70190E00E94CD2051105A94F1E08F1AC1
:103F80009108BFCF843619F0893609F077C0F8015F
:103F900037FE6BC060817181828193810C5F1F4FFE
:103FA000F32DFF763F2E97FF09C090958095709571
:103FB00061957F4F8F4F9F4F689437F82AE030E02C
:103FC000A5010E94FD20C82ECA188C2C432C36FE59
:103FD0000CC0E89440F8C91440F434FE05C032FC2B
:103FE00003C0F32DFE7E4F2E892C44FE95C0FE01AA
:103FF000EC0DF11D8081803309F087C0242D297ECE
:10400000422E842D8870582E43FC95C040FE8FC0F0
:104010009C2C821418F42C0C922C981844FE91C0FD
:10402000B70180E390E00E94CD2042FE09C088E7FE
:1040300090E041FE02C088E590E0B7010E94CD20EB
:10404000C91408F48AC0CA94D12C9FEFC91AD90A9E
:10405000CA0CDB1CF60182916F01B70190E00E944F
:10406000CD20AC14BD04B1F74FCF60817181072E14
:10407000000C880B990B0E5F1F4F92CFD32CE89446
:10408000D4F82AE030E0853739F1232D297FD22E6C
:104090008F3601F148F48835A9F0F70186819781C0
:1040A0002B96E2E10C94831E803749F08837A9F7FC
:1040B000D4FE02C06894D2F820E130E00DC06894CC
:1040C000D4F8F6CF34FE03C0822F8660D82E20E1CC
:1040D00032E002C028E030E0F801D7FE0FC0608176
:1040E0007181828193810C5F1F4FA5010E94FD2089
:1040F000C82ECA183D2CE89437F867CF60817181CB
:1041000090E080E00E5F1F4FF0CF42FC02C083942E
:1041100078CF8394839475CF842D867809F471CFFA
:10412000F6CFB70180E290E00E94CD208394821404
:10413000C0F3512C73CF522C5818821408F46ECF50
:10414000F8CF842D867809F47BCF8BE241FE80E2A4
:1041500047FC8DE2B70190E071CFB70180E390E0BA
:104160000E94CD209A946CCF8FEF9FEF99CFFC01E6
:104170000590615070400110D8F7809590958E0F92
:104180009F1F0895FC016150704001900110D8F705
:10419000809590958E0F9F1F08950F931F93CF9337
:1041A000DF93182F092FEB018B8181FD09C01FEFD1
:1041B0000FEF812F902FDF91CF911F910F910895D5
:1041C00082FF14C02E813F818C819D812817390781
:1041D0003CF4E881F981CF010196998388831083AB
:1041E0008E819F8101969F838E83E3CFE885F98539
:1041F000812F0995892BA1F3DACFFA01AA2728305C
:1042000051F1203181F1E8946F936E7F6E5F7F4FA3
:104210008F4F9F4FAF4FB1E03ED0B4E03CD0670F1F
:10422000781F891F9A1FA11D680F791F8A1F911D72
:10423000A11D6A0F711D811D911DA11D20D009F4C2
:1042400068943F912AE0269F11243019305D319304
:10425000DEF6CF010895462F4770405D4193B3E0ED
:104260000FD0C9F7F6CF462F4F70405D4A3318F094
:10427000495D31FD4052419302D0A9F7EACFB4E045
:10428000A6959795879577956795BA95C9F70097FD
:104290006105710508959B01AC010A2E069457959E
:1042A000479537952795BA95C9F7620F731F841FF5
:1042B000951FA01D089510E0C8E5D0E004C0FE01E0
:1042C0000E949E1E2196C935D107C9F7F894FFCFE9
:1042D00000006907800018000000000000000000D6
:1042E000E8FFE8FF000000000000140000000000EC
:1042F00000000000ECFFECFF0000000000000000E8
:1043000000000F099E0F00000000C708900F7E08F4
:104310007B08470A78089A076D08320819080008D0
:104320008A09C1079D07020000000000DA08920F09
:10433000FEFFFEFF0000C808940F0600000000000A
:104340009208840FFAFFFAFF00008008860F8C01A4
:104350000C0116019601180000000000B0086E0F55
:10436000E8FFE8FF0000BD08780FA80120012A013E
:10437000B201140000000000F8085A0FECFFECFF37
:1043800000000509640F0000000083008507620734
:10439000000000000702670194015402C501A30157
:1043A000B70100000000480F450F9A0730091109B6
:1043B000C30C860C0000000083008507FB060D0A75
:1043C00000256C640025236C6F00256C6F0025238D
:1043D0006C580025236C7800256C5800256C7800FB
:1043E0004875623A204F4B004875623A2045525258
:1043F00000426F6F74696E67204875620053657282
:10440000766F206D313A204F4B00536572766F20E6
:104410006D313A2045525200536572766F206D32ED
:104420003A4F4B00536572766F206D323A455252C7
:1044300000426F6F74696E6720536572766F206DEE
:104440000052504C69646172206C3A204F4B00520C
:10445000504C69646172206C3A2045525200426FA0
:104460006F74696E672052504C69646172005345E5
:10447000545550202F2F2F2F2F2F2F00626F6F7426
:10448000696E67002E2E2E005469636B2023007323
:0C4490006572766F006D31006D32000027
:00000001FF
