:100000000C9459000C9481000C9481000C94810094
:100010000C9481000C9481000C9481000C9481005C
:100020000C9481000C9481000C9481000C94201994
:100030000C9481000C9481000C9481000C9481003C
:100040000C945E180C9481000C94E8180C94C2185F
:100050000C9481000C9481000C9481000C9481001C
:100060000C9481000C948100000000002500280001
:100070002B00040404040404040402020202020229
:10008000030303030303010204081020408001025C
:1000900004081020010204081020000000080002DB
:1000A00001000003040700000000000000004518E4
:1000B000321811241FBECFEFD8E0DEBFCDBF12E053
:1000C000A0E0B1E0EAE6F7E302C005900D92A237A6
:1000D000B107D9F724E0A2E7B2E001C01D92AE3724
:1000E000B207E1F710E0C8E5D0E004C02197FE01B7
:1000F0000E94941BC735D107C9F70E94B9180C9408
:10010000A81B0C94000008958330B1F060F0873094
:10011000E9F0883009F1843021F5E0E8F0E08081F1
:100120008F7D80830895813069F0823021F484B519
:100130008F7D84BD08950895E0E8F0E080818F7799
:100140008083089584B58F7784BD0895E0EBF0E057
:1001500080818F7780830895E0EBF0E080818F7D50
:10016000808308951F93CF93DF93282F30E0F90108
:10017000E656FF4F8491F901EA57FF4F1491F901B8
:10018000EE58FF4FC491CC23A9F0D62F811116C091
:10019000EC2FF0E0EE0FFF1FE859FF4FA591B4914F
:1001A0008FB7F894D1110DC09C91E12FE095E92310
:1001B000EC938FBFDF91CF911F9108950E9484002F
:1001C000E7CFEC91E12BEC93F4CF789484B5826087
:1001D00084BD84B5816084BD85B5826085BD85B5EB
:1001E000816085BDEEE6F0E0808181608083E1E89A
:1001F000F0E01082808182608083808181608083D2
:10020000E0E8F0E0808181608083E1EBF0E08081D4
:1002100084608083E0EBF0E0808181608083EAE7A6
:10022000F0E080818460808380818260808380812F
:10023000816080838081806880831092C1000895EE
:100240003FB7F8948091700490917104A09172046A
:10025000B091730426B5A89B05C02F3F19F00196F5
:10026000A11DB11D3FBFBA2FA92F982F8827BC0110
:10027000CD01620F711D811D911D660F771F881FB3
:10028000991F660F771F881F991F08958F929F925D
:10029000AF92BF92CF92DF92EF92FF926B017C01FF
:1002A0000E9420014B015C011BC021E0C21AD10851
:1002B000E108F10888EE880E83E0981EA11CB11CAD
:1002C000C114D104E104F10459F00E94200168191D
:1002D00079098A099B09683E73408105910528F7D1
:1002E000C114D104E104F10459F7FF90EF90DF90BD
:1002F000CF90BF90AF909F908F9008952FB7F894B4
:1003000060916C0470916D0480916E0490916F0403
:100310002FBF08950895DC01ED91FC910190F081CB
:10032000E02D09950895CF92DF92EF92FF920F93FF
:100330001F93CF93DF938C01DB01D0E0C0E07A0103
:1003400081E0E81AF108452BA1F0F8018081918144
:10035000FC01208131816D01FFEFCF1ADF0A6C9122
:10036000C801F9010995892B21F02196A701D60131
:10037000E6CFCE01DF91CF911F910F91FF90EF90CB
:10038000DF90CF900895019709F008956F3F7F4F58
:10039000E1F7EEECF3E01382128288EE93E0A0E046
:1003A000B0E084839583A683B78382EA91E091834A
:1003B000808385EC90E09587848784EC90E0978734
:1003C000868780EC90E0918B808B81EC90E0938B22
:1003D000828B82EC90E0958B848B86EC90E0978BFF
:1003E000868B118E128E138E148ECFCFFC01938DBF
:1003F000848D981720F4891B990B019708952FE39A
:1004000030E0291B3109820F932F911D0895FC01C3
:10041000918D828D981761F0A28DAE0FBF2FB11D07
:100420005D968C91928D9F5F9F73928F90E008955F
:100430008FEF9FEF0895FC01918D828D981731F019
:10044000828DE80FF11D858D90E008958FEF9FEF6D
:100450000895FC01218D30E0205C3F4F828DA90181
:10046000481B5109CA018F73992708958EEC93E0B8
:100470000E94290221E0892B09F420E0822F0895AF
:10048000CF93DF93EC01E881F9810680F781E02DBD
:100490000995EA89FB8980818F7E8083EA89FB89BF
:1004A0008081877F8083EA89FB8980818F77808341
:1004B000EA89FB8980818F7D80838A8D898FDF9196
:1004C000CF910895CF92DF92EF92FF921F93CF9337
:1004D000DF93EC016A017B01122F60E079E08DE38C
:1004E00090E0A70196010E94721B21503109410939
:1004F00051095695479537952795E889F98982E0FE
:100500008083C11481EED806E104F10421F02115A5
:1005100080E1380798F0E889F989108260E874E88A
:100520008EE190E0A70196010E94721B21503109D3
:10053000410951095695479537952795EC85FD85D5
:100540003083EE85FF852083188EEC89FD8910832A
:10055000EA89FB89808180618083EA89FB898081C7
:1005600088608083EA89FB89808180688083EA894A
:10057000FB8980818F7D8083DF91CF911F91FF90D8
:10058000EF90DF90CF900895FC01A48DA80FB92FB4
:10059000B11DA35ABF4F2C91848D90E001968F73AB
:1005A0009078848FA689B7892C93A089B1898C9182
:1005B000837080648C93938D848D98130895028842
:1005C000F389E02D80818F7D8083F8CF0F931F9377
:1005D000CF93DF93EC0181E0888F9B8D8C8D9817F2
:1005E000B1F0062F8B8D90E001968F739078182FC5
:1005F0008C8D81131EC00FB607FCFACFE889F989EC
:10060000808185FFF5CFCE010E94C402F1CFE88939
:10061000F989808185FFE5CF9FB7F894EE89FF893E
:100620006083E889F98980818370806480839FBFBB
:1006300010C0EB8DEC0FFD2FF11DE35AFF4F00832F
:100640009FB7F8941B8FEA89FB8980818062808341
:100650009FBF81E090E0DF91CF911F910F910895AE
:10066000CF93DF93EC01888D811104C00DC00FB6CC
:1006700007FE0DC0EA89FB89808185FDF8CFA88936
:10068000B9898C9186FFF3CFDF91CF910895808156
:1006900085FFF0CFE889F989808185FFEBCFCE0116
:1006A0000E94C402E7CF80E090E0892B21F00E94F5
:1006B0003602811101C008950E940000FCCFFC01A8
:1006C0002081318181E0232B09F0089580E0FDCF66
:1006D000CF93DF93EC010E945F03811103C0DF9190
:1006E000CF910895888199810E94400219821882D1
:1006F000F6CF0E9468030895FC01118210821282D5
:100700001382148215821682178210861186128631
:10071000138608950E94B2000895CF93DF93EB01F2
:100720000E947E01C60FD71F8FEF8EBD00000DB453
:1007300007FEFDCF8EB58F3F41F00E947E01CE01B6
:10074000861B970B8AF780E001C081E0DF91CF9193
:100750000895CF93DF93FC012781211103C0DF911E
:10076000CF910895EC0161E085810E948A038FEFAB
:100770008EBD00000DB407FEFDCF8EB51F82EFCFFA
:100780001F93CF93DF93EC0168E572E00E948D0325
:10079000182F882381F08DEF8EBD00000DB407FE69
:1007A000FDCF8EB5CE010E94A9031886812FDF915F
:1007B000CF911F9108958FE18E83CE010E94A903EE
:1007C000F5CFCF93DF93DC016EBD00000DB407FEC3
:1007D000FDCF8EB5FA013196EA0188818EBD20E009
:1007E00032E02150310961F0AF014F5F5F4F9081DE
:1007F000000000000DB407FEFDCF9EBDFA01F1CF51
:100800000DB407FEFDCF8FEF8EBD00000DB407FEC7
:10081000FDCF8EB58FEF8EBD00000DB407FEFDCF6E
:100820008EB58FEF8EBD00000DB407FEFDCF9EB5D7
:1008300019969C9319979F71953051F0CD0121E243
:1008400016962C930E94A90380E0DF91CF91089522
:1008500081E0FBCF0F931F93CF93DF93EC018B01CC
:1008600068E572E00E948D0381110BC085E28E83E2
:10087000CE010E94A90380E0DF91CF911F910F91DB
:100880000895A8016CEFCE010E94E103882381F353
:10089000F3CFFC01278121110895928183819CBDB2
:1008A0008DBD81E0878360E085810E948A038FEFA0
:1008B0008EBD00000DB407FEFDCF8EB5EDCFCF92FB
:1008C000DF92EF92FF920F931F93CF93DF93EC0190
:1008D0006B017A010E947E018B01045D1E4F8FEF38
:1008E0008EBD00000DB407FEFDCF8EB589878F3F0A
:1008F000A9F40E947E01C801861B970B82F78EE146
:100900008E83CE010E94A90380E0DF91CF911F91D9
:100910000F91FF90EF90DF90CF9008958E3F19F0E8
:1009200089E18E83EECFE114F104D1F08FEF8EBD1B
:1009300081E0E81AF10871F0000000000DB407FE34
:10094000FDCF8EB59FEF9EBDF6018083C601019657
:100950006C01EECF0DB407FEFDCF8EB5F60180839E
:1009600019868FEF8EBD00000DB407FEFDCF8EB54A
:100970008FEF8EBD00000DB407FEFDCF8EB581E078
:10098000C4CF40E052E00E945F040895FF920F93AD
:100990001F93CF93DF9300D000D0CDB7DEB78C018B
:1009A000F62E29833A834B835C830E947706882343
:1009B00009F460C0F8018781882309F1FF2019F04C
:1009C000FCE0FF1220C08F2D80648EBD00000DB4AE
:1009D00007FEFDCF8EB583E08823F4F0E1E0F0E080
:1009E000EC0FFD1FE80FF11D87FDFA9590819EBD6C
:1009F00000000DB407FEFDCF9EB58150EDCFC801BC
:100A00000E944904DBCF6CE271E0C8010E948D03B3
:100A10008111D9CF8FEF22C0F1102AC085E98EBD98
:100A200000000DB407FEFDCF8EB58FEF8EBD000028
:100A30000DB407FEFDCF8EB530E020E08FEF8EBD08
:100A400000000DB407FEFDCF8EB5F8018187882325
:100A50002CF42F5F3F4F2A30310580F30F900F9019
:100A60000F900F90DF91CF911F910F91FF900895FC
:100A700087E8D5CF8FEFF2CFCF93DF93EC018A8554
:100A8000833049F0032E39E0440F551F661F771F4E
:100A90003A95D1F7302D9A01AB0169E1CE010E9460
:100AA000C604811106C082E0888781E0DF91CF9182
:100AB00008958EE08E83CE010E94A90380E0F6CFD8
:100AC0008F929F92AF92BF92CF92DF92EF92FF925E
:100AD0000F931F93CF93DF936C014A015B01E901F0
:100AE000FC018085823049F483859485A585B6858F
:100AF00088159905AA05BB0561F0B501A401C601D9
:100B00000E943C05882329F1F60183869486A586F8
:100B1000B686F12CE12CE016F10658F4BE01C601B0
:100B20000E942A048823A9F0FFEFEF1AFF0ADE5F74
:100B3000F2CFF60183859485A585B685800F911F38
:100B4000A11DB11D83879487A587B68787858823D4
:100B500069F0DF91CF911F910F91FF90EF90DF909F
:100B6000CF90BF90AF909F908F900895C6010E9444
:100B7000C003EFCF0F931F93CF93DF93EC01890155
:100B80008A85833049F0032E39E0440F551F661FD4
:100B9000771F3A95D1F7302D9A01AB0168E1CE016C
:100BA0000E94C604882361F08DE08E83CE010E94EE
:100BB000A90310E0812FDF91CF911F910F9108952C
:100BC000A8016EEFCE010E94E103882379F368E566
:100BD00072E0CE010E948D03182F811103C084E2C0
:100BE0008E83E4CF20E030E0A9016DE0CE010E94C9
:100BF000C604811109C08FEF8EBD00000DB407FE41
:100C0000FDCF8EB5882319F08AE08E83CFCFCE0139
:100C10000E94A903CFCF0F931F93DC011F96EC9185
:100C2000E11105C00E94BA051F910F91089501E0DE
:100C300010E00E946005F8CFEF92FF920F931F9390
:100C4000CF93FC01208120FD08C0C1E08C2FCF9103
:100C50001F910F91FF90EF9008958C017C01FBE0B4
:100C6000EF0EF11CFC01478150856185728597016B
:100C7000818192810E940B06C82F882339F3F801E5
:100C8000808181FD05C0F80180818E7F8083DECF69
:100C9000478150856185728583819481A581B68164
:100CA000480F591F6A1F7B1F9701818192810E9403
:100CB0000B068111E8CFC82FC9CFCF93DF93EC018A
:100CC000188620E030E0A9016CE00E94C604811182
:100CD00007C0CE010E94A90381E0DF91CF91089562
:100CE00089E08E83CE010E94A90380E0F6CFFC014B
:100CF0009085923021F0913031F081E00895CF015C
:100D00000E94C0030895CF010E945D060895CF930D
:100D1000DF93EC018A85833049F0032E39E0440FDC
:100D2000551F661F771F3A95D1F7302D9A01AB01F9
:100D300062E1CE010E94C604811105C081E088876E
:100D4000DF91CF9108958CE08E83CE010E94A9039C
:100D500080E0F6CF8F929F92AF92BF92CF92DF92B8
:100D6000EF92FF920F931F93CF93DF936C014A0191
:100D70005B01E901FC018085813049F4838594851C
:100D8000A585B68588159905AA05BB0561F0B5014D
:100D9000A401C6010E948706882329F1F6018386F3
:100DA0009486A586B686F12CE12CE016F10658F45F
:100DB000BE01C6010E94C1048823A9F0FFEFEF1A0B
:100DC000FF0ADE5FF2CFF60183859485A585B6859F
:100DD000800F911FA11DB11D83879487A587B687BA
:100DE0008785882369F0DF91CF911F910F91FF9044
:100DF000EF90DF90CF90BF90AF909F908F9008952D
:100E0000C6010E945D06EFCF0F931F9301E010E033
:100E10000E94AA061F910F910895CF92DF92EF9240
:100E2000FF921F93CF93DF93DC011196ED91FC911C
:100E3000EF2BB1F1122F6A017B01EC018F819885B4
:100E4000A985BA858C159D05AE05BF0571F4137093
:100E50002881122B1883CE010B96DF91CF911F9121
:100E6000FF90EF90DF90CF900895CE010E941C0676
:100E70008823C9F012FF06C01882CF82D886E9867F
:100E8000FA86E5CF9E01255F3F4FB701A601898114
:100E90009A810E9404078111EFCF90E080E0DDCFBE
:100EA00090E080E0DACF90E080E0D7CF8F929F9201
:100EB000AF92BF92CF92DF92EF92FF920F931F9368
:100EC000423051056105710508F456C0FC01C08C23
:100ED000D18CE28CF38CC416D506E606F70608F42E
:100EE00057C0680179014A015B012581203221F058
:100EF000203149F180E041C044895589668977896C
:100F000095018401689416F83695279517950795ED
:100F10001694D1F7400F511F621F731F23E0809674
:100F20000E940D070097B1F1A401440F551F440F13
:100F3000551F5170840F951FFC01C082D182E2823F
:100F4000F38281E01AC04489558966897789490D01
:100F5000511D611D711D23E080960E940D070097B1
:100F6000D9F0A401440F551F5170480F591FFA01C1
:100F70001183008381E001C080E01F910F91FF90F9
:100F8000EF90DF90CF90BF90AF909F908F9008959B
:100F900080E0F3CF80E0F1CF80E0EFCFCF92DF921F
:100FA000EF92FF920F931F93CF93DF93E9014230AB
:100FB00051056105710508F470C0FC01008D118DAB
:100FC000228D338D041715072607370708F467C0ED
:100FD0008E016A017B01EC0185818032B9F180319B
:100FE00009F061C044895589668977894D0D511D85
:100FF000611D711D22E0CF0180960E940D070097B0
:1010000009F453C0A601440F551F5170840F951F5A
:10101000FC0180819181B0E0A0E0488D598D6A8DFE
:101020007B8D481759076A077B0708F440C0F80111
:1010300080839183A283B38381E0DF91CF911F915D
:101040000F91FF90EF90DF90CF90089544895589DC
:1010500066897789D701C601689416F8B695A79571
:10106000979587951694D1F7480F591F6A1F7B1FD4
:1010700022E0CF0180960E940D07009791F0A60113
:10108000440F551F440F551F5170840F951FFC01CD
:1010900080819181A281B381C0CF8FEFCECF8FEFBE
:1010A000CCCF8FEFCACF8FEFC8CF8FEFC6CF80E006
:1010B000C4CF3F924F925F926F927F928F929F9296
:1010C000AF92BF92CF92DF92EF92FF920F931F9356
:1010D000CF93DF9300D000D0CDB7DEB75C012A01FB
:1010E0003B014901FC01C084D184E284F384C4142F
:1010F000D504E604F70420F47B016A0110E021C066
:1011000011E01FC0C084D184E284F38411E019C0CF
:101110004C145D046E047F0429F19E012F5F3F4F44
:10112000B701A601C5010E94CE078823DCF0882301
:1011300041F089819A81AB81BC81892B8A2B8B2BD1
:1011400049F1FFEFCF1ADF0AEF0AFF0AF501808DA0
:10115000918DA28DB38D8C159D05AE05BF05C0F692
:10116000112381F2312C832D0F900F900F900F904F
:10117000DF91CF911F910F91FF90EF90DF90CF9073
:10118000BF90AF909F908F907F906F905F904F90A7
:101190003F900895112329F0F501C086D186E2869B
:1011A000F3860FEF1FEF2FEF3FE0B701A601C50158
:1011B0000E945607382E8823B1F24114510461046D
:1011C000710431F4F401C082D182E282F382CBCF88
:1011D00097018601B301A201C5010E945607811142
:1011E000F1CF382EC0CF4F925F926F927F928F9245
:1011F0009F92AF92BF92CF92DF92EF92FF920F93A6
:101200001F93CF93DF93EC016A017B018C849D8453
:10121000AE84BF848881882309F45FC048885988D8
:101220006A887B884C145D046E047F0409F4B1C0A5
:10123000C114D104E104F10469F41C861D861E86E4
:101240001F86C88AD98AEA8AFB8A8A818F7D8A8327
:1012500081E048C083FF2BC0488D598D6A8D7B8DFE
:101260004C155D056E057F05C0F1EE81FF8194810F
:10127000975FB701A6014150510961097109092E13
:1012800004C076956795579547950A94D2F72A81B9
:1012900026FF39C08C8D9D8DAE8DBF8D840F951F1F
:1012A000A61FB71F8C879D87AE87BF87CACF86FFD3
:1012B000DCCFEE81FF8186819781880F991F82950F
:1012C0009295907F9827807F9827B0E0A0E08C15BA
:1012D0009D05AE05BF0508F0B4CF8C869D86AE8611
:1012E000BF8680E0DF91CF911F910F91FF90EF902B
:1012F000DF90CF90BF90AF909F908F907F906F9036
:101300005F904F90089593018201015011092109C6
:10131000310904C036952795179507959A95D2F708
:10132000401751076207730720F0452846284728D1
:1013300059F5882324F18C8D9D8DAE8DBF8D8C87C2
:101340009D87AE87BF872A013B0181E0481A51087B
:1013500061087108452B462B472B09F472CF4C8549
:101360005D856E857F859E01245F3F4F8E819F81C5
:101370000E94CE07B301A20118162CF3AECF848DC4
:10138000958DA68DB78DDBCF401B510B620B730B78
:10139000DACF81E0A7CFCF93DF93EC01262F8E81A8
:1013A0009F814C895D896E897F8980960E940D0797
:1013B000009771F02C813D812F703327220F331F4E
:1013C00022953295307F3227207F3227820F931F5C
:1013D000DF91CF9108950F931F93CF93DF93FC017B
:1013E0002081222309F441C0EC01828188237CF012
:1013F0000E811F81C80180960E941C0681112FC09A
:10140000811134C089818160898380E02FC061E0CF
:10141000CF010E94CB09FC01892BA1F38081853E7D
:1014200089F3888187738387888183FF08C0888DCB
:10143000998DAA8DBB8D848F958FA68FB78F8C8D3C
:101440009D8DAE8DBF8D938F828F8C8D9D8DAE8D3A
:10145000BF8DB58BA48B8A818F778A83C9CFF80122
:10146000808191810E947706CBCF81E0DF91CF917F
:101470001F910F910895CF92DF92EF92FF92CF9339
:10148000DF93EC01CC84DD84EE84FF849C01245F37
:101490003F4FB701A6018E819F810E945908882382
:1014A00059F0C114D104E104F10469F49A81906403
:1014B0009A839A8190689A83DF91CF91FF90EF9001
:1014C000DF90CF9008954C855D856E857F859FEF79
:1014D000C91AD90AE90AF90A4C155D056E057F0596
:1014E00041F39A819F7B9A83E4CFFC019091CD03D5
:1014F0009C3018F08FEF8083089581E0890F8093EE
:10150000CD039083892F90E0FC01EE0FFF1FE80FC1
:10151000F91FE755FC4F88EB9BE092838183089588
:1015200030E020E02F30310554F4F901EE0FFF1FB9
:10153000E80FF91F148A138A2F5F3F4FF3CFFC0186
:1015400012AA11AA0895FC017787668708950F9360
:101550001F93FC010285138524853585401B510BA3
:10156000620B730B22F080891F910F91089580E028
:10157000FBCFFC014283538364837583868197810B
:10158000A085B185840F951FA61FB71F82879387FB
:10159000A487B5870895FC014683578360877187C8
:1015A00082819381A481B581840F951FA61FB71FE7
:1015B00082879387A487B58708958F929F92AF9271
:1015C000BF92EF92FF920F931F93CF93DF938C0103
:1015D000DC011E96ED91FC91309709F009950E946F
:1015E0007E014B015C01D0E0C0E0F12CE12C0FC08A
:1015F000FE01EE0FFF1FE00FF11F83899489DC01CC
:10160000ED91FC910480F581E02D09952196CF3074
:10161000D105F4F4F80181A992A98E159F05C4F0B3
:10162000FE01EE0FFF1FE00FF11F838994890097E1
:1016300069F3FFEFEF1AFF0ADC01ED91FC910280E4
:10164000F381E02DB501A40109958111D1CFDECF41
:101650000E947E01AB01BC01C8010E94CB0ADF9150
:10166000CF911F910F91FF90EF90BF90AF909F90FF
:101670008F900895CF93DF93EC01EE85FF8530972F
:1016800009F009950E947E01AB01BC01CE010E94C8
:10169000CB0ADF91CF910895CF92DF92EF92FF9224
:1016A000CF93DF93EC0169017A018EE891E0998391
:1016B000888381E0888BCE010E94A30A1A861B864C
:1016C0001C861D860E947E016E837F838887998792
:1016D000DA8BC98BB701A601CE010E94B90ADF914E
:1016E000CF91FF90EF90DF90CF900895CF92DF924F
:1016F000EF92FF92CF93DF93EC016A017B0120E030
:1017000030E0A90170E060E00E944C0B88E991E0B4
:10171000998388831AAA19AACE010E94900AB70158
:10172000A601CE010E94B90ADF91CF91FF90EF9000
:10173000DF90CF9008950F931F93FC0104851585CA
:10174000268537854487558766877787C901B8011D
:101750001F910F910895CB010895CF93DF93EC0172
:10176000E881F9810288F389E02D09958F3F980778
:1017700031F02D813E812F5F3F4F3E832D83DF91DE
:10178000CF9108958FEF9FEF089560E070E0CB0157
:10179000089590E080E00895EF92FF921F93CF9319
:1017A000DF937C01EB016F3F760749F0162F6A301B
:1017B00081F0612FF701808991890E948B01CF3FD1
:1017C000DC0771F0CE01DF91CF911F91FF90EF9078
:1017D00008956DE0F701808991890E948B01E9CF1E
:1017E000D0E0C0E0EFCF4F925F926F927F92AF92C6
:1017F000BF92CF92DF92EF92FF920F931F93CF93FE
:101800008C015B0129013A01C12CD12C76010BC05E
:101810006C2FF801808991890E948B01FFEFCF1A0C
:10182000DF0AEF0AFF0AC414D504E604F7046CF4D7
:10183000F501EC0DFD1DC081CA3051F76DE0F801D6
:10184000808991890E948B01E3CFC301B201CF91BE
:101850001F910F91FF90EF90DF90CF90BF90AF90CE
:101860007F906F905F904F900895CB010895CF9334
:10187000DF93EC0188899989DC01ED91FC9100846A
:10188000F185E02D0995892BA9F388899989DC01D7
:10189000ED91FC910284F385E02D0995DF91CF91C4
:1018A0000895CF93DF93EC0188899989DC01ED914C
:1018B000FC910084F185E02D0995892BA9F3888995
:1018C0009989DC01ED91FC910484F585E02D099561
:1018D000DF91CF9108958F929F92AF92BF92CF9256
:1018E000DF92EF92FF920F931F93CF93DF93EC0160
:1018F0008B0149015A01C12CD12C76018889998923
:10190000DC01ED91FC910284F385E02D09958F3F78
:1019100079F0C814D904EA04FB0454F4F801EC0D7E
:10192000FD1D8083BFEFCB1ADB0AEB0AFB0AE6CF73
:10193000C701B601DF91CF911F910F91FF90EF90FA
:10194000DF90CF90BF90AF909F908F900895DC0173
:1019500050968D919C91DC01ED91FC910084F18574
:10196000E02D0995089590E080E0089590E080E0F2
:10197000089590E080E0089590E080E00895089553
:101980000895DC01ED91FC9136970190F081E02DF6
:10199000E80FF91F80E491E0918380838AE491E06D
:1019A000918F808F8AE591E0978386830895FC016B
:1019B00080E491E0918380838AE491E0918F808F2D
:1019C0008AE591E0978386830895FC018EE191E09A
:1019D0009183808314821382168215821086178267
:1019E0001286118614861386168615861786089524
:1019F0002AE531E0FC01318320830895FB01208139
:101A00003181FC0131832083FB01428153812650C7
:101A10003109F90120813181820F931FFC0151832B
:101A2000408308952CE731E0FC013183208326E8D0
:101A300031E0358B248B2AE531E03383228360E566
:101A400071E00E94FE0C0895DC01ED91FC91369747
:101A50000190F081E02DE80FF91F8CE791E0918370
:101A6000808386E891E0958B848B8AE591E093836F
:101A7000828360E571E0CF010E94FE0C08951F9300
:101A8000CF93DF93182FC0914C03D0914D038A3030
:101A900041F4E881F9810190F081E02D6DE0CE0103
:101AA0000995E881F9810190F081E02D612FCE0147
:101AB000099521E0019731F0822F90E0DF91CF91DD
:101AC0001F91089520E0F8CFCF93DF93C0914C038E
:101AD000D0914D03E881F9810084F185E02DCE019C
:101AE0000995892BB9F3E881F9810284F385E02D0A
:101AF000CE010995DF91CF91089508950895FC01D5
:101B0000848583FF17C084A195A1A6A1B7A1448DA8
:101B1000558D668D778D841B950BA60BB70B8115A4
:101B200020E89207A105B10520F08FEF9FE7A0E024
:101B3000B0E0089580E090E0DC01F1CF0C960E94C7
:101B4000EB0908950895089590E080E008951F93AB
:101B5000CF93DF93EC01162F8F8580FF0BC0E881B8
:101B6000F9810084F185E02D20E144E070E060E03F
:101B7000CE010995EB85FC858D859E85E817F907D3
:101B800068F0E881F981028CF38DE02D612F70E01F
:101B9000CE010995DF91CF911F91089510838B8518
:101BA0009C8501969C878B87812F90E0F3CF8F9245
:101BB0009F92AF92BF92CF92DF92EF92FF920F93DC
:101BC0001F93CF93DF938C01EB0149015A01C12C84
:101BD000D12C7601C814D904EA04FB048CF4FE016C
:101BE000EC0DFD1D6081C8010E94A70D019631F02A
:101BF0008FEFC81AD80AE80AF80AECCF4601570155
:101C0000C501B401DF91CF911F910F91FF90EF902B
:101C1000DF90CF90BF90AF909F908F900895FC0180
:101C2000448155816417750750F49B0124173507CB
:101C300018F42F5F3F4FFACFFC017583648308953A
:101C400026E040E855E260E070E08EEC93E00E9410
:101C5000620208950E94E21A0895CF93DF93DC0197
:101C6000ED91FC913697C081D181C80FD91F8CE7C7
:101C700091E09983888386E891E09D8B8C8B8AE53F
:101C800091E09B838A8360E571E0CE010E94FE0CA7
:101C9000CE010E942A0EDF91CF910895CF93DF935A
:101CA000EC018CE791E09983888386E891E09D8B35
:101CB0008C8B8AE591E09B838A8360E571E0CE019D
:101CC0000E94FE0CCE010E942A0EDF91CF91089552
:101CD000DC01ED91FC9136970190F081E02DE80F49
:101CE000F91F80E491E0918380838AE491E0918FF1
:101CF000808F8AE591E097838683CF010E942A0E28
:101D0000089520E431E0FC01318320832AE431E0AE
:101D1000318F208F2AE531E0378326830E942A0EF7
:101D200008950E942A0E08952AE531E0FC013183CE
:101D300020830E942A0E0895FC0130E020E04481B7
:101D400055812417350718F42F5F3F4FF8CF808156
:101D500091810E942A0E0895FC0130E020E0448128
:101D600055812417350718F42F5F3F4FF8CF808136
:101D700091810E942A0E0895FC0130E020E0448108
:101D800055812417350718F42F5F3F4FF8CF808116
:101D900091810E942A0E0895FC0130E020E04481E8
:101DA00055812417350718F42F5F3F4FF8CF8081F6
:101DB00091810E942A0E08950F931F93CF93DF9372
:101DC0008C01D0E0C0E0F80184819581C817D90763
:101DD00088F420813181CE01880F991F880F991FC7
:101DE000880F991F8C1B9D0B820F931F0E949C0EC6
:101DF0002196E9CF808191810E942A0EDF91CF91B7
:101E00001F910F9108950E94461A0895EF92FF9234
:101E10000F931F93CF93DF93EC018B01019761F038
:101E2000CD2B19F40F3F1F4F09F1DF91CF911F9177
:101E30000F91FF90EF9008956F3F7F4F89F70F2E1E
:101E4000F5E4EF2EF3E0FF2EF02DF7011182108262
:101E500088E090E0938382831582148280E590E08D
:101E60000E94030FF70191838083DACF85E493E02A
:101E70000E94CC0EDACF0F931F93CF93DF93FC0118
:101E8000228133812617370728F0DF91CF911F91E8
:101E90000F910895EC010081118173836283CB015E
:101EA0000E94030F9983888330E020E002C02F5FF7
:101EB0003F4F8C819D812817390760F4D801A20F0C
:101EC000B31FE881F981E20FF31F309781F38C9102
:101ED0008083EDCFC8010E942A0ED7CFEF92FF92E8
:101EE0000F931F93CF93DF93EC018B017A018C81C9
:101EF0009D818617970728F58A819B81861797070A
:101F000018F08C819D8107C0685F7F4FCE010E94D1
:101F10003B0FF7CF01968017910750F4E881F981C4
:101F2000E80FF91F3097B1F3D7012C912083F2CF3E
:101F30001D830C83DF91CF911F910F91FF90EF9044
:101F40000895CE010E940F0EF5CF0F931F93CF93EC
:101F5000DF93EC018B01DB0114968D919C919D83A5
:101F60008C8308969B838A839C01220F331F220F48
:101F7000331F820F931F880F991F0E94030F9983AD
:101F8000888390E080E001C001962C813D8182171A
:101F90009307D0F4D801ED91FC91DC01AA0FBB1F8F
:101FA000AA0FBB1FA80FB91FAA0FBB1FEA0FFB1F69
:101FB00028813981A20FB31F109731F32AE00190D5
:101FC0000D922A95E1F7E0CFDF91CF911F910F910C
:101FD0000895DC01ED91FC910280F381E02D42E057
:101FE00050E060EB71E0099508956115710581F08D
:101FF000FB0101900020E9F73197AF01461B570B19
:10200000DC01ED91FC910280F381E02D09950895AA
:1020100090E080E008950F931F93CF93DF93EC013E
:102020000E94F50F8C01CE010E94E90F800F911FD5
:10203000DF91CF911F910F9108954F925F926F9210
:102040007F92AF92BF92CF92DF92EF92FF920F9367
:102050001F93CF93DF93EC015B01E881F981369701
:102060000190F081E02DE80FF91F01891289011517
:102070001105A9F0D801ED91FC9136970190F081FE
:10208000E02DE00FF11F83899489DC01ED91FC9133
:102090000484F585E02D0995019609F476C0F501D3
:1020A00001900020E9F73197EA19FB092F01712C03
:1020B000612CE881F98136970190F081E02DEC0FD9
:1020C000FD1FC484D584E684F784C418D508E608C7
:1020D000F708838194818E709927049709F46AC068
:1020E000E881F98136970190F081E02DEC0FFD1F1A
:1020F00003891489D8011F968C911F9780FF0BC00C
:10210000ED91FC910084F185E02D20E144E070E048
:1021100060E0C8010995D801ED91FC91008CF18D2A
:10212000E02DA3019201B501C80109956F3F7F4FD2
:1021300009F46BC0E881F98136970190F081E02DB8
:10214000EC0FFD1F838194818E709927029709F40B
:1021500072C0E881F98136978081918140E050E03A
:10216000BA018C0F9D1F0E949B0BCE01DF91CF9176
:102170001F910F91FF90EF90DF90CF90BF90AF90A5
:102180007F906F905F904F900895D801ED91FC91F2
:1021900036970190F081E02DE00FF11F858181607D
:1021A00023893489232B11F0858379CF858377CFD9
:1021B000836085831C141D041E041F040CF090CF43
:1021C000B1E0CB1AD108E108F108E881F98136972E
:1021D0000190F081E02DEC0FFD1F608983899489C7
:1021E0000E94A70D019631F7E881F9813697019099
:1021F000F081E02DEC0FFD1F8581982F92602389DF
:102200003489232BA9F29583D5CFE881F9813697BC
:102210000190F081E02DEC0FFD1F8581982F9260D9
:1022200023893489232B11F0958384CF83608583A0
:1022300081CF836085831C141D041E041F040CF0D1
:1022400088CFE1E0CE1AD108E108F108E881F981F0
:1022500036970190F081E02DEC0FFD1F6089838996
:1022600094890E94A70D019631F7E881F98136978C
:102270000190F081E02DEC0FFD1F8581982F926079
:1022800023893489232BA9F29583D5CF63EB71E0A1
:102290008EE793E00E941D1068EB71E08EEC93E0F6
:1022A0000E940B1068EE73E080E090E00E9446010F
:1022B0000895AF92BF92CF92DF92EF92FF920F9369
:1022C0001F93CF93DF931F92CDB7DEB76C017B01D5
:1022D000FC011182108288E090E093838283158252
:1022E00014820E94030FF60191838083E114F104AC
:1022F00099F1F70101900020E9F731978F010E194C
:102300001F09F601A480B580B8016A0D7B1D1982F2
:10231000AE014F5F5F4FC6010E946E0FF601208134
:1023200031812A0D3B1D80E090E0DC01A80170E0C6
:1023300060E084179507A607B70770F4A701480F58
:10234000591FB901680F791FFA014081FB014083D1
:102350000196A11DB11DEACF0F90DF91CF911F9182
:102360000F91FF90EF90DF90CF90BF90AF900895C6
:102370004F925F926F927F928F929F92AF92BF9295
:10238000CF92DF92EF92FF920F931F93CF93DF9341
:10239000EC015B014A018A8181FF1DC083FD12C0EF
:1023A000A40170E060E088899989AA89BB89809539
:1023B0009095A095B09584179507A607B70758F094
:1023C0006401CBC0488D598D6A8D7B8DCE010E94F2
:1023D000F3088111E5CF89818160898380E090E0F5
:1023E000DF91CF911F910F91FF90EF90DF90CF90F1
:1023F000BF90AF909F908F907F906F905F904F9025
:1024000008959E01245F3F4FCF010E94CE0788238D
:1024100014F3811113C0CE010E943B0A81110EC03A
:10242000DACF8C8D9D8DAE8DBF8D0097A105B10546
:1024300009F43FC08C879D87AE87BF87EE81FF81FF
:102440008C859D85AE85BF85408951896289738958
:102450000297A109B109248104C0880F991FAA1FFE
:10246000BB1F2A95D2F7840F951FA61FB71FAC017B
:10247000BD01410F511D611D711DE114F10441F5B4
:10248000C11482E0D80620F187A190A5A1A5B2A52C
:10249000481759076A077B0709F4A9C0950181A16C
:1024A00092A10E940B06882309F495CF00E012E068
:1024B00044C0CE010E943B0A882309F48CCF8C854E
:1024C0009D85AE85BF858C8F9D8FAE8FBF8FB6CF1C
:1024D00000E012E00E191F09C016D10608F48601AB
:1024E000E114F10499F4488859886A887B88888DBA
:1024F000998DAA8DBB8D481659066A067B0608F091
:102500006CC08A8185FD6BC021E001C021E0CF0154
:1025100080960E940D07009709F45DCFA801B501D0
:102520008E0D9F1D0E949F1B8E819F81E00EF11ECC
:10253000E11422E0F20609F454C088899989AA8935
:10254000BB89800F911FA11DB11D888B998BAA8B10
:10255000BB8BA00EB11EC01AD10AC114D10409F45C
:102560004FC0EE81FF8188899989AA89BB89AC0116
:10257000BD01032E39E076956795579547953A95B5
:10258000D1F7302D138114237C0121E0F2221111A7
:1025900055CFE114F10409F051CF4C855D856E856E
:1025A0007F85411551056105710509F43ACF2A81EE
:1025B00026FF27CF488C598C6A8C7B8C8415950517
:1025C000A605B70508F01DCF4F5F5F4F6F4F7F4FD8
:1025D0004C875D876E877F8731CF25E098CF25E0D8
:1025E00096CF80960E941C068111A7CFF4CE10A230
:1025F0008FEF9FEFDC0187A390A7A1A7B2A74ECFD3
:1026000088899989AA89BB89488D598D6A8D7B8D66
:10261000481759076A077B0718F0882D992DE0CED7
:10262000888F998FAA8FBB8F8A8180688A83882D33
:10263000992DD6CE0C960E94B8110895CF93DF93B2
:102640001F92CDB7DEB7698341E050E0BE016F5FF6
:102650007F4F0C960E94B8110F90DF91CF91089593
:102660008F929F92AF92BF92CF92DF92EF92FF92A2
:102670000F931F93CF93DF93EC016B015A018A8173
:1026800080FF20C1888183FF17C0888D998DAA8D16
:10269000BB8D488959896A897B89841B950BA60B58
:1026A000B70BA50170E060E0481759076A077B0780
:1026B00008F05C018501BAC086FFFCCFEE81FF8186
:1026C00086819781880F991F82959295907F982790
:1026D000807F9827488959896A897B89841B950B53
:1026E0008A159B0538F75C01E5CF9380AC01BD01ED
:1026F000032E39E076956795579547953A95D1F72A
:10270000302D9422E114F10481F491100EC0892B34
:102710008A2B8B2B79F5222344F18C8D9D8DAE8DE8
:10272000BF8D8C879D87AE87BF87EE81FF818C85AB
:102730009D85AE85BF8540895189628973890297DD
:10274000A109B109248104C0880F991FAA1FBB1FCA
:102750002A95D2F7840F951FA61FB71FAC01BD01A4
:10276000490D511D611D711D81C0848D958DA68DF2
:10277000B78DD7CF23FF0FC08A8186FF0CC08C8511
:102780009D85AE85BF850196A11DB11D8C879D8756
:10279000AE87BF87CACF4C855D856E857F859E01DC
:1027A000245F3F4FCF010E94CE0788230CF48AC0DC
:1027B0008111BBCF8881807D09F484C0C501801B55
:1027C000910B85C03B9680E092E0D60101900D927E
:1027D0000197E1F781E06FC0EE81FF8180E092E038
:1027E0004C018E189F080815190508F4480120E0CF
:1027F000CF0180960E940D07009709F463C0BC01C9
:102800006E0D7F1DA401C6010E949F1BC80CD91C20
:1028100088899989AA89BB89880D991DA11DB11D37
:10282000888B998BAA8BBB8B081919090115110587
:1028300029F288899989AA89BB89EE81FF817C0167
:1028400021E0F222288126FF50CF448D558D668DE0
:10285000778D072E79E0B695A795979587957A9508
:10286000D1F7702D480F591F6A1F7B1FE114F10427
:1028700009F0B2CFEE81FF81011582E0180708F45C
:10288000ABCF87A190A5A1A5B2A5481759076A07A4
:102890007B0709F4A1CFB09687819085A185B28589
:1028A000481759076A077B0709F48CCF9601818185
:1028B00092810E940407882329F0812C689499242E
:1028C00091F8A4CF8981826089838FEF9FEFDF9198
:1028D000CF911F910F91FF90EF90DF90CF90BF901D
:1028E000AF909F908F9008958F929F92AF92BF92DA
:1028F000CF92DF92EF92FF920F931F93CF93DF93CC
:102900001F92CDB7DEB78C01FC0180889188A28828
:10291000B388C484D584E684F78441E050E0BE01E6
:102920006F5F7F4F0E9430130197C9F4898190E057
:10293000F801808A918AA28AB38AC486D586E686FF
:10294000F7860F90DF91CF911F910F91FF90EF903D
:10295000DF90CF90BF90AF909F908F9008958FEFB2
:102960009FEFE6CF0C960E9474140895CF93DF93E7
:102970001F92CDB7DEB741E050E0BE016F5F7F4FE1
:102980000C960E943013019731F4898190E00F90EA
:10299000DF91CF9108958FEF9FEFF9CF0E949A1B9F
:1029A000AF92BF92CF92DF92EF92FF920F931F935D
:1029B000CF93DF931F92CDB7DEB77C016B018A0105
:1029C0005901FC011182108288E090E09383828398
:1029D000158214820E94030FF70191838083F60110
:1029E000848195818017910798F184819581801B5E
:1029F000910BA816B90608F05C011982AE014F5F71
:102A00005F4FB501C7010E946E0FF7012481358128
:102A1000F60160817181F7014081518180E090E091
:102A2000DC016901F12CE12C8C159D05AE05BF057B
:102A300098F4F801E80FF91FE60FF71F7A01E80E86
:102A4000F91ED080F701D0820196A11DB11DE9CFFA
:102A500090E080E00E94CE140F90DF91CF911F9103
:102A60000F91FF90EF90DF90CF90BF90AF900895BF
:102A70008F929F92AF92BF92CF92DF92EF92FF928E
:102A80000F931F93CF93DF93CDB7DEB7AC970FB6FD
:102A9000F894DEBF0FBECDBF7C015B010197C9F08A
:102AA000EF2821F4AB20A09409F4A2C1AC960FB694
:102AB000F894DEBF0FBECDBFDF91CF911F910F9174
:102AC000FF90EF90DF90CF90BF90AF909F908F904E
:102AD00008956F3F7F4F21F789E393E00E947C03C5
:102AE00086E393E00E94750A83E393E00E94750AEF
:102AF0000CE213E0D80111961C921E9288E090E03F
:102B000013969C938E93129715961C921E9214976F
:102B10000E94030FF801918380838E010B5D1F4F8C
:102B20002FEF3FEF50E040E0BF01CE0186960E94BC
:102B3000D014BE016A5D7F4F85E293E00E94A30D31
:102B4000CE0186960E94AC0E8091290390912A03B3
:102B50009BA38AA3089699A388A327E0AC01249F8E
:102B6000C001259F900D11240E94030F9F8F8E8F0F
:102B7000912C812C25C00196F80124813581821782
:102B80009307D8F4D601ED91FC919C01220F331FDD
:102B9000220F331F220F331FAF01420F531FF801C3
:102BA000A081B181A20FB31F109729F328E0FA0189
:102BB00001900D922A95E1F7DECFFFEF8F1A9F0A61
:102BC0008AA19BA18816990658F5C0902503D0903C
:102BD000260327E0289DC001299D900D1124C80ED1
:102BE000D91E0E8D1F8D080F191F0115110529F310
:102BF000D60114968D919C91F80195838483089653
:102C000093838283880F991F880F991F880F991FBC
:102C10000E94030FD8018D939C9390E080E0ACCF8D
:102C2000BE01625E7F4F8EE193E00E94A20DCE0155
:102C30004E960E94DC0E6EE173E0CE0147960E9434
:102C4000A50FBE01695E7F4F87E193E00E947E0D74
:102C5000CE0147960E94CC0E6EE173E0CE01409605
:102C60000E94A50FBE01605F7F4F80E193E00E944C
:102C70007D0DCE0140960E94CC0EAE014F5F5F4F9E
:102C800062EC71E087EA92E00E945911AE014E5F5A
:102C90005F4F6AEC71E08EEA92E00E945911AE013A
:102CA0004D5F5F4F63ED71E085EB92E00E9459113B
:102CB000AE014C5F5F4F6FED71E08CEB92E00E94D4
:102CC0005911AE014B5F5F4F6CEE71E083EC92E007
:102CD0000E945911AE014A5F5F4F6AEF71E08AECC2
:102CE00092E00E945911AE01495F5F4F66E072E0C9
:102CF00081ED92E00E945911AE01485F5F4F63E1A0
:102D000072E088ED92E00E945911AE01475F5F4F7B
:102D100063E272E08FED92E00E945911AE01465FCE
:102D20005F4F61E372E086EE92E00E945911AE01BE
:102D3000455F5F4F60E472E08DEE92E00E945911B2
:102D4000AE01445F5F4F60E572E084EF92E00E9465
:102D50005911AE01435F5F4F6EE572E08BEF92E079
:102D60000E945911AE01425F5F4F66E672E082E059
:102D700093E00E945911AE01415F5F4F6AE672E035
:102D800089E093E00E94591140E050E0BA0182E7E7
:102D900092E00E94760B83E190E00E94030F20E016
:102DA00030E0A90170E060E00E944C0B83E190E00C
:102DB0000E94030F20E030E0A90170E060E00E9473
:102DC0004C0B83E190E00E94030F20E030E0A9016A
:102DD00070E060E00E944C0B83E190E00E94030FE2
:102DE00020E030E0A90170E060E00E944C0B58CE7A
:102DF00089E093E00E94AC0E82E093E00E94AC0E6A
:102E00008BEF92E00E94AC0E84EF92E00E94AC0E39
:102E10008DEE92E00E94AC0E86EE92E00E94AC0E27
:102E20008FED92E00E94AC0E88ED92E00E94AC0E15
:102E300081ED92E00E94AC0E8AEC92E00E94AC0E12
:102E400083EC92E00E94AC0E8CEB92E00E94AC0E00
:102E500085EB92E00E94AC0E8EEA92E00E94AC0EEE
:102E600087EA92E00E94AC0E80E193E00E94BC0EE3
:102E700087E193E00E94BC0E8EE193E00E94CC0EAD
:102E800085E293E00E94DC0E8CE293E00E94AC0E9F
:102E900089E393E00E94790309CE0F931F93CF93A8
:102EA000DF93EC018B018A819B81009711F00E94D6
:102EB000E21A1983088364E67DE08FE39DE00E94B7
:102EC000DF199B838A83DF91CF911F910F91089522
:102ED0003F924F925F926F927F928F929F92AF92AA
:102EE000BF92CF92DF92EF92FF920F931F93CF93F7
:102EF000DF93EC018B010197C1F0CD2B21F40F3F43
:102F00001F4F09F49CC0DF91CF911F910F91FF904B
:102F1000EF90DF90CF90BF90AF909F908F907F9079
:102F20006F905F904F903F9008956F3F7F4F29F7CC
:102F30000F2EFEE7EF2EF3E0FF2EF02D0F2EF1E225
:102F4000CF2ED12CF02DF701D08EC78A118E128E84
:102F5000138E0F2EF6E08F2E912CA12CB12CF02D7C
:102F6000848E958EA68EB78E10A211A212A213A2E5
:102F70006894332435F834A216A215A211A680E86D
:102F800093E090A787A38CE791E09183808386E804
:102F900091E0958B848B80E893E00E94E50C0F2EE6
:102FA000FAE56F2EF1E07F2EF02DF7017382628239
:102FB0000F2EFEEC4F2EF3E05F2EF02D538A428A47
:102FC00080E1818B0F2EF0E5EF2EF3E0FF2EF02D48
:102FD000F701D48EC38E158E168E178E80A291A205
:102FE000A2A2B3A214A215A216A217A230A612A6DC
:102FF00011A615A686E593E094A783A712821382F3
:103000001482158280E491E0918380838AE491E0C8
:10301000918F808F86E593E00E94E50CF70177821F
:103020006682578A468A88E0858B10924F031092F9
:103030004E03B2018CE493E00E944D175ECFE0E5B1
:10304000F3E080E491E0918380838AE491E0918FC2
:10305000808F8AE591E0978386838EE793E00E94D4
:10306000120D51CF6FEF7FEF90E080E00E94381596
:103070006FEF7FEF90E080E00E94060F6FEF7FEF31
:1030800090E080E00E94681708956FEF7FEF81E085
:1030900090E00E94C3016FEF7FEF81E090E00E941B
:1030A00068176FEF7FEF81E090E00E94060F6FEFEF
:1030B0007FEF81E090E00E94381508951F920F92F3
:1030C0000FB60F9211240F931F932F933F934F939B
:1030D0005F936F937F938F939F93AF93BF93009171
:1030E0006C0410916D0420916E0430916F049091E6
:1030F0006B04B901A8014F5F5F4F6F4F7F4F83E0B3
:10310000890F8D3740F086E8890FB901A8014E5F1D
:103110005F4F6F4F7F4F80936B0440936C045093CD
:103120006D0460936E0470936F04809170049091AD
:103130007104A0917204B09173040196A11DB11D98
:103140008093700490937104A0937204B0937304FD
:10315000BF91AF919F918F917F916F915F914F91AF
:103160003F912F911F910F910F900FBE0F901F90C5
:1031700018950E94E5000E94200E0E9446110E94B0
:103180005303FBCF1F920F920FB60F9211242F9370
:103190003F934F935F936F937F938F939F93AF93DF
:1031A000BF93EF93FF938EEC93E00E94C402FF91D4
:1031B000EF91BF91AF919F918F917F916F915F91AF
:1031C0004F913F912F910F900FBE0F901F90189528
:1031D0001F920F920FB60F9211242F938F939F93EC
:1031E000AF93BF93EF93FF93E091DE03F091DF0382
:1031F000808182FD14C0EEECF3E0A689B7892C91A2
:10320000818D8F5F8F73928D891771F0DF01E18D52
:10321000F0E0E253FC4F258F59968C9305C0E09166
:10322000E403F091E5038081FF91EF91BF91AF91AD
:103230009F918F912F910F900FBE0F901F90189517
:103240001F920F920FB60F9211242F933F934F931B
:103250005F936F937F938F939F93AF93BF93EF93FE
:10326000FF938091A803882364F18091A803082E1E
:10327000000C990B2091CD032817190631F12CF180
:10328000E091A8038E2FEE0F990BFC01EE0FFF1FAC
:10329000E80FF91FE755FC4F808186FF16C0E091CB
:1032A000A8038E2FEE0F990BFC01EE0FFF1FE80F06
:1032B000F91FE755FC4F808160E08F730E94B200D8
:1032C00004C010928500109284008091A8038F5F43
:1032D0008093A8038091A803082E000C990B2091DD
:1032E000CD032817190629F024F08091A8038C300B
:1032F0009CF08091840090918500049680349C49D4
:1033000008F443C0809184009091850004969093C6
:103310008900809388003FC020918400309185000F
:10332000E091A8038E2FEE0F990BFC01EE0FFF1F0B
:10333000E80FF91FE755FC4F81819281820F931F9F
:103340009093890080938800E091A8038E2FEE0F60
:10335000990BFC01EE0FFF1FE80FF91FE755FC4F1B
:10336000808186FF1BC0E091A8038E2FEE0F990B82
:10337000FC01EE0FFF1FE80FF91FE755FC4F80819E
:1033800061E08F730E94B20009C080E49CE99093D1
:103390008900809388008FEF8093A803FF91EF91BD
:1033A000BF91AF919F918F917F916F915F914F915D
:1033B0003F912F910F900FBE0F901F9018950F9374
:1033C0001F93CF93DF93009759F46115710541F472
:1033D000F0E0E0E0CF01DF91CF911F910F910895D0
:1033E0008B01EC016EE070E081E090E00E942A1A0F
:1033F000FC01892B69F380E883830115110571F0C5
:103400001387028781E88383809174049091750407
:10341000892B21F4F0937504E09374042097D1F282
:10342000D187C08783818260838380917604909165
:103430007704892B79F6F0937704E09376048091F2
:10344000780490917904892B29F6F0937904E0931C
:103450007804C0CF0F931F93CF93DF93869F800193
:10346000879F100D969F100D1124C8010E94461AC7
:10347000EC01009729F0A80170E060E00E946B1B4E
:10348000CE01DF91CF911F910F9108950F931F935C
:10349000CF93DF938230910510F482E090E0E091C9
:1034A0007C04F0917D0430E020E0B0E0A0E03097B3
:1034B00099F42115310509F44AC0281B390B243031
:1034C0003105D8F58A819B816115710589F1FB0170
:1034D00093838283FE0111C0408151810281138157
:1034E00048175907E0F04817590799F4109761F009
:1034F00012960C93129713961C933296CF01DF917C
:10350000CF911F910F91089500937C0410937D0437
:10351000F4CF2115310551F04217530738F0A901B6
:10352000DB019A01BD01DF01F801C1CFEF01F9CF45
:1035300090937D0480937C04CDCFFE01E20FF31FB6
:10354000819391932250310939832883D7CF2091D9
:103550007A0430917B04232B41F4209102013091B5
:10356000030130937B0420937A0420910001309171
:1035700001012115310541F42DB73EB740910401F9
:1035800050910501241B350BE0917A04F0917B04E6
:10359000E217F307A0F42E1B3F0B2817390778F02A
:1035A000AC014E5F5F4F2417350748F04E0F5F1F89
:1035B00050937B0440937A04819391939FCFF0E0E2
:1035C000E0E09CCFCF93DF930097E9F0FC013297C6
:1035D00013821282A0917C04B0917D04ED0130E051
:1035E00020E01097A1F420813181820F931F209158
:1035F0007A0430917B042817390709F061C0F093F1
:103600007B04E0937A04DF91CF910895EA01CE170D
:10361000DF07E8F54A815B819E0141155105B1F74D
:10362000E901FB83EA8349915991C40FD51FEC1737
:10363000FD0761F4808191810296840F951FE90155
:1036400099838883828193819B838A83F0E0E0E081
:1036500012968D919C9113970097B9F52D913C91FD
:103660001197CD010296820F931F20917A04309119
:103670007B042817390739F6309751F510927D04ED
:1036800010927C04B0937B04A0937A04BCCFD383C4
:10369000C28340815181840F951FC817D90761F4F7
:1036A0004E5F5F4F88819981480F591F5183408336
:1036B0008A819B81938382832115310509F0B0CFE4
:1036C000F0937D04E0937C049ECFFD01DC01C0CF2C
:1036D00013821282D7CFDC0101C06D93415050405C
:1036E000E0F70895A1E21A2EAA1BBB1BFD010DC035
:1036F000AA1FBB1FEE1FFF1FA217B307E407F507A2
:1037000020F0A21BB30BE40BF50B661F771F881F7D
:10371000991F1A9469F760957095809590959B0113
:10372000AC01BD01CF010895EE0FFF1F0590F4918C
:10373000E02D099481E090E0F8940C94A81BFB0123
:10374000DC0102C001900D9241505040D8F708951D
:1037500010E0C8E5D0E004C0FE010E94941B219651
:0A376000C935D107C9F7F894FFCF6F
:10376A0000007E0480001400000000000000000039
:10377A00ECFFECFF00000000000000000000C00C9D
:10378A00910EBF0CBC0CB90CB60CB30CC90BC50B13
:10379A00C20BAD0B350CD70DAB0B180000000000A7
:1037AA00D70C810EE8FFE8FF0000C10C680E7C010F
:1037BA000C011601860100000000F80C940EBF0CE3
:1037CA00BC0CB90CB60CB30CA70C6B0C510C370C17
:1037DA00350CF30BCC0B140000000000120D4E0E3A
:1037EA00ECFFECFF0000240D2D0E00000000B90ACA
:1037FA00A70A3A0B00000000B90AA70ADD0A00006E
:10380A000000E6029301F6013003290207021B02B7
:10381A000D0A0054657374006865686568656861B7
:10382A0077004875623A204F4B004875623A204546
:10383A00525200426F6F74696E6720487562005376
:10384A006572766F206D313A204F4B005365727660
:10385A006F206D313A2045525200536572766F20BF
:10386A006D323A4F4B00536572766F206D323A458E
:10387A00525200426F6F74696E6720536572766F99
:10388A00206D0052504C69646172206C3A204F4B93
:10389A000052504C69646172206C3A2045525200C1
:1038AA00426F6F74696E672052504C69646172008E
:1038BA005345545550202F2F2F2F2F2F2F00626F33
:1038CA006F74696E67002E2E2E005469636B202375
:0238DA000000EC
:00000001FF
