:100000000C9459000C9481000C9481000C94810094
:100010000C9481000C9481000C9481000C9481005C
:100020000C9481000C9481000C9481000C941C0FA2
:100030000C9481000C9481000C9481000C9481003C
:100040000C947A0E0C9481000C94EA0E0C94C40E5D
:100050000C9481000C9481000C9481000C9481001C
:100060000C9481000C948100000000002500280001
:100070002B00040404040404040402020202020229
:10008000030303030303010204081020408001025C
:1000900004081020010204081020000000080002DB
:1000A00001000003040700000000000000006811C8
:1000B0009B1511241FBECFEFD8E0DEBFCDBF12E0ED
:1000C000A0E0B1E0EAE9FFE202C005900D92A03B9A
:1000D000B107D9F727E0A0EBB2E001C01D92A5342B
:1000E000B207E1F710E0C8E5D0E004C02197FE01B7
:1000F0000E94B117C735D107C9F70E94F8130C94B5
:10010000C0170C940000FC01428353836483758301
:1001100086819781A085B185840F951FA61FB71F83
:1001200082879387A487B58708951F93CF93DF9322
:10013000182FC091BA02D091BB028A3041F4E881F5
:10014000F9810190F081E02D6DE0CE010995E88103
:10015000F9810190F081E02D612FCE01099521E018
:1001600030E0019711F430E020E0C901DF91CF9138
:100170001F910895CF93DF93C091BA02D091BB0233
:10018000E881F9810084F185E02DCE010995892B64
:10019000B9F3E881F9810284F385E02DCE01DF9186
:1001A000CF91099490E0FC01E656FF4F2491FC01A9
:1001B000EA57FF4F3491FC01EE58FF4FE491EE23D4
:1001C000C9F0222339F0233001F1A8F4213019F1CC
:1001D000223029F1F0E0EE0FFF1FE859FF4FA59103
:1001E000B4918FB7F894EC91611126C030953E23FD
:1001F0003C938FBF08952730A9F02830C9F02430F0
:1002000049F7809180008F7D03C0809180008F77B7
:1002100080938000DFCF84B58F7784BDDBCF84B53A
:100220008F7DFBCF8091B0008F778093B000D2CFCD
:100230008091B0008F7DF9CF3E2BDACF3FB7F89495
:100240008091B6029091B702A091B802B091B90224
:1002500026B5A89B05C02F3F19F00196A11DB11D21
:100260003FBFBA2FA92F982F8827BC01CD01620F5D
:10027000711D811D911D42E0660F771F881F991F18
:100280004A95D1F708952FB7F8946091B202709112
:10029000B3028091B4029091B5022FBF0895DC01A2
:1002A000ED91FC910190F081E02D0994AF92BF9205
:1002B000CF92DF92EF92FF920F931F93CF93DF9332
:1002C0006C017B018B01040F151FEB015E01AE1861
:1002D000BF08C017D10759F06991D601ED91FC9183
:1002E0000190F081E02DC6010995892B79F7C501B0
:1002F000DF91CF911F910F91FF90EF90DF90CF9002
:10030000BF90AF900895FC01538D448D252F30E0B0
:10031000842F90E0821B930B541710F0CF96089512
:1003200001970895FC01918D828D981761F0A28D3F
:10033000AE0FBF2FB11D5D968C91928D9F5F9F7305
:10034000928F90E008958FEF9FEF0895FC01918DBB
:10035000828D981731F0828DE80FF11D858D90E028
:1003600008958FEF9FEF0895FC01918D228D892FC5
:1003700090E0805C9F4F821B91098F7399270895AD
:100380008EEB92E00E94B40121E0892B09F420E079
:10039000822F089580E090E0892B29F00E94C0010F
:1003A00081110C9400000895FC01A48DA80FB92FB1
:1003B000B11DA35ABF4F2C91848D90E001968F738D
:1003C0009927848FA689B7892C93A089B1898C91AC
:1003D000837080648C93938D848D981306C00288FB
:1003E000F389E02D80818F7D80830895EF92FF92C5
:1003F0000F931F93CF93DF93EC0181E0888F9B8D48
:100400008C8D98131AC0E889F989808185FF15C001
:100410009FB7F894EE89FF896083E889F989808124
:100420008370806480839FBF81E090E0DF91CF91F3
:100430001F910F91FF90EF900895F62E0B8D10E015
:100440000F5F1F4F0F731127E02E8C8D8E110CC084
:100450000FB607FCFACFE889F989808185FFF5CFCF
:10046000CE010E94D401F1CFEB8DEC0FFD2FF11DD9
:10047000E35AFF4FF0829FB7F8940B8FEA89FB890C
:1004800080818062CFCFCF93DF93EC01888D88236A
:10049000B9F0AA89BB89E889F9898C9185FD03C0E7
:1004A000808186FD0DC00FB607FCF7CF8C9185FFCC
:1004B000F2CF808185FFEDCFCE010E94D401E9CF3C
:1004C000DF91CF9108958EBD00000DB407FEFDCFE2
:1004D0008EB50895CF93DF93EC010E944301C60FC0
:1004E000D71F8FEF0E9463028F3F59F00E94430194
:1004F000CE01861B970B97FFF4CF80E0DF91CF9161
:10050000089581E0FBCFCF93DF93FC012781222365
:1005100049F0EC0161E085810E94D2008FEF0E94DA
:1005200063021F82DF91CF9108951F93CF93DF93D2
:10053000EC0188E592E00E946A02182F882361F09E
:100540008DEF0E946302CE010E9483021886812FE4
:10055000DF91CF911F9108958FE18E83CE010E948C
:100560008302F5CF0F931F93CF93DF938C01862FD8
:10057000EA010E946302FE0181918EBDDE5FEC17ED
:10058000FD0741F08191000000000DB407FEFDCF92
:100590008EBDF5CF0DB407FEFDCF8FEF0E94630235
:1005A0008FEF0E9463028FEF0E946302F801818740
:1005B0008F71853059F081E28683C8010E948302E1
:1005C00080E0DF91CF911F910F91089581E0F9CFE5
:1005D000DF92EF92FF920F931F93CF93DF93EC0183
:1005E000162F022FF32EE42ED52E0E9414058823F9
:1005F00009F441C08F8181110DC09A818B819CBD0E
:100600008DBD81E08F8360E08D810E94D2008FEFED
:100610000E9463021C3031F08CE291E00E946A0279
:10062000882349F1812F80640E9463028D2D0E94EE
:1006300063028E2D0E9463028F2D0E946302802F21
:100640000E94630287E80E9463028FEF0E946302A8
:100650000AE010E08FEF0E946302898787FF03C0E2
:1006600001501109B9F7DF91CF911F910F91FF90C0
:10067000EF90DF9008958FEFF6CFAF92BF92CF92B9
:10068000DF92EF92FF921F93CF93DF93EC016A0109
:100690007B0159011F85112309F45EC088858230D2
:1006A00049F48B859C85AD85BE85C816D906EA06BA
:1006B000FB0649F18A85A7019601833039F099E05C
:1006C000220F331F441F551F9A95D1F769E1CE01C0
:1006D0000E94E802882389F08EE08E83CE010E947A
:1006E000830210E0812FDF91CF911F91FF90EF9057
:1006F000DF90CF90BF90AF90089582E08887CB863F
:10070000DC86ED86FE8688E592E00E946A02811111
:1007100002C085E2E2CFA5016CEFCE010E94B202D9
:100720008823E1F28B859C85AD85BE850196A11D50
:10073000B11D8B879C87AD87BE871F851111D2CFD6
:10074000CE01DF91CF911F91FF90EF90DF90CF907E
:10075000BF90AF900C9495028A85833039F089E080
:10076000CC0CDD1CEE1CFF1C8A95D1F7A70196016D
:1007700068E1CE010E94E802882331F08DE08E838B
:10078000CE010E948302AECFA5016EEFCE010E9482
:10079000B2028823A9F388E592E00E946A02F82E4B
:1007A00084E2FF2061F320E030E0A9016DE0CE019A
:1007B0000E94E802882311F08AE0E1CF8FEF0E94C7
:1007C00063028111F9CFCE010E9483021F2D8ACFCF
:1007D000EF92FF921F93CF93DF93FC01208111E0F2
:1007E00020FF12C0EC017C01FBE0EF0EF11C4F81F9
:1007F000588569857A85970189819A810E943D0390
:10080000182F811108C010E0812FDF91CF911F9127
:10081000FF90EF900895888181FD04C088818E7FCC
:100820008883F2CF4F81588569857A858B819C8139
:10083000AD81BE81480F591F6A1F7B1F97018981B7
:100840009A810E943D038111E9CFDDCFCF93DF93E1
:10085000EC01188620E030E0A9016CE00E94E8027B
:10086000882349F089E08E83CE010E94830280E0D4
:10087000DF91CF910895CE010E94830281E0F8CFED
:10088000CF92DF92EF92FF920F931F93CF93DF935C
:10089000EC016A017B0189018885813049F48B85EF
:1008A0009C85AD85BE858C159D05AE05BF0539F1CE
:1008B0008A85A7019601833039F089E0220F331F22
:1008C000441F551F8A95D1F762E1CE010E94E802CC
:1008D000882379F08CE08E83CE010E94830280E031
:1008E000DF91CF911F910F91FF90EF90DF90CF900C
:1008F000089581E08887CB86DC86ED86FE860E949F
:1009000043017B0124EDE21A2EEFF20A8FEF0E94E1
:10091000630289878F3F49F40E944301C701861B08
:10092000970B97FFF3CF8EE1D6CF8E3F11F089E181
:10093000D2CF8FEF8EBDF801D801A150BE4F9FEFEF
:10094000EA17FB0749F0000000000DB407FEFDCFD9
:100950008EB59EBD8193F4CF0DB407FEFDCF8EB54D
:100960008C9319868FEF0E9463028FEF0E946302BF
:100970008B859C85AD85BE850196A11DB11D8B879C
:100980009C87AD87BE878F858111AACFCE01DF916D
:10099000CF911F910F91FF90EF90DF90CF900C942B
:1009A0002604CF92DF92EF92FF921F93CF93DF93B3
:1009B000DC011196ED91FC91EF2B51F490E080E079
:1009C000DF91CF911F91FF90EF90DF90CF9008952E
:1009D000122F6A017B01EC018F819885A985BA8568
:1009E0008C159D05AE05BF0561F0CE010E94E803A0
:1009F000882321F312FF0CC01882CF82D886E986A3
:100A0000FA8613702881122B1883CE010B96D8CF4B
:100A10009E01255F3F4FB701A60189819A810E94FF
:100A200040048111E9CFCACFFC012085223011F4A6
:100A30000C949502213011F40C94260481E0089561
:100A40008F929F92AF92BF92CF92DF92EF92FF92DE
:100A50000F931F93423051056105710560F480E0EA
:100A60001F910F91FF90EF90DF90CF90BF90AF90CC
:100A70009F908F900895FC01C08CD18CE28CF38CF8
:100A8000C416D506E606F70650F3480159016A0177
:100A90008581803229F584899589A689B78917E0EF
:100AA00076956795579547951A95D1F7480F591F31
:100AB0006A1F7B1F23E0CF0180960E94D10400971C
:100AC00071F2CC0CDD1CCC0CDD1CF1E0DF228C0DB6
:100AD0009D1DFC0180829182A282B38281E0C0CF01
:100AE000803109F0BCCF44895589668977894D0DDD
:100AF000511D611D711D23E0CF0180960E94D1041C
:100B0000009709F4ACCFCC0CDD1CF1E0DF22C80E5D
:100B1000D91EF60111830083E1CFCF92DF92EF92CD
:100B2000FF920F931F93CF93DF93423051056105DE
:100B3000710550F48FEFDF91CF911F910F91FF90CE
:100B4000EF90DF90CF900895FC01C08CD18CE28CA7
:100B5000F38CC416D506E606F70660F389016A0130
:100B6000EC018581803299F584899589A689B789B8
:100B7000E7E07695679557954795EA95D1F7480F41
:100B8000591F6A1F7B1F22E0CE0180960E94D1046C
:100B9000009781F2CC0CDD1CCC0CDD1CF1E0DF22D7
:100BA0008C0D9D1DFC0180819181A281B381488DB6
:100BB000598D6A8D7B8D481759076A077B0730F17D
:100BC000F80180839183A283B38381E0B4CF803125
:100BD00009F0B0CF44895589668977894D0D511D3B
:100BE000611D711D22E0CF0180960E94D104009703
:100BF00009F4A0CFCC0CDD1CF1E0DF22C80ED91E19
:100C0000F60180819181B0E0A0E0D1CF80E093CF68
:100C10003F924F925F926F927F928F929F92AF928C
:100C2000BF92CF92DF92EF92FF920F931F93CF93D9
:100C3000DF9300D000D0CDB7DEB75C01FC01448467
:100C400055846684778486809780F401C084D1843B
:100C5000E284F384C414D504E604F704C0F47301F9
:100C6000620110E0FFEFCF1ADF0AEF0AFF0AF4017A
:100C7000808D918DA28DB38D8C159D05AE05BF0520
:100C800040F4111132C0C084D184E284F38411E0B5
:100C9000E9CF4C145D046E047F0439F19E012F5F8F
:100CA0003F4FB701A601C4010E948D0587FD1DC0FD
:100CB0008823C1F289819A81AB81BC81892B8A2BDF
:100CC0008B2B81F6112329F0F401C086D186E286B0
:100CD000F3860FEF1FEF2FEF3FE0B701A601C4012E
:100CE0000E942005382E811118C0312C832D0F90C1
:100CF0000F900F900F90DF91CF911F910F91FF9068
:100D0000EF90DF90CF90BF90AF909F908F907F90AB
:100D10006F905F904F903F9008954114510461048B
:100D20007104B9F4F501C486D586E686F78682811A
:100D30004114510461047104B1F0FFEF4F1A5F0ACE
:100D40006F0A7F0A4C145D046E047F0479F08F7B78
:100D50000BC097018601B301A201C4010E942005C6
:100D60008111E0CFC2CF8064F5018283F5018281D9
:100D700080688283BBCF8F929F92AF92BF92CF92B7
:100D8000DF92EF92FF920F931F93CF93DF93EC01CB
:100D9000EE85FF85309709F009950E9443014B01CC
:100DA0005C018E010D5E1F4F6E0121E3C20ED11C4E
:100DB000F12CE12C89A99AA98E159F0514F1D8016F
:100DC0008D919D918D010097C9F0BFEFEB1AFB0A41
:100DD000DC01ED91FC910280F381E02DB501A401CD
:100DE0000995882359F0F801329780819181DC01BF
:100DF000ED91FC910480F581E02D0995C016D10696
:100E0000C9F60E9443016E837F83888799870A8190
:100E10001B812C813D81DC01CB01800F911FA21F22
:100E2000B31F8A879B87AC87BD87DF91CF911F91C6
:100E30000F91FF90EF90DF90CF90BF90AF909F9079
:100E40008F9008950F931F93CF93DF93EC01EE855E
:100E5000FF85309709F009950E9443016E837F83D7
:100E6000888799870A811B812C813D81DC01CB0118
:100E7000800F911FA21FB31F8A879B87AC87BD87F6
:100E8000DF91CF911F910F9108950F931F93FC0154
:100E90000285138524853585401B510B620B730B2E
:100EA00080E077FF80891F910F910895CF93DF93A2
:100EB000EC01E881F9810288F389E02D09958F3FE3
:100EC000980731F02D813E812F5F3F4F3E832D8368
:100ED000DF91CF9108958FEF9FEF089560E070E06C
:100EE000CB01089590E080E00895FF920F931F9347
:100EF000CF93DF938C01EB016F3F7607B9F0F62EAD
:100F0000EAE06E1306C06DE0F801808991890E94C5
:100F10004F016F2DF801808991890E944F01CE0108
:100F2000DF91CF911F910F91FF900895D0E0C0E025
:100F3000F6CF7F928F929F92AF92BF92CF92DF9225
:100F4000EF92FF920F931F93CF93DF938C01490190
:100F50005A01EB01C12CD12C7601C814D904EA0442
:100F6000FB04B4F479908AE0781206C06DE0F801D1
:100F7000808991890E944F01672DF80180899189AC
:100F80000E944F01FFEFCF1ADF0AEF0AFF0AE5CFF9
:100F9000C501B401DF91CF911F910F91FF90EF90A8
:100FA000DF90CF90BF90AF909F908F907F900895EB
:100FB000CB010895CF93DF93EC0188899989DC01F7
:100FC000ED91FC910084F185E02D0995892BA9F321
:100FD00088899989DC01ED91FC910284F385E02DEB
:100FE000DF91CF910994CF93DF93EC0188899989A0
:100FF000DC01ED91FC910084F185E02D0995892BB0
:10100000A9F388899989DC01ED91FC910484F58527
:10101000E02DDF91CF9109948F929F92AF92BF9272
:10102000CF92DF92EF92FF920F931F93CF93DF93B4
:101030008C0149015A01EB01C12CD12C7601D80158
:1010400050968D919C91DC01ED91FC910284F38589
:10105000E02D09958F3F61F0C814D904EA04FB0420
:101060003CF48993BFEFCB1ADB0AEB0AFB0AE7CF0C
:10107000C701B601DF91CF911F910F91FF90EF90C3
:10108000DF90CF90BF90AF909F908F900895DC013C
:1010900050968D919C91DC01ED91FC910084F1853D
:1010A000E02D099490E080E0089590E080E00895BC
:1010B00008950895DC01ED91FC9136970190F0813F
:1010C000E02DE80FF91F80E791E0918380838AE7A4
:1010D00091E097838683089520E731E0FC01318316
:1010E00020832AE731E0378326830895FB0120819E
:1010F0003181FC0131832083FB01428153812650E1
:101100003109F90120813181820F931FFC01518344
:10111000408308952CE831E0FC013183208326E9E7
:1011200031E0318F208F60E871E00C947608DC01AB
:10113000ED91FC91369720813181820F931F0C94A1
:101140008A080895DC01ED91FC9136970190F081B9
:10115000E02DE80FF91F8CE591E09183808386E60E
:1011600091E09383828308952CE531E0FC01318383
:10117000208326E631E0338322830895FB0120811A
:101180003181FC0131832083FB0142815381265050
:101190003109F90120813181820F931FFC015183B4
:1011A0004083089528EA31E0FC013183208322EB5B
:1011B00031E0358B248B6CE971E00C94BE08DC01C6
:1011C000ED91FC91369720813181820F931F0C9411
:1011D000D20808950895FC01848583FF17C084A177
:1011E00095A1A6A1B7A1448D558D668D778D841BE1
:1011F000950BA60BB70B811520E89207A105B10549
:1012000020F08FEF9FE7A0E0B0E0089580E090E04D
:10121000DC01F1CF0F931F93CF93DF93FC01248563
:10122000222399F0EC01868587FF3DC040A151A1A2
:1012300062A173A18289938921E080960E94D104E2
:10124000009741F48D8581608D87DF91CF911F914B
:101250000F910895E889F989EF70FF2725E0EE0FD7
:10126000FF1F2A95E1F7E80FF91F309759F38081A6
:10127000853E41F38C85877383878C8583FF08C007
:101280008CA19DA1AEA1BFA1848F958FA68FB78F92
:1012900088A599A5AAA5BBA5938F828FB58BA48B92
:1012A0008E858F778E870A891B89C80180960E9458
:1012B000E803882339F2F801808191810E941405A6
:1012C000882309F4BFCFC1CF1F93CF93DF93EC01E5
:1012D000162F8F8580FF0BC0E881F9810084F1858E
:1012E000E02D20E144E070E060E0CE010995EB855F
:1012F000FC85812F90E02D853E85E217F30758F499
:1013000010832B853C852F5F3F4F3C872B87DF91D8
:10131000CF911F910895E881F981028CF38DE02D22
:10132000BC01CE01DF91CF911F910994E091E306BA
:10133000F091E40636970190F081E02DED51F94FE0
:10134000682F838994890E946409019689F4E09149
:10135000E306F091E40636970190F081E02DED511F
:10136000F94F858123893489232B29F08260858375
:1013700083EE96E008958360FACF8F929F92AF92AA
:10138000BF92CF92DF92EF92FF920F931F93CF9372
:10139000DF938C0149015A01EB01C12CD12C76015C
:1013A000C814D904EA04FB0464F46991C8010E94DA
:1013B0006409019641F08FEFC81AD80AE80AF80AC2
:1013C000EFCF75016401C701B601DF91CF911F9185
:1013D0000F91FF90EF90DF90CF90BF90AF909F90D4
:1013E0008F90089590E080E00895CF92DF92EF9281
:1013F000FF920F931F93CF93DF93EC018B017A0140
:101400002A813B812617370718F5CB010896281744
:101410003907F0F4C880D9809B838A830E9485169F
:1014200099838883F601CF018C199D092C813D8118
:101430008217930750F4A881B981A80FB91F10979C
:1014400011F080818C933196EECFC6010E94211756
:101450008C819D818017910758F4E881F981E80F0C
:10146000F91F309719F0D7012C9120830196F2CF04
:101470001D830C83DF91CF911F910F91FF90EF900F
:10148000DF90CF900895CF93DF93EC010E94D208B4
:10149000CE01DF91CF910C942117DC01ED91FC91ED
:1014A000369720813181820F931F0C94430ACF938A
:1014B000DF93EC010E948A08CE01DF91CF910C945A
:1014C0002117DC01ED91FC91369720813181820F4B
:1014D000931F0C94570A0C9421170C942117DC01CC
:1014E000ED91FC91369720813181820F931F0C94EE
:1014F0006D0A0C9421170C942117DC01ED91FC91DD
:10150000369720813181820F931F0C947B0A0C94B3
:1015100021170C942117FC01808191810C942117D3
:10152000FC01808191810C942117FC0180819181C3
:101530000C942117EF92FF920F931F93CF93DF9399
:101540007C01D0E0C0E010E000E0F70180819181F3
:10155000248135810217130740F48C0F9D1F0E94D0
:101560008B0A0F5F1F4F2796F0CFDF91CF911F910E
:101570000F91FF90EF900C9421178F929F92AF9252
:10158000BF92CF92DF92EF92FF920F931F93CF9370
:10159000DF93EC017B013A8130FFCAC02881888843
:1015A0009988AA88BB88422F4870C42E23FF22C086
:1015B000888D998DAA8DBB8D88199909AA09BB09B7
:1015C00082309105A105B10520F5009711F530E0B5
:1015D00020E0A901481B590BCA01DF91CF911F914F
:1015E0000F91FF90EF90DF90CF90BF90AF909F90C2
:1015F0008F90089526FF0DC0EE81FF81868197812F
:1016000045E0880F991F4A95E1F78815990509F477
:1016100095C0EE81FF8184011170B501A40189E0BC
:1016200076956795579547958A95D1F726FF27C0F8
:10163000848D958DA68DB78D480F591F6A1F7B1F0E
:101640008E819F8120E080960E94D104009709F44A
:101650006FC0800F911FFC018081F7018083888912
:101660009989AA89BB890196A11DB11D888B998B87
:10167000AA8BBB8B21E030E090E080E0AACFD38042
:10168000D4220115110581F4D1100EC089288A28B1
:101690008B2881F527FF29C0848D958DA68DB78D68
:1016A0008C879D87AE87BF87EE81FF814C855D85E6
:1016B0006E857F854250510961097109848104C09A
:1016C000440F551F661F771F8A95D2F7808991892D
:1016D000A289B389840F951FA61FB71FAC01BD0156
:1016E0004D0D511D611D711DABCF8C8D9D8DAE8D2E
:1016F000BF8DD6CF4C855D856E857F85CC2059F01A
:1017000036FF09C04F5F5F4F6F4F7F4F4C875D873C
:101710006E877F87C9CF9E01245F3F4FCF010E9414
:101720008D0587FD05C08111BFCF8881807D49F47B
:101730008981826089838FEF9FEF4FCF30E020E077
:101740009BCF21E030E081E090E043CF8F929F92E9
:10175000AF92BF92CF92DF92EF92FF920F931F93BF
:10176000CF93DF931F92CDB7DEB78C01FC01848C41
:10177000958CA68CB78CC08CD18CE28CF38CBE017E
:101780006F5F7F4F0C960E94BD0A0197C9F4898153
:1017900090E0F801848E958EA68EB78EC08ED18E85
:1017A000E28EF38E0F90DF91CF911F910F91FF90FA
:1017B000EF90DF90CF90BF90AF909F908F90089563
:1017C0008FEF9FEFE6CFCF93DF931F92CDB7DEB7BA
:1017D000BE016F5F7F4F0C960E94BD0A019731F4E6
:1017E000898190E00F90DF91CF9108958FEF9FEF67
:1017F000F9CF2F923F924F925F926F927F928F928A
:101800009F92AF92BF92CF92DF92EF92FF920F938F
:101810001F93CF93DF93CDB7DEB728970FB6F89419
:10182000DEBF0FBECDBF98878F831B015C834B83C8
:10183000DC0112968C91129781FF05C183FF2FC0A6
:101840001C964D905D906D907C901F972C9122235B
:1018500009F4F1C058968D909D90AD90BC905B9727
:1018600050964D915D916D917C915397841695069C
:10187000A606B706A1F081149104A104B10409F0F1
:10188000C2C0FD011486158616861786EF81F8857D
:10189000808A918AA28AB38A82818F7D8283EB813A
:1018A000FC81AF0170E060E0EF81F885808991896B
:1018B000A289B38980959095A095B09584179507D6
:1018C000A607B70708F4BFC0CB80DC8000E012E0B9
:1018D0003C96FE83ED83AF81B88550968D909D90A8
:1018E000AD90BC905397C114D10409F452C116961F
:1018F0008D919C911797FC01F380B501A40129E01B
:1019000076956795579547952A95D1F7F4229401D6
:1019100031703A832983F1102AC01C964D915D9154
:101920006D917C911F97232B09F060C141155105E2
:101930006105710509F409C112962C91129726FFD1
:10194000F5C058964D905D906D907C905B97841497
:101950009504A604B70408F0E9C04F5F5F4F6F4FCE
:101960007F4F1C964D935D936D937C931F97AF8132
:10197000B8851696ED91FC9117971C964D915D9147
:101980006D917C911F9742505109610971098481C1
:1019900004C0440F551F661F771F8A95D2F78089B0
:1019A0009189A289B389840F951FA61FB71FAC0127
:1019B000BD014F0D511D611D711D29813A81232BE0
:1019C00009F028C1C11432E0D30608F423C187A16D
:1019D00090A5A1A5B2A5481759076A077B0741F44E
:1019E00010A28FEF9FEFDC0187A390A7A1A7B2A75A
:1019F000910181A192A10E943D03882321F1E12C54
:101A000082E0F82E4FC1AF81B8851696ED91FC911A
:101A100023FD21C026FF1FC08681978135E0880FF6
:101A2000991F3A95E1F7B0E0A0E088159905AA055D
:101A3000BB0508F02BCFAF81B8851C964D925D9207
:101A40006D927C921F97EF81F885818181608183FF
:101A50001C821B82B0C03481375F75016401B1E024
:101A6000CB1AD108E108F108032E04C0F694E794DC
:101A7000D794C7940A94D2F786FF0FC0EF81F885F8
:101A8000848D958DA68DB78D8C0D9D1DAE1DBF1DB2
:101A900084879587A687B787F9CEDB01CA010197AE
:101AA000A109B10904C0B695A795979587953A9570
:101AB000D2F7C816D906EA06FB0620F0452B462BBE
:101AC000472B79F527FF2AC0848D958DA68DB78D7C
:101AD000EF81F88584879587A687B7870F8118855A
:101AE000045F1F4FC114D104E104F10409F4CECE08
:101AF000AF81B8851C964D915D916D917C911F973A
:101B0000980116968D919C910E948D05B1E0CB1A9B
:101B1000D108E108F10818162CF38DCFEF81F88574
:101B2000D3CFC81AD90AEA0AFB0AD8CF2D813E8141
:101B30000E948D0587FD87CF811119CF8F819885F0
:101B40000E940806811113CF7ECFEF81F885848D26
:101B5000958DA68DB78D0097A105B10589F4CF01AC
:101B60000E940806882309F46ECFEF81F8858485EA
:101B70009585A685B785848F958FA68FB78FF7CE6D
:101B8000EF81F88584879587A687B787F0CE21E017
:101B900068C0EF81F885808D918DA28DB38D8815F9
:101BA0009905AA05BB0538F4808E918EA28EB38E5E
:101BB0008281806882838B819C8128960FB6F894FD
:101BC000DEBF0FBECDBFDF91CF911F910F91FF9070
:101BD000EF90DF90CF90BF90AF909F908F907F90CD
:101BE0006F905F904F903F902F9008954250510911
:101BF00061097109848104C0440F551F661F771F56
:101C00008A95D2F780899189A289B389480F591F93
:101C10006A1F7B1FC801A981BA818A1B9B0B7601B1
:101C20008C159D0508F47C0129813A81232B09F04C
:101C3000AECFAF81B88550968D909D90AD90BC9001
:101C4000539758964D905D906D907C905B9784145F
:101C50009504A604B70420F412968C9185FF97CFC3
:101C600025E0CF0180960E94D104009709F4EBCEC5
:101C7000A701B101E981FA818E0F9F1F0E94B7175A
:101C800089819A818E0D9F1D8115924059F4AF81F3
:101C9000B88516968D919C9180960E94E8038823C2
:101CA00009F4D1CEEF81F88580899189A289B38921
:101CB0008E0D9F1DA11DB11D808B918BA28BB38BAF
:101CC0002E0C3F1CCE18DF0806CE0C960C94F90B98
:101CD000CF93DF931F92CDB7DEB7698341E050E029
:101CE000BE016F5F7F4F0C960E94F90B0F90DF9142
:101CF000CF9108951F920F920FB60F9211242F9338
:101D00003F938F939F93AF93BF938091B202909133
:101D1000B302A091B402B091B5023091B10223E0B8
:101D2000230F2D3758F50196A11DB11D2093B10247
:101D30008093B2029093B302A093B402B093B50221
:101D40008091B6029091B702A091B802B091B90209
:101D50000196A11DB11D8093B6029093B702A09386
:101D6000B802B093B902BF91AF919F918F913F910B
:101D70002F910F900FBE0F901F90189526E8230FFC
:101D80000296A11DB11DD2CF1F920F920FB60F92D6
:101D900011242F933F934F935F936F937F938F9370
:101DA0009F93AF93BF93EF93FF938EEB92E00E94CC
:101DB000D401FF91EF91BF91AF919F918F917F914E
:101DC0006F915F914F913F912F910F900FBE0F90A8
:101DD0001F9018951F920F920FB60F9211242F93F8
:101DE0008F939F93EF93FF93E091CE02F091CF02F8
:101DF0008081E091D402F091D50282FD1BC09081D8
:101E00008091D7028F5F8F732091D802821741F0A3
:101E1000E091D702F0E0E254FD4F958F8093D70216
:101E2000FF91EF919F918F912F910F900FBE0F9087
:101E30001F9018958081F4CF1F920F920FB60F92CA
:101E400011242F933F934F935F936F937F938F93BF
:101E50009F93AF93BF93CF93DF93EF93FF938091C3
:101E6000B002C0910806D0E087FF24C01092850020
:101E7000109284008091B0028F5F8093B0028091B5
:101E8000B002082E000C990B8C179D0724F480914A
:101E9000B0028C30C4F1809184009091850004964A
:101EA00080349C4908F47AC0809184009091850028
:101EB000049676C08091B002082E000C990B8C1706
:101EC0009D07C4F6E091B0028E2FEE0F990BFC0136
:101ED000EE0FFF1FE80FF91FEC51FA4F808186FFCC
:101EE000C9CFE091B0028E2FEE0F990BFC01EE0FDF
:101EF000FF1FE80FF91FEC51FA4F808160E08F73EC
:101F00000E94D200B7CF2091840030918500E091EB
:101F1000B0028E2FEE0F990BFC01EE0FFF1FE80FA2
:101F2000F91FEC51FA4F81819281820F931F909398
:101F3000890080938800E091B0028E2FEE0F990BFC
:101F4000FC01EE0FFF1FE80FF91FEC51FA4F8081E3
:101F500086FF11C0E091B0028E2FEE0F990BFC01AD
:101F6000EE0FFF1FE80FF91FEC51FA4F808161E07F
:101F70008F730E94D200FF91EF91DF91CF91BF91BB
:101F8000AF919F918F917F916F915F914F913F9111
:101F90002F910F900FBE0F901F90189580E49CE931
:101FA00090938900809388008FEF8093B002E3CFF5
:101FB00008950895CF93DF93EC018AEB91E0998324
:101FC000888381E0888B1F861E861A861B861C8666
:101FD0001D860E9443016E837F8388879987DA8BF1
:101FE000C98B1A821B821C821D826A877B878C8721
:101FF0009D87DF91CF910895CF93DF93EB01888187
:102000009981ADE0B7E011969C938E932A813B8134
:102010000697EC01E881F981E35FF84F3183208373
:1020200012961D921D921D921C92159781E290E0CE
:102030009483838383E197E0948B838B1582158A45
:10204000DF91CF910895CF93DF93CDE0D7E081E288
:1020500090E09C8F8B8F1D8E1E8E1F8E86E090E0F1
:10206000A0E0B0E088A399A3AAA3BBA31CA21DA2D1
:102070001EA21FA282E391E0998F888F80E288A739
:102080001AA619A61DA683E197E09CA78BA7AC0111
:1020900060E871E0CE010E94FC0F8CE891E099832A
:1020A000888386E991E0998F888F1A8619861C8625
:1020B0001B861E861D86188A1F861A8A198A1C8A04
:1020C0001B8A8AE391E09F838E838EEB92E09F8B45
:1020D0008E8B88E08D8BDF91CF910895DB018D9100
:1020E0009C9111979093E4068093E30612962D91AC
:1020F0003C910697DC01ED91FC91ED51F94F318354
:10210000208381E290E09483838385EE96E0948B34
:10211000838B1582158A0895CF93DF93C3EED6E0A3
:1021200081E290E0988F8F8B198E1A8E1B8E86E03D
:1021300090E0A0E0B0E08C8F9D8FAE8FBF8F18A293
:1021400019A21AA21BA282E391E09D8B8C8B80E2E4
:102150008CA31EA21DA219A685EE96E098A78FA3B8
:10216000AC016CE971E0CE010E946E1088EA91E04A
:102170009983888382EB91E09D8B8C8B1E821D82DC
:1021800018861F821A8619861C861B861E861D8647
:10219000188A1F868AE391E09B838A838EEB92E004
:1021A0009B8B8A8B80E1898BDF91CF9108950F9370
:1021B0001F93CF93DF938C01C091B906D091BA06DB
:1021C000FC01D583C483CE010896938382832AE0E1
:1021D000AC01249FC001259F900D11240E948516FB
:1021E000F801918380839C0150E040E0C417D5073B
:1021F000B9F0B901681B790B2115310561F0E09147
:10220000B506F091B606E60FF71F6AE0D901019016
:102210000D926A95E1F74F5F5F4F265F3F4FE6CF24
:10222000DF91CF911F910F910895CF92DF92EF929E
:10223000FF920F931F93CF93DF931F92CDB7DEB71B
:102240007C016B0188E090E0D70113969C938E93FC
:10225000129715961C921E9214970E948516F701EC
:1022600091838083F60101900020E9F731978F0177
:102270000C191D0919820115110539F0AE014F5FC6
:102280005F4FB801C7010E94F509D7012D913C911C
:1022900040E050E0BA01C801B0E0A0E0481759079B
:1022A0006A077B0758F4F60111916F01F901119348
:1022B0009F014F5F5F4F6F4F7F4FF0CF0F90DF91C8
:1022C000CF911F910F91FF90EF90DF90CF900895E5
:1022D0008F929F92AF92BF92CF92DF92EF92FF9236
:1022E0000F931F93CF93DF9300D000D000D01F92A5
:1022F000CDB7DEB71092C1021092C00258EEC52EC3
:1023000053E0D52EE12CF12CC092C202D092C30230
:10231000E092C402F092C50284EC91E09093BF0277
:102320008093BE0285EC90E09093CB028093CA022A
:1023300084EC90E09093CD028093CC0280EC90E00E
:102340009093CF028093CE0281EC90E09093D102E3
:102350008093D00282EC90E09093D3028093D202DB
:1023600086EC90E09093D5028093D4021092D7022D
:102370001092D8021092D9021092DA026EEB72E03B
:1023800083EE96E00E948C106EEB72E08DE097E099
:102390000E9423101092BD021092BC028EEB92E0BC
:1023A0009093BB028093BA026AEB70E085E990E0FB
:1023B0000E941E169093BD028093BC0288E090E0BC
:1023C0009093DF068093DE061092E1061092E006FD
:1023D00080E590E00E9485169093DD068093DC06F0
:1023E00010928C031092B2051092B3051092B405AE
:1023F0001092D3051092D20580E58093D6051092F5
:10240000D7051092D8058AE28093DA051092DE058E
:102410001092E30510925E0310925D03C0925F0379
:10242000D0926003E0926103F0926203109267031E
:10243000109268031092690386ED91E090935C031B
:1024400080935B031092D1061092D0061092D206B0
:102450001092D3061092D4061092D5061092D6068A
:102460001092D7061092D8061092D9061092DA066A
:102470001092DB06809108068C3008F0AAC091E02B
:10248000980F909308068093CD0690E0FC01EE0F24
:10249000FF1FE80FF91FEC51FA4F88EB9BE0928386
:1024A0008183809108068C3008F097C091E0980FE6
:1024B000909308068093CA0690E0FC01EE0FFF1F80
:1024C000E80FF91FEC51FA4F88EB9BE09283818370
:1024D00008E010E01093C6060093C5061092C806E7
:1024E0001092C70688E090E00E9485169093C4067B
:1024F0008093C3061C830B831E821D8288E090E0BC
:102500000E9485169A8389838CEB96E00E94D90FEE
:10251000CE0101960E94900A8091C0069091C1065A
:102520009E838D8308969C838B8327E0AC01249F38
:10253000C001259F900D11240E9485169A838983DE
:10254000F12CE12CB12CA12C8D819E81A816B9060D
:1025500008F04EC009811A810E0D1F1D01151105CD
:1025600009F43FC0C090BC06D090BD06CE0CDF1C65
:10257000D60114968D909C90F80195828482C401B6
:1025800008969383828323E0880F991F2A95E1F7A9
:102590000E948516D8018D939C939C0150E040E0E9
:1025A00084169506F1F0B901681B790B21153105E8
:1025B00059F0D601ED91FC91E60FF71F68E0D901C3
:1025C00001900D926A95E1F74F5F5F4F285F3F4F93
:1025D000E7CF8FEF8093CD0664CF8FEF8093CA064D
:1025E00077CFBFEFAB1ABB0AE7E0EE0EF11CACCF22
:1025F00085EB96E00E94D80FCE0101960E949A0AC0
:10260000CE0101960E94D7108EEA96E00E94D80F64
:10261000CE0101960E94950ACE0101960E94D71024
:1026200087EA96E00E94D80FCE0101960E94950A93
:10263000AE014F5F5F4F6EEE71E08EE396E00E9459
:102640001511AE014F5F5F4F66EF71E085E496E0D4
:102650000E941511AE014F5F5F4F6FEF71E08CE488
:1026600096E00E941511AE014F5F5F4F6BE072E084
:1026700083E596E00E941511AE014F5F5F4F68E160
:1026800072E08AE596E00E941511AE014F5F5F4F40
:1026900066E272E081E696E00E941511AE014F5F9E
:1026A0005F4F62E372E088E696E00E941511AE018A
:1026B0004F5F5F4F6FE372E08FE696E00E94151167
:1026C000AE014F5F5F4F6FE472E086E796E00E94D5
:1026D0001511AE014F5F5F4F6DE572E08DE796E03B
:1026E0000E941511AE014F5F5F4F6CE672E084E807
:1026F00096E00E941511AE014F5F5F4F6CE772E0EC
:102700008BE896E00E941511AE014F5F5F4F6AE8BB
:1027100072E082E996E00E941511AE014F5F5F4FB3
:1027200062E972E089E996E00E941511AE014F5FFF
:102730005F4F66E972E080EA96E00E94151189E039
:1027400096E00E94DA0F88EE91E090930A0680935B
:10275000090610923B0610923A06ECE1F6E011925F
:10276000119246E0EA33F407D1F710920B0610926B
:102770000C0610920D0610920E0680910F06909195
:102780001006A0911106B091120680931306909343
:102790001406A0931506B093160683E190E00E94FC
:1027A00085160E94DA0F83E190E00E9485160E9450
:1027B000DA0F83E190E00E9485160E94DA0F83E130
:1027C00090E00E9485160E94DA0F27960FB6F894C3
:1027D000DEBF0FBECDBFDF91CF911F910F91FF9054
:1027E000EF90DF90CF90BF90AF909F908F90089523
:1027F000789484B5826084BD84B5816084BD85B5DC
:10280000826085BD85B5816085BD80916E008160E7
:1028100080936E001092810080918100826080938D
:10282000810080918100816080938100809180008F
:102830008160809380008091B10084608093B100BA
:102840008091B00081608093B00080917A008460B4
:1028500080937A0080917A00826080937A008091E0
:102860007A00816080937A0080917A0080688093FA
:102870007A001092C100E091CE02F091CF0282E086
:102880008083E091CA02F091CB021082E091CC02E9
:10289000F091CD028FEC80831092D602E091D202AB
:1028A000F091D30286E08083E091D002F091D102D2
:1028B000808180618083E091D002F091D10280819B
:1028C00088608083E091D002F091D102808180689D
:1028D0008083E091D002F091D10280818F7D80834E
:1028E00000E010E0E091E306F091E40636970190F5
:1028F000F081E02DED51F94FC189D2892097E9F09F
:10290000E881F98136970190F081E02DEC0FFD1FF1
:1029100083899489DC01ED91FC910484F585E02D97
:102920000995019651F4E881F9813697808191816A
:10293000C80FD91F8D8181608D83E091E306F091EE
:10294000E40636970190F081E02DED51F94F848433
:102950009584A684B7847501640124E0C21AD10865
:10296000E108F108838194818E709927049789F595
:1029700026013701E091E306F091E40636970190D5
:10298000F081E02DED51F94F1414150416041704CD
:102990004CF441E0441A51086108710880890E9492
:1029A0009609E8CF84E088169104A104B1042CF4C0
:1029B00094E0892E912CA12CB12C84E090E0A0E031
:1029C000B0E088199909AA09BB09C80ED91EEA1EE8
:1029D000FB1EE091E306F091E40636970190F0814A
:1029E000E02DED51F94FC389D4898F8580FF0BC04D
:1029F000E881F9810084F185E02D20E144E070E078
:102A000060E0CE010995E881F981008CF18DE02D1F
:102A100024E030E040E050E06DE972E0CE0109953D
:102A20002091E3063091E4066F3F7F4F71F4F90186
:102A300036970190F081E02DED51F94F8581438962
:102A40005489452B39F18260858326503109D9019B
:102A5000ED91FC91ED51F94F838194818E7099270E
:102A60000297D1F4E091E306F091E40636970190E5
:102A7000F081E02DED51F94F1C141D041E041F04BC
:102A80005CF4B1E0CB1AD108E108F10880890E941A
:102A90009609E8CF8360D8CFE091E306F091E40691
:102AA00036970190F081E02DED51F94F148615868F
:102AB0001686178649E050E062EA72E08EEB92E0FB
:102AC0000E94560142E050E06CEA72E08EEB92E028
:102AD0000E9456010E941E014B015C0188EEC82E27
:102AE00083E0D82EE12CF12C0E941E01681979098F
:102AF0008A099B09683E734081059105A8F321E08E
:102B0000C21AD108E108F10848EE840E43E0941E91
:102B1000A11CB11CC114D104E104F10429F7011571
:102B2000110509F4DFCE0E94C001882309F4DACE32
:102B30000E940000D7CECF93DF9380EA96E00E94F8
:102B4000900A89E996E00E94900A82E996E00E9444
:102B5000900A8BE896E00E94900A84E896E00E9432
:102B6000900A8DE796E00E94900A86E796E00E9420
:102B7000900A8FE696E00E94900A88E696E00E940E
:102B8000900A81E696E00E94900A8AE596E00E940B
:102B9000900A83E596E00E94900A8CE496E00E94F9
:102BA000900A85E496E00E94900A8EE396E00E94E7
:102BB000900A87EA96E00E948B0A8EEA96E00E94CD
:102BC0008B0A85EB96E00E94950A8CEB96E00E94BA
:102BD0009A0A83EC96E00E94900AC091D006D091A8
:102BE000D1062097E9F0E881F9810680F781E02D90
:102BF000CE010995EA89FB8980818F7E8083EA89ED
:102C0000FB898081877F8083EA89FB8980818F7738
:102C10008083EA89FB8980818F7D80838A8D898F7B
:102C20008CED96E00E94950A8DE097E00E948A085C
:102C300083EE96E0DF91CF910C94D2080F931F930F
:102C4000CF93DF93009759F46115710541F4F0E0DB
:102C5000E0E0CF01DF91CF911F910F9108958B019B
:102C6000EC016EE070E081E090E00E946916FC01EA
:102C7000892B69F380E883830115110571F01387AF
:102C8000028781E8838380913B0790913C07892BE1
:102C900021F4F0933C07E0933B072097D1F2D187D2
:102CA000C08783818260838380913D0790913E0736
:102CB000892B79F6F0933E07E0933D0780913F071B
:102CC00090914007892B29F6F0934007E0933F0746
:102CD000C0CF0F931F93CF93DF93869F8001879F71
:102CE000100D969F100D1124C8010E948516EC014D
:102CF000009729F0A80170E060E00E94AA17CE01B9
:102D0000DF91CF911F910F9108950F931F93CF9350
:102D1000DF938230910510F482E090E0E091430768
:102D2000F091440730E020E0B0E0A0E0309799F463
:102D30002115310509F44AC0281B390B243031050F
:102D4000D8F58A819B816115710589F1FB01938317
:102D50008283FE0111C04081518102811381481795
:102D60005907E0F04817590799F4109761F0129647
:102D70000C93129713961C933296CF01DF91CF914B
:102D80001F910F9108950093430710934407F4CFC8
:102D90002115310551F04217530738F0A901DB0125
:102DA0009A01BD01DF01F801C1CFEF01F9CF909386
:102DB000440780934307CDCFFE01E20FF31F8193B9
:102DC00091932250310939832883D7CF209141072D
:102DD00030914207232B41F42091020130910301ED
:102DE0003093420720934107209100013091010167
:102DF0002115310541F42DB73EB7409104015091A2
:102E00000501241B350BE0914107F0914207E217C1
:102E1000F307A0F42E1B3F0B2817390778F0AC01FD
:102E20004E5F5F4F2417350748F04E0F5F1F5093DA
:102E3000420740934107819391939FCFF0E0E0E0F8
:102E40009CCFCF93DF930097E9F0FC013297138278
:102E50001282A0914307B0914407ED0130E020E0D9
:102E60001097A1F420813181820F931F2091410797
:102E7000309142072817390709F061C0F0934207E3
:102E8000E0934107DF91CF910895EA01CE17DF0764
:102E9000E8F54A815B819E0141155105B1F7E901D1
:102EA000FB83EA8349915991C40FD51FEC17FD07A5
:102EB00061F4808191810296840F951FE9019983C5
:102EC0008883828193819B838A83F0E0E0E012967D
:102ED0008D919C9113970097B9F52D913C91119785
:102EE000CD010296820F931F209141073091420736
:102EF0002817390739F6309751F510924407109288
:102F00004307B0934207A0934107BCCFD383C2834A
:102F100040815181840F951FC817D90761F44E5F16
:102F20005F4F88819981480F591F518340838A815F
:102F30009B81938382832115310509F0B0CFF093F3
:102F40004407E09343079ECFFD01DC01C0CF13820D
:102F50001282D7CFDC0101C06D9341505040E0F7A1
:102F60000895EE0FFF1F0590F491E02D0994FB01E9
:102F7000DC0102C001900D9241505040D8F70895F5
:102F800010E0C8E5D0E004C0FE010E94B117219610
:0A2F9000C935D107C9F7F894FFCF47
:102F9A000000450780001800000000000000000043
:102FAA00E8FFE8FF00000000000014000000000035
:102FBA0000000000ECFFECFF000000000000000031
:102FCA000000E908870A00000000A108790A5808E9
:102FDA005508F2095208720747080C08F307DA077E
:102FEA00D80799077507020000000000B4087B0A99
:102FFA00FEFFFEFF0000A2087D0A06000000000096
:10300A006C086D0AFAFFFAFF00005A086F0A8C0171
:10301A000C01160196011800000000008A08570AE0
:10302A00E8FFE8FF00009708610AA80120012A01C9
:10303A00B201140000000000D208430AECFFECFFC2
:10304A000000DF084D0A0000000083004507220740
:10305A0000000000F601560183014302B401920107
:10306A00A60100000000680E650E72070A09EB0847
:10307A00E30BA60B0000000083004507BB0648755A
:10308A00623A204F4B004875623A2045525200423C
:10309A006F6F74696E672048756200536572766F48
:1030AA00206D313A204F4B00536572766F206D3197
:1030BA003A2045525200536572766F206D323A4F6C
:1030CA004B00536572766F206D323A455252004278
:1030DA006F6F74696E6720536572766F206D005248
:1030EA00504C69646172206C3A204F4B0052504C2C
:1030FA0069646172206C3A2045525200426F6F74C3
:10310A00696E672052504C69646172005345545588
:10311A0050202F2F2F2F2F2F2F00626F6F74696E61
:10312A0067002E2E2E005469636B202300546573AA
:10313A007400686568656865686177000D0A000053
:00000001FF
