:100000000C945E000C9486000C9486000C94860080
:100010000C9486000C9486000C9486000C94860048
:100020000C9486000C9486000C9486000C94921B11
:100030000C9486000C9486000C9486000C94860028
:100040000C94D21A0C9486000C945A1B0C94341BFA
:100050000C9486000C9486000C9486000C94860008
:100060000C9486000C9486000000000024002700F9
:100070002A0000000000250028002B0004040404CE
:100080000404040402020202020203030303030342
:10009000010204081020408001020408102001021F
:1000A00004081020000000080002010000030407FB
:1000B0000000000000000000B91AA61A11241FBE9B
:1000C000CFEFD8E0DEBFCDBF12E0A0E0B1E0E4E4C6
:1000D000FCE302C005900D92AC3DB107D9F725E0D5
:1000E000ACEDB2E001C01D92A631B207E1F710E01D
:1000F000CDE5D0E004C02197FE010E94061ECC355C
:10010000D107C9F70E942D1B0C94151E0C940000FA
:1001100008958330B1F060F08730E9F0883009F15C
:10012000843021F5E0E8F0E080818F7D80830895C0
:10013000813069F0823021F484B58F7D84BD0895CB
:100140000895E0E8F0E080818F778083089584B59A
:100150008F7784BD0895E0EBF0E080818F77808316
:100160000895E0EBF0E080818F7D808308951F93F8
:10017000CF93DF93282F30E0F901EC55FF4F8491A6
:10018000F901E057FF4F1491F901E458FF4FC49172
:10019000CC23A9F0D62F811116C0EC2FF0E0EE0F82
:1001A000FF1FEE58FF4FA591B4918FB7F894D1116E
:1001B0000DC09C91E12FE095E923EC938FBFDF9177
:1001C000CF911F9108950E948900E7CFEC91E12B18
:1001D000EC93F4CFCF93DF9390E0FC01E057FF4F17
:1001E000249184589F4FFC018491882319F190E059
:1001F000880F991FFC01E859FF4FA591B491FC01AC
:10020000EE58FF4FC591D491662349F06230A9F0B2
:100210008FB7F894EC91E22BEC938FBF0BC09FB794
:10022000F8948C91E22FE0958E238C938881E823BB
:10023000E8839FBFDF91CF9108959FB7F8943C91D9
:10024000822F809583238C93E881E22BE8839FBFE4
:10025000F1CF789484B5826084BD84B5816084BD1B
:1002600085B5826085BD85B5816085BDEEE6F0E02F
:10027000808181608083E1E8F0E01082808182608B
:100280008083808181608083E0E8F0E0808181600C
:100290008083E1EBF0E0808184608083E0EBF0E03C
:1002A000808181608083EAE7F0E0808184608083E0
:1002B000808182608083808181608083808180688A
:1002C00080831092C10008953FB7F894809108058B
:1002D00090910905A0910A05B0910B0526B5A89B40
:1002E00005C02F3F19F00196A11DB11D3FBFBA2FC8
:1002F000A92F982F8827BC01CD01620F711D811D88
:10030000911D660F771F881F991F660F771F881F23
:10031000991F08958F929F92AF92BF92CF92DF92D2
:10032000EF92FF926B017C010E9464014B015C0122
:100330001BC021E0C21AD108E108F10888EE880E3E
:1003400083E0981EA11CB11CC114D104E104F10486
:1003500059F00E946401681979098A099B09683E6D
:1003600073408105910528F7C114D104E104F1041B
:1003700059F7FF90EF90DF90CF90BF90AF909F9094
:100380008F9008952FB7F89460910405709105053A
:1003900080910605909107052FBF08950895DC010F
:1003A000ED91FC910190F081E02D09950895CF9297
:1003B000DF92EF92FF920F931F93CF93DF938C0105
:1003C000DB01D0E0C0E07A0181E0E81AF108452BBA
:1003D000A1F0F80180819181FC01208131816D01C2
:1003E000FFEFCF1ADF0A6C91C801F9010995892B3B
:1003F00021F02196A701D601E6CFCE01DF91CF9162
:100400001F910F91FF90EF90DF90CF90089501978B
:1004100009F008956F3F7F4FE1F7E6E6F4E01382BD
:10042000128288EE93E0A0E0B0E084839583A683F7
:10043000B78388EA91E09183808385EC90E095878B
:10044000848784EC90E09787868780EC90E0918B9E
:10045000808B81EC90E0938B828B82EC90E0958B8B
:10046000848B86EC90E0978B868B118E128E138E88
:10047000148ECFCFFC01938D848D981720F4891BA7
:10048000990B019708952FE330E0291B3109820F62
:10049000932F911D0895FC01918D828D981761F025
:1004A000A28DAE0FBF2FB11D5D968C91928D9F5F77
:1004B0009F73928F90E008958FEF9FEF0895FC0156
:1004C000918D828D981731F0828DE80FF11D858D09
:1004D00090E008958FEF9FEF0895FC01218D30E0AB
:1004E000205C3F4F828DA901481B5109CA018F73BF
:1004F0009927089586E694E00E946D0221E0892BF9
:1005000009F420E0822F0895CF93DF93EC01E88176
:10051000F9810680F781E02D0995EA89FB898081C0
:100520008F7E8083EA89FB898081877F8083EA8947
:10053000FB8980818F778083EA89FB8980818F7D29
:1005400080838A8D898FDF91CF910895CF92DF923A
:10055000EF92FF921F93CF93DF93EC016A017B012F
:10056000122F60E079E08DE390E0A70196010E94F0
:10057000E41D215031094109510956954795379598
:100580002795E889F98982E08083C11481EED80635
:10059000E104F10421F0211580E1380798F0E889A1
:1005A000F989108260E874E88EE190E0A701960175
:1005B0000E94E41D21503109410951095695479582
:1005C00037952795EC85FD853083EE85FF85208363
:1005D000188EEC89FD891083EA89FB89808180610E
:1005E0008083EA89FB89808188608083EA89FB892E
:1005F000808180688083EA89FB8980818F7D808308
:10060000DF91CF911F91FF90EF90DF90CF900895F1
:10061000FC01A48DA80FB92FB11DA35ABF4F2C9177
:10062000848D90E001968F739078848FA689B78926
:100630002C93A089B1898C91837080648C93938D65
:10064000848D981308950288F389E02D80818F7D31
:100650008083F8CF0F931F93CF93DF93EC0181E05A
:10066000888F9B8D8C8D9817B1F0062F8B8D90E025
:1006700001968F739078182F8C8D81131EC00FB642
:1006800007FCFACFE889F989808185FFF5CFCE0193
:100690000E940803F1CFE889F989808185FFE5CFC1
:1006A0009FB7F894EE89FF896083E889F989808192
:1006B0008370806480839FBF10C0EB8DEC0FFD2F93
:1006C000F11DE35AFF4F00839FB7F8941B8FEA890F
:1006D000FB898081806280839FBF81E090E0DF9111
:1006E000CF911F910F910895CF93DF93EC01888DE7
:1006F000811104C00DC00FB607FE0DC0EA89FB8949
:10070000808185FDF8CFA889B9898C9186FFF3CFC8
:10071000DF91CF910895808185FFF0CFE889F98935
:10072000808185FFEBCFCE010E940803E7CF80E0F8
:1007300090E0892B21F00E947A02811101C0089576
:100740000E940000FCCF7F928F929F92AF92BF9247
:10075000CF92DF92EF92FF920F931F93CF93DF938D
:10076000EC018B0149015A010E94C2016B017C011D
:10077000712C0CC0853A910549F491E0970DF80170
:10078000E70DF11D8083973009F1792E0E94C20197
:100790006C197D098E099F0986169706A806B90669
:1007A000C8F088819981DC01ED91FC910284F38588
:1007B000E02D0995992354F37720E1F2B1E07B1203
:1007C000DCCF8A359105C9F2712CE0CF60E070E092
:1007D000CB0104C062E070E880E090E8DF91CF9147
:1007E0001F910F91FF90EF90DF90CF90BF90AF904F
:1007F0009F908F907F900895DF92EF92FF920F93DA
:100800001F93CF93DF9300D000D000D01F92CDB7BD
:10081000DEB77C01D62E5F834E8389011C82232B99
:1008200029F0CA01892B11F06894D7F885EA8983E9
:10083000DA82D7018D919C91DC01ED91FC910280CF
:10084000F381E02D42E050E0BE016F5F7F4F0995DC
:10085000DD208CF060E070E0CB0127960FB6F894B5
:10086000DEBF0FBECDBFDF91CF911F910F91FF90E3
:10087000EF90DF9008958C8195EA8927D826D026BD
:10088000DC8290E080E08017910750F4EE81FF81D8
:10089000E80FF91F2C81308123272C830196F3CF99
:1008A0000D83F70180819181DC01ED91FC91028043
:1008B000F381E02D41E050E0BE016B5F7F4F099571
:1008C000F70180819181DC01ED91FC910280F3813F
:1008D000E02D4D8150E0BE016A5F7F4F0995F70121
:1008E00080819181DC01ED91FC910280F381E02D0A
:1008F00041E050E0BE016C5F7F4F0995ABCFFC013A
:100900002081318181E0232B09F0089580E0FDCF23
:100910004F925F926F927F929F92AF92BF92CF92CF
:10092000DF92EF92FF920F931F93CF93DF9300D04C
:1009300000D000D01F92CDB7DEB78C015B016901FA
:100940007A010E94C2012B013C01C8010E947F0470
:10095000882309F44BC030E020E050E040E060E53F
:10096000C8010E94FC0399230CF444C0A70196011E
:10097000BE016F5F7F4FC8010E94A3039923D4F18A
:100980008F81843009F04CC08B819C81AD812E8198
:10099000B22FBF734497A105B10508F445C0912C4F
:1009A00002C0992D992E0E94C20164197509860909
:1009B0009709C616D706E806F906D0F1D8018D9139
:1009C0009C91DC01ED91FC910284F385E02D099569
:1009D00099233CF391E0990DF501E90DF11D808318
:1009E000943101F760E070E0CB0104C061E070E891
:1009F00080E090E827960FB6F894DEBF0FBECDBF1B
:100A0000DF91CF911F910F91FF90EF90DF90CF90EA
:100A1000BF90AF909F907F906F905F904F900895A0
:100A200060E070E8CB01E6CF60E070E8CB01E2CF98
:100A300062E070E880E090E8DDCFCF93DF93EC01D7
:100A40000E947F04811103C0DF91CF9108958881B6
:100A500099810E94840219821882F6CF0E941D0596
:100A60000895FC0111821082128213821482158271
:100A700016821782108611861286138608950E94A8
:100A8000B7000895CF93DF93EB010E94C201C60F18
:100A9000D71F8FEF8EBD00000DB407FEFDCF8EB5C2
:100AA0008F3F41F00E94C201CE01861B970B8AF74F
:100AB00080E001C081E0DF91CF910895CF93DF9373
:100AC000FC012781211103C0DF91CF910895EC0132
:100AD00061E085810E943F058FEF8EBD00000DB45F
:100AE00007FEFDCF8EB51F82EFCF1F93CF93DF930D
:100AF000EC0168E572E00E944205182F882381F01E
:100B00008DEF8EBD00000DB407FEFDCF8EB5CE017A
:100B10000E945E051886812FDF91CF911F91089565
:100B20008FE18E83CE010E945E05F5CFCF93DF93D8
:100B3000DC016EBD00000DB407FEFDCF8EB5FA01DD
:100B40003196EA0188818EBD20E032E021503109E2
:100B500061F0AF014F5F5F4F9081000000000DB466
:100B600007FEFDCF9EBDFA01F1CF0DB407FEFDCF0C
:100B70008FEF8EBD00000DB407FEFDCF8EB58FEF59
:100B80008EBD00000DB407FEFDCF8EB58FEF8EBD7C
:100B900000000DB407FEFDCF9EB519969C931997E2
:100BA0009F71953051F0CD0121E216962C930E9451
:100BB0005E0580E0DF91CF91089581E0FBCF0F9338
:100BC0001F93CF93DF93EC018B0168E572E00E94E5
:100BD000420581110BC085E28E83CE010E945E0525
:100BE00080E0DF91CF911F910F910895A8016CEFE4
:100BF000CE010E949605882381F3F3CFFC01278163
:100C000021110895928183819CBD8DBD81E08783F0
:100C100060E085810E943F058FEF8EBD00000DB41E
:100C200007FEFDCF8EB5EDCFCF92DF92EF92FF9210
:100C30000F931F93CF93DF93EC016B017A010E9416
:100C4000C2018B01045D1E4F8FEF8EBD00000DB4FD
:100C500007FEFDCF8EB589878F3FA9F40E94C201A0
:100C6000C801861B970B82F78EE18E83CE010E940E
:100C70005E0580E0DF91CF911F910F91FF90EF9083
:100C8000DF90CF9008958E3F19F089E18E83EECFEB
:100C9000E114F104D1F08FEF8EBD81E0E81AF10884
:100CA00071F0000000000DB407FEFDCF8EB59FEF80
:100CB0009EBDF6018083C60101966C01EECF0DB496
:100CC00007FEFDCF8EB5F601808319868FEF8EBDAE
:100CD00000000DB407FEFDCF8EB58FEF8EBD000076
:100CE0000DB407FEFDCF8EB581E0C4CF40E052E0E9
:100CF0000E9414060895FF920F931F93CF93DF93E2
:100D000000D000D0CDB7DEB78C01F62E29833A8310
:100D10004B835C830E942C08882309F460C0F8018F
:100D20008781882309F1FF2019F0FCE0FF1220C021
:100D30008F2D80648EBD00000DB407FEFDCF8EB5F3
:100D400083E08823F4F0E1E0F0E0EC0FFD1FE80F12
:100D5000F11D87FDFA9590819EBD00000DB407FE40
:100D6000FDCF9EB58150EDCFC8010E94FE05DBCFBF
:100D70006CE271E0C8010E9442058111D9CF8FEF6A
:100D800022C0F1102AC085E98EBD00000DB407FE17
:100D9000FDCF8EB58FEF8EBD00000DB407FEFDCFE9
:100DA0008EB530E020E08FEF8EBD00000DB407FE61
:100DB000FDCF8EB5F801818788232CF42F5F3F4F3C
:100DC0002A30310580F30F900F900F900F90DF9134
:100DD000CF911F910F91FF90089587E8D5CF8FEFA6
:100DE000F2CFCF93DF93EC018A85833049F0032E55
:100DF00039E0440F551F661F771F3A95D1F7302D04
:100E00009A01AB0169E1CE010E947B06811106C007
:100E100082E0888781E0DF91CF9108958EE08E8314
:100E2000CE010E945E0580E0F6CF8F929F92AF9236
:100E3000BF92CF92DF92EF92FF920F931F93CF93C7
:100E4000DF936C014A015B01E901FC01808582307E
:100E500049F483859485A585B68588159905AA05E5
:100E6000BB0561F0B501A401C6010E94F10688230B
:100E700029F1F60183869486A586B686F12CE12CAD
:100E8000E016F10658F4BE01C6010E94DF05882372
:100E9000A9F0FFEFEF1AFF0ADE5FF2CFF6018385BC
:100EA0009485A585B685800F911FA11DB11D8387EF
:100EB0009487A587B6878785882369F0DF91CF91CE
:100EC0001F910F91FF90EF90DF90CF90BF90AF9068
:100ED0009F908F900895C6010E947505EFCF0F93E4
:100EE0001F93CF93DF93EC0189018A85833049F00A
:100EF000032E39E0440F551F661F771F3A95D1F72F
:100F0000302D9A01AB0168E1CE010E947B06882357
:100F100061F08DE08E83CE010E945E0510E0812F8E
:100F2000DF91CF911F910F910895A8016EEFCE012F
:100F30000E949605882379F368E572E0CE010E944D
:100F40004205182F811103C084E28E83E4CF20E094
:100F500030E0A9016DE0CE010E947B06811109C03D
:100F60008FEF8EBD00000DB407FEFDCF8EB5882338
:100F700019F08AE08E83CFCFCE010E945E05CFCFDD
:100F80000F931F93DC011F96EC91E11105C00E94A5
:100F90006F071F910F91089501E010E00E9415075F
:100FA000F8CFEF92FF920F931F93CF93FC01208114
:100FB00020FD08C0C1E08C2FCF911F910F91FF90B1
:100FC000EF9008958C017C01FBE0EF0EF11CFC0119
:100FD00047815085618572859701818192810E9448
:100FE000C007C82F882339F3F801808181FD05C02F
:100FF000F80180818E7F8083DECF478150856185B7
:10100000728583819481A581B681480F591F6A1F1B
:101010007B1F9701818192810E94C0078111E8CFD7
:10102000C82FC9CFCF93DF93EC01188620E030E0C2
:10103000A9016CE00E947B06811107C0CE010E94CD
:101040005E0581E0DF91CF91089589E08E83CE0126
:101050000E945E0580E0F6CFFC019085923021F081
:10106000913031F081E00895CF010E947505089517
:10107000CF010E9412080895CF93DF93EC018A8577
:10108000833049F0032E39E0440F551F661F771F48
:101090003A95D1F7302D9A01AB0162E1CE010E9461
:1010A0007B06811105C081E08887DF91CF9108958B
:1010B0008CE08E83CE010E945E0580E0F6CF8F9299
:1010C0009F92AF92BF92CF92DF92EF92FF920F93D7
:1010D0001F93CF93DF936C014A015B01E901FC018F
:1010E0008085813049F483859485A585B6858815EA
:1010F0009905AA05BB0561F0B501A401C6010E94CE
:101100003C08882329F1F60183869486A586B68655
:10111000F12CE12CE016F10658F4BE01C6010E9444
:1011200076068823A9F0FFEFEF1AFF0ADE5FF2CF01
:10113000F60183859485A585B685800F911FA11D35
:10114000B11D83879487A587B6878785882369F033
:10115000DF91CF911F910F91FF90EF90DF90CF9093
:10116000BF90AF909F908F900895C6010E94120883
:10117000EFCF0F931F9301E010E00E945F081F91D3
:101180000F910895CF92DF92EF92FF921F93CF932A
:10119000DF93DC011196ED91FC91EF2BB1F1122F51
:1011A0006A017B01EC018F819885A985BA858C1530
:1011B0009D05AE05BF0571F413702881122B1883AD
:1011C000CE010B96DF91CF911F91FF90EF90DF90B2
:1011D000CF900895CE010E94D1078823C9F012FF55
:1011E00006C01882CF82D886E986FA86E5CF9E01AE
:1011F000255F3F4FB701A60189819A810E94B908F6
:101200008111EFCF90E080E0DDCF90E080E0DACF99
:1012100090E080E0D7CF8F929F92AF92BF92CF9213
:10122000DF92EF92FF920F931F93423051056105B9
:10123000710508F456C0FC01C08CD18CE28CF38C93
:10124000C416D506E606F70608F457C0680179010A
:101250004A015B012581203221F0203149F180E0F3
:1012600041C04489558966897789950184016894CC
:1012700016F836952795179507951694D1F7400FD0
:10128000511F621F731F23E080960E94C2080097BF
:10129000B1F1A401440F551F440F551F5170840F25
:1012A000951FFC01C082D182E282F38281E01AC0E4
:1012B0004489558966897789490D511D611D711DC4
:1012C00023E080960E94C2080097D9F0A401440F41
:1012D000551F5170480F591FFA011183008381E097
:1012E00001C080E01F910F91FF90EF90DF90CF90B1
:1012F000BF90AF909F908F90089580E0F3CF80E0F3
:10130000F1CF80E0EFCFCF92DF92EF92FF920F9379
:101310001F93CF93DF93E9014230510561057105B9
:1013200008F470C0FC01008D118D228D338D0417DF
:1013300015072607370708F467C08E016A017B018D
:10134000EC0185818032B9F1803109F061C04489B6
:101350005589668977894D0D511D611D711D22E0EA
:10136000CF0180960E94C208009709F453C0A601DD
:10137000440F551F5170840F951FFC01808191818E
:10138000B0E0A0E0488D598D6A8D7B8D48175907D4
:101390006A077B0708F440C0F80180839183A28329
:1013A000B38381E0DF91CF911F910F91FF90EF9078
:1013B000DF90CF9008954489558966897789D70150
:1013C000C601689416F8B695A795979587951694D3
:1013D000D1F7480F591F6A1F7B1F22E0CF0180966B
:1013E0000E94C208009791F0A601440F551F440FB8
:1013F000551F5170840F951FFC0180819181A2813E
:10140000B381C0CF8FEFCECF8FEFCCCF8FEFCACFCE
:101410008FEFC8CF8FEFC6CF80E0C4CF3F924F92FF
:101420005F926F927F928F929F92AF92BF92CF9274
:10143000DF92EF92FF920F931F93CF93DF9300D031
:1014400000D0CDB7DEB75C012A013B014901FC01A8
:10145000C084D184E284F384C414D504E604F70480
:1014600020F47B016A0110E021C011E01FC0C0849C
:10147000D184E284F38411E019C04C145D046E043D
:101480007F0429F19E012F5F3F4FB701A601C501DF
:101490000E9483098823DCF0882341F089819A81A6
:1014A000AB81BC81892B8A2B8B2B49F1FFEFCF1AA3
:1014B000DF0AEF0AFF0AF501808D918DA28DB38DB1
:1014C0008C159D05AE05BF05C0F6112381F2312CA8
:1014D000832D0F900F900F900F90DF91CF911F9160
:1014E0000F91FF90EF90DF90CF90BF90AF909F90C3
:1014F0008F907F906F905F904F903F900895112351
:1015000029F0F501C086D186E286F3860FEF1FEF42
:101510002FEF3FE0B701A601C5010E940B09382E4D
:101520008823B1F2411451046104710431F4F401CF
:10153000C082D182E282F382CBCF97018601B301D0
:10154000A201C5010E940B098111F1CF382EC0CF35
:101550004F925F926F927F928F929F92AF92BF92C3
:10156000CF92DF92EF92FF920F931F93CF93DF936F
:10157000EC016A017B018C849D84AE84BF848881E8
:10158000882309F45FC0488859886A887B884C148E
:101590005D046E047F0409F4B1C0C114D104E104F8
:1015A000F10469F41C861D861E861F86C88AD98AA6
:1015B000EA8AFB8A8A818F7D8A8381E048C083FF23
:1015C0002BC0488D598D6A8D7B8D4C155D056E0540
:1015D0007F05C0F1EE81FF819481975FB701A6017D
:1015E0004150510961097109092E04C0769567952A
:1015F000579547950A94D2F72A8126FF39C08C8DDA
:101600009D8DAE8DBF8D840F951FA61FB71F8C8734
:101610009D87AE87BF87CACF86FFDCCFEE81FF8173
:1016200086819781880F991F82959295907F982740
:10163000807F9827B0E0A0E08C159D05AE05BF0522
:1016400008F0B4CF8C869D86AE86BF8680E0DF91A1
:10165000CF911F910F91FF90EF90DF90CF90BF90AF
:10166000AF909F908F907F906F905F904F90089574
:1016700093018201015011092109310904C03695F5
:101680002795179507959A95D2F740175107620746
:10169000730720F045284628472859F5882324F168
:1016A0008C8D9D8DAE8DBF8D8C879D87AE87BF87BE
:1016B0002A013B0181E0481A510861087108452B55
:1016C000462B472B09F472CF4C855D856E857F854F
:1016D0009E01245F3F4F8E819F810E948309B30149
:1016E000A20118162CF3AECF848D958DA68DB78DE3
:1016F000DBCF401B510B620B730BDACF81E0A7CF1E
:10170000CF93DF93EC01262F8E819F814C895D89D9
:101710006E897F8980960E94C208009771F02C81A3
:101720003D812F703327220F331F22953295307F52
:101730003227207F3227820F931FDF91CF910895A8
:101740000F931F93CF93DF93FC012081222309F491
:1017500041C0EC01828188237CF00E811F81C80189
:1017600080960E94D10781112FC0811134C08981D8
:101770008160898380E02FC061E0CF010E94800BEF
:10178000FC01892BA1F38081853E89F388818773D1
:101790008387888183FF08C0888D998DAA8DBB8D32
:1017A000848F958FA68FB78F8C8D9D8DAE8DBF8DBD
:1017B000938F828F8C8D9D8DAE8DBF8DB58BA48BBD
:1017C0008A818F778A83C9CFF801808191810E94B5
:1017D0002C08CBCF81E0DF91CF911F910F9108951D
:1017E000CF92DF92EF92FF92CF93DF93EC01CC8404
:1017F000DD84EE84FF849C01245F3F4FB701A60186
:101800008E819F810E940E0A882359F0C114D10451
:10181000E104F10469F49A8190649A839A81906852
:101820009A83DF91CF91FF90EF90DF90CF90089552
:101830004C855D856E857F859FEFC91AD90AE90AB7
:10184000F90A4C155D056E057F0541F39A819F7B72
:101850009A83E4CFFC01909165049C3018F08FEFDF
:101860008083089581E0890F809365049083892F98
:1018700090E0FC01EE0FFF1FE80FF91FEF5BFB4F3D
:1018800088EB9BE092838183089530E020E02F3045
:10189000310554F4F901EE0FFF1FE80FF91F148A08
:1018A000138A2F5F3F4FF3CFFC0112AA11AA0895AC
:1018B000FC017787668708950F931F93FC010285CB
:1018C000138524853585401B510B620B730B22F069
:1018D00080891F910F91089580E0FBCFFC01428326
:1018E00053836483758386819781A085B185840F36
:1018F000951FA61FB71F82879387A487B587089572
:10190000FC01468357836087718782819381A4811C
:10191000B581840F951FA61FB71F82879387A48761
:10192000B58708958F929F92AF92BF92EF92FF92E8
:101930000F931F93CF93DF938C01DC011E96ED91E3
:10194000FC91309709F009950E94C2014B015C019E
:10195000D0E0C0E0F12CE12C0FC0FE01EE0FFF1F24
:10196000E00FF11F83899489DC01ED91FC910480E3
:10197000F581E02D09952196CF30D105F4F4F801D9
:1019800081A992A98E159F05C4F0FE01EE0FFF1FDD
:10199000E00FF11F83899489009769F3FFEFEF1A35
:1019A000FF0ADC01ED91FC910280F381E02DB5018D
:1019B000A40109958111D1CFDECF0E94C201AB01F4
:1019C000BC01C8010E94800CDF91CF911F910F9143
:1019D000FF90EF90BF90AF909F908F900895CF931E
:1019E000DF93EC01EE85FF85309709F009950E94A1
:1019F000C201AB01BC01CE010E94800CDF91CF91EE
:101A00000895CF92DF92EF92FF92CF93DF93EC0194
:101A100069017A0184E991E09983888381E0888B68
:101A2000CE010E94580C1A861B861C861D860E94B9
:101A3000C2016E837F8388879987DA8BC98BB70150
:101A4000A601CE010E946E0CDF91CF91FF90EF9026
:101A5000DF90CF900895CF92DF92EF92FF92CF93D5
:101A6000DF93EC016A017B0120E030E0A90170E026
:101A700060E00E94010D8EE991E0998388831AAAA3
:101A800019AACE010E94450CB701A601CE010E9401
:101A90006E0CDF91CF91FF90EF90DF90CF90089583
:101AA0000F931F93FC010485158526853785448790
:101AB000558766877787C901B8011F910F910895EF
:101AC000CB010895CF93DF93EC01E881F98102887F
:101AD000F389E02D09958F3F980731F02D813E81E4
:101AE0002F5F3F4F3E832D83DF91CF9108958FEF7E
:101AF0009FEF089560E070E0CB01089590E080E0F2
:101B00000895EF92FF921F93CF93DF937C01EB0137
:101B10006F3F760749F0162F6A3081F0612FF70189
:101B2000808991890E94CF01CF3FDC0771F0CE01FF
:101B3000DF91CF911F91FF90EF9008956DE0F70135
:101B4000808991890E94CF01E9CFD0E0C0E0EFCF3A
:101B50004F925F926F927F92AF92BF92CF92DF923D
:101B6000EF92FF920F931F93CF938C015B0129019A
:101B70003A01C12CD12C76010BC06C2FF801808961
:101B800091890E94CF01FFEFCF1ADF0AEF0AFF0A07
:101B9000C414D504E604F7046CF4F501EC0DFD1D46
:101BA000C081CA3051F76DE0F801808991890E94A7
:101BB000CF01E3CFC301B201CF911F910F91FF90ED
:101BC000EF90DF90CF90BF90AF907F906F905F903D
:101BD0004F900895CB010895CF93DF93EC0188894E
:101BE0009989DC01ED91FC910084F185E02D099546
:101BF000892BA9F388899989DC01ED91FC910284F4
:101C0000F385E02D0995DF91CF910895CF93DF9370
:101C1000EC0188899989DC01ED91FC910084F185C2
:101C2000E02D0995892BA9F388899989DC01ED912B
:101C3000FC910484F585E02D0995DF91CF910895FD
:101C40008F929F92AF92BF92CF92DF92EF92FF92CC
:101C50000F931F93CF93DF93EC018B0149015A013E
:101C6000C12CD12C760188899989DC01ED91FC91F8
:101C70000284F385E02D09958F3F79F0C814D904CB
:101C8000EA04FB0454F4F801EC0DFD1D8083BFEF62
:101C9000CB1ADB0AEB0AFB0AE6CFC701B601DF91DC
:101CA000CF911F910F91FF90EF90DF90CF90BF9059
:101CB000AF909F908F900895DC0150968D919C91EC
:101CC000DC01ED91FC910084F185E02D09950895EA
:101CD00090E080E0089590E080E0089590E080E05A
:101CE000089590E080E0089508950895DC01ED9155
:101CF000FC9136970190F081E02DE80FF91F86E402
:101D000091E09183808380E591E0918F808F80E6E0
:101D100091E0978386830895FC0186E491E09183A6
:101D2000808380E591E0918F808F80E691E09783BA
:101D300086830895FC0184E291E09183808314827C
:101D400013821682158210861782128611861486D7
:101D50001386168615861786089520E631E0FC0165
:101D6000318320830895FB0120813181FC0131837F
:101D70002083FB014281538126503109F9012081E2
:101D80003181820F931FFC0151834083089522E823
:101D900031E0FC01318320832CE831E0358B248B4A
:101DA00020E631E03383228366E571E00E94B30EC2
:101DB0000895DC01ED91FC9136970190F081E02DC2
:101DC000E80FF91F82E891E0918380838CE891E02D
:101DD000958B848B80E691E09383828366E571E046
:101DE000CF010E94B30E08951F93CF93DF93182F56
:101DF000C091E403D091E5038A3041F4E881F98190
:101E00000190F081E02D6DE0CE010995E881F98126
:101E10000190F081E02D612FCE01099521E001971D
:101E200031F0822F90E0DF91CF911F91089520E053
:101E3000F8CFCF93DF93C091E403D091E503E8811D
:101E4000F9810084F185E02DCE010995892BB9F344
:101E5000E881F9810284F385E02DCE010995DF91B7
:101E6000CF910895FC01848583FF17C084A195A1BB
:101E7000A6A1B7A1448D558D668D778D841B950BDA
:101E8000A60BB70B811520E89207A105B10520F03C
:101E90008FEF9FE7A0E0B0E0089580E090E0DC01E4
:101EA000F1CF0C960E94A00B089590E080E0089579
:101EB0001F93CF93DF93EC01162F8F8580FF0BC00C
:101EC000E881F9810084F185E02D20E144E070E0B3
:101ED00060E0CE010995EB85FC858D859E85E81730
:101EE000F90768F0E881F981028CF38DE02D612F0C
:101EF00070E0CE010995DF91CF911F910895108375
:101F00008B859C8501969C878B87812F90E0F3CFF2
:101F10008F929F92AF92BF92CF92DF92EF92FF92F9
:101F20000F931F93CF93DF938C01EB0149015A016B
:101F3000C12CD12C7601C814D904EA04FB048CF41A
:101F4000FE01EC0DFD1D6081C8010E94580F019635
:101F500031F08FEFC81AD80AE80AF80AECCF460128
:101F60005701C501B401DF91CF911F910F91FF90EF
:101F7000EF90DF90CF90BF90AF909F908F9008959B
:101F8000FC01448155816417750750F49B012417A7
:101F9000350718F42F5F3F4FFACFFC017583648338
:101FA0000895AF92BF92CF92DF92EF92FF920F937C
:101FB0001F93CF93DF938C01DB011496CD90DC90BF
:101FC0001597F12CE12CAD90BC90DC01ED91FC91CA
:101FD00036970190F081E02DE80FF91FC389D4896D
:101FE0008F8580FF0BC0E881F9810084F185E02DA9
:101FF00020E144E070E060E0CE010995E881F981DC
:10200000008CF18DE02DA7019601B501CE01099557
:102010006F3F7F4F61F0C801DF91CF911F910F910A
:10202000FF90EF90DF90CF90BF90AF900895D801D0
:10203000ED91FC9136970190F081E02DE00FF11FBA
:102040008581982F926023893489232B11F0958301
:10205000E2CF83608583DFCF0895CF92DF92EF9246
:10206000FF92CF93C82F6B0161E00E94B7000D2C47
:10207000000CEE08FF08C701B6010E948A0160E06B
:102080008C2F0E94B700C701B6010E948A01CF9130
:10209000FF90EF90DF90CF9008950F931F93CF9311
:1020A000DF93CDB7DEB7A0970FB6F894DEBF0FBEB3
:1020B000CDBF8C0124E630E040E050E0BE01635F1C
:1020C0007F4F0E94880499237CF01092DF021092C7
:1020D000DE02A0960FB6F894DEBF0FBECDBFDF9133
:1020E000CF911F910F91089581E090E09093DF02CE
:1020F0008093DE028CE0F801DE01119601900D92D2
:102100008A95E1F7CE0101960E942E05E2CF0F934A
:102110001F93CF93DF93CDB7DEB72C970FB6F8940C
:10212000DEBF0FBECDBF8C016EE773E086E194E0A9
:102130000E94D10F66E473E00E94D10F8CE0F80199
:10214000DE01119601900D928A95E1F7CE0101967C
:102150000E944D10CE0101960E942E052C960FB6BE
:10216000F894DEBF0FBECDBFDF91CF911F910F91CD
:102170000895CF93DF9300D000D000D0CDB7DEB765
:1021800049835A836B837C838D839E8389819A8163
:10219000892B21F48B819C81019779F081E090E07B
:1021A0009093DD028093DC0226960FB6F894DEBF92
:1021B0000FBECDBFDF91CF9108958D819E81029793
:1021C00069F71092DD021092DC02EECFCF93DF931D
:1021D00000D000D000D0CDB7DEB749835A836B83DF
:1021E0007C838D839E8366EB73E086E194E00E949E
:1021F000D10F66E473E00E94D10F49815A816B814F
:102200007C818D819E810E94B9108091DC02909129
:10221000DD02892B31F48091DE029091DF02892B5F
:1022200069F01092E1021092E00226960FB6F8943F
:10223000DEBF0FBECDBFDF91CF91089581E090E06A
:102240009093E1028093E002F0CF0E94541D089524
:10225000CF93DF93DC01ED91FC913697C081D18162
:10226000C80FD91F82E891E0998388838CE891E0B8
:102270009D8B8C8B80E691E09B838A8366E571E081
:10228000CE010E94B30ECE010E942511DF91CF91A5
:102290000895CF93DF93EC0182E891E099838883DE
:1022A0008CE891E09D8B8C8B80E691E09B838A8308
:1022B00066E571E0CE010E94B30ECE010E942511A9
:1022C000DF91CF910895DC01ED91FC91369701905B
:1022D000F081E02DE80FF91F86E491E0918380837F
:1022E00080E591E0918F808F80E691E097838683EF
:1022F000CF010E942511089526E431E0FC013183CD
:10230000208320E531E0318F208F20E631E03783D4
:1023100026830E94251108950E942511089520E624
:1023200031E0FC01318320830E9425110895FC01D6
:1023300030E020E0448155812417350718F42F5FE1
:102340003F4FF8CF808191810E94251108950F930E
:102350001F93CF93DF938C01D0E0C0E0F80184811C
:102360009581C817D90788F420813181CE01880F63
:10237000991F880F991F880F991F8C1B9D0B820F27
:10238000931F0E9497112196E9CF808191810E942D
:102390002511DF91CF911F910F910895FC0130E03D
:1023A00020E0448155812417350718F42F5F3F4FF3
:1023B000F8CF808191810E9425110895FC0130E0C1
:1023C00020E0448155812417350718F42F5F3F4FD3
:1023D000F8CF808191810E9425110895FC0130E0A1
:1023E00020E0448155812417350718F42F5F3F4FB3
:1023F000F8CF808191810E94251108950E94B81C18
:102400000895EF92FF920F931F93CF93DF93EC0108
:102410008B01019761F0CD2B19F40F3F1F4F09F18C
:10242000DF91CF911F910F91FF90EF9008956F3F33
:102430007F4F89F70F2EFDEDEF2EF3E0FF2EF02DED
:10244000F7011182108288E090E0938382831582E5
:10245000148280E590E00E94FE11F7019183808351
:10246000DACF8DED93E00E94CE11DACF0F931F9358
:10247000CF93DF93FC01228133812617370728F0A1
:10248000DF91CF911F910F910895EC01008111818F
:1024900073836283CB010E94FE119983888330E0AD
:1024A00020E002C02F5F3F4F8C819D8128173907A4
:1024B00060F4D801A20FB31FE881F981E20FF31F86
:1024C000309781F38C918083EDCFC8010E94251154
:1024D000D7CFEF92FF920F931F93CF93DF93EC012F
:1024E0008B017A018C819D818617970728F58A8157
:1024F0009B818617970718F08C819D8107C0685FC4
:102500007F4FCE010E943612F7CF019680179107B8
:1025100050F4E881F981E80FF91F3097B1F3D70142
:102520002C912083F2CF1D830C83DF91CF911F91DB
:102530000F91FF90EF900895CE010E94C00FF5CF4C
:102540004F925F926F927F928F929F92AF92BF92C3
:10255000CF92DF92EF92FF920F931F93CF93DF936F
:10256000EC015B014A018A8181FF1DC083FD12C01D
:10257000A40170E060E088899989AA89BB89809567
:102580009095A095B09584179507A607B70758F0C2
:102590006401CBC0488D598D6A8D7B8DCE010E9420
:1025A000A80A8111E5CF89818160898380E090E06C
:1025B000DF91CF911F910F91FF90EF90DF90CF901F
:1025C000BF90AF909F908F907F906F905F904F9053
:1025D00008959E01245F3F4FCF010E948309882305
:1025E00014F3811113C0CE010E94F00B81110EC0B3
:1025F000DACF8C8D9D8DAE8DBF8D0097A105B10575
:1026000009F43FC08C879D87AE87BF87EE81FF812D
:102610008C859D85AE85BF85408951896289738986
:102620000297A109B109248104C0880F991FAA1F2C
:10263000BB1F2A95D2F7840F951FA61FB71FAC01A9
:10264000BD01410F511D611D711DE114F10441F5E2
:10265000C11482E0D80620F187A190A5A1A5B2A55A
:10266000481759076A077B0709F4A9C0950181A19A
:1026700092A10E94C007882309F495CF00E012E0E0
:1026800044C0CE010E94F00B882309F48CCF8C85C6
:102690009D85AE85BF858C8F9D8FAE8FBF8FB6CF4A
:1026A00000E012E00E191F09C016D10608F48601D9
:1026B000E114F10499F4488859886A887B88888DE8
:1026C000998DAA8DBB8D481659066A067B0608F0BF
:1026D0006CC08A8185FD6BC021E001C021E0CF0183
:1026E00080960E94C208009709F45DCFA801B50149
:1026F0008E0D9F1D0E940C1E8E819F81E00EF11E8B
:10270000E11422E0F20609F454C088899989AA8963
:10271000BB89800F911FA11DB11D888B998BAA8B3E
:10272000BB8BA00EB11EC01AD10AC114D10409F48A
:102730004FC0EE81FF8188899989AA89BB89AC0144
:10274000BD01032E39E076956795579547953A95E3
:10275000D1F7302D138114237C0121E0F2221111D5
:1027600055CFE114F10409F051CF4C855D856E859C
:102770007F85411551056105710509F43ACF2A811C
:1027800026FF27CF488C598C6A8C7B8C8415950545
:10279000A605B70508F01DCF4F5F5F4F6F4F7F4F06
:1027A0004C875D876E877F8731CF25E098CF25E006
:1027B00096CF80960E94D1078111A7CFF4CE10A2A8
:1027C0008FEF9FEFDC0187A390A7A1A7B2A74ECF01
:1027D00088899989AA89BB89488D598D6A8D7B8D95
:1027E000481759076A077B0718F0882D992DE0CE06
:1027F000888F998FAA8FBB8F8A8180688A83882D62
:10280000992DD6CE0C960E94A0120895CF93DF93F7
:102810001F92CDB7DEB7698341E050E0BE016F5F24
:102820007F4F0C960E94A0120F90DF91CF910895D8
:102830008F929F92AF92BF92CF92DF92EF92FF92D0
:102840000F931F93CF93DF93EC016B015A018A81A1
:1028500080FF20C1888183FF17C0888D998DAA8D44
:10286000BB8D488959896A897B89841B950BA60B86
:10287000B70BA50170E060E0481759076A077B07AE
:1028800008F05C018501BAC086FFFCCFEE81FF81B4
:1028900086819781880F991F82959295907F9827BE
:1028A000807F9827488959896A897B89841B950B81
:1028B0008A159B0538F75C01E5CF9380AC01BD011B
:1028C000032E39E076956795579547953A95D1F758
:1028D000302D9422E114F10481F491100EC0892B63
:1028E0008A2B8B2B79F5222344F18C8D9D8DAE8D17
:1028F000BF8D8C879D87AE87BF87EE81FF818C85DA
:102900009D85AE85BF85408951896289738902970B
:10291000A109B109248104C0880F991FAA1FBB1FF8
:102920002A95D2F7840F951FA61FB71FAC01BD01D2
:10293000490D511D611D711D81C0848D958DA68D20
:10294000B78DD7CF23FF0FC08A8186FF0CC08C853F
:102950009D85AE85BF850196A11DB11D8C879D8784
:10296000AE87BF87CACF4C855D856E857F859E010A
:10297000245F3F4FCF010E94830988230CF48AC053
:102980008111BBCF8881807D09F484C0C501801B83
:10299000910B85C03B9680E092E0D60101900D92AC
:1029A0000197E1F781E06FC0EE81FF8180E092E066
:1029B0004C018E189F080815190508F4480120E0FD
:1029C000CF0180960E94C208009709F463C0BC0141
:1029D0006E0D7F1DA401C6010E940C1EC80CD91CDF
:1029E00088899989AA89BB89880D991DA11DB11D66
:1029F000888B998BAA8BBB8B0819190901151105B6
:102A000029F288899989AA89BB89EE81FF817C0195
:102A100021E0F222288126FF50CF448D558D668D0E
:102A2000778D072E79E0B695A795979587957A9536
:102A3000D1F7702D480F591F6A1F7B1FE114F10455
:102A400009F0B2CFEE81FF81011582E0180708F48A
:102A5000ABCF87A190A5A1A5B2A5481759076A07D2
:102A60007B0709F4A1CFB09687819085A185B285B7
:102A7000481759076A077B0709F48CCF96018181B3
:102A800092810E94B908882329F0812C68949924A6
:102A900091F8A4CF8981826089838FEF9FEFDF91C6
:102AA000CF911F910F91FF90EF90DF90CF90BF904B
:102AB000AF909F908F9008958F929F92AF92BF9208
:102AC000CF92DF92EF92FF920F931F93CF93DF93FA
:102AD0001F92CDB7DEB78C01FC0180889188A28857
:102AE000B388C484D584E684F78441E050E0BE0115
:102AF0006F5F7F4F0E9418140197C9F4898190E09D
:102B0000F801808A918AA28AB38AC486D586E6862D
:102B1000F7860F90DF91CF911F910F91FF90EF906B
:102B2000DF90CF90BF90AF909F908F9008958FEFE0
:102B30009FEFE6CF0C960E945C150895CF93DF932C
:102B40001F92CDB7DEB741E050E0BE016F5F7F4F0F
:102B50000C960E941814019731F4898190E00F902F
:102B6000DF91CF9108958FEF9FEFF9CF0F931F93D0
:102B7000CF93DF93EC018B018A819B81009711F049
:102B80000E94541D1983088369E17FE084EF9EE071
:102B90000E94511C9B838A83DF91CF911F910F91DB
:102BA00008953F924F925F926F927F928F929F9281
:102BB000AF92BF92CF92DF92EF92FF920F931F934B
:102BC000CF93DF93EC018B010197C1F0CD2B21F462
:102BD0000F3F1F4F09F49CC0DF91CF911F910F91C0
:102BE000FF90EF90DF90CF90BF90AF909F908F902D
:102BF0007F906F905F904F903F9008956F3F7F4F11
:102C000029F70F2EF6E1EF2EF4E0FF2EF02D0F2E18
:102C1000F1E2CF2ED12CF02DF701D08EC78A118E84
:102C2000128E138E0F2EF6E08F2E912CA12CB12C2C
:102C3000F02D848E958EA68EB78E10A211A212A2B0
:102C400013A26894332435F834A216A215A211A653
:102C500088E194E090A787A382E891E09183808344
:102C60008CE891E0958B848B88E194E00E949A0E29
:102C70000F2EF0E66F2EF1E07F2EF02DF70173821C
:102C800062820F2EF6E64F2EF4E05F2EF02D538A6F
:102C9000428A80E1818B0F2EF8EEEF2EF3E0FF2EBB
:102CA000F02DF701D48EC38E158E168E178E80A24E
:102CB00091A2A2A2B3A214A215A216A217A230A694
:102CC00012A611A615A68EEE93E094A783A71282F2
:102CD00013821482158286E491E09183808380E5DB
:102CE00091E0918F808F8EEE93E00E949A0EF70113
:102CF00077826682578A468A88E0858B1092E7033E
:102D00001092E603B20184EE93E00E94B6155ECF06
:102D1000E8EEF3E086E491E09183808380E591E042
:102D2000918F808F80E691E09783868386E194E09F
:102D30000E94C70E51CF4F925F926F927F92AF92D7
:102D4000BF92CF92DF92EF92FF920F931F93CF9398
:102D5000DF93EC015B01E881F98136970190F08106
:102D6000E02DE80FF91F0189128901151105A9F05D
:102D7000D801ED91FC9136970190F081E02DE00FA4
:102D8000F11F83899489DC01ED91FC910484F58520
:102D9000E02D0995019609F476C0F5010190002017
:102DA000E9F73197EA19FB092F01712C612CE881B1
:102DB000F98136970190F081E02DEC0FFD1FC4845E
:102DC000D584E684F784C418D508E608F70883811B
:102DD00094818E709927049709F46AC0E881F9817B
:102DE00036970190F081E02DEC0FFD1F03891489C7
:102DF000D8011F968C911F9780FF0BC0ED91FC911D
:102E00000084F185E02D20E144E070E060E0C8013D
:102E10000995D801ED91FC91008CF18DE02DA30175
:102E20009201B501C80109956F3F7F4F09F46BC04E
:102E3000E881F98136970190F081E02DEC0FFD1FBC
:102E4000838194818E709927029709F472C0E8817A
:102E5000F98136978081918140E050E0BA018C0F72
:102E60009D1F0E94500DCE01DF91CF911F910F91B8
:102E7000FF90EF90DF90CF90BF90AF907F906F90DA
:102E80005F904F900895D801ED91FC913697019095
:102E9000F081E02DE00FF11F858181602389348965
:102EA000232B11F0858379CF858377CF836085834A
:102EB0001C141D041E041F040CF090CFB1E0CB1AAB
:102EC000D108E108F108E881F98136970190F08195
:102ED000E02DEC0FFD1F6089838994890E94580FB3
:102EE000019631F7E881F98136970190F081E02D64
:102EF000EC0FFD1F8581982F926023893489232B45
:102F0000A9F29583D5CFE881F98136970190F081B8
:102F1000E02DEC0FFD1F8581982F92602389348965
:102F2000232B11F0958384CF8360858381CF8360C9
:102F300085831C141D041E041F040CF088CFE1E0DF
:102F4000CE1AD108E108F108E881F981369701909D
:102F5000F081E02DEC0FFD1F6089838994890E9428
:102F6000580F019631F7E881F98136970190F08189
:102F7000E02DEC0FFD1F8581982F92602389348905
:102F8000232BA9F29583D5CF0F931F93CF93DF9374
:102F9000CDB7DEB72C970FB6F894DEBF0FBECDBF0E
:102FA0006CE271E080E090E00E948A0181E090E0B4
:102FB0009093E1028093E00229C060E773E086E12C
:102FC00094E00E94D10F66E473E00E94D10F8CE080
:102FD000E1EDF3E0DE01119601900D928A95E1F7A3
:102FE000CE0101960E948710CE0101960E942E0507
:102FF00040911A0150911B0160911C0170911D01BB
:1030000080911E0190911F010E94E6108091E002C4
:103010009091E102019771F526E040E855E260E009
:1030200070E086E694E00E94A60266E972E086E11E
:1030300094E00E949B1667E773E086E194E00E94AB
:10304000D10F82E090E09093E1028093E00261E092
:103050008DE00E94EA0001E010E0063011050CF05E
:10306000ACCF64EF71E08DE090E00E942D100F5F17
:103070001F4FF3CF2C960FB6F894DEBF0FBECDBF17
:10308000DF91CF911F910F910895AF92BF92CF9290
:10309000DF92EF92FF920F931F93CF93DF931F92D4
:1030A000CDB7DEB76C017B01FC011182108288E094
:1030B00090E093838283158214820E94FE11F601B0
:1030C00091838083E114F10499F1F70101900020CC
:1030D000E9F731978F010E191F09F601A480B58019
:1030E000B8016A0D7B1D1982AE014F5F5F4FC601AB
:1030F0000E946912F601208131812A0D3B1D80E07A
:1031000090E0DC01A80170E060E084179507A60755
:10311000B70770F4A701480F591FB901680F791F4D
:10312000FA014081FB0140830196A11DB11DEACF48
:103130000F90DF91CF911F910F91FF90EF90DF9053
:10314000CF90BF90AF900895AF92BF92CF92DF9291
:10315000EF92FF920F931F93CF93DF93CDB7DEB71C
:1031600065970FB6F894DEBF0FBECDBF8C017B0113
:103170000197B9F0012B21F4EF20E09409F479C113
:1031800065960FB6F894DEBF0FBECDBFDF91CF912D
:103190001F910F91FF90EF90DF90CF90BF90AF9075
:1031A00008956F3F7F4F31F781ED93E00E94310525
:1031B0008EEC93E00E942A0C8BEC93E00E942A0C88
:1031C000AE014B5E5F4F66EB71E084EC93E00E94D2
:1031D0004518AE014C5E5F4F6FEB71E08DEB93E0F5
:1031E0000E944518AE014D5E5F4F69EC71E086EBC1
:1031F00093E00E944518AE014E5E5F4F65ED71E0B1
:103200008FEA93E00E944518AE014F5E5F4F63EE78
:1032100071E088EA93E00E944518AE01405F5F4F7D
:1032200062EF71E081EA93E00E944518AE01415FD0
:103230005F4F6FEF71E08AE993E00E944518AE019D
:10324000425F5F4F6DE072E083E993E00E944518B2
:10325000AE01435F5F4F6DE172E08CE893E00E9446
:103260004518AE01445F5F4F6CE272E085E893E081
:103270000E944518AE01455F5F4F6CE372E08EE738
:1032800093E00E944518AE01465F5F4F6CE472E028
:1032900087E793E00E944518AE01475F5F4F6BE5FB
:1032A00072E080E793E00E9445180F2EF9E6AF2EFA
:1032B000F3E0BF2EF02DF501118210826894CC242A
:1032C000C3F8D12CD382C2821582148288E090E0A8
:1032D0000E94FE11F50191838083AE01485F5F4F2C
:1032E00063E672E082E693E00E944518AE01495F12
:1032F0005F4F6CE772E08BE593E00E944518AE01EA
:103300004A5F5F4F6EE872E084E593E00E944518E3
:10331000AE014B5F5F4F6DE972E08DE493E00E9478
:103320004518AE014C5F5F4F60E972E086E493E0C0
:103330000E944518AE014D5F5F4F65E972E08FE373
:1033400093E00E944518AE014E5F5F4F68E972E05E
:1033500088E393E00E944518AE014F5F5F4F6FE92D
:1033600072E081E393E00E9445180F2EFAE2AF2E3F
:10337000F3E0BF2EF02DF50111821082D382C282BC
:103380001582148288E390E00E94FE11F50191837A
:1033900080830F2EF3E2AF2EF3E0BF2EF02DF50168
:1033A00011821082D382C2821582148280E590E05D
:1033B0000E94FE11F501918380830F2EFCE1AF2E58
:1033C000F3E0BF2EF02DF50111821082D382C2826C
:1033D0001582148280E490E00E94FE11F501918331
:1033E00080830F2EF5E1AF2EF3E0BF2EF02DF50117
:1033F00011821082D382C2821582148280E490E00E
:103400000E94FE11F5019183808340E050E0BA01F3
:1034100082EE92E00E942B0D83E190E00E94FE116B
:1034200020E030E0A90170E060E00E94010D83E13E
:1034300090E00E94FE1120E030E0A90170E060E021
:103440000E94010D83E190E00E94FE1120E030E037
:10345000A90170E060E00E94010D83E190E00E940C
:10346000FE1120E030E0A90170E060E00E94010D53
:1034700081CE85E193E00E94EE118CE193E00E9401
:10348000EE1183E293E00E94CE118AE293E00E9463
:10349000A71181E393E00E94DE1188E393E00E948C
:1034A000DE118FE393E00E94DE1186E493E00E9438
:1034B000DE118DE493E00E94DE1184E593E00E942A
:1034C000DE118BE593E00E94DE1182E693E00E941C
:1034D000DE1189E693E00E94DE1180E793E00E940E
:1034E000DE1187E793E00E94DE118EE793E00E94F1
:1034F000DE1185E893E00E94DE118CE893E00E94E3
:10350000DE1183E993E00E94DE118AE993E00E94D4
:10351000DE1181EA93E00E94DE1188EA93E00E94C6
:10352000DE118FEA93E00E94DE1186EB93E00E94A9
:10353000DE118DEB93E00E94DE1184EC93E00E949B
:10354000DE1181ED93E00E942E051ACE6FEF7FEF22
:1035500090E080E00E94A4186FEF7FEF90E080E0A1
:103560000E9401126FEF7FEF90E080E00E94D11582
:1035700008956FEF7FEF81E090E00E9407026FEF08
:103580007FEF81E090E00E94D1156FEF7FEF81E047
:1035900090E00E9401126FEF7FEF81E090E00E94C7
:1035A000A41808951F920F920FB60F9211240F9333
:1035B0001F932F933F934F935F936F937F938F93BB
:1035C0009F93AF93BF93009104051091050520913F
:1035D00006053091070590910305B901A8014F5FD9
:1035E0005F4F6F4F7F4F83E0890F8D3740F086E844
:1035F000890FB901A8014E5F5F4F6F4F7F4F8093D6
:1036000003054093040550930505609306057093E8
:1036100007058091080590910905A0910A05B091D0
:103620000B050196A11DB11D809308059093090516
:10363000A0930A05B0930B05BF91AF919F918F9115
:103640007F916F915F914F913F912F911F910F91BA
:103650000F900FBE0F901F9018950E9429010E9495
:10366000C4170E949703FDCF1F920F920FB60F92BF
:1036700011242F933F934F935F936F937F938F9377
:103680009F93AF93BF93EF93FF9386E694E00E94DE
:103690000803FF91EF91BF91AF919F918F917F911F
:1036A0006F915F914F913F912F910F900FBE0F90AF
:1036B0001F9018951F920F920FB60F9211242F93FF
:1036C0008F939F93AF93BF93EF93FF93E091760413
:1036D000F0917704808182FD14C0E6E6F4E0A689CB
:1036E000B7892C91818D8F5F8F73928D891771F0BF
:1036F000DF01E18DF0E0EA59FB4F258F59968C935D
:1037000005C0E0917C04F0917D048081FF91EF91F0
:10371000BF91AF919F918F912F910F900FBE0F90FE
:103720001F9018951F920F920FB60F9211242F938E
:103730003F934F935F936F937F938F939F93AF9339
:10374000BF93EF93FF9380914004882364F18091AD
:103750004004082E000C990B2091650428171906C7
:1037600031F12CF1E09140048E2FEE0F990BFC010A
:10377000EE0FFF1FE80FF91FEF5BFB4F808186FF05
:1037800016C0E09140048E2FEE0F990BFC01EE0F56
:10379000FF1FE80FF91FEF5BFB4F808160E08F7325
:1037A0000E94B70004C0109285001092840080919E
:1037B00040048F5F8093400480914004082E000CE9
:1037C000990B209165042817190629F024F080919F
:1037D00040048C309CF08091840090918500049688
:1037E00080349C4908F443C0809184009091850006
:1037F000049690938900809388003FC020918400B4
:1038000030918500E09140048E2FEE0F990BFC0162
:10381000EE0FFF1FE80FF91FEF5BFB4F81819281D5
:10382000820F931F9093890080938800E091400459
:103830008E2FEE0F990BFC01EE0FFF1FE80FF91F03
:10384000EF5BFB4F808186FF1BC0E09140048E2F11
:10385000EE0F990BFC01EE0FFF1FE80FF91FEF5B56
:10386000FB4F808161E08F730E94B70009C080E444
:103870009CE990938900809388008FEF80934004A7
:10388000FF91EF91BF91AF919F918F917F916F9138
:103890005F914F913F912F910F900FBE0F901F900E
:1038A00018950F931F93CF93DF93009759F46115E9
:1038B000710541F4F0E0E0E0CF01DF91CF911F917D
:1038C0000F9108958B01EC016EE070E081E090E0D3
:1038D0000E949C1CFC01892B69F380E883830115FD
:1038E000110571F01387028781E8838380910C05AD
:1038F00090910D05892B21F4F0930D05E0930C05B3
:103900002097D1F2D187C0878381826083838091A1
:103910000E0590910F05892B79F6F0930F05E09332
:103920000E058091100590911105892B29F6F093D1
:103930001105E0931005C0CF0F931F93CF93DF9332
:10394000869F8001879F100D969F100D1124C8013E
:103950000E94B81CEC01009729F0A80170E060E01B
:103960000E94DD1DCE01DF91CF911F910F9108952F
:103970000F931F93CF93DF938230910510F482E071
:1039800090E0E0911405F091150530E020E0B0E002
:10399000A0E0309799F42115310509F44AC0281B9D
:1039A000390B24303105D8F58A819B816115710569
:1039B00089F1FB0193838283FE0111C04081518113
:1039C0000281138148175907E0F04817590799F405
:1039D000109761F012960C93129713961C933296DF
:1039E000CF01DF91CF911F910F910895009314059E
:1039F00010931505F4CF2115310551F042175307E7
:103A000038F0A901DB019A01BD01DF01F801C1CF46
:103A1000EF01F9CF9093150580931405CDCFFE01EA
:103A2000E20FF31F81939193225031093983288348
:103A3000D7CF2091120530911305232B41F420910B
:103A40000201309103013093130520931205209158
:103A50000001309101012115310541F42DB73EB728
:103A60004091040150910501241B350BE091120592
:103A7000F0911305E217F307A0F42E1B3F0B281754
:103A8000390778F0AC014E5F5F4F2417350748F0D7
:103A90004E0F5F1F5093130540931205819391932E
:103AA0009FCFF0E0E0E09CCFCF93DF930097E9F069
:103AB000FC01329713821282A0911405B091150572
:103AC000ED0130E020E01097A1F420813181820FD8
:103AD000931F20911205309113052817390709F01B
:103AE00061C0F0931305E0931205DF91CF91089523
:103AF000EA01CE17DF07E8F54A815B819E01411597
:103B00005105B1F7E901FB83EA8349915991C40F4B
:103B1000D51FEC17FD0761F4808191810296840F17
:103B2000951FE90199838883828193819B838A838E
:103B3000F0E0E0E012968D919C9113970097B9F513
:103B40002D913C911197CD010296820F931F2091E8
:103B50001205309113052817390739F6309751F5BA
:103B60001092150510921405B0931305A093120539
:103B7000BCCFD383C28340815181840F951FC81766
:103B8000D90761F44E5F5F4F88819981480F591FB3
:103B9000518340838A819B819383828321153105E0
:103BA00009F0B0CFF0931505E09314059ECFFD0109
:103BB000DC01C0CF13821282D7CFDC0101C06D932C
:103BC00041505040E0F70895A1E21A2EAA1BBB1BFA
:103BD000FD010DC0AA1FBB1FEE1FFF1FA217B307D9
:103BE000E407F50720F0A21BB30BE40BF50B661FEF
:103BF000771F881F991F1A9469F7609570958095B3
:103C000090959B01AC01BD01CF010895EE0FFF1F00
:103C10000590F491E02D0994FB01DC0102C00190B4
:103C20000D9241505040D8F7089510E0CDE5D0E016
:103C300004C0FE010E94061E2196CE35D107C9F7A9
:043C4000F894FFCF26
:103C440000001605800014000000000000000000C1
:103C5400ECFFECFF00000000000000000100020087
:103C640000000000750E8C11740E710E6E0E6B0E3A
:103C7400680E7E0D7A0D770D620DEA0D880F600DCA
:103C84001800000000008C0E7C11E8FFE8FF000023
:103C9400760E631182010C0116018C0100000000F4
:103CA400AD0E8F11740E710E6E0E6B0E680E5C0EDF
:103CB400200E060EEC0DEA0DA80D810D1400000077
:103CC4000000C70E4911ECFFECFF0000D90E2811CB
:103CD400000000006E0C5C0CEF0C000000006E0C89
:103CE4005C0C920C000000002A03D7013A02740312
:103CF4006D024B025F024875623A204F4B0A00483E
:103D040075623A204552520A00426F6F74696E67B9
:103D14002048756200536572766F206D313A204FEA
:103D24004B0A00536572766F206D313A204552522A
:103D34000A00536572766F206D323A4F4B0A005376
:103D44006572766F206D323A4552520A00426F6FA7
:103D540074696E6720536572766F206D0052504C03
:103D640069646172206C3A204F4B0A0052504C69CE
:103D7400646172206C3A204552520A00426F6F749B
:103D8400696E672052504C69646172005345545502
:103D940050202F2F2F2F2F2F2F0A00626F6F74693F
:103DA4006E6700534554555020436F6D706C6574B5
:103DB4006564202F2F2F2F2F2F2F0A00626F6F740F
:103DC400696E6720436F6D706C657465640058009C
:103DD4002E2E2E0A00210A005469636B2023007BD7
:103DE40020226C656E677468223A205B5B2C2C5D24
:103DF4002C205B2C2C5D2C205B2C2C5D5D20226107
:103E04006E676C65223A205B5B2C2C5D2C205B2C4E
:0C3E14002C5D2C205B2C2C5D5D7D0000E3
:00000001FF
