:100000000C9459000C9481000C9481000C94810094
:100010000C9481000C9481000C9481000C9481005C
:100020000C9481000C9481000C9481000C942507A1
:100030000C9481000C9481000C9481000C9481003C
:100040000C9483060C9481000C94F3060C94CD065A
:100050000C9481000C9481000C9481000C9481001C
:100060000C9481000C948100000000002500280001
:100070002B00040404040404040402020202020229
:10008000030303030303010204081020408001025C
:1000900004081020010204081020000000080002DB
:1000A0000100000304070000000000000000BC087D
:1000B000DB0B11241FBECFEFD8E0DEBFCDBF12E0B7
:1000C000A0E0B1E0ECEEF0E202C005900D92A636A1
:1000D000B107D9F723E0A6E6B2E001C01D92AD3D1D
:1000E000B207E1F710E0C8E5D0E004C02197FE01B7
:1000F0000E947E0DC735D107C9F70E94B3090C9441
:1001000069100C940000FC0142835383648375835F
:1001100086819781A085B185840F951FA61FB71F83
:1001200082879387A487B58708951F93CF93DF9322
:10013000182FC0917002D09171028A3041F4E88189
:10014000F9810190F081E02D6DE0CE010995E88103
:10015000F9810190F081E02D612FCE01099521E018
:1001600030E0019711F430E020E0C901DF91CF9138
:100170001F910895CF93DF93C0917002D0917102C7
:10018000E881F9810084F185E02DCE010995892B64
:10019000B9F3E881F9810284F385E02DCE01DF9186
:1001A000CF91099490E0FC01E656FF4F2491FC01A9
:1001B000EA57FF4F3491FC01EE58FF4FE491EE23D4
:1001C000C9F0222339F0233001F1A8F4213019F1CC
:1001D000223029F1F0E0EE0FFF1FE859FF4FA59103
:1001E000B4918FB7F894EC91611126C030953E23FD
:1001F0003C938FBF08952730A9F02830C9F02430F0
:1002000049F7809180008F7D03C0809180008F77B7
:1002100080938000DFCF84B58F7784BDDBCF84B53A
:100220008F7DFBCF8091B0008F778093B000D2CFCD
:100230008091B0008F7DF9CF3E2BDACF2FB7F894A5
:1002400060916C0270916D0280916E0290916F02CC
:100250002FBF0895DC01ED91FC910190F081E02D1C
:100260000994AF92BF92CF92DF92EF92FF920F93D9
:100270001F93CF93DF936C017B018B01040F151F3C
:10028000EB015E01AE18BF08C017D10759F06991A4
:10029000D601ED91FC910190F081E02DC601099508
:1002A000892B79F7C501DF91CF911F910F91FF90B5
:1002B000EF90DF90CF90BF90AF900895FC01538DE9
:1002C000448D252F30E0842F90E0821B930B541730
:1002D00010F0CF96089501970895FC01918D828DBD
:1002E000981761F0A28DAE0FBF2FB11D5D968C9156
:1002F000928D9F5F9F73928F90E008958FEF9FEF95
:100300000895FC01918D828D981731F0828DE80F50
:10031000F11D858D90E008958FEF9FEF0895FC010A
:10032000918D228D892F90E0805C9F4F821B9109D7
:100330008F739927089584E792E00E948F0121E04E
:10034000892B09F420E0822F089580E090E0892B2A
:1003500029F00E949B0181110C9400000895CF9315
:10036000DF93EC01E881F9810680F781E02D0995A2
:10037000EA89FB8980818F7E8083EA89FB8980817D
:10038000877F8083EA89FB8980818F778083EA89F0
:10039000FB8980818F7D80838A8D898FDF91CF91CA
:1003A0000895FC01A48DA80FB92FB11DA35ABF4F0A
:1003B0002C91848D90E001968F739927848FA68964
:1003C000B7892C93A089B1898C91837080648C93B8
:1003D000938D848D981306C00288F389E02D808167
:1003E0008F7D80830895EF92FF920F931F93CF9399
:1003F000DF93EC0181E0888F9B8D8C8D98131AC060
:10040000E889F989808185FF15C09FB7F894EE8946
:10041000FF896083E889F9898081837080648083A3
:100420009FBF81E090E0DF91CF911F910F91FF90EE
:10043000EF900895F62E0B8D10E00F5F1F4F0F7396
:100440001127E02E8C8D8E110CC00FB607FCFACF51
:10045000E889F989808185FFF5CFCE010E94D1011D
:10046000F1CFEB8DEC0FFD2FF11DE35AFF4FF08222
:100470009FB7F8940B8FEA89FB8980818062CFCF88
:10048000CF93DF93EC01888D8823B9F0AA89BB89CB
:10049000E889F9898C9185FD03C0808186FD0DC0B6
:1004A0000FB607FCF7CF8C9185FFF2CF808185FFD7
:1004B000EDCFCE010E94D101E9CFDF91CF91089518
:1004C0000F931F93CF93DF93EC01EE85FF85309759
:1004D00009F009950E941E016E837F8388879987A2
:1004E0000A811B812C813D81DC01CB01800F911F92
:1004F000A21FB31F8A879B87AC87BD87DF91CF91EF
:100500001F910F9108950F931F93FC01028513858E
:1005100024853585401B510B620B730B80E077FF00
:1005200080891F910F9108958F929F92AF92BF92F1
:10053000CF92DF92EF92FF920F931F93CF93DF93AF
:10054000EC01EE85FF85309709F009950E941E01A8
:100550004B015C018E010D5E1F4F6E0121E3C20E47
:10056000D11CF12CE12C89A99AA98E159F0514F1B3
:10057000D8018D919D918D010097C9F0BFEFEB1AC5
:10058000FB0ADC01ED91FC910280F381E02DB501C5
:10059000A4010995882359F0F8013297808191814F
:1005A000DC01ED91FC910480F581E02D0995C016E8
:1005B000D106C9F60E941E016E837F8388879987C2
:1005C0000A811B812C813D81DC01CB01800F911FB1
:1005D000A21FB31F8A879B87AC87BD87DF91CF910E
:1005E0001F910F91FF90EF90DF90CF90BF90AF9051
:1005F0009F908F900895CF93DF93EC01E881F9816C
:100600000288F389E02D09958F3F980731F02D81FD
:100610003E812F5F3F4F3E832D83DF91CF91089521
:100620008FEF9FEF089560E070E0CB01089590E0B8
:1006300080E00895FF920F931F93CF93DF938C0177
:10064000EB016F3F7607B9F0F62EEAE06E1306C0B5
:100650006DE0F801808991890E942A016F2DF801CF
:10066000808991890E942A01CE01DF91CF911F914B
:100670000F91FF900895D0E0C0E0F6CF7F928F9267
:100680009F92AF92BF92CF92DF92EF92FF920F9321
:100690001F93CF93DF938C0149015A01EB01C12CC9
:1006A000D12C7601C814D904EA04FB04B4F479907F
:1006B0008AE0781206C06DE0F801808991890E9475
:1006C0002A01672DF801808991890E942A01FFEF94
:1006D000CF1ADF0AEF0AFF0AE5CFC501B401DF91A7
:1006E000CF911F910F91FF90EF90DF90CF90BF902F
:1006F000AF909F908F907F900895CB010895CF93F6
:10070000DF93EC0188899989DC01ED91FC910084EB
:10071000F185E02D0995892BA9F388899989DC0158
:10072000ED91FC910284F385E02DDF91CF91099446
:10073000CF93DF93EC0188899989DC01ED91FC91DD
:100740000084F185E02D0995892BA9F38889998981
:10075000DC01ED91FC910484F585E02DDF91CF91D2
:1007600009948F929F92AF92BF92CF92DF92EF92B5
:10077000FF920F931F93CF93DF938C0149015A018E
:10078000EB01C12CD12C7601D80150968D919C9112
:10079000DC01ED91FC910284F385E02D09958F3FFA
:1007A00061F0C814D904EA04FB043CF48993BFEF58
:1007B000CB1ADB0AEB0AFB0AE7CFC701B601DF91D0
:1007C000CF911F910F91FF90EF90DF90CF90BF904E
:1007D000AF909F908F900895DC0150968D919C91E1
:1007E000DC01ED91FC910084F185E02D099490E00D
:1007F00080E0089590E080E0089508950895DC0178
:10080000ED91FC9136970190F081E02DE80FF91FF2
:1008100080E791E0918380838AE791E097838683E4
:10082000089520E731E0FC01318320832AE731E09D
:10083000378326830895FB0120813181FC013183B8
:100840002083FB014281538126503109F901208127
:100850003181820F931FFC015183408308952CE85E
:1008600031E0FC013183208326E931E0318F208F94
:1008700060E871E00C941B04DC01ED91FC9136976B
:1008800020813181820F931F0C942F040895DC0185
:10089000ED91FC9136970190F081E02DE80FF91F62
:1008A0008CE591E09183808386E691E09383828357
:1008B00008952CE531E0FC013183208326E631E008
:1008C000338322830895FB0120813181FC01318330
:1008D0002083FB014281538126503109F901208197
:1008E0003181820F931FFC0151834083089528EAD0
:1008F00031E0FC013183208322EB31E0358B248B06
:100900006CE971E00C946304DC01ED91FC91369785
:1009100020813181820F931F0C94770408950895EC
:100920001F93CF93DF93EC01162F8F8580FF0BC0B1
:10093000E881F9810084F185E02D20E144E070E058
:1009400060E0CE010995EB85FC85812F90E02D8537
:100950003E85E217F30758F410832B853C852F5F03
:100960003F4F3C872B87DF91CF911F910895E881FE
:10097000F981028CF38DE02DBC01CE01DF91CF9186
:100980001F910994CF93DF93EC01E881F9813697A9
:100990000190F081E02DE80FF91F838994890E946E
:1009A0009004019679F4E881F98136970190F081FD
:1009B000E02DEC0FFD1F858123893489232B31F035
:1009C00082608583CE01DF91CF9108958360F9CF56
:1009D000CF93DF93EC01E881F98136970190F081A4
:1009E000E02DE80FF91F83899489DC01ED91FC91DA
:1009F0000484F585E02D0995019659F4E881F98183
:100A000036970190F081E02DEC0FFD1F858181600C
:100A10008583CE01DF91CF9108958F929F92AF92FF
:100A2000BF92CF92DF92EF92FF920F931F93CF93DB
:100A3000DF938C0149015A01EB01C12CD12C7601C5
:100A4000C814D904EA04FB0464F46991C8010E9443
:100A50009004019641F08FEFC81AD80AE80AF80A04
:100A6000EFCF75016401C701B601DF91CF911F91EE
:100A70000F91FF90EF90DF90CF90BF90AF909F903D
:100A80008F90089590E080E008952F923F924F92CA
:100A90005F926F927F928F929F92AF92BF92CF920E
:100AA000DF92EF92FF920F931F93CF93DF93EC01AE
:100AB0001B0149015A01E881F98136970190F081C3
:100AC000E02DE80FF91FC484D584E684F784C818A4
:100AD000D908EA08FB08838194818E7099270497CE
:100AE000D9F426013701E881F98136970190F08128
:100AF000E02DEC0FFD1F14141504160417040CF45C
:100B000068C0D701C601F7FE03C080E090E0DC01B9
:100B1000C81AD90AEA0AFB0AE881F98136970190D6
:100B2000F081E02DEC0FFD1F03891489D8011F9679
:100B30008C911F9780FF0BC0ED91FC910084F18593
:100B4000E02D20E144E070E060E0C8010995D801A3
:100B5000ED91FC91008CF18DE02DA5019401B10186
:100B6000C80109956F3F7F4F79F4E881F981369785
:100B70000190F081E02DEC0FFD1F858123893489E0
:100B8000232B89F182608583E881F9813697019072
:100B9000F081E02DEC0FFD1F838194818E709927E9
:100BA000029719F5E881F98136970190F081E02DDF
:100BB000EC0FFD1F1C141D041E041F04B4F421E0DF
:100BC000C21AD108E108F1086089CE010E94C2046E
:100BD000E9CF21E0421A5108610871086089CE010D
:100BE0000E94C20480CF8360CECFE881F98136971E
:100BF00080819181C80FD91F1C861D861E861F8685
:100C0000DF91CF911F910F91FF90EF90DF90CF90E8
:100C1000BF90AF909F908F907F906F905F904F901C
:100C20003F902F9008950C94EE0CDC01ED91FC9117
:100C3000369720813181820F931F0C941306CF9336
:100C4000DF93EC010E947704CE01DF91CF910C94E9
:100C5000EE0CDC01ED91FC91369720813181820F01
:100C6000931F0C941F06CF93DF93EC010E942F0477
:100C7000CE01DF91CF910C94EE0CDC01ED91FC9153
:100C8000369720813181820F931F0C9433060C9488
:100C9000EE0C0C94EE0C0C94EE0CDC01ED91FC913E
:100CA000369720813181820F931F0C944B060C9450
:100CB000EE0C0C94EE0C0F931F93CF93DF93EC018B
:100CC0008B01E881F98136970190F081E02DE80FE2
:100CD000F91F81899289009711F00E94E804F801B8
:100CE00001900020E9F73197E01BF10B9F0150E0E4
:100CF00040E0B801CE010E944505CE01DF91CF91C1
:100D00001F910F9108951F920F920FB60F92112409
:100D10002F933F938F939F93AF93BF9380916C02D8
:100D200090916D02A0916E02B0916F0230916B02B2
:100D300023E0230F2D3758F50196A11DB11D2093F7
:100D40006B0280936C0290936D02A0936E02B0933D
:100D50006F028091670290916802A0916902B09140
:100D60006A020196A11DB11D8093670290936802EB
:100D7000A0936902B0936A02BF91AF919F918F9146
:100D80003F912F910F900FBE0F901F90189526E85E
:100D9000230F0296A11DB11DD2CF1F920F920FB645
:100DA0000F9211242F933F934F935F936F937F93F1
:100DB0008F939F93AF93BF93EF93FF9384E792E05A
:100DC0000E94D101FF91EF91BF91AF919F918F91BF
:100DD0007F916F915F914F913F912F910F900FBE37
:100DE0000F901F9018951F920F920FB60F9211241B
:100DF0002F938F939F93EF93FF93E0918402F09151
:100E000085028081E0918A02F0918B0282FD1BC0F5
:100E1000908180918D028F5F8F7320918E02821757
:100E200041F0E0918D02F0E0EC58FD4F958F8093FA
:100E30008D02FF91EF919F918F912F910F900FBE97
:100E40000F901F9018958081F4CF1F920F920FB6CC
:100E50000F9211242F933F934F935F936F937F9340
:100E60008F939F93AF93BF93CF93DF93EF93FF93B2
:100E700080916602C0913503D0E087FF24C01092B4
:100E8000850010928400809166028F5F80936602D5
:100E900080916602082E000C990B8C179D0724F494
:100EA000809166028C30C4F180918400909185001D
:100EB000049680349C4908F47AC080918400909113
:100EC0008500049676C080916602082E000C990B6E
:100ED0008C179D07C4F6E09166028E2FEE0F990BDA
:100EE000FC01EE0FFF1FE80FF91FEF5EFC4F808142
:100EF00086FFC9CFE09166028E2FEE0F990BFC01A1
:100F0000EE0FFF1FE80FF91FEF5EFC4F808160E0DE
:100F10008F730E94D200B7CF20918400309185005A
:100F2000E09166028E2FEE0F990BFC01EE0FFF1F72
:100F3000E80FF91FEF5EFC4F81819281820F931FB2
:100F40009093890080938800E09166028E2FEE0FC7
:100F5000990BFC01EE0FFF1FE80FF91FEF5EFC4F2E
:100F6000808186FF11C0E09166028E2FEE0F990BF3
:100F7000FC01EE0FFF1FE80FF91FEF5EFC4F8081B1
:100F800061E08F730E94D200FF91EF91DF91CF91CA
:100F9000BF91AF919F918F917F916F915F914F9191
:100FA0003F912F910F900FBE0F901F90189580E4E6
:100FB0009CE990938900809388008FEF809366026C
:100FC000E3CFCF93DF93EB0188819981A5EAB3E06A
:100FD00011969C938E932A813B810697EC01E881C0
:100FE000F981EB55FC4F3183208312961D921D929F
:100FF0001D921C92159781E290E0948383838BEA83
:1010000093E0948B838B1582158ADF91CF9108959D
:10101000CF93DF93C5EAD3E081E290E09C8F8B8F82
:101020001D8E1E8E1F8E86E090E0A0E0B0E088A3AB
:1010300099A3AAA3BBA31CA21DA21EA21FA282E366
:1010400091E0998F888F80E288A71AA619A61DA61D
:101050008BEA93E09CA78BA7AC0160E871E0CE011E
:101060000E94E1078CE891E09983888386E991E00A
:10107000998F888F1A8619861C861B861E861D8668
:10108000188A1F861A8A198A1C8A1B8A8AE391E0A9
:101090009F838E8384E792E09F8B8E8B88E08D8B7D
:1010A000DF91CF910895DB018D919C9111979093E1
:1010B0007C0380937B0312962D913C910697DC0173
:1010C000ED91FC91E558FC4F3183208381E290E063
:1010D000948383838DE793E0948B838B1582158AA9
:1010E0000895CF93DF93CBE7D3E081E290E0988F30
:1010F0008F8B198E1A8E1B8E86E090E0A0E0B0E0F8
:101100008C8F9D8FAE8FBF8F18A219A21AA21BA21F
:1011100082E391E09D8B8C8B80E28CA31EA21DA2AA
:1011200019A68DE793E098A78FA3AC016CE971E055
:10113000CE010E94530888EA91E09983888382EB6C
:1011400091E09D8B8C8B1E821D8218861F821A86D1
:1011500019861C861B861E861D86188A1F868AE3B2
:1011600091E09B838A8384E792E09B8B8A8B80E16A
:10117000898BDF91CF9108951092770210927602B9
:1011800088EE93E0A0E0B0E080937802909379023B
:10119000A0937A02B0937B028AEB91E09093750260
:1011A0008093740285EC90E090938102809380029A
:1011B00084EC90E0909383028093820280EC90E034
:1011C000909385028093840281EC90E09093870253
:1011D0008093860282EC90E090938902809388024B
:1011E00086EC90E090938B0280938A0210928D029D
:1011F00010928E0210928F021092900264E772E0B9
:101200008BE793E00E94710864E772E085EA93E05F
:101210000E940808109273021092720284E792E012
:1012200090937102809370026AEB70E085E990E020
:101230000E94EB0B90937302809372028CEC91E00E
:1012400090933D0380933C0381E080934C03109284
:101250004B0310924A0310924603109247031092D8
:101260004803109249030E941E0160934203709349
:10127000430380934403909345032CE333E030937E
:101280004E0320934D0310923E0310923F031092A1
:101290004003109241036093460370934703809389
:1012A00048039093490386ED91E090933D0380932A
:1012B0003C0310926E0310926D03EFE4F3E08DE6B1
:1012C00093E0119211928E179F07D9F71092700335
:1012D00010926F03109271031092720310927303B5
:1012E0001092740310927503109276031092770394
:1012F000109278031092790310927A03809135034B
:101300008C3048F591E0980F909335038093390322
:1013100090E0FC01EE0FFF1FE80FF91FEF5EFC4F9E
:1013200088EB9BE092838183809135038C30B8F405
:1013300091E0980F909335038093360390E0FC0181
:10134000EE0FFF1FE80FF91FEF5EFC4F88EB9BE0ED
:101350009283818308958FEF80933903E5CF8FEFD8
:10136000809336030895CF93DF93CDB7DEB76B97A5
:101370000FB6F894DEBF0FBECDBF789484B58260FF
:1013800084BD84B5816084BD85B5826085BD85B529
:10139000816085BD80916E00816080936E001092A7
:1013A0008100809181008260809381008091810022
:1013B00081608093810080918000816080938000B3
:1013C0008091B10084608093B1008091B000816011
:1013D0008093B00080917A00846080937A0080913D
:1013E0007A00826080937A0080917A008160809395
:1013F0007A0080917A00806880937A001092C10010
:101400006BEF71E08BE793E00E945B0669E072E0AE
:101410008BE793E00E945B0661E172E08BE793E06B
:101420000E945B0600916F031091700360E272E00E
:101430008BE793E00E945B060E941E014B015C015A
:1014400081E090E8A0E0B0E80115110509F479C049
:1014500085EA898380E58A83D801ED91FC91028039
:10146000F381E02D42E050E0BE016F5F7F4FC80185
:1014700009950E941E012B013C01F12C0E941E01C6
:101480006419750986099709653671058105910505
:1014900008F04BC1D801ED91FC910284F385E02D59
:1014A000C801099597FDEACFFF2009F434C1B1E0E6
:1014B000FB1609F435C191E09F0DE5E1F0E0EC0F7A
:1014C000FD1FEF0DF11D8083973009F022C180E0F0
:1014D00090E0DC01B7FD35C08B8D843009F02AC166
:1014E0008F89988DA98D2A8DB22FBF734497A1053E
:1014F000B10508F41FC1FE0131967F016E01F5E1CF
:10150000CF0ED11C0E941E01681979098A099B0916
:10151000653671058105910508F010C1D801ED917E
:10152000FC910284F385E02DC801099597FDEACF6F
:10153000F70181937F01EC15FD0521F780E090E034
:10154000DC01B7FD35C00E941E014B015C01F12C8E
:101550000E941E01681979098A099B09653F71403B
:101560008105910508F0FDC0D801ED91FC91028440
:10157000F385E02DC801099597FDEACFFF2009F416
:10158000E4C0B1E0FB1609F4E9C091E09F0DE5E18C
:10159000F0E0EC0FFD1FEF0DF11D8083953009F099
:1015A000D2C080E090E0DC0163E372E0B7FF02C0EC
:1015B00061E472E08BE793E00E945B060115110580
:1015C00031F0C8010E94AF01C8010E94AF018091B3
:1015D000390390913A03A0913B038D8B9E8BAF8B87
:1015E0008091360390913703A0913803888F998FAB
:1015F000AA8F8EE190E00E94520C7C01892B39F079
:101600008D899E89AF89F70180839183A283FDEF45
:10161000EF16FFEFFF0639F0888D998DAA8DF7013F
:1016200083839483A583812C912C540194E1792E9A
:101630009E012F5F3F4F690160E572E08BE793E009
:101640000E945B068C01DC01ED91FC9136970190C4
:10165000F081E02DE80FF91F81899289009711F040
:101660000E94E804A401B501D801ED91FC913697E0
:101670000190F081E02DE00FF11F8381948185FDC1
:1016800091C086FF78C092FF90C080EE91E07F937A
:101690006F935F934F939F938F931F927F92DF92ED
:1016A000CF920E94840D9C01990F440B550BB601FB
:1016B000C8010E944505D801ED91FC913697019033
:1016C000F081E02DE00FF11F838194810FB6F89433
:1016D000DEBF0FBECDBF96FF03C0C8010E94E80465
:1016E00060E672E0C8010E945B068A9489288A2815
:1016F0008B28E1F5C7010E94EE0C00E010E0011517
:101700001105E9F30E949B018823C9F30E940000A0
:10171000F6CFF92EB3CE853A910509F4CCCEAECEF4
:101720008A35910509F4C7CEA8CE82E090E8A0E002
:10173000B0E8D0CE80E090E8DC0103CF82E090E812
:10174000A0E0B0E8FECEF92E03CF9C013595279599
:10175000FC01E2279F0120FD18CFFACE80FD15CFB6
:10176000F6CE82E090E8A0E0B0E81ECF812C912C6C
:101770005401839461CF87FF1BC09C0122273072E4
:1017800092FF08C089EE91E0232B09F080CF8EEE06
:1017900091E07DCF83EF91E0232B09F078CF87EFA5
:1017A00091E075CF8CED91E072CF85EE91E06FCF37
:1017B00090E080E06CCF80916F0390917003009770
:1017C00011F00E94AF0185EA93E00E942F048BE79D
:1017D00093E00C9477040F931F93CF93DF930097BC
:1017E00059F46115710541F4F0E0E0E0CF01DF91BB
:1017F000CF911F910F9108958B01EC016EE070E085
:1018000081E090E00E94360CFC01892B69F380E8AE
:1018100083830115110571F01387028781E88383A3
:101820008091D3039091D403892B21F4F093D403B6
:10183000E093D3032097D1F2D187C0878381826060
:1018400083838091D5039091D603892B79F6F09309
:10185000D603E093D5038091D7039091D803892BC9
:1018600029F6F093D803E093D703C0CF0F931F93CB
:10187000CF93DF93869F8001879F100D969F100D59
:101880001124C8010E94520CEC01009729F0A80114
:1018900070E060E00E94770DCE01DF91CF911F9143
:1018A0000F9108950F931F93CF93DF93823091058B
:1018B00010F482E090E0E091DB03F091DC0330E093
:1018C00020E0B0E0A0E0309799F42115310509F44B
:1018D0004AC0281B390B24303105D8F58A819B81F9
:1018E0006115710589F1FB0193838283FE0111C0AB
:1018F000408151810281138148175907E0F0481750
:10190000590799F4109761F012960C931297139659
:101910001C933296CF01DF91CF911F910F910895C3
:101920000093DB031093DC03F4CF2115310551F054
:101930004217530738F0A901DB019A01BD01DF010D
:10194000F801C1CFEF01F9CF9093DC038093DB0363
:10195000CDCFFE01E20FF31F819391932250310905
:1019600039832883D7CF2091D9033091DA03232BF1
:1019700041F420910201309103013093DA03209366
:10198000D90320910001309101012115310541F465
:101990002DB73EB74091040150910501241B350B32
:1019A000E091D903F091DA03E217F307A0F42E1BBC
:1019B0003F0B2817390778F0AC014E5F5F4F2417B3
:1019C000350748F04E0F5F1F5093DA034093D90359
:1019D000819391939FCFF0E0E0E09CCFCF93DF9392
:1019E0000097E9F0FC01329713821282A091DB0389
:1019F000B091DC03ED0130E020E01097A1F42081EC
:101A00003181820F931F2091D9033091DA03281777
:101A1000390709F061C0F093DA03E093D903DF914D
:101A2000CF910895EA01CE17DF07E8F54A815B817F
:101A30009E0141155105B1F7E901FB83EA83499104
:101A40005991C40FD51FEC17FD0761F48081918176
:101A50000296840F951FE90199838883828193817F
:101A60009B838A83F0E0E0E012968D919C9113971E
:101A70000097B9F52D913C911197CD010296820FF7
:101A8000931F2091D9033091DA032817390739F6CB
:101A9000309751F51092DC031092DB03B093DA0318
:101AA000A093D903BCCFD383C28340815181840FDB
:101AB000951FC817D90761F44E5F5F4F88819981E0
:101AC000480F591F518340838A819B81938382836E
:101AD0002115310509F0B0CFF093DC03E093DB036F
:101AE0009ECFFD01DC01C0CF13821282D7CFDC0173
:101AF00001C06D9341505040E0F70895EE0FFF1F75
:101B00000590F491E02D0994AEE0B0E0EAE8FDE044
:101B10000C9440100D891E898F89988D26E02C83A6
:101B20001A83098397FF02C080E090E801979E83A3
:101B30008D83AE01455E5F4F698D7A8DCE01019632
:101B40000E94B40D4D815E8157FD0AC02F813885FA
:101B5000421753070CF49A01020F131FF801108269
:101B60002E96E4E00C945C10ABE0B0E0EAEBFDE014
:101B70000C9432107C013B018A01FC011782168211
:101B8000838181FFC8C1CE0101965C01F701938179
:101B9000F30193FD859193FF81913F01882309F41F
:101BA00053C1853239F493FD859193FF81913F01B3
:101BB000853229F4B70190E00E94A40FE7CF912C61
:101BC000212C312CFFE1F31538F08B3211F190F418
:101BD000803209F1833229F137FC3CC020ED280F17
:101BE0002A3050F536FE20C08AE0989E200D112440
:101BF000922E06C08D3291F0803371F7689430F8E0
:101C0000F30193FD859193FF81913F018111DACF1B
:101C100021C0689431F8689432F8F2CF689433F8B0
:101C2000EFCF689434F8ECCFEAE02E9E200D11241B
:101C3000222E689435F8E4CF8E3229F436FC04C1A4
:101C4000689436F8DDCF8C3619F4689437F8D8CF1D
:101C50008836B1F2982F9F7D95549330E0F083360B
:101C6000A1F18337C1F1833509F063C02801F2E0A7
:101C70004F0E511CF801C080D180692D70E036FCF8
:101C800002C06FEF7FEFC6010E948E0F4C01689477
:101C900037F882010AC00C5F1F4FFFE3F9838824E5
:101CA0008394912C6501E89437F833FE2DC0522CB3
:101CB0008114910471F5552009F468CFB70180E2D1
:101CC00090E00E94A40F5A94F6CFF8018081898396
:101CD0000E5F1F4FE4CF2801F2E04F0E511CF801B8
:101CE000C080D180692D70E036FC02C06FEF7FEFBD
:101CF000C6010E94990F4C018201D5CFB70180E245
:101D000090E00E94A40F2A942814190409F0B0F757
:101D1000CECFF60137FC859137FE81916F01B70177
:101D200090E00E94A40F51105A94F1E08F1A91088C
:101D3000BFCF843619F0893609F077C0F80137FE35
:101D40006BC060817181828193810C5F1F4FF32D85
:101D5000FF763F2E97FF09C090958095709561950D
:101D60007F4F8F4F9F4F689437F82AE030E0A501EE
:101D70000E94D40FC82ECA188C2C432C36FE0CC0DF
:101D8000E89440F8C91440F434FE05C032FC03C0A6
:101D9000F32DFE7E4F2E892C44FE95C0FE01EC0DE6
:101DA000F11D8081803309F087C0242D297E422EC9
:101DB000842D8870582E43FC95C040FE8FC09C2C0B
:101DC000821418F42C0C922C981844FE91C0B70180
:101DD00080E390E00E94A40F42FE09C088E790E0F3
:101DE00041FE02C088E590E0B7010E94A40FC9142B
:101DF00008F48AC0CA94D12C9FEFC91AD90ACA0C18
:101E0000DB1CF60182916F01B70190E00E94A40FE4
:101E1000AC14BD04B1F74FCF60817181072E000C67
:101E2000880B990B0E5F1F4F92CFD32CE894D4F8F8
:101E30002AE030E0853739F1232D297FD22E8F36E5
:101E400001F148F48835A9F0F701868197812B9636
:101E5000E2E10C944E10803749F08837A9F7D4FEA0
:101E600002C06894D2F820E130E00DC06894D4F844
:101E7000F6CF34FE03C0822F8660D82E20E132E0F8
:101E800002C028E030E0F801D7FE0FC06081718108
:101E9000828193810C5F1F4FA5010E94D40FC82E31
:101EA000CA183D2CE89437F867CF6081718190E0C3
:101EB00080E00E5F1F4FF0CF42FC02C0839478CFCA
:101EC0008394839475CF842D867809F471CFF6CFEF
:101ED000B70180E290E00E94A40F83948214C0F3C3
:101EE000512C73CF522C5818821408F46ECFF8CFAF
:101EF000842D867809F47BCF8BE241FE80E247FC9B
:101F00008DE2B70190E071CFB70180E390E00E94CD
:101F1000A40F9A946CCF8FEF9FEF99CFFC0105909F
:101F2000615070400110D8F7809590958E0F9F1FDB
:101F30000895FC016150704001900110D8F7809520
:101F400090958E0F9F1F08950F931F93CF93DF934C
:101F5000182F092FEB018B8181FD09C01FEF0FEFB7
:101F6000812F902FDF91CF911F910F91089582FFC4
:101F700014C02E813F818C819D81281739073CF444
:101F8000E881F981CF0101969983888310838E813E
:101F90009F8101969F838E83E3CFE885F985812F0A
:101FA0000995892BA1F3DACFFA01AA27283051F13C
:101FB000203181F1E8946F936E7F6E5F7F4F8F4F7A
:101FC0009F4FAF4FB1E03ED0B4E03CD0670F781FD9
:101FD000891F9A1FA11D680F791F8A1F911DA11DBE
:101FE0006A0F711D811D911DA11D20D009F46894F7
:101FF0003F912AE0269F11243019305D3193DEF69F
:10200000CF010895462F4770405D4193B3E00FD054
:10201000C9F7F6CF462F4F70405D4A3318F0495D3F
:1020200031FD4052419302D0A9F7EACFB4E0A69522
:102030009795879577956795BA95C9F70097610544
:10204000710508959B01AC010A2E0694579547959A
:1020500037952795BA95C9F7620F731F841F951F8F
:10206000A01D08952F923F924F925F926F927F92A0
:102070008F929F92AF92BF92CF92DF92EF92FF9298
:102080000F931F93CF93DF93CDB7DEB7CA1BDB0B44
:102090000FB6F894DEBF0FBECDBF09942A883988E9
:1020A00048885F846E847D848C849B84AA84B984F0
:1020B000C884DF80EE80FD800C811B81AA81B981FC
:1020C000CE0FD11D0FB6F894DEBF0FBECDBFED0110
:1020D000089510E0C8E5D0E004C0FE010E947E0D26
:0C20E0002196C935D107C9F7F894FFCF4D
:1020EC000000DD038000180000000000000000006C
:1020FC00E8FFE8FF000000000000140000000000F2
:10210C0000000000ECFFECFF0000000000000000ED
:10211C0000008E0457060000000046044906FD032B
:10212C00FA034205F7031703EC03B10398037F038B
:10213C007D033E031A0302000000000059044B0605
:10214C00FEFFFEFF000047044D06060000000000E5
:10215C0011041306FAFFFAFF0000FF0315068C01A9
:10216C000C01160196011800000000002F04330624
:10217C00E8FFE8FF00003C043D06A80120012A010D
:10218C00B20114000000000077041F06ECFFECFF06
:10219C0000008404290600000000F30131015E01F7
:1021AC0040028F016D018101000000008300830259
:1021BC00600200000000830083029402256C64001E
:1021CC0025236C6F00256C6F0025236C580025238C
:1021DC006C7800256C5800256C780053455455508C
:1021EC00202F2F2F2F2F2F2F00426F6F74696E67A8
:1021FC0000426F6F74696E67206875622E2E2E0018
:10220C00426F6F74696E672052504C696461722E14
:10221C002E2E0052504C69646172206C3A204F4B48
:10222C000052504C69646172206C3A204552520045
:10223C00426F6F74696E6720536572766F206D0004
:06224C00202E2E2E0000E2
:00000001FF
