:100000000C945E000C9486000C9486000C94860080
:100010000C9486000C9486000C9486000C94860048
:100020000C9486000C9486000C9486000C94900826
:100030000C9486000C9486000C9486000C94860028
:100040000C94EE070C9486000C945E080C9438080F
:100050000C9486000C9486000C9486000C94860008
:100060000C9486000C948600000000080002010039
:100070000003040700000000000000000000000072
:10008000250028002B0000000000240027002A0083
:10009000040404040404040402020202020203032E
:1000A0000303030301020408102040800102040836
:1000B00010200102040810205C0B770911241FBED8
:1000C000CFEFD8E0DEBFCDBF13E0A0E0B1E0E6E3C4
:1000D000FBE202C005900D92AC36B107D9F725E0DE
:1000E000ACE6B3E001C01D92A93BB207E1F710E016
:1000F000CDE5D0E004C02197FE010E94A312CC35CB
:10010000D107C9F70E94A70D0C948E150C9400001E
:10011000FC01428353836483758386819781A08524
:10012000B185840F951FA61FB71F82879387A48769
:10013000B58708951F93CF93DF93182FC0917A034B
:10014000D0917B038A3041F4E881F9810190F081FC
:10015000E02D6DE0CE010995E881F9810190F081F3
:10016000E02D612FCE01099521E030E0019711F4D7
:1001700030E020E0C901DF91CF911F910895CF9326
:10018000DF93C0917A03D0917B03E881F9810084E9
:10019000F185E02DCE010995892BB9F3E881F9812C
:1001A0000284F385E02DCE01DF91CF910994CF92A7
:1001B000DF92EF92FF920F931F93CF93DF938C0107
:1001C0006A017B01E0915705F0915805369701903F
:1001D000F081E02DE95AFA4FC389D4898F8580FFD9
:1001E0000BC0E881F9810084F185E02D20E144E035
:1001F00070E060E0CE010995E881F981008CF18D15
:10020000E02DA7019601B801CE0109956F3F7F4F00
:1002100089F4E0915705F091580536970190F081E7
:10022000E02DE95AFA4F858123893489232B69F01F
:100230008260858387E595E0DF91CF911F910F91D3
:10024000FF90EF90DF90CF9008958360F2CFFC0194
:100250004481558170E060E0808191810C94D700E9
:1002600090E0FC01EC55FF4F249180579F4FFC011B
:100270008491882399F090E0880F991FFC01EA5738
:10028000FF4FA591B491FC01E458FF4F85919491E3
:100290008FB7F894EC91E22BEC938FBF089590E028
:1002A000FC01E859FF4F2491FC01EC55FF4F3491BC
:1002B000FC01E057FF4FE491EE23C9F0222339F00F
:1002C000233001F1A8F4213019F1223029F1F0E0B6
:1002D000EE0FFF1FE458FF4FA591B4918FB7F8942C
:1002E000EC91611126C030953E233C938FBF089559
:1002F0002730A9F02830C9F0243049F780918000D8
:100300008F7D03C0809180008F7780938000DFCF46
:1003100084B58F7784BDDBCF84B58F7DFBCF809193
:10032000B0008F778093B000D2CF8091B0008F7DE6
:10033000F9CF3E2BDACF3FB7F894809176039091B6
:100340007703A0917803B091790326B5A89B05C0E7
:100350002F3F19F00196A11DB11D3FBFBA2FA92F44
:10036000982F8827BC01CD01620F711D811D911D41
:1003700042E0660F771F881F991F4A95D1F70895AD
:100380008F929F92AF92BF92CF92DF92EF92FF92A5
:100390006B017C010E949B014B015C01C114D104E3
:1003A000E104F104B9F00E949B01681979098A09F6
:1003B0009B09683E73408105910580F321E0C21AD4
:1003C000D108E108F10888EE880E83E0981EA11C90
:1003D000B11CE4CFFF90EF90DF90CF90BF90AF9033
:1003E0009F908F9008950F931F93CF93DF938C016D
:1003F000D0E0C0E082EB94E00E9427016AE070E068
:1004000080E090E00E94C00121960C171D0791F733
:10041000DF91CF911F910F9108952FB7F8946091BC
:1004200072037091730380917403909175032FBFD1
:100430000895DC01ED91FC910190F081E02D09948B
:10044000AF92BF92CF92DF92EF92FF920F931F93E2
:10045000CF93DF936C017B018B01040F151FEB0120
:100460005E01AE18BF08C017D10759F06991D601D7
:10047000ED91FC910190F081E02DC6010995892B49
:1004800079F7C501DF91CF911F910F91FF90EF9008
:10049000DF90CF90BF90AF900895FC01538D448DB5
:1004A000252F30E0842F90E0821B930B541710F01F
:1004B000CF96089501970895FC01918D828D98172C
:1004C00061F0A28DAE0FBF2FB11D5D968C91928D04
:1004D0009F5F9F73928F90E008958FEF9FEF089535
:1004E000FC01918D828D981731F0828DE80FF11DFE
:1004F000858D90E008958FEF9FEF0895FC01918D19
:10050000228D892F90E0805C9F4F821B91098F7311
:10051000992708958EE793E00E947E0221E0892BBF
:1005200009F420E0822F089580E090E0892B29F0E3
:100530000E948A0281110C9400000895FC01A48D90
:10054000A80FB92FB11DA35ABF4F2C91848D90E0F5
:1005500001968F739927848FA689B7892C93A089D8
:10056000B1898C91837080648C93938D848D981362
:1005700006C00288F389E02D80818F7D80830895F5
:10058000EF92FF920F931F93CF93DF93EC0181E0E3
:10059000888F9B8D8C8D98131AC0E889F98980818A
:1005A00085FF15C09FB7F894EE89FF896083E889BD
:1005B000F98980818370806480839FBF81E090E0AF
:1005C000DF91CF911F910F91FF90EF900895F62E3C
:1005D0000B8D10E00F5F1F4F0F731127E02E8C8DD6
:1005E0008E110CC00FB607FCFACFE889F98980811B
:1005F00085FFF5CFCE010E949E02F1CFEB8DEC0F6F
:10060000FD2FF11DE35AFF4FF0829FB7F8940B8F37
:10061000EA89FB8980818062CFCFCF93DF93EC01A1
:10062000888D8823B9F0AA89BB89E889F9898C91DA
:1006300085FD03C0808186FD0DC00FB607FCF7CF96
:100640008C9185FFF2CF808185FFEDCFCE010E9496
:100650009E02E9CFDF91CF9108950F931F93CF931F
:10066000DF93FC01C081D181209709F18C01E881E1
:10067000F9810680F781E02DCE010995EA89FB8991
:1006800080818F7E8083EA89FB898081877F808358
:10069000EA89FB8980818F778083EA89FB89808161
:1006A0008F7D80838A8D898FF80111821082DF917E
:1006B000CF911F910F910895892B79F410928000AA
:1006C00082E0809381001092850010928400B19A9C
:1006D00080916F00826080936F0008958F929F9247
:1006E000AF92BF92CF92DF92EF92FF920F931F9340
:1006F000CF93DF93EC01EE85FF85309709F00995E4
:100700000E940D024B015C018E010D5E1F4F6E01B8
:1007100021E3C20ED11CF12CE12C89A99AA98E15D6
:100720009F0514F1D8018D919D918D010097C9F01D
:10073000BFEFEB1AFB0ADC01ED91FC910280F38123
:10074000E02DB501A4010995882359F0F8013297ED
:1007500080819181DC01ED91FC910480F581E02D97
:100760000995C016D106C9F60E940D026E837F83DB
:10077000888799870A811B812C813D81DC01CB010F
:10078000800F911FA21FB31F8A879B87AC87BD87ED
:10079000DF91CF911F910F91FF90EF90DF90CF905D
:1007A000BF90AF909F908F9008950F931F93CF931A
:1007B000DF93EC01EE85FF85309709F009950E94E3
:1007C0000D026E837F83888799870A811B812C8124
:1007D0003D81DC01CB01800F911FA21FB31F8A87CF
:1007E0009B87AC87BD87DF91CF911F910F910895B3
:1007F0000F931F93FC010285138524853585401BCB
:10080000510B620B730B80E077FF80891F910F9172
:100810000895CF93DF93EC01E881F9810288F38991
:10082000E02D09958F3F980731F02D813E812F5F94
:100830003F4F3E832D83DF91CF9108958FEF9FEF40
:10084000089560E070E0CB01089590E080E00895A5
:10085000FF920F931F93CF93DF938C01EB016F3FB8
:100860007607B9F0F62EEAE06E1306C06DE0F801E7
:10087000808991890E9419026F2DF80180899189E0
:100880000E941902CE01DF91CF911F910F91FF902D
:100890000895D0E0C0E0F6CF7F928F929F92AF9202
:1008A000BF92CF92DF92EF92FF920F931F93CF935D
:1008B000DF938C0149015A01EB01C12CD12C760147
:1008C000C814D904EA04FB04B4F479908AE07812DD
:1008D00006C06DE0F801808991890E941902672D98
:1008E000F801808991890E941902FFEFCF1ADF0A6F
:1008F000EF0AFF0AE5CFC501B401DF91CF911F9147
:100900000F91FF90EF90DF90CF90BF90AF909F90AE
:100910008F907F900895CB010895CF93DF93EC01E2
:1009200088899989DC01ED91FC910084F185E02DA5
:100930000995892BA9F388899989DC01ED91FC91AE
:100940000284F385E02DDF91CF910994CF93DF935B
:10095000EC0188899989DC01ED91FC910084F18595
:10096000E02D0995892BA9F388899989DC01ED91FE
:10097000FC910484F585E02DDF91CF9109948F924D
:100980009F92AF92BF92CF92DF92EF92FF920F931E
:100990001F93CF93DF938C0149015A01EB01C12CC6
:1009A000D12C7601D80150968D919C91DC01ED916E
:1009B000FC910284F385E02D09958F3F61F0C81406
:1009C000D904EA04FB043CF48993BFEFCB1ADB0A99
:1009D000EB0AFB0AE7CFC701B601DF91CF911F9168
:1009E0000F91FF90EF90DF90CF90BF90AF909F90CE
:1009F0008F900895DC0150968D919C91DC01ED91D2
:100A0000FC910084F185E02D099490E080E0089548
:100A100090E080E0089508950895DC01ED91FC9147
:100A200036970190F081E02DE80FF91F80E891E002
:100A3000918380838AE891E097838683089520E8F4
:100A400031E0FC01318320832AE831E037832683BB
:100A50000895FB0120813181FC0131832083FB015A
:100A60004281538126503109F90120813181820F61
:100A7000931FFC015183408308952CE931E0FC0170
:100A80003183208326EA31E0318F208F60E971E0E5
:100A90000C942905DC01ED91FC9136972081318180
:100AA000820F931F0C943D050895DC01ED91FC919C
:100AB00036970190F081E02DE80FF91F8CE691E068
:100AC0009183808386E791E09383828308952CE667
:100AD00031E0FC013183208326E731E03383228338
:100AE0000895FB0120813181FC0131832083FB01CA
:100AF0004281538126503109F90120813181820FD1
:100B0000931FFC0151834083089528EB31E0FC01E1
:100B10003183208322EC31E0358B248B6CEA71E049
:100B20000C947105DC01ED91FC91369720813181A7
:100B3000820F931F0C948505089508951F93CF93FA
:100B4000DF93EC01162F8F8580FF0BC0E881F981C0
:100B50000084F185E02D20E144E070E060E0CE010A
:100B60000995EB85FC85812F90E02D853E85E21768
:100B7000F30758F410832B853C852F5F3F4F3C874C
:100B80002B87DF91CF911F910895E881F981028C25
:100B9000F38DE02DBC01CE01DF91CF911F9109941F
:100BA000E0915705F091580536970190F081E02DBE
:100BB000E95AFA4F682F838994890E949E0501960D
:100BC00089F4E0915705F091580536970190F0812E
:100BD000E02DE95AFA4F858123893489232B29F0A6
:100BE0008260858387E595E008958360FACF4F9210
:100BF0005F926F927F928F929F92AF92BF92CF92AD
:100C0000DF92EF92FF92CF93DF93EC014A015B01F9
:100C1000E0915705F091580536970190F081E02D4D
:100C2000E95AFA4FC484D584E684F784C818D908F1
:100C3000EA08FB08838194818E709927049791F4C8
:100C4000260137011414150416041704C4F1D70142
:100C5000C601F7FE03C080E090E0DC01C81AD90AA3
:100C6000EA0AFB0AB501A401CE010E94D700E09177
:100C70005705F091580536970190F081E02DE95A1B
:100C8000FA4F838194818E709927029759F5E091EC
:100C90005705F091580536970190F081E02DE95AFB
:100CA000FA4F1C141D041E041F04E4F481E0C81A4A
:100CB000D108E108F10880890E94D005E8CF81E0E1
:100CC000481A510861087108E0915705F0915805DC
:100CD00036970190F081E02DE95AFA4F80890E9401
:100CE000D005B0CFE0915705F091580536970190A7
:100CF000F081E02DE95AFA4F14861586168617867C
:100D0000DF91CF91FF90EF90DF90CF90BF90AF90A9
:100D10009F908F907F906F905F904F900895CF93AA
:100D2000DF93EC01E881F98136970190F081E02DA5
:100D3000E80FF91F83899489DC01ED91FC9104840B
:100D4000F585E02D0995019659F4E881F9813697EA
:100D50000190F081E02DEC0FFD1F8581816085837E
:100D6000CE01DF91CF9108958F929F92AF92BF9263
:100D7000CF92DF92EF92FF920F931F93CF93DF9367
:100D80008C0149015A01EB01C12CD12C7601C81408
:100D9000D904EA04FB0464F46991C8010E949E0529
:100DA000019641F08FEFC81AD80AE80AF80AEFCF87
:100DB00075016401C701B601DF91CF911F910F91B9
:100DC000FF90EF90DF90CF90BF90AF909F908F906B
:100DD000089590E080E00895CF93DF93EC010E94A6
:100DE0008505CE01DF91CF910C941312DC01ED91BA
:100DF000FC91369720813181820F931F0C94EC0671
:100E0000CF93DF93EC010E943D05CE01DF91CF919E
:100E10000C941312DC01ED91FC9136972081318105
:100E2000820F931F0C9400070C9413120C9413124E
:100E3000DC01ED91FC91369720813181820F931F67
:100E40000C9416070C9413120C941312DC01ED9100
:100E5000FC91369720813181820F931F0C942407D7
:100E60000C9413120C941312FC01808191810C9448
:100E70001312CF93DF93EC01E0915705F0915805E1
:100E800036970190F081E02DE95AFA4F81899289D5
:100E9000009711F00E948F06FE0101900020E9F7F3
:100EA0003197EC1BFD0BAF0170E060E0CE010E94BA
:100EB000F70587E595E0DF91CF9108950F931F9394
:100EC000CF93DF93CDB7DEB764970FB6F894DEBF4C
:100ED0000FBECDBF8C01E0915705F09158053697B4
:100EE0000190F081E02DE95AFA4F818992890097AB
:100EF00011F00E948F06C801110FAA0BBB0BE091E5
:100F00005705F091580536970190F081E02DE95A88
:100F1000FA4F2381348125FD58C026FF3FC032FFA0
:100F200057C020EF31E0BF93AF939F938F933F93D0
:100F30002F931F9284E18F938E010F5F1F4F1F939A
:100F40000F930E94A912AC01990F660B770BC80191
:100F50000E94F705E0915705F091580536970190EA
:100F6000F081E02DE95AFA4F838194810FB6F8940D
:100F7000DEBF0FBECDBF96FF04C087E595E00E949F
:100F80008F0687E595E064960FB6F894DEBF0FBE36
:100F9000CDBFDF91CF911F910F91089527FF1BC007
:100FA000A9014427507232FF08C029EF31E0452BD8
:100FB00009F0B9CF2EEF31E0B6CF23E032E0452B78
:100FC00009F0B1CF27E032E0AECF2CEE31E0ABCF6D
:100FD00025EF31E0A8CF30E020E0A5CF1F920F929F
:100FE0000FB60F9211242F933F938F939F93AF933C
:100FF000BF938091720390917303A0917403B09199
:1010000075033091710323E0230F2D3758F50196B6
:10101000A11DB11D209371038093720390937303FC
:10102000A0937403B0937503809176039091770336
:10103000A0917803B09179030196A11DB11D809311
:10104000760390937703A0937803B0937903BF91CD
:10105000AF919F918F913F912F910F900FBE0F9065
:101060001F90189526E8230F0296A11DB11DD2CF1F
:101070001F920F920FB60F9211242F933F934F930D
:101080005F936F937F938F939F93AF93BF93EF93F0
:10109000FF938EE793E00E949E02FF91EF91BF9134
:1010A000AF919F918F917F916F915F914F913F9100
:1010B0002F910F900FBE0F901F9018951F920F92B7
:1010C0000FB60F9211242F938F939F93EF93FF935B
:1010D000E0918E03F0918F038081E0919403F09171
:1010E000950382FD1BC09081809197038F5F8F7362
:1010F00020919803821741F0E0919703F0E0E258C5
:10110000FC4F958F80939703FF91EF919F918F9163
:101110002F910F900FBE0F901F9018958081F4CFE4
:101120001F920F920FB60F9211242F933F934F935C
:101130005F936F937F938F939F93AF93BF93CF935F
:10114000DF93EF93FF9380916C03C0913F04D0E055
:1011500087FF24C0109285001092840080916C0358
:101160008F5F80936C0380916C03082E000C990BA9
:101170008C179D0724F480916C038C30C4F180910E
:10118000840090918500049680349C4908F47AC0CC
:101190008091840090918500049676C080916C03C4
:1011A000082E000C990B8C179D07C4F6E0916C0378
:1011B0008E2FEE0F990BFC01EE0FFF1FE80FF91FAA
:1011C000E55EFB4F808186FFC9CFE0916C038E2FD7
:1011D000EE0F990BFC01EE0FFF1FE80FF91FE55E04
:1011E000FB4F808160E08F730E944F01B7CF209149
:1011F000840030918500E0916C038E2FEE0F990BE7
:10120000FC01EE0FFF1FE80FF91FE55EFB4F818128
:101210009281820F931F9093890080938800E091C0
:101220006C038E2FEE0F990BFC01EE0FFF1FE80FE2
:10123000F91FE55EFB4F808186FF11C0E0916C03D2
:101240008E2FEE0F990BFC01EE0FFF1FE80FF91F19
:10125000E55EFB4F808161E08F730E944F01FF913B
:10126000EF91DF91CF91BF91AF919F918F917F913E
:101270006F915F914F913F912F910F900FBE0F9003
:101280001F90189580E49CE99093890080938800D2
:101290008FEF80936C03E3CFEF92FF920F931F9336
:1012A000CF93DF937C01D0E0C0E010E000E0F701D5
:1012B00080819181248135810217130758F48C0FA6
:1012C0009D1FFC01808191810E9413120F5F1F4FAF
:1012D0002796EDCFDF91CF911F910F91FF90EF9067
:1012E0000C941312FC01808191810C941312809153
:1012F0007304909174040E94131280917A04909167
:101300007B040E94131280918104909182040E94B8
:10131000131288E894E00E944C098FE894E00E9440
:101320004C0986E994E00E9472098DE994E00E94DC
:10133000720984EA94E00E9472098BEA94E00E94A8
:10134000720982EB94E00E94720989EB94E00E949A
:10135000720980EC94E00E94720987EC94E00E948C
:1013600072098EEC94E00E94720985ED94E00E946F
:1013700072098CED94E00E94720983EE94E00E9461
:1013800072098AEE94E00E94720981EF94E00E9453
:10139000720988EF94E00E9472098FEF94E00E9436
:1013A000720986E095E00E9472098DE095E00E9446
:1013B000720984E195E00E9472098BE195E00E9438
:1013C000720982E295E00E94720989E295E00E942A
:1013D000720980E395E00E94720987E395E00E941C
:1013E000720984E495E00E942D038091500590914C
:1013F00051050E94131281E895E00E943D0587E5A2
:1014000095E00C948505CF93DF93EB01888199815A
:10141000A1E8B5E011969C938E932A813B810697B3
:10142000EC01E881F981EF57FA4F3183208312965E
:101430001D921D921D921C92159781E290E094835B
:10144000838387E895E0948B838B1582158ADF91DF
:10145000CF910895CF93DF93C1E8D5E081E290E08A
:101460009C8F8B8F1D8E1E8E1F8E86E090E0A0E0DD
:10147000B0E088A399A3AAA3BBA31CA21DA21EA28D
:101480001FA282E491E0998F888F80E288A71AA634
:1014900019A61DA687E895E09CA78BA7AC0160E97B
:1014A00071E0CE010E94030A8CE991E09983888360
:1014B00086EA91E0998F888F1A8619861C861B868A
:1014C0001E861D86188A1F861A8A198A1C8A1B8AFC
:1014D0008AE491E09F838E838EE793E09F8B8E8BCF
:1014E00088E08D8BDF91CF910895DB018D919C91E8
:1014F0001197909358058093570512962D913C9122
:101500000697DC01ED91FC91E95AFA4F3183208373
:1015100081E290E09483838389E595E0948B838BCB
:101520001582158A0895CF93DF93C7E5D5E081E250
:1015300090E0988F8F8B198E1A8E1B8E86E090E02C
:10154000A0E0B0E08C8F9D8FAE8FBF8F18A219A244
:101550001AA21BA282E491E09D8B8C8B80E28CA36B
:101560001EA21DA219A689E595E098A78FA3AC013C
:101570006CEA71E0CE010E94750A88EB91E09983D4
:10158000888382EC91E09D8B8C8B1E821D82188655
:101590001F821A8619861C861B861E861D86188A3F
:1015A0001F868AE491E09B838A838EE793E09B8B7E
:1015B0008A8B80E1898BDF91CF910895CF92DF9262
:1015C000EF92FF920F931F93CF93DF938C017B01D8
:1015D00088E090E0D80113969C938E93129715960D
:1015E0001C921E9214970E9477116C01E801998356
:1015F0008883E70109900020E9F72197CE19DF09D8
:10160000D1F1C930D10520F1CE010896F8019383BC
:1016100082830E947711D8018D939C93F601CF01AC
:101620008C199D09D8014D915C91119714962D91BB
:101630003C918217930748F4DA01A80FB91F10975D
:1016400011F080818C933196EACFC6010E9413126B
:10165000F80184819581D801ED91FC918C179D074B
:1016600038F4E80FF91F309709F010820196F3CF94
:10167000F801D583C483F701D8012D913C9140E056
:1016800050E0BA01CE01B0E0A0E0481759076A0760
:101690007B0748F41191E90119939E014F5F5F4F59
:1016A0006F4F7F4FF2CFDF91CF911F910F91FF903E
:1016B000EF90DF90CF9008950F931F93CF93DF9318
:1016C0001F92CDB7DEB7109281031092800388EE8F
:1016D00093E0A0E0B0E08093820390938303A09313
:1016E0008403B09385038AEC91E090937F03809309
:1016F0007E0385EC90E090938B0380938A0384ECC7
:1017000090E090938D0380938C0380EC90E0909315
:101710008F0380938E0381EC90E0909391038093EC
:10172000900382EC90E0909393038093920386EC75
:1017300090E09093950380939403109297031092F6
:1017400098031092990310929A036EE773E087E56D
:1017500095E00E94930A6EE773E081E895E00E94AD
:101760002A0A10927D0310927C038EE793E09093F7
:101770007B0380937A036FEB70E08AE990E00E942C
:10178000101190937D0380937C0388E090E0909308
:10179000530580935205109255051092540580E62A
:1017A00090E00E947711909351058093500510921C
:1017B0004505109244051092460510924705109277
:1017C00048051092490510924A0510924B05109257
:1017D0004C0510924D0510924E0510924F058091C8
:1017E0003F048C3008F0ABC191E0980F90933F0418
:1017F0008093410590E0FC01EE0FFF1FE80FF91FF9
:10180000E55EFB4F88EB9BE09283818380913F04F0
:101810008C3008F098C191E0980F90933F0480932A
:101820003E0590E0FC01EE0FFF1FE80FF91FE55E9B
:10183000FB4F88EB9BE092838183AE014F5F5F4F4C
:101840006BE072E087E395E00E94DE0AAE014F5F35
:101850005F4F64E172E080E395E00E94DE0AAE0132
:101860004F5F5F4F6EE172E089E295E00E94DE0A11
:10187000AE014F5F5F4F6AE272E082E295E00E9444
:10188000DE0AAE014F5F5F4F68E372E08BE195E0E7
:101890000E94DE0AAE014F5F5F4F67E472E084E1B1
:1018A00095E00E94DE0AAE014F5F5F4F64E572E093
:1018B0008DE095E00E94DE0AAE014F5F5F4F62E669
:1018C00072E086E095E00E94DE0AAE014F5F5F4F56
:1018D00062E772E08FEF94E00E94DE0AAE014F5F94
:1018E0005F4F61E872E088EF94E00E94DE0AAE018B
:1018F0004F5F5F4F61E972E081EF94E00E94DE0A82
:10190000AE014F5F5F4F61EA72E08AEE94E00E94A1
:10191000DE0AAE014F5F5F4F60EB72E083EE94E052
:101920000E94DE0AAE014F5F5F4F6BEB72E08CED01
:1019300094E00E94DE0A08E010E01093D8040093BF
:10194000D7041092DA041092D90488E090E00E9443
:1019500077119093D6048093D504AE014F5F5F4F0B
:1019600060ED72E08EEC94E00E94DE0AAE014F5F03
:101970005F4F69EE72E087EC94E00E94DE0AAE01F0
:101980004F5F5F4F64E073E080EC94E00E94DE0AFA
:10199000AE014F5F5F4F6CEF71E089EB94E00E9406
:1019A000DE0AAE014F5F5F4F67E273E082EB94E0C7
:1019B0000E94DE0AAE014F5F5F4F6AE173E08BEA7F
:1019C00094E00E94DE0AAE014F5F5F4F6FE173E06B
:1019D00084EA94E00E94DE0AAE014F5F5F4F62E24C
:1019E00073E08DE994E00E94DE0AAE014F5F5F4F25
:1019F00069E273E086E994E00E94DE0A10939204A3
:101A000000939104109294041092930488E390E060
:101A10000E9477119093900480938F0410938B040D
:101A200000938A0410928D0410928C0488E390E055
:101A30000E94771190938904809388041093840402
:101A400000938304109286041092850480E690E04F
:101A50000E947711909382048093810410937D04F7
:101A600000937C0410927F0410927E0480E490E046
:101A70000E94771190937B0480937A0410937604EC
:101A800000937504109278041092770480E490E03B
:101A90000E94771190937404809373048CED91E00D
:101AA000909341048093400481E08093500410920D
:101AB0004F0410924E0410924A0410924B0410925C
:101AC0004C0410924D040E940D02609346047093E2
:101AD0004704809348049093490420E434E0309311
:101AE0005204209351041092420410924304109225
:101AF00044041092450460934A0470934B0480930D
:101B00004C0490934D0486EE91E0909341048093B1
:101B100040041092720410927104E3E5F4E0119213
:101B2000119284E0E137F807D1F70E940D020E947C
:101B30000D020F90DF91CF911F910F9108958FEFBC
:101B40008093410563CE8FEF80933E0576CECF9391
:101B5000DF93CDB7DEB7E8970FB6F894DEBF0FBEC0
:101B6000CDBF789484B5826084BD84B5816084BD26
:101B700085B5826085BD85B5816085BD80916E002B
:101B8000816080936E00109281008091810082605C
:101B90008093810080918100816080938100809199
:101BA00080008160809380008091B1008460809388
:101BB000B1008091B00081608093B00080917A0084
:101BC000846080937A0080917A00826080937A00AA
:101BD00080917A00816080937A0080917A00806899
:101BE00080937A001092C100E0918E03F0918F03F0
:101BF00082E08083E0918A03F0918B031082E09170
:101C00008C03F0918D038FEC808310929603E0910A
:101C10009203F091930386E08083E0919003F0912A
:101C20009103808180618083E0919003F091910322
:101C3000808188608083E0919003F091910380819E
:101C400080688083E0919003F091910380818F7D83
:101C500080836CE271E080E090E00E94C00180E24D
:101C600093E00E9439078AEE94E00E9427018DE0FC
:101C70000E94300161E08DE00E944F0183EE94E00C
:101C80000E94270160E08DE00E944F0161E08DE03D
:101C90000E944F018CE0E4E4F5E0DE019D960190A6
:101CA0000D928A95E1F78CE0FE01BD96DE019196DA
:101CB00001900D928A95E1F70E940D026B017C0163
:101CC00089A19AA1009709F45BC225EA298320E53E
:101CD0002A83DC01ED91FC910280F381E02D42E04A
:101CE00050E0BE016F5F7F4F09950E940D024B01CE
:101CF0005C0110E00E940D02681979098A099B09AC
:101D0000653671058105910508F035C289A19AA152
:101D1000DC01ED91FC910284F385E02D099597FD9E
:101D2000E9CF112309F41DC2113009F41FC291E05B
:101D3000910FE5E1F0E0EC0FFD1FE10FF11D808355
:101D4000973009F00CC280E090E0DC01B7FD36C0AE
:101D50008B8D843009F019C28F89988DA98D2A8DB9
:101D6000B22FBF734497A105B10508F40EC28E01CE
:101D70000F5F1F4F5E01B5E1AB0EB11C0E940D025B
:101D80006C197D098E099F096536710581059105DC
:101D900008F0FFC189A19AA1DC01ED91FC910284B8
:101DA000F385E02D099597FDE9CFF80181938F0127
:101DB000EA15FB0519F780E090E0DC01B7FDEEC104
:101DC00010926E0310926D030AE010E082EB94E033
:101DD0000E9427016AE070E080E090E00E94C0016C
:101DE0000150110999F7CE0181960E942D03CE0171
:101DF0008D960E942D0360E08DE00E944F0161E00E
:101E00008DE00E944F018091410590914205A09183
:101E1000430589839A83AB8380913E0590913F056A
:101E2000A09140058C839D83AE838EE190E00E945B
:101E300077118C01892B39F089819A81AB81F80166
:101E400080839183A2830D3FFFEF1F0739F08C81C0
:101E50009D81AE81F80183839483A583D12CC12C0D
:101E6000D801C114D10409F0B1C1EC90BBE0BE159A
:101E700078F181E00E943001F12C5701AA0CBB1CC3
:101E8000F501EE0DFF1DE55EFB4F8081807C8160DA
:101E90008083F8011182128290E080E0FC01EE0F55
:101EA000FF1FE80FF91FE55EFB4F208126FD08C0EC
:101EB00001968C30910591F790E080E00E945C03E0
:101EC000F501EE0DFF1DE55EFB4F80818064808390
:101ED0008AE0E82EF12C82EB94E00E9427016AE070
:101EE00070E080E090E00E94C001F1E0EF1AF1089C
:101EF00091F7CA94CD2809F065C1C8010E94131258
:101F000060E08DE00E944F0161E08DE00E944F0192
:101F10001092700310926F0380916D0390916E0385
:101F2000892BA1F482EB94E00E9427016AE070E023
:101F300080E090E00E94C00182EB94E00E942701C3
:101F40006AE070E080E090E00E94C00160E08DE017
:101F50000E944F0183E693E00E94390761E08DE023
:101F60000E944F0187EC94E00E94270160E08DE021
:101F70000E944F0161E08DE00E944F018CED94E0E2
:101F80000E94270160E08DE00E944F0161E08DE03A
:101F90000E944F018CE090E09C838B8384E090E072
:101FA0009E838D8388E190E00E9477119A838983D4
:101FB000FC01AEE2B1E09C01285F3F4F309729F071
:101FC0004D915C9111975183408332961296E2179E
:101FD000F307A1F7DC018D919C910E945E07CE0171
:101FE00001960E9434078CE090E09C838B8384E010
:101FF00090E09E838D8388E190E00E947711898331
:102000009A837C01A6E3B1E00896F701309729F0A6
:102010002D913C9111973183208332961296E817C7
:10202000F907A1F78FE390E00E9477118C01892BCB
:1020300009F184E090E0F801958384838CE090E0DE
:102040009383828388E190E00E947711D8018C937A
:1020500011969C93FC010896309729F0D7012D9199
:102060003C91318320833296B2E0EB0EF11CE817ED
:10207000F90791F7CE0101960E943407D801ED913E
:10208000FC91828193810E945E07C8010E943407FF
:10209000C8010E94131288E090E00E94F30160E002
:1020A0008DE00E944F0161E08DE00E944F0188E0C9
:1020B00090E00E94F30160E08DE00E944F0161E03A
:1020C0008DE00E944F0188E090E00E94F30160E003
:1020D0008DE00E944F0161E08DE00E944F0188E099
:1020E00090E00E94F30160E08DE00E944F0161E00A
:1020F0008DE00E944F0188E090E00E94F30160E0D3
:102100008DE00E944F0161E08DE00E944F018AE066
:1021100090E00E94F30160E08DE00E944F0183E6B1
:1021200093E00E94390761E08DE00E944F0180EC4E
:1021300094E00E94270160E08DE00E944F018EEC48
:1021400094E00E94270100E010E001151105E9F379
:102150000E948A028823C9F30E940000F6CF192F3B
:10216000C9CD853A910509F4E2CDC4CD8A359105F2
:1021700009F4DDCDBECD82E090E8A0E0B0E8E6CD88
:1021800081E090E8A0E0B0E819CE80E090E8DC01C2
:1021900015CE82E090E8A0E0B0E810CE81E090E0BB
:1021A00090936E0380936D038CE0FE01B196DE0187
:1021B000559601900D928A95E1F7CE0145960E94C1
:1021C0002D0302CECC24C394D12C4ACE1396EC908E
:1021D000BBE0BE1508F47CCE82E00E943001F12CF9
:1021E0005701AA0CBB1CF501EE0DFF1DE55EFB4F70
:1021F0008081807C82608083F8011482158290E067
:1022000080E0FC01EE0FFF1FE80FF91FE55EFB4FBA
:10221000208126FD55CE01968C30910591F74CCE4C
:102220000F931F93CF93DF93009759F461157105B6
:1022300041F4F0E0E0E0CF01DF91CF911F910F91E9
:1022400008958B01EC016EE070E081E090E00E9467
:102250005B11FC01892B69F380E88383011511056B
:1022600071F01387028781E883838091AF05909195
:10227000B005892B21F4F093B005E093AF052097CA
:10228000D1F2D187C0878381826083838091B10539
:102290009091B205892B79F6F093B205E093B105E0
:1022A0008091B3059091B405892B29F6F093B4057C
:1022B000E093B305C0CF0F931F93CF93DF93869F17
:1022C0008001879F100D969F100D1124C8010E9458
:1022D0007711EC01009729F0A80170E060E00E94FE
:1022E0009C12CE01DF91CF911F910F9108950F9312
:1022F0001F93CF93DF938230910510F482E090E03A
:10230000E091B705F091B80530E020E0B0E0A0E042
:10231000309799F42115310509F44AC0281B390B6F
:1023200024303105D8F58A819B816115710589F1C9
:10233000FB0193838283FE0111C0408151810281A0
:10234000138148175907E0F04817590799F4109777
:1023500061F012960C93129713961C933296CF014C
:10236000DF91CF911F910F9108950093B7051093BE
:10237000B805F4CF2115310551F04217530738F055
:10238000A901DB019A01BD01DF01F801C1CFEF0115
:10239000F9CF9093B8058093B705CDCFFE01E20F3A
:1023A000F31F819391932250310939832883D7CF2A
:1023B0002091B5053091B605232B41F420910201FF
:1023C000309103013093B6052093B50520910001AB
:1023D000309101012115310541F42DB73EB74091EF
:1023E000040150910501241B350BE091B505F091D6
:1023F000B605E217F307A0F42E1B3F0B2817390789
:1024000078F0AC014E5F5F4F2417350748F04E0F50
:102410005F1F5093B6054093B505819391939FCF6D
:10242000F0E0E0E09CCFCF93DF930097E9F0FC0170
:10243000329713821282A091B705B091B805ED01D1
:1024400030E020E01097A1F420813181820F931FAA
:102450002091B5053091B6052817390709F061C0FC
:10246000F093B605E093B505DF91CF910895EA01A9
:10247000CE17DF07E8F54A815B819E0141155105C2
:10248000B1F7E901FB83EA8349915991C40FD51F44
:10249000EC17FD0761F4808191810296840F951FEE
:1024A000E90199838883828193819B838A83F0E009
:1024B000E0E012968D919C9113970097B9F52D91BC
:1024C0003C911197CD010296820F931F2091B50583
:1024D0003091B6052817390739F6309751F5109223
:1024E000B8051092B705B093B605A093B505BCCF5B
:1024F000D383C28340815181840F951FC817D907A8
:1025000061F44E5F5F4F88819981480F591F518355
:1025100040838A819B81938382832115310509F051
:10252000B0CFF093B805E093B7059ECFFD01DC0175
:10253000C0CF13821282D7CFDC0101C06D9341500E
:102540005040E0F70895EE0FFF1F0590F491E02D45
:102550000994AEE0B0E0EFEAF2E10C9465150D8964
:102560001E898F89988D26E02C831A83098397FF13
:1025700002C080E090E801979E838D83AE01455EA6
:102580005F4F698D7A8DCE0101960E94D9124D81DF
:102590005E8157FD0AC02F813885421753070CF41E
:1025A0009A01020F131FF80110822E96E4E00C949A
:1025B0008115ABE0B0E0EFEDF2E10C9457157C0132
:1025C0003B018A01FC0117821682838181FFC8C109
:1025D000CE0101965C01F7019381F30193FD859192
:1025E00093FF81913F01882309F453C1853239F467
:1025F00093FD859193FF81913F01853229F4B701C5
:1026000090E00E94C914E7CF912C212C312CFFE1DE
:10261000F31538F08B3211F190F4803209F18332E6
:1026200029F137FC3CC020ED280F2A3050F536FE4A
:1026300020C08AE0989E200D1124922E06C08D3273
:1026400091F0803371F7689430F8F30193FD859130
:1026500093FF81913F018111DACF21C0689431F855
:10266000689432F8F2CF689433F8EFCF689434F876
:10267000ECCFEAE02E9E200D1124222E689435F82E
:10268000E4CF8E3229F436FC04C1689436F8DDCFED
:102690008C3619F4689437F8D8CF8836B1F2982F71
:1026A0009F7D95549330E0F08336A1F18337C1F1DB
:1026B000833509F063C02801F2E04F0E511CF80188
:1026C000C080D180692D70E036FC02C06FEF7FEFD3
:1026D000C6010E94B3144C01689437F882010AC005
:1026E0000C5F1F4FFFE3F98388248394912C6501CD
:1026F000E89437F833FE2DC0522C8114910471F503
:10270000552009F468CFB70180E290E00E94C91417
:102710005A94F6CFF801808189830E5F1F4FE4CF72
:102720002801F2E04F0E511CF801C080D180692DC4
:1027300070E036FC02C06FEF7FEFC6010E94BE144E
:102740004C018201D5CFB70180E290E00E94C9140C
:102750002A942814190409F0B0F7CECFF60137FCFB
:10276000859137FE81916F01B70190E00E94C914F5
:1027700051105A94F1E08F1A9108BFCF843619F0A6
:10278000893609F077C0F80137FE6BC0608171812E
:10279000828193810C5F1F4FF32DFF763F2E97FFB1
:1027A00009C090958095709561957F4F8F4F9F4F91
:1027B000689437F82AE030E0A5010E94F914C82E89
:1027C000CA188C2C432C36FE0CC0E89440F8C9146F
:1027D00040F434FE05C032FC03C0F32DFE7E4F2EC4
:1027E000892C44FE95C0FE01EC0DF11D80818033E3
:1027F00009F087C0242D297E422E842D8870582E02
:1028000043FC95C040FE8FC09C2C821418F42C0C05
:10281000922C981844FE91C0B70180E390E00E948A
:10282000C91442FE09C088E790E041FE02C088E575
:1028300090E0B7010E94C914C91408F48AC0CA9470
:10284000D12C9FEFC91AD90ACA0CDB1CF601829160
:102850006F01B70190E00E94C914AC14BD04B1F738
:102860004FCF60817181072E000C880B990B0E5F92
:102870001F4F92CFD32CE894D4F82AE030E085376C
:1028800039F1232D297FD22E8F3601F148F4883576
:10289000A9F0F701868197812B96E2E10C947315DC
:1028A000803749F08837A9F7D4FE02C06894D2F87F
:1028B00020E130E00DC06894D4F8F6CF34FE03C0B8
:1028C000822F8660D82E20E132E002C028E030E07E
:1028D000F801D7FE0FC060817181828193810C5F06
:1028E0001F4FA5010E94F914C82ECA183D2CE89468
:1028F00037F867CF6081718190E080E00E5F1F4FF5
:10290000F0CF42FC02C0839478CF8394839475CF38
:10291000842D867809F471CFF6CFB70180E290E07C
:102920000E94C91483948214C0F3512C73CF522C8B
:102930005818821408F46ECFF8CF842D867809F4E5
:102940007BCF8BE241FE80E247FC8DE2B70190E055
:1029500071CFB70180E390E00E94C9149A946CCFC4
:102960008FEF9FEF99CFFC010590615070400110EF
:10297000D8F7809590958E0F9F1F0895FC016150A8
:10298000704001900110D8F7809590958E0F9F1F91
:1029900008950F931F93CF93DF93182F092FEB0107
:1029A0008B8181FD09C01FEF0FEF812F902FDF91E9
:1029B000CF911F910F91089582FF14C02E813F8106
:1029C0008C819D81281739073CF4E881F981CF017A
:1029D00001969983888310838E819F8101969F83BE
:1029E0008E83E3CFE885F985812F0995892BA1F3A3
:1029F000DACFFA01AA27283051F1203181F1E89489
:102A00006F936E7F6E5F7F4F8F4F9F4FAF4FB1E0E1
:102A10003ED0B4E03CD0670F781F891F9A1FA11DDC
:102A2000680F791F8A1F911DA11D6A0F711D811DDD
:102A3000911DA11D20D009F468943F912AE0269FA2
:102A400011243019305D3193DEF6CF010895462F01
:102A50004770405D4193B3E00FD0C9F7F6CF462FE2
:102A60004F70405D4A3318F0495D31FD405241934B
:102A700002D0A9F7EACFB4E0A69597958795779508
:102A80006795BA95C9F700976105710508959B018F
:102A9000AC010A2E06945795479537952795BA9518
:102AA000C9F7620F731F841F951FA01D08952F92F1
:102AB0003F924F925F926F927F928F929F92AF92CE
:102AC000BF92CF92DF92EF92FF920F931F93CF931B
:102AD000DF93CDB7DEB7CA1BDB0B0FB6F894DEBFB2
:102AE0000FBECDBF09942A88398848885F846E84D8
:102AF0007D848C849B84AA84B984C884DF80EE8022
:102B0000FD800C811B81AA81B981CE0FD11D0FB62A
:102B1000F894DEBF0FBECDBFED01089510E0CDE506
:102B2000D0E004C0FE010E94A3122196CE35D10749
:062B3000C9F7F894FFCF85
:102B36000000B90580001800000000000000000039
:102B4600E8FFE8FF0000000000001400000000009D
:102B560000000000ECFFECFF0000000000000A008F
:102B66000500030003000A0005000300030000003F
:102B760000009C05300700000000540522070B05E5
:102B86000805E90605052504FA04BF04A6048D0414
:102B96008B044C042804020000000000670524078B
:102BA600FEFFFEFF00005505260706000000000098
:102BB6001F051607FAFFFAFF00000D0518079C010E
:102BC6000C011601A6011800000000003D050007D3
:102BD600E8FFE8FF00004A050A07B80120012A01BC
:102BE600C2011400000000008505EC06ECFFECFFB6
:102BF60000009205F60600000000C00220024D0209
:102C06000D037E025C027002000000008800F803DB
:102C1600D503000000008800F8036E03256C6400ED
:102C260025236C6F00256C6F0025236C5800252327
:102C36006C7800256C5800256C78004875623A203F
:102C46004F4B0A004875623A204552520A00426FBD
:102C56006F74696E672048756200536572766F20DF
:102C66006D313A204F4B0A00536572766F206D31F5
:102C76003A204552520A00536572766F206D323AF9
:102C86004F4B0A00536572766F206D323A455252A9
:102C96000A00426F6F74696E6720536572766F2003
:102CA6006D0052504C69646172206C3A204F4B0A99
:102CB6000052504C69646172206C3A204552520AA7
:102CC60000426F6F74696E672052504C696461727E
:102CD600005345545550202F2F2F2F2F2F2F0A00EA
:102CE600426F6F74696E67207C200043616C637568
:102CF6006C6174696E6720526F757465207C200064
:102D0600534554555020436F6D706C65746564204F
:102D16002F2F2F2F2F2F2F0A00426F6F74696E6788
:102D260020436F6D706C65746564202F2F2F2F2FD5
:102D36002F2F0A00526F75746520466F756E6421D9
:102D4600202F2F2F2F2F2F2F0A002E2E2E0A002155
:102D56000A005469636B2023003020332E3220355D
:102D66002E3625332E322030203025352E36203093
:102D76002030257C30203330203025333020302061
:102D860030253020302030257C3330203430203040
:0C2D9600257C00207C20313030252000FE
:00000001FF
