:100000000C9459000C9481000C9481000C94810094
:100010000C9481000C9481000C9481000C9481005C
:100020000C9481000C9481000C9481000C942E0798
:100030000C9481000C9481000C9481000C9481003C
:100040000C948C060C9481000C94FC060C94D6063F
:100050000C9481000C9481000C9481000C9481001C
:100060000C9481000C948100000000002500280001
:100070002B00040404040404040402020202020229
:10008000030303030303010204081020408001025C
:1000900004081020010204081020000000080002DB
:1000A00001000003040700000000000000006509D3
:1000B000B50D11241FBECFEFD8E0DEBFCDBF12E0DB
:1000C000A0E0B1E0ECE3F7E202C005900D92AC399C
:1000D000B107D9F724E0ACE9B2E001C01D92AB3C16
:1000E000B207E1F710E0C8E5D0E004C02197FE01B7
:1000F0000E94AB0FC735D107C9F70E94ED0A0C94D7
:1001000091130C940000FC01428353836483758334
:1001100086819781A085B185840F951FA61FB71F83
:1001200082879387A487B58708951F93CF93DF9322
:10013000182FC091A602D091A7028A3041F4E8811D
:10014000F9810190F081E02D6DE0CE010995E88103
:10015000F9810190F081E02D612FCE01099521E018
:1001600030E0019711F430E020E0C901DF91CF9138
:100170001F910895CF93DF93C091A602D091A7025B
:10018000E881F9810084F185E02DCE010995892B64
:10019000B9F3E881F9810284F385E02DCE01DF9186
:1001A000CF91099490E0FC01E656FF4F2491FC01A9
:1001B000EA57FF4F3491FC01EE58FF4FE491EE23D4
:1001C000C9F0222339F0233001F1A8F4213019F1CC
:1001D000223029F1F0E0EE0FFF1FE859FF4FA59103
:1001E000B4918FB7F894EC91611126C030953E23FD
:1001F0003C938FBF08952730A9F02830C9F02430F0
:1002000049F7809180008F7D03C0809180008F77B7
:1002100080938000DFCF84B58F7784BDDBCF84B53A
:100220008F7DFBCF8091B0008F778093B000D2CFCD
:100230008091B0008F7DF9CF3E2BDACF2FB7F894A5
:100240006091A2027091A3028091A4029091A502F4
:100250002FBF0895DC01ED91FC910190F081E02D1C
:100260000994AF92BF92CF92DF92EF92FF920F93D9
:100270001F93CF93DF936C017B018B01040F151F3C
:10028000EB015E01AE18BF08C017D10759F06991A4
:10029000D601ED91FC910190F081E02DC601099508
:1002A000892B79F7C501DF91CF911F910F91FF90B5
:1002B000EF90DF90CF90BF90AF900895FC01538DE9
:1002C000448D252F30E0842F90E0821B930B541730
:1002D00010F0CF96089501970895FC01918D828DBD
:1002E000981761F0A28DAE0FBF2FB11D5D968C9156
:1002F000928D9F5F9F73928F90E008958FEF9FEF95
:100300000895FC01918D828D981731F0828DE80F50
:10031000F11D858D90E008958FEF9FEF0895FC010A
:10032000918D228D892F90E0805C9F4F821B9109D7
:100330008F73992708958AEA92E00E948F0121E045
:10034000892B09F420E0822F089580E090E0892B2A
:1003500029F00E949B0181110C9400000895FC017A
:10036000A48DA80FB92FB11DA35ABF4F2C91848D16
:1003700090E001968F739927848FA689B7892C9373
:10038000A089B1898C91837080648C93938D848DC6
:10039000981306C00288F389E02D80818F7D8083C9
:1003A0000895EF92FF920F931F93CF93DF93EC0189
:1003B00081E0888F9B8D8C8D98131AC0E889F9890C
:1003C000808185FF15C09FB7F894EE89FF8960830F
:1003D000E889F98980818370806480839FBF81E090
:1003E00090E0DF91CF911F910F91FF90EF900895D2
:1003F000F62E0B8D10E00F5F1F4F0F731127E02EAD
:100400008C8D8E110CC00FB607FCFACFE889F989E4
:10041000808185FFF5CFCE010E94AF01F1CFEB8D3A
:10042000EC0FFD2FF11DE35AFF4FF0829FB7F894B8
:100430000B8FEA89FB8980818062CFCFCF93DF93D6
:10044000EC01888D8823B9F0AA89BB89E889F989EC
:100450008C9185FD03C0808186FD0DC00FB607FC21
:10046000F7CF8C9185FFF2CF808185FFEDCFCE0154
:100470000E94AF01E9CFDF91CF9108950F931F93B1
:10048000CF93DF93FC01C081D181209709F18C01CA
:10049000E881F9810680F781E02DCE010995EA898E
:1004A000FB8980818F7E8083EA89FB898081877FB9
:1004B0008083EA89FB8980818F778083EA89FB8941
:1004C00080818F7D80838A8D898FF80111821082CF
:1004D000DF91CF911F910F9108958F929F92AF92CC
:1004E000BF92CF92DF92EF92FF920F931F93CF9321
:1004F000DF93EC01EE85FF85309709F009950E94A6
:100500001E014B015C018E010D5E1F4F6E0121E348
:10051000C20ED11CF12CE12C89A99AA98E159F0538
:1005200014F1D8018D919D918D010097C9F0BFEF15
:10053000EB1AFB0ADC01ED91FC910280F381E02DC6
:10054000B501A4010995882359F0F80132978081FB
:100550009181DC01ED91FC910480F581E02D0995FC
:10056000C016D106C9F60E941E016E837F8388875C
:1005700099870A811B812C813D81DC01CB01800F91
:10058000911FA21FB31F8A879B87AC87BD87DF910E
:10059000CF911F910F91FF90EF90DF90CF90BF9080
:1005A000AF909F908F9008950F931F93CF93DF93F9
:1005B000EC01EE85FF85309709F009950E941E0138
:1005C0006E837F83888799870A811B812C813D8177
:1005D000DC01CB01800F911FA21FB31F8A879B876D
:1005E000AC87BD87DF91CF911F910F9108950F9335
:1005F0001F93FC010285138524853585401B510B13
:10060000620B730B80E077FF80891F910F91089533
:10061000CF93DF93EC01E881F9810288F389E02D23
:1006200009958F3F980731F02D813E812F5F3F4F15
:100630003E832D83DF91CF9108958FEF9FEF089533
:1006400060E070E0CB01089590E080E00895FF92B3
:100650000F931F93CF93DF938C01EB016F3F7607CE
:10066000B9F0F62EEAE06E1306C06DE0F80180895D
:1006700091890E942A016F2DF801808991890E9439
:100680002A01CE01DF91CF911F910F91FF90089524
:10069000D0E0C0E0F6CF7F928F929F92AF92BF9250
:1006A000CF92DF92EF92FF920F931F93CF93DF933E
:1006B0008C0149015A01EB01C12CD12C7601C814DF
:1006C000D904EA04FB04B4F479908AE0781206C0F5
:1006D0006DE0F801808991890E942A01672DF80157
:1006E000808991890E942A01FFEFCF1ADF0AEF0A61
:1006F000FF0AE5CFC501B401DF91CF911F910F91A2
:10070000FF90EF90DF90CF90BF90AF909F908F9031
:100710007F900895CB010895CF93DF93EC018889F2
:100720009989DC01ED91FC910084F185E02D09951A
:10073000892BA9F388899989DC01ED91FC910284C8
:10074000F385E02DDF91CF910994CF93DF93EC01F6
:1007500088899989DC01ED91FC910084F185E02D77
:100760000995892BA9F388899989DC01ED91FC9180
:100770000484F585E02DDF91CF9109948F929F92AB
:10078000AF92BF92CF92DF92EF92FF920F931F939F
:10079000CF93DF938C0149015A01EB01C12CD12C7D
:1007A0007601D80150968D919C91DC01ED91FC91E0
:1007B0000284F385E02D09958F3F61F0C814D904B8
:1007C000EA04FB043CF48993BFEFCB1ADB0AEB0A83
:1007D000FB0AE7CFC701B601DF91CF911F910F91BF
:1007E000FF90EF90DF90CF90BF90AF909F908F9051
:1007F0000895DC0150968D919C91DC01ED91FC9166
:100800000084F185E02D099490E080E0089590E067
:1008100080E0089508950895DC01ED91FC913697EC
:100820000190F081E02DE80FF91F80E791E09183BE
:1008300080838AE791E097838683089520E731E0FB
:10084000FC01318320832AE731E037832683089532
:10085000FB0120813181FC0131832083FB01428136
:10086000538126503109F90120813181820F931F74
:10087000FC015183408308952CE831E0FC01318371
:10088000208326E931E0318F208F60E871E00C94FD
:100890002804DC01ED91FC91369720813181820F93
:1008A000931F0C943C040895DC01ED91FC91369764
:1008B0000190F081E02DE80FF91F8CE591E0918324
:1008C000808386E691E09383828308952CE531E06E
:1008D000FC013183208326E631E0338322830895AF
:1008E000FB0120813181FC0131832083FB014281A6
:1008F000538126503109F90120813181820F931FE4
:10090000FC0151834083089528EA31E0FC013183E2
:10091000208322EB31E0358B248B6CE971E00C9461
:100920007004DC01ED91FC91369720813181820FBA
:10093000931F0C948404089508951F93CF93DF931D
:10094000EC01162F8F8580FF0BC0E881F9810084B0
:10095000F185E02D20E144E070E060E0CE010995F2
:10096000EB85FC85812F90E02D853E85E217F3070E
:1009700058F410832B853C852F5F3F4F3C872B8796
:10098000DF91CF911F910895E881F981028CF38D59
:10099000E02DBC01CE01DF91CF911F910994CF933F
:1009A000DF93EC01E881F98136970190F081E02D29
:1009B000E80FF91F838994890E949D04019679F4B8
:1009C000E881F98136970190F081E02DEC0FFD1F51
:1009D000858123893489232B31F082608583CE0180
:1009E000DF91CF9108958360F9CFCF93DF93EC012E
:1009F000E881F98136970190F081E02DE80FF91F29
:100A000083899489DC01ED91FC910484F585E02DC6
:100A10000995019659F4E881F98136970190F081A2
:100A2000E02DEC0FFD1F858181608583CE01DF9174
:100A3000CF9108958F929F92AF92BF92CF92DF9203
:100A4000EF92FF920F931F93CF93DF938C01490195
:100A50005A01EB01C12CD12C7601C814D904EA0447
:100A6000FB0464F46991C8010E949D04019641F061
:100A70008FEFC81AD80AE80AF80AEFCF75016401A7
:100A8000C701B601DF91CF911F910F91FF90EF90B9
:100A9000DF90CF90BF90AF909F908F90089590E09F
:100AA00080E008958F929F92AF92BF92EF92FF9253
:100AB0000F931F93CF93DF93EC017B0149015A0100
:100AC000E881F98136970190F081E02DE80FF91F58
:100AD00003891489D8011F968C911F9780FF0BC042
:100AE000ED91FC910084F185E02D20E144E070E07F
:100AF00060E0C8010995D801ED91FC91008CF18D61
:100B0000E02DA5019401B701C80109956F3F7F4F02
:100B100079F4E881F98136970190F081E02DEC0FAE
:100B2000FD1F858123893489232B71F082608583A1
:100B3000CE01DF91CF911F910F91FF90EF90BF9069
:100B4000AF909F908F9008958360F1CF4F925F9206
:100B50006F927F928F929F92AF92BF92CF92DF92CD
:100B6000EF92FF920F931F93CF93DF93EC018B01D2
:100B700029013A01E881F98136970190F081E02D51
:100B8000E80FF91FC484D584E684F784C418D50817
:100B9000E608F708838194818E709927049791F471
:100BA00046015701181419041A041B04B4F1D701A3
:100BB000C601F7FE03C080E090E0DC01C81AD90A44
:100BC000EA0AFB0AA3019201B801CE010E94520574
:100BD000E881F98136970190F081E02DEC0FFD1F3F
:100BE000838194818E709927029749F5E881F98174
:100BF00036970190F081E02DEC0FFD1F1C141D04B1
:100C00001E041F04E4F481E0C81AD108E108F108C9
:100C10006089CE010E94CF04E9CF81E0881A910853
:100C2000A108B108E881F98136970190F081E02DA3
:100C3000EC0FFD1F6089CE010E94CF04B3CFE88185
:100C4000F981369780819181C80FD91F1C861D8636
:100C50001E861F86DF91CF911F910F91FF90EF901D
:100C6000DF90CF90BF90AF909F908F907F906F90CC
:100C70005F904F900895FB012481358150E040E062
:100C8000608171810C945205CF93DF93EC010E9437
:100C90008404CE01DF91CF910C941B0FDC01ED9108
:100CA000FC91369720813181820F931F0C9444066A
:100CB000CF93DF93EC010E943C04CE01DF91CF91F2
:100CC0000C941B0FDC01ED91FC9136972081318152
:100CD000820F931F0C9458060C941B0F0C941B0F3F
:100CE000DC01ED91FC91369720813181820F931FB9
:100CF0000C946E060C941B0F0C941B0FDC01ED91F1
:100D0000FC91369720813181820F931F0C947C06D1
:100D10000C941B0F0C941B0F1F920F920FB60F9287
:100D200011242F933F938F939F93AF93BF93809101
:100D3000A2029091A302A091A402B091A5023091C9
:100D4000A10223E0230F2D3758F50196A11DB11DF7
:100D50002093A1028093A2029093A302A093A402E5
:100D6000B093A50280919D0290919E02A0919F0256
:100D7000B091A0020196A11DB11D80939D02909398
:100D80009E02A0939F02B093A002BF91AF919F914A
:100D90008F913F912F910F900FBE0F901F9018953C
:100DA00026E8230F0296A11DB11DD2CF1F920F92EC
:100DB0000FB60F9211242F933F934F935F936F932E
:100DC0007F938F939F93AF93BF93EF93FF938AEAA1
:100DD00092E00E94AF01FF91EF91BF91AF919F917F
:100DE0008F917F916F915F914F913F912F910F90D4
:100DF0000FBE0F901F9018951F920F920FB60F9273
:100E000011242F938F939F93EF93FF93E091BA0256
:100E1000F091BB028081E091C002F091C10282FD9D
:100E20001BC090818091C3028F5F8F732091C40299
:100E3000821741F0E091C302F0E0E655FD4F958F37
:100E40008093C302FF91EF919F918F912F910F900B
:100E50000FBE0F901F9018958081F4CF1F920F92B4
:100E60000FB60F9211242F933F934F935F936F937D
:100E70007F938F939F93AF93BF93CF93DF93EF9322
:100E8000FF9380919C02C0916B03D0E087FF24C048
:100E9000109285001092840080919C028F5F809355
:100EA0009C0280919C02082E000C990B8C179D07C8
:100EB00024F480919C028C30C4F180918400909144
:100EC0008500049680349C4908F47AC0809184009F
:100ED00090918500049676C080919C02082E000CAB
:100EE000990B8C179D07C4F6E0919C028E2FEE0F94
:100EF000990BFC01EE0FFF1FE80FF91FE95BFC4F98
:100F0000808186FFC9CFE0919C028E2FEE0F990B56
:100F1000FC01EE0FFF1FE80FF91FE95BFC4F80811A
:100F200060E08F730E94D200B7CF2091840030918F
:100F30008500E0919C028E2FEE0F990BFC01EE0FC5
:100F4000FF1FE80FF91FE95BFC4F81819281820F3F
:100F5000931F9093890080938800E0919C028E2FCC
:100F6000EE0F990BFC01EE0FFF1FE80FF91FE95B75
:100F7000FC4F808186FF11C0E0919C028E2FEE0F06
:100F8000990BFC01EE0FFF1FE80FF91FE95BFC4F07
:100F9000808161E08F730E94D200FF91EF91DF9119
:100FA000CF91BF91AF919F918F917F916F915F9101
:100FB0004F913F912F910F900FBE0F901F9018955A
:100FC00080E49CE990938900809388008FEF809360
:100FD0009C02E3CFCF93DF93EC018AEB91E09983FE
:100FE000888381E0888B1F861E861A861B861C8656
:100FF0001D860E941E016E837F8388879987DA8B06
:10100000C98B1A821B821C821D826A877B878C8710
:101010009D87DF91CF910895CF93DF93EB01888176
:101020009981A3E9B4E011969C938E932A813B8128
:101030000697EC01E881F981ED56FB4F318320835F
:1010400012961D921D921D921C92159781E290E0BE
:101050009483838389E994E0948B838B1582158A2A
:10106000DF91CF910895CF93DF93C3E9D4E081E27C
:1010700090E09C8F8B8F1D8E1E8E1F8E86E090E0E1
:10108000A0E0B0E088A399A3AAA3BBA31CA21DA2C1
:101090001EA21FA282E391E0998F888F80E288A729
:1010A0001AA619A61DA689E994E09CA78BA7AC01F6
:1010B00060E871E0CE010E940C088CE891E0998311
:1010C000888386E991E0998F888F1A8619861C8615
:1010D0001B861E861D86188A1F861A8A198A1C8AF4
:1010E0001B8A8AE391E09F838E838AEA92E09F8B3A
:1010F0008E8B88E08D8BDF91CF910895DB018D91F0
:101100009C91119790936A048093690412962D9193
:101110003C910697DC01ED91FC91E759FB4F31833F
:10112000208381E290E0948383838BE694E0948B28
:10113000838B1582158A0895CF93DF93C9E6D4E097
:1011400081E290E0988F8F8B198E1A8E1B8E86E02D
:1011500090E0A0E0B0E08C8F9D8FAE8FBF8F18A283
:1011600019A21AA21BA282E391E09D8B8C8B80E2D4
:101170008CA31EA21DA219A68BE694E098A78FA3AC
:10118000AC016CE971E0CE010E947E0888EA91E032
:101190009983888382EB91E09D8B8C8B1E821D82CC
:1011A00018861F821A8619861C861B861E861D8637
:1011B000188A1F868AE391E09B838A838AEA92E0F9
:1011C0009B8B8A8B80E1898BDF91CF910895CF92A1
:1011D000DF92EF92FF920F931F93CF93DF938C01D7
:1011E0007B0188E090E0D80113969C938E93129730
:1011F00015961C921E9214970E947F0E6C01E801B6
:1012000099838883E70109900020E9F72197CE1997
:10121000DF09D1F1C930D10520F1CE010896F801DE
:10122000938382830E947F0ED8018D939C93F60155
:10123000CF018C199D09D8014D915C91119714969D
:101240002D913C918217930748F4DA01A80FB91F3A
:10125000109711F080818C933196EACFC6010E94DD
:101260001B0FF80184819581D801ED91FC918C17B9
:101270009D0738F4E80FF91F309709F010820196A6
:10128000F3CFF801D583C483F701D8012D913C91A8
:1012900040E050E0BA01CE01B0E0A0E048175907A5
:1012A0006A077B0748F41191E90119939E014F5F8A
:1012B0005F4F6F4F7F4FF2CFDF91CF911F910F9113
:1012C000FF90EF90DF90CF9008950F931F93CF93EF
:1012D000DF931F92CDB7DEB71092AD021092AC0231
:1012E00088EE93E0A0E0B0E08093AE029093AF026E
:1012F000A093B002B093B10284EC91E09093AB0262
:101300008093AA0285EC90E09093B7028093B60296
:1013100084EC90E09093B9028093B80280EC90E066
:101320009093BB028093BA0281EC90E09093BD024F
:101330008093BC0282EC90E09093BF028093BE0247
:1013400086EC90E09093C1028093C0021092C30299
:101350001092C4021092C5021092C6026AEA72E0AC
:1013600089E694E00E949C086AEA72E083E994E0CE
:101370000E9433081092A9021092A8028AEA92E011
:101380009093A7028093A6026AEB70E085E990E053
:101390000E94180E9093A9028093A80208E010E022
:1013A0001093560400935504109258041092570459
:1013B00088E490E00E947F0E90935404809353043D
:1013C000109361040093600410926304109262040D
:1013D00080E190E00E947F0E90935F0480935E0412
:1013E000AE014F5F5F4F6CED71E08FEF93E00E94B5
:1013F000E708AE014F5F5F4F69EE71E086E094E071
:101400000E94E708AE014F5F5F4F67EF71E08DE02C
:1014100094E00E94E708AE014F5F5F4F63E072E027
:1014200084E194E00E94E708AE014F5F5F4F60E106
:1014300072E08BE194E00E94E708AE014F5F5F4FDE
:1014400060E272E082E294E00E94E708AE014F5F42
:101450005F4F6EE272E089E294E00E94E708AE011D
:101460004F5F5F4F6DE372E080E394E00E94E70816
:10147000AE014F5F5F4F60E572E087E394E00E944A
:10148000E708AE014F5F5F4F6EE572E08EE394E0D8
:101490000E94E708AE014F5F5F4F67E972E085E4A5
:1014A00094E00E94E708AE014F5F5F4F66E672E08E
:1014B0008CE494E00E94E7088AEC93E00E94EA073B
:1014C00086ED91E09093CB038093CA031092FC03C6
:1014D0001092FB03EDEDF3E08BEF93E0119211928C
:1014E0008E179F07D9F71092CC031092CD0310925C
:1014F000CE031092CF038091D0039091D103A0919D
:10150000D203B091D3038093D4039093D503A093D7
:10151000D603B093D70387EB93E00E94EA0784EAEF
:1015200093E00E94EA0781E993E00E94EA078EE7D0
:1015300093E00E94EA0710927303109272031092D4
:101540007403109275031092760310927703109231
:1015500078031092790310927A0310927B03109211
:101560007C0310927D0380916B038C3070F591E0C9
:10157000980F90936B0380936F0390E0FC01EE0F44
:10158000FF1FE80FF91FE95BFC4F88EB9BE092839C
:10159000818380916B038C30E0F491E0980F9093FD
:1015A0006B0380936C0390E0FC01EE0FFF1FE80FCC
:1015B000F91FE95BFC4F88EB9BE0928381830F90DE
:1015C000DF91CF911F910F9108958FEF80936F035B
:1015D000E0CF8FEF80936C03F2CFCF93DF93CDB743
:1015E000DEB7E8970FB6F894DEBF0FBECDBF789494
:1015F00084B5826084BD84B5816084BD85B5826018
:1016000085BD85B5816085BD80916E0081608093C8
:101610006E00109281008091810082608093810031
:101620008091810081608093810080918000816041
:10163000809380008091B10084608093B10080919C
:10164000B00081608093B00080917A0084608093C4
:101650007A0080917A00826080937A0080917A008B
:10166000816080937A0080917A00806880937A000C
:101670001092C10067E374E089E694E00E943B06A3
:101680006EE374E089E694E00E943B06E091BA02C2
:10169000F091BB0282E08083E091B602F091B70244
:1016A0001082E091B802F091B9028FEC8083109221
:1016B000C202E091BE02F091BF0286E08083E09119
:1016C000BC02F091BD02808180618083E091BC0208
:1016D000F091BD02808188608083E091BC02F0912E
:1016E000BD02808180688083E091BC02F091BD02E0
:1016F00080818F7D8083E0916904F0916A04369740
:101700000190F081E02DE759FB4F81899289009784
:1017100011F00E94F5042EE030E040E050E06CE86B
:1017200072E089E694E00E94A6058CE0E2E7F3E02F
:10173000DE019D9601900D928A95E1F760E374E0D9
:1017400089E694E00E943B068CE0FE01BD96DE0136
:10175000919601900D928A95E1F70E941E016B010E
:101760007C0189A19AA1009709F4A0C125EA2983E7
:1017700020E52A83DC01ED91FC910280F381E02DCC
:1017800042E050E0BE016F5F7F4F09950E941E014D
:101790004B015C0110E00E941E01681979098A0959
:1017A0009B09653671058105910508F07AC189A10B
:1017B0009AA1DC01ED91FC910284F385E02D09955D
:1017C00097FDE9CF112309F462C1113009F464C116
:1017D00091E0910FE5E1F0E0EC0FFD1FE10FF11D4D
:1017E0008083973009F051C180E090E0DC01B7FDC3
:1017F00036C08B8D843009F05EC18F89988DA98D9C
:101800002A8DB22FBF734497A105B10508F453C1C7
:101810008E010F5F1F4F5E01B5E1AB0EB11C0E9440
:101820001E016C197D098E099F09653671058105B8
:10183000910508F044C189A19AA1DC01ED91FC91C8
:101840000284F385E02D099597FDE9CFF801819396
:101850008F01AE16BF0619F780E090E0DC01B7FDFE
:1018600046C10E941E016B017C0110E00E941E0116
:101870006C197D098E099F09653F714081059105AD
:1018800008F030C189A19AA1DC01ED91FC9102849C
:10189000F385E02D099597FDE9CF112309F416C1D1
:1018A000113009F41CC191E0910FE5E1F0E0EC0F7B
:1018B000FD1FE10FF11D8083953009F005C1688D92
:1018C000798D90E080E00E94B10F20E030E040E8A8
:1018D0005EE30E94EE0F6BA37CA38DA39EA36E8993
:1018E0007F897695679590E080E00E94B10F20E0B7
:1018F00030E040E85CE30E94EE0F6FA378A789A771
:101900009AA78D89282F30E035952795359527950D
:101910002BA781708CA780E090E0DC01B7FDE7C0C9
:1019200062E274E089E694E00E943B06CE01819673
:101930000E943E02CE018D960E943E0280916F036E
:1019400090917003A09171038D8B9E8BAF8B8091D2
:101950006C0390916D03A0916E03888F998FAA8F6D
:101960008EE190E00E947F0E7C01892B39F08D89F9
:101970009E89AF89F70180839183A283FDEFEF16E3
:10198000FFEFFF0639F0888D998DAA8DF7018383CB
:101990009483A583812C912C540194E1792E9E018E
:1019A0002F5F3F4F69016BE174E089E694E00E948C
:1019B0003B068C01DC01ED91FC9136970190F081A2
:1019C000E02DE80FF91F81899289009711F00E949C
:1019D000F504A401B501D801ED91FC913697019071
:1019E000F081E02DE00FF11F8381948185FDAFC070
:1019F00086FF96C092FFAEC081E792E07F936F931F
:101A00005F934F939F938F931F927F92DF92CF921A
:101A10000E94AC109C01990F440B550BB601C801F4
:101A20000E94A605D801ED91FC9136970190F081B6
:101A3000E02DE00FF11F838194810FB6F894DEBF93
:101A40000FBECDBF96FF03C0C8010E94F50465E438
:101A500074E0C8010E943B068A9489288A288B2852
:101A600009F059C0C7010E941B0F00E010E08AEC8A
:101A700093E00E946D0201151105C9F30E949B01BC
:101A80008823A9F30E940000F2CF192F84CE853A53
:101A9000910509F49DCE7FCE8A35910509F498CE43
:101AA00079CE82E090E8A0E0B0E8A1CE81E090E8B5
:101AB000A0E0B0E8D4CE80E090E8DC01D0CE82E0B7
:101AC00090E8A0E0B0E8CBCE192FD0CE9C013595A0
:101AD0002795FC01E2279F0120FDE5CEC7CE80FDC2
:101AE000E2CEC3CE82E090E8A0E0B0E817CF69E292
:101AF00074E089E694E00E943B068CE0FE01B1961A
:101B0000DE01559601900D928A95E1F7CE0145963A
:101B10000E943E020BCF812C912C5401839443CF21
:101B200087FF1BC09C012227307292FF08C08AE702
:101B300092E0232B09F062CF8FE792E05FCF84E839
:101B400092E0232B09F05ACF88E892E057CF8DE638
:101B500092E054CF86E792E051CF90E080E04ECF04
:101B6000FC01808191810C941B0F0F931F93CF93E5
:101B7000DF9382E793E00E943E028CE494E00E94AF
:101B8000B00D85E494E00E94B00D8EE394E00E94D5
:101B9000B00D87E394E00E94B00D80E394E00E94D2
:101BA000B00D89E294E00E94B00D82E294E00E94C0
:101BB000B00D8BE194E00E94B00D84E194E00E94AE
:101BC000B00D8DE094E00E94B00D86E094E00E949C
:101BD000B00D8FEF93E00E94B00D80915E04909164
:101BE0005F040E941B0FD0E0C0E010E000E0809195
:101BF00053049091540420915704309158040217D3
:101C0000130740F48C0F9D1F0E94B00D0F5F1F4FF4
:101C10002996EDCF0E941B0F83E994E00E943C04BB
:101C200089E694E0DF91CF911F910F910C94840489
:101C30000F931F93CF93DF93009759F461157105AC
:101C400041F4F0E0E0E0CF01DF91CF911F910F91DF
:101C500008958B01EC016EE070E081E090E00E945D
:101C6000630EFC01892B69F380E88383011511055C
:101C700071F01387028781E883838091C10490917A
:101C8000C204892B21F4F093C204E093C10420978D
:101C9000D1F2D187C0878381826083838091C3041E
:101CA0009091C404892B79F6F093C404E093C304A3
:101CB0008091C5049091C604892B29F6F093C6043F
:101CC000E093C504C0CF0F931F93CF93DF93869FFC
:101CD0008001879F100D969F100D1124C8010E944E
:101CE0007F0EEC01009729F0A80170E060E00E94EF
:101CF000A40FCE01DF91CF911F910F9108950F9303
:101D00001F93CF93DF938230910510F482E090E02F
:101D1000E091C904F091CA0430E020E0B0E0A0E016
:101D2000309799F42115310509F44AC0281B390B65
:101D300024303105D8F58A819B816115710589F1BF
:101D4000FB0193838283FE0111C040815181028196
:101D5000138148175907E0F04817590799F410976D
:101D600061F012960C93129713961C933296CF0142
:101D7000DF91CF911F910F9108950093C9041093A3
:101D8000CA04F4CF2115310551F04217530738F03A
:101D9000A901DB019A01BD01DF01F801C1CFEF010B
:101DA000F9CF9093CA048093C904CDCFFE01E20F0E
:101DB000F31F819391932250310939832883D7CF20
:101DC0002091C7043091C804232B41F420910201D3
:101DD000309103013093C8042093C704209100017F
:101DE000309101012115310541F42DB73EB74091E5
:101DF000040150910501241B350BE091C704F091BB
:101E0000C804E217F307A0F42E1B3F0B281739076D
:101E100078F0AC014E5F5F4F2417350748F04E0F46
:101E20005F1F5093C8044093C704819391939FCF41
:101E3000F0E0E0E09CCFCF93DF930097E9F0FC0166
:101E4000329713821282A091C904B091CA04ED01A5
:101E500030E020E01097A1F420813181820F931FA0
:101E60002091C7043091C8042817390709F061C0D0
:101E7000F093C804E093C704DF91CF910895EA017D
:101E8000CE17DF07E8F54A815B819E0141155105B8
:101E9000B1F7E901FB83EA8349915991C40FD51F3A
:101EA000EC17FD0761F4808191810296840F951FE4
:101EB000E90199838883828193819B838A83F0E0FF
:101EC000E0E012968D919C9113970097B9F52D91B2
:101ED0003C911197CD010296820F931F2091C70468
:101EE0003091C8042817390739F6309751F5109208
:101EF000CA041092C904B093C804A093C704BCCF0D
:101F0000D383C28340815181840F951FC817D9079D
:101F100061F44E5F5F4F88819981480F591F51834B
:101F200040838A819B81938382832115310509F047
:101F3000B0CFF093CA04E093C9049ECFFD01DC0149
:101F4000C0CF13821282D7CFDC0101C06D93415004
:101F50005040E0F70895EE0FFF1F0590F491E02D3B
:101F60000994E89409C097FB3EF49095809570958C
:101F700061957F4F8F4F9F4F9923A9F0F92F96E9D5
:101F8000BB279395F695879577956795B795F1114A
:101F9000F8CFFAF4BB0F11F460FF1BC06F5F7F4FE7
:101FA0008F4F9F4F16C0882311F096E911C07723F9
:101FB00021F09EE8872F762F05C0662371F096E802
:101FC000862F70E060E02AF09A95660F771F881FD1
:101FD000DAF7880F9695879597F908950E94011072
:101FE0000C9472100E94641038F00E946B1020F064
:101FF000952311F00C945B100C94611011240C9437
:10200000A6100E94831070F3959FC1F3950F50E0C6
:10201000551F629FF001729FBB27F00DB11D639F9A
:10202000AA27F00DB11DAA1F649F6627B00DA11D40
:10203000661F829F2227B00DA11D621F739FB00DE6
:10204000A11D621F839FA00D611D221F749F332756
:10205000A00D611D231F849F600D211D822F762FEF
:102060006A2F11249F5750409AF0F1F088234AF0CC
:10207000EE0FFF1FBB1F661F771F881F9150504038
:10208000A9F79E3F510580F00C945B100C94A610AC
:102090005F3FE4F3983ED4F3869577956795B795BF
:1020A000F795E7959F5FC1F7FE2B880F911D9695D9
:1020B000879597F9089597F99F6780E870E060E049
:1020C00008959FEF80EC089500240A9416161706D1
:1020D00018060906089500240A9412161306140619
:1020E00005060895092E0394000C11F4882352F07C
:1020F000BB0F40F4BF2B11F460FF04C06F5F7F4F34
:102100008F4F9F4F089557FD9058440F551F59F01A
:102110005F3F71F04795880F97FB991F61F09F3FD4
:1021200079F087950895121613061406551FF2CFFD
:102130004695F1DF08C0161617061806991FF1CF4D
:1021400086957105610508940895E894BB27662774
:102150007727CB0197F90895AEE0B0E0E2EBF0E12C
:102160000C9468130D891E898F89988D26E02C8325
:102170001A83098397FF02C080E090E801979E834D
:102180008D83AE01455E5F4F698D7A8DCE010196DC
:102190000E94DC104D815E8157FD0AC02F81388579
:1021A000421753070CF49A01020F131FF801108213
:1021B0002E96E4E00C948413ABE0B0E0E2EEF0E1A4
:1021C0000C945A137C013B018A01FC011782168290
:1021D000838181FFC8C1CE0101965C01F701938123
:1021E000F30193FD859193FF81913F01882309F4C9
:1021F00053C1853239F493FD859193FF81913F015D
:10220000853229F4B70190E00E94CC12E7CF912CDF
:10221000212C312CFFE1F31538F08B3211F190F4C1
:10222000803209F1833229F137FC3CC020ED280FC0
:102230002A3050F536FE20C08AE0989E200D1124E9
:10224000922E06C08D3291F0803371F7689430F889
:10225000F30193FD859193FF81913F018111DACFC5
:1022600021C0689431F8689432F8F2CF689433F85A
:10227000EFCF689434F8ECCFEAE02E9E200D1124C5
:10228000222E689435F8E4CF8E3229F436FC04C14E
:10229000689436F8DDCF8C3619F4689437F8D8CFC7
:1022A0008836B1F2982F9F7D95549330E0F08336B5
:1022B000A1F18337C1F1833509F063C02801F2E051
:1022C0004F0E511CF801C080D180692D70E036FCA2
:1022D00002C06FEF7FEFC6010E94B6124C016894F6
:1022E00037F882010AC00C5F1F4FFFE3F98388248F
:1022F0008394912C6501E89437F833FE2DC0522C5D
:102300008114910471F5552009F468CFB70180E27A
:1023100090E00E94CC125A94F6CFF8018081898314
:102320000E5F1F4FE4CF2801F2E04F0E511CF80161
:10233000C080D180692D70E036FC02C06FEF7FEF66
:10234000C6010E94C1124C018201D5CFB70180E2C3
:1023500090E00E94CC122A942814190409F0B0F7D6
:10236000CECFF60137FC859137FE81916F01B70121
:1023700090E00E94CC1251105A94F1E08F1A91080B
:10238000BFCF843619F0893609F077C0F80137FEDF
:102390006BC060817181828193810C5F1F4FF32D2F
:1023A000FF763F2E97FF09C09095809570956195B7
:1023B0007F4F8F4F9F4F689437F82AE030E0A50198
:1023C0000E94FC12C82ECA188C2C432C36FE0CC05E
:1023D000E89440F8C91440F434FE05C032FC03C050
:1023E000F32DFE7E4F2E892C44FE95C0FE01EC0D90
:1023F000F11D8081803309F087C0242D297E422E73
:10240000842D8870582E43FC95C040FE8FC09C2CB4
:10241000821418F42C0C922C981844FE91C0B70129
:1024200080E390E00E94CC1242FE09C088E790E071
:1024300041FE02C088E590E0B7010E94CC12C914A9
:1024400008F48AC0CA94D12C9FEFC91AD90ACA0CC1
:10245000DB1CF60182916F01B70190E00E94CC1263
:10246000AC14BD04B1F74FCF60817181072E000C11
:10247000880B990B0E5F1F4F92CFD32CE894D4F8A2
:102480002AE030E0853739F1232D297FD22E8F368F
:1024900001F148F48835A9F0F701868197812B96E0
:1024A000E2E10C947613803749F08837A9F7D4FE1F
:1024B00002C06894D2F820E130E00DC06894D4F8EE
:1024C000F6CF34FE03C0822F8660D82E20E132E0A2
:1024D00002C028E030E0F801D7FE0FC060817181B2
:1024E000828193810C5F1F4FA5010E94FC12C82EB0
:1024F000CA183D2CE89437F867CF6081718190E06D
:1025000080E00E5F1F4FF0CF42FC02C0839478CF73
:102510008394839475CF842D867809F471CFF6CF98
:10252000B70180E290E00E94CC1283948214C0F341
:10253000512C73CF522C5818821408F46ECFF8CF58
:10254000842D867809F47BCF8BE241FE80E247FC44
:102550008DE2B70190E071CFB70180E390E00E9477
:10256000CC129A946CCF8FEF9FEF99CFFC0105901E
:10257000615070400110D8F7809590958E0F9F1F85
:102580000895FC016150704001900110D8F78095CA
:1025900090958E0F9F1F08950F931F93CF93DF93F6
:1025A000182F092FEB018B8181FD09C01FEF0FEF61
:1025B000812F902FDF91CF911F910F91089582FF6E
:1025C00014C02E813F818C819D81281739073CF4EE
:1025D000E881F981CF0101969983888310838E81E8
:1025E0009F8101969F838E83E3CFE885F985812FB4
:1025F0000995892BA1F3DACFFA01AA27283051F1E6
:10260000203181F1E8946F936E7F6E5F7F4F8F4F23
:102610009F4FAF4FB1E03ED0B4E03CD0670F781F82
:10262000891F9A1FA11D680F791F8A1F911DA11D67
:102630006A0F711D811D911DA11D20D009F46894A0
:102640003F912AE0269F11243019305D3193DEF648
:10265000CF010895462F4770405D4193B3E00FD0FE
:10266000C9F7F6CF462F4F70405D4A3318F0495DE9
:1026700031FD4052419302D0A9F7EACFB4E0A695CC
:102680009795879577956795BA95C9F700976105EE
:10269000710508959B01AC010A2E06945795479544
:1026A00037952795BA95C9F7620F731F841F951F39
:1026B000A01D08952F923F924F925F926F927F924A
:1026C0008F929F92AF92BF92CF92DF92EF92FF9242
:1026D0000F931F93CF93DF93CDB7DEB7CA1BDB0BEE
:1026E0000FB6F894DEBF0FBECDBF09942A88398893
:1026F00048885F846E847D848C849B84AA84B9849A
:10270000C884DF80EE80FD800C811B81AA81B981A5
:10271000CE0FD11D0FB6F894DEBF0FBECDBFED01B9
:10272000089510E0C8E5D0E004C0FE010E94AB0FA0
:0C2730002196C935D107C9F7F894FFCFF6
:10273C000000CB0480001800000000000000000026
:10274C00E8FFE8FF0000000000001400000000009B
:10275C0000000000ECFFECFF000000000000000097
:10276C0000009B0488060000000053047A060A044B
:10277C0007044F0504042403F903BE03A5038C03CB
:10278C008A034B03270302000000000066047C064A
:10279C00FEFFFEFF000054047E0606000000000051
:1027AC001E046E06FAFFFAFF00000C0470068C0182
:1027BC000C01160196011800000000003C0458069C
:1027CC00E8FFE8FF000049046206A80120012A0185
:1027DC00B20114000000000084044406ECFFECFF7E
:1027EC00000091044E06000000008300F702D402A2
:1027FC0000000000D10131015E011E028F016D014C
:10280C008101000000008300F7026D0253657276AF
:10281C006F206D313A204F4B00536572766F206DEF
:10282C00313A2045525200536572766F206D323A20
:10283C004F4B00536572766F206D323A4552520001
:10284C00426F6F74696E6720536572766F206D00EE
:10285C0052504C69646172206C3A204F4B005250BC
:10286C004C69646172206C3A2045525200426F6F81
:10287C0074696E672052504C696461722E2E2E0062
:10288C005345545550202F2F2F2F2F2F2F00626F71
:10289C006F74696E67005469636B202300256C6448
:1028AC000025236C6F00256C6F0025236C580025C8
:1028BC00236C7800256C5800256C7800426F6F747F
:0C28CC00696E67206875622E2E2E0000D9
:00000001FF
