:100000000C945E000C9486000C9486000C94860080
:100010000C9486000C9486000C9486000C94860048
:100020000C9486000C9486000C9486000C94EA07CD
:100030000C9486000C9486000C9486000C94860028
:100040000C9448070C9486000C94B8070C94920703
:100050000C9486000C9486000C9486000C94860008
:100060000C9486000C948600000000080002010039
:100070000003040700000000000000000000000072
:10008000250028002B0000000000240027002A0083
:10009000040404040404040402020202020203032E
:1000A0000303030301020408102040800102040836
:1000B0001020010204081020B60AD10811241FBE26
:1000C000CFEFD8E0DEBFCDBF13E0A0E0B1E0EEE1BE
:1000D000F3E202C005900D92A034B107D9F725E0F4
:1000E000A0E4B3E001C01D92AD38B207E1F710E023
:1000F000CDE5D0E004C02197FE010E947C11CC35F3
:10010000D107C9F70E94010D0C9482110C940000D4
:10011000FC01428353836483758386819781A08524
:10012000B185840F951FA61FB71F82879387A48769
:10013000B58708951F93CF93DF93182FC0914E0377
:10014000D0914F038A3041F4E881F9810190F08128
:10015000E02D6DE0CE010995E881F9810190F081F3
:10016000E02D612FCE01099521E030E0019711F4D7
:1001700030E020E0C901DF91CF911F910895CF9326
:10018000DF93C0914E03D0914F03E881F981008441
:10019000F185E02DCE010995892BB9F3E881F9812C
:1001A0000284F385E02DCE01DF91CF910994CF92A7
:1001B000DF92EF92FF920F931F93CF93DF938C0107
:1001C0006A017B01E0912B05F0912C053697019097
:1001D000F081E02DE55DFA4FC389D4898F8580FFDA
:1001E0000BC0E881F9810084F185E02D20E144E035
:1001F00070E060E0CE010995E881F981008CF18D15
:10020000E02DA7019601B801CE0109956F3F7F4F00
:1002100089F4E0912B05F0912C0536970190F0813F
:10022000E02DE55DFA4F858123893489232B69F020
:10023000826085838BE295E0DF91CF911F910F91D2
:10024000FF90EF90DF90CF9008958360F2CFFC0194
:100250004481558170E060E0808191810C94D700E9
:1002600090E0FC01EC55FF4F249180579F4FFC011B
:100270008491882399F090E0880F991FFC01EA5738
:10028000FF4FA591B491FC01E458FF4F85919491E3
:100290008FB7F894EC91E22BEC938FBF089590E028
:1002A000FC01E859FF4F2491FC01EC55FF4F3491BC
:1002B000FC01E057FF4FE491EE23C9F0222339F00F
:1002C000233001F1A8F4213019F1223029F1F0E0B6
:1002D000EE0FFF1FE458FF4FA591B4918FB7F8942C
:1002E000EC91611126C030953E233C938FBF089559
:1002F0002730A9F02830C9F0243049F780918000D8
:100300008F7D03C0809180008F7780938000DFCF46
:1003100084B58F7784BDDBCF84B58F7DFBCF809193
:10032000B0008F778093B000D2CF8091B0008F7DE6
:10033000F9CF3E2BDACF3FB7F89480914A039091E2
:100340004B03A0914C03B0914D0326B5A89B05C06B
:100350002F3F19F00196A11DB11D3FBFBA2FA92F44
:10036000982F8827BC01CD01620F711D811D911D41
:1003700042E0660F771F881F991F4A95D1F70895AD
:100380008F929F92AF92BF92CF92DF92EF92FF92A5
:100390006B017C010E949B014B015C01C114D104E3
:1003A000E104F104B9F00E949B01681979098A09F6
:1003B0009B09683E73408105910580F321E0C21AD4
:1003C000D108E108F10888EE880E83E0981EA11C90
:1003D000B11CE4CFFF90EF90DF90CF90BF90AF9033
:1003E0009F908F9008950F931F93CF93DF938C016D
:1003F000D0E0C0E086E894E00E9427016AE070E067
:1004000080E090E00E94C00121960C171D0791F733
:10041000DF91CF911F910F9108952FB7F8946091BC
:1004200046037091470380914803909149032FBF81
:100430000895DC01ED91FC910190F081E02D09948B
:10044000AF92BF92CF92DF92EF92FF920F931F93E2
:10045000CF93DF936C017B018B01040F151FEB0120
:100460005E01AE18BF08C017D10759F06991D601D7
:10047000ED91FC910190F081E02DC6010995892B49
:1004800079F7C501DF91CF911F910F91FF90EF9008
:10049000DF90CF90BF90AF900895FC01538D448DB5
:1004A000252F30E0842F90E0821B930B541710F01F
:1004B000CF96089501970895FC01918D828D98172C
:1004C00061F0A28DAE0FBF2FB11D5D968C91928D04
:1004D0009F5F9F73928F90E008958FEF9FEF089535
:1004E000FC01918D828D981731F0828DE80FF11DFE
:1004F000858D90E008958FEF9FEF0895FC01918D19
:10050000228D892F90E0805C9F4F821B91098F7311
:100510009927089582E593E00E947E0221E0892BCD
:1005200009F420E0822F089580E090E0892B29F0E3
:100530000E948A0281110C9400000895FC01A48D90
:10054000A80FB92FB11DA35ABF4F2C91848D90E0F5
:1005500001968F739927848FA689B7892C93A089D8
:10056000B1898C91837080648C93938D848D981362
:1005700006C00288F389E02D80818F7D80830895F5
:10058000EF92FF920F931F93CF93DF93EC0181E0E3
:10059000888F9B8D8C8D98131AC0E889F98980818A
:1005A00085FF15C09FB7F894EE89FF896083E889BD
:1005B000F98980818370806480839FBF81E090E0AF
:1005C000DF91CF911F910F91FF90EF900895F62E3C
:1005D0000B8D10E00F5F1F4F0F731127E02E8C8DD6
:1005E0008E110CC00FB607FCFACFE889F98980811B
:1005F00085FFF5CFCE010E949E02F1CFEB8DEC0F6F
:10060000FD2FF11DE35AFF4FF0829FB7F8940B8F37
:10061000EA89FB8980818062CFCFCF93DF93EC01A1
:10062000888D8823B9F0AA89BB89E889F9898C91DA
:1006300085FD03C0808186FD0DC00FB607FCF7CF96
:100640008C9185FFF2CF808185FFEDCFCE010E9496
:100650009E02E9CFDF91CF9108950F931F93CF931F
:10066000DF93FC01C081D181209709F18C01E881E1
:10067000F9810680F781E02DCE010995EA89FB8991
:1006800080818F7E8083EA89FB898081877F808358
:10069000EA89FB8980818F778083EA89FB89808161
:1006A0008F7D80838A8D898FF80111821082DF917E
:1006B000CF911F910F910895892B79F410928000AA
:1006C00082E0809381001092850010928400B19A9C
:1006D00080916F00826080936F0008958F929F9247
:1006E000AF92BF92CF92DF92EF92FF920F931F9340
:1006F000CF93DF93EC01EE85FF85309709F00995E4
:100700000E940D024B015C018E010D5E1F4F6E01B8
:1007100021E3C20ED11CF12CE12C89A99AA98E15D6
:100720009F0514F1D8018D919D918D010097C9F01D
:10073000BFEFEB1AFB0ADC01ED91FC910280F38123
:10074000E02DB501A4010995882359F0F8013297ED
:1007500080819181DC01ED91FC910480F581E02D97
:100760000995C016D106C9F60E940D026E837F83DB
:10077000888799870A811B812C813D81DC01CB010F
:10078000800F911FA21FB31F8A879B87AC87BD87ED
:10079000DF91CF911F910F91FF90EF90DF90CF905D
:1007A000BF90AF909F908F9008950F931F93CF931A
:1007B000DF93EC01EE85FF85309709F009950E94E3
:1007C0000D026E837F83888799870A811B812C8124
:1007D0003D81DC01CB01800F911FA21FB31F8A87CF
:1007E0009B87AC87BD87DF91CF911F910F910895B3
:1007F0000F931F93FC010285138524853585401BCB
:10080000510B620B730B80E077FF80891F910F9172
:100810000895CF93DF93EC01E881F9810288F38991
:10082000E02D09958F3F980731F02D813E812F5F94
:100830003F4F3E832D83DF91CF9108958FEF9FEF40
:10084000089560E070E0CB01089590E080E00895A5
:10085000FF920F931F93CF93DF938C01EB016F3FB8
:100860007607B9F0F62EEAE06E1306C06DE0F801E7
:10087000808991890E9419026F2DF80180899189E0
:100880000E941902CE01DF91CF911F910F91FF902D
:100890000895D0E0C0E0F6CF7F928F929F92AF9202
:1008A000BF92CF92DF92EF92FF920F931F93CF935D
:1008B000DF938C0149015A01EB01C12CD12C760147
:1008C000C814D904EA04FB04B4F479908AE07812DD
:1008D00006C06DE0F801808991890E941902672D98
:1008E000F801808991890E941902FFEFCF1ADF0A6F
:1008F000EF0AFF0AE5CFC501B401DF91CF911F9147
:100900000F91FF90EF90DF90CF90BF90AF909F90AE
:100910008F907F900895CB010895CF93DF93EC01E2
:1009200088899989DC01ED91FC910084F185E02DA5
:100930000995892BA9F388899989DC01ED91FC91AE
:100940000284F385E02DDF91CF910994CF93DF935B
:10095000EC0188899989DC01ED91FC910084F18595
:10096000E02D0995892BA9F388899989DC01ED91FE
:10097000FC910484F585E02DDF91CF9109948F924D
:100980009F92AF92BF92CF92DF92EF92FF920F931E
:100990001F93CF93DF938C0149015A01EB01C12CC6
:1009A000D12C7601D80150968D919C91DC01ED916E
:1009B000FC910284F385E02D09958F3F61F0C81406
:1009C000D904EA04FB043CF48993BFEFCB1ADB0A99
:1009D000EB0AFB0AE7CFC701B601DF91CF911F9168
:1009E0000F91FF90EF90DF90CF90BF90AF909F90CE
:1009F0008F900895DC0150968D919C91DC01ED91D2
:100A0000FC910084F185E02D099490E080E0089548
:100A100090E080E0089508950895DC01ED91FC9147
:100A200036970190F081E02DE80FF91F80E791E003
:100A3000918380838AE791E097838683089520E7F6
:100A400031E0FC01318320832AE731E037832683BC
:100A50000895FB0120813181FC0131832083FB015A
:100A60004281538126503109F90120813181820F61
:100A7000931FFC015183408308952CE831E0FC0171
:100A80003183208326E931E0318F208F60E871E0E7
:100A90000C942905DC01ED91FC9136972081318180
:100AA000820F931F0C943D050895DC01ED91FC919C
:100AB00036970190F081E02DE80FF91F8CE591E069
:100AC0009183808386E691E09383828308952CE569
:100AD00031E0FC013183208326E631E03383228339
:100AE0000895FB0120813181FC0131832083FB01CA
:100AF0004281538126503109F90120813181820FD1
:100B0000931FFC0151834083089528EA31E0FC01E2
:100B10003183208322EB31E0358B248B6CE971E04B
:100B20000C947105DC01ED91FC91369720813181A7
:100B3000820F931F0C948505089508951F93CF93FA
:100B4000DF93EC01162F8F8580FF0BC0E881F981C0
:100B50000084F185E02D20E144E070E060E0CE010A
:100B60000995EB85FC85812F90E02D853E85E21768
:100B7000F30758F410832B853C852F5F3F4F3C874C
:100B80002B87DF91CF911F910895E881F981028C25
:100B9000F38DE02DBC01CE01DF91CF911F9109941F
:100BA000E0912B05F0912C0536970190F081E02D16
:100BB000E55DFA4F682F838994890E949E0501960E
:100BC00089F4E0912B05F0912C0536970190F08186
:100BD000E02DE55DFA4F858123893489232B29F0A7
:100BE000826085838BE295E008958360FACF8F92CF
:100BF0009F92AF92BF92CF92DF92EF92FF920F93AC
:100C00001F93CF93DF938C0149015A01EB01C12C53
:100C1000D12C7601C814D904EA04FB0464F4699168
:100C2000C8010E949E05019641F08FEFC81AD80AAC
:100C3000E80AF80AEFCF75016401C701B601DF9138
:100C4000CF911F910F91FF90EF90DF90CF90BF90C9
:100C5000AF909F908F90089590E080E00895CF939B
:100C6000DF93EC010E943D05CE01DF91CF910C9402
:100C7000EC10DC01ED91FC91369720813181820FDF
:100C8000931F0C942F06CF93DF93EC010E948505F0
:100C9000CE01DF91CF910C94EC10DC01ED91FC9131
:100CA000369720813181820F931F0C9443060C9458
:100CB000EC100C94EC10DC01ED91FC913697208146
:100CC0003181820F931F0C9459060C94EC100C94F4
:100CD000EC10DC01ED91FC91369720813181820F7F
:100CE000931F0C9467060C94EC100C94EC104F922C
:100CF0005F926F927F928F929F92AF92BF92CF92AC
:100D0000DF92EF92FF92CF93DF93EC01E0912B05FE
:100D1000F0912C0536970190F081E02DE55DFA4FBA
:100D2000E188F288E114F10401F1D701ED91FC9121
:100D300036970190F081E02DEE0DFF1D8389948997
:100D4000DC01ED91FC910484F585E02D0995019677
:100D500061F4D701ED91FC9136970190F081E02D7F
:100D6000EE0DFF1D858181608583FE0101900020CD
:100D7000E9F73197EC1BFD0B4F01B12CA12CE09151
:100D80002B05F0912C0536970190F081E02DE55D63
:100D9000FA4FC484D584E684F784C818D908EA08D1
:100DA000FB08838194818E709927049729F5260189
:100DB000370114141504160417049CF4B1E04B1AFF
:100DC000510861087108E0912B05F0912C053697C8
:100DD0000190F081E02DE55DFA4F80890E94D005F9
:100DE000E8CFD701C601F7FE03C080E090E0DC0148
:100DF000C81AD90AEA0AFB0AB501A401CE010E9469
:100E0000D700E0912B05F0912C0536970190F081E9
:100E1000E02DE55DFA4F838194818E7099270297CA
:100E2000C1F4E0912B05F0912C0536970190F081EB
:100E3000E02DE55DFA4F1C141D041E041F044CF444
:100E400021E0C21AD108E108F10880890E94D0058A
:100E5000E8CFE0912B05F0912C0536970190F081B9
:100E6000E02DE55DFA4F14861586168617868BE20F
:100E700095E0DF91CF91FF90EF90DF90CF90BF9002
:100E8000AF909F908F907F906F905F904F9008955C
:100E90001F920F920FB60F9211242F933F938F93AF
:100EA0009F93AF93BF938091460390914703A09186
:100EB0004803B09149033091450323E0230F2D37B8
:100EC00058F50196A11DB11D20934503809346035B
:100ED00090934703A0934803B093490380914A033A
:100EE00090914B03A0914C03B0914D030196A11D2D
:100EF000B11D80934A0390934B03A0934C03B0938E
:100F00004D03BF91AF919F918F913F912F910F9082
:100F10000FBE0F901F90189526E8230F0296A11D73
:100F2000B11DD2CF1F920F920FB60F9211242F93A3
:100F30003F934F935F936F937F938F939F93AF9361
:100F4000BF93EF93FF9382E593E00E949E02FF918F
:100F5000EF91BF91AF919F918F917F916F915F9131
:100F60004F913F912F910F900FBE0F901F901895AA
:100F70001F920F920FB60F9211242F938F939F936E
:100F8000EF93FF93E0916203F09163038081E0911E
:100F90006803F091690382FD1BC0908180916B030F
:100FA0008F5F8F7320916C03821741F0E0916B0388
:100FB000F0E0EE5AFC4F958F80936B03FF91EF9119
:100FC0009F918F912F910F900FBE0F901F901895AA
:100FD0008081F4CF1F920F920FB60F9211242F939E
:100FE0003F934F935F936F937F938F939F93AF93B1
:100FF000BF93CF93DF93EF93FF9380914003C09112
:101000001304D0E087FF24C0109285001092840062
:10101000809140038F5F8093400380914003082EAE
:10102000000C990B8C179D0724F4809140038C30A1
:10103000C4F18091840090918500049680349C498D
:1010400008F47AC08091840090918500049676C05F
:1010500080914003082E000C990B8C179D07C4F655
:10106000E09140038E2FEE0F990BFC01EE0FFF1F56
:10107000E80FF91FE151FC4F808186FFC9CFE09155
:1010800040038E2FEE0F990BFC01EE0FFF1FE80FB0
:10109000F91FE151FC4F808160E08F730E944F0186
:1010A000B7CF2091840030918500E09140038E2FCE
:1010B000EE0F990BFC01EE0FFF1FE80FF91FE15136
:1010C000FC4F81819281820F931F909389008093BE
:1010D0008800E09140038E2FEE0F990BFC01EE0F7C
:1010E000FF1FE80FF91FE151FC4F808186FF11C0FF
:1010F000E09140038E2FEE0F990BFC01EE0FFF1FC6
:10110000E80FF91FE151FC4F808161E08F730E946D
:101110004F01FF91EF91DF91CF91BF91AF919F91DF
:101120008F917F916F915F914F913F912F910F9090
:101130000FBE0F901F90189580E49CE99093890052
:10114000809388008FEF80934003E3CFEF92FF926C
:101150000F931F93CF93DF937C01D0E0C0E010E0AA
:1011600000E0F70180819181248135810217130706
:1011700058F48C0F9D1FFC01808191810E94EC101E
:101180000F5F1F4F2796EDCFDF91CF911F910F91EA
:10119000FF90EF900C94EC10FC01808191810C94F5
:1011A000EC1080914704909148040E94EC108091CB
:1011B0004E0490914F040E94EC1080915504909140
:1011C00056040E94EC108CE594E00E94A60883E689
:1011D00094E00E94A6088AE694E00E94CC0881E789
:1011E00094E00E94CC0888E794E00E94CC088FE746
:1011F00094E00E94CC0886E894E00E94CC088DE838
:1012000094E00E94CC0884E994E00E94CC088BE929
:1012100094E00E94CC0882EA94E00E94CC0889EA1B
:1012200094E00E94CC0880EB94E00E94CC0887EB0D
:1012300094E00E94CC088EEB94E00E94CC0885ECF0
:1012400094E00E94CC088CEC94E00E94CC0883EDE2
:1012500094E00E94CC088AED94E00E94CC0881EED4
:1012600094E00E94CC0888EE94E00E94CC088FEEB7
:1012700094E00E94CC0886EF94E00E94CC088DEFA9
:1012800094E00E94CC0884E095E00E94CC088BE0BA
:1012900095E00E94CC0888E195E00E942D038091A2
:1012A0002405909125050E94EC1085E595E00E94AB
:1012B0003D058BE295E00C948505CF93DF93EB0120
:1012C00088819981A5E5B5E011969C938E932A813A
:1012D0003B810697EC01E881F981EB5AFA4F3183A3
:1012E000208312961D921D921D921C92159781E2E9
:1012F00090E0948383838BE595E0948B838B1582B8
:10130000158ADF91CF910895CF93DF93C5E5D5E09E
:1013100081E290E09C8F8B8F1D8E1E8E1F8E86E04B
:1013200090E0A0E0B0E088A399A3AAA3BBA31CA26D
:101330001DA21EA21FA282E391E0998F888F80E2F6
:1013400088A71AA619A61DA68BE595E09CA78BA7D2
:10135000AC0160E871E0CE010E945D098CE891E08B
:101360009983888386E991E0998F888F1A861986F8
:101370001C861B861E861D86188A1F861A8A198A55
:101380001C8A1B8A8AE391E09F838E8382E593E027
:101390009F8B8E8B88E08D8BDF91CF910895DB0141
:1013A0008D919C91119790932C0580932B0512960B
:1013B0002D913C910697DC01ED91FC91E55DFA4F92
:1013C0003183208381E290E0948383838DE295E0F2
:1013D000948B838B1582158A0895CF93DF93CBE28C
:1013E000D5E081E290E0988F8F8B198E1A8E1B8E3C
:1013F00086E090E0A0E0B0E08C8F9D8FAE8FBF8F35
:1014000018A219A21AA21BA282E391E09D8B8C8BD9
:1014100080E28CA31EA21DA219A68DE295E098A7DA
:101420008FA3AC016CE971E0CE010E94CF0988EA7C
:1014300091E09983888382EB91E09D8B8C8B1E8257
:101440001D8218861F821A8619861C861B861E8698
:101450001D86188A1F868AE391E09B838A8382E532
:1014600093E09B8B8A8B80E1898BDF91CF910895EC
:10147000CF92DF92EF92FF920F931F93CF93DF9360
:101480008C017B0188E090E0D80113969C938E93A9
:10149000129715961C921E9214970E9450106C0180
:1014A000E80199838883E70109900020E9F72197F3
:1014B000CE19DF09D1F1C930D10520F1CE0108964E
:1014C000F801938382830E945010D8018D939C93DE
:1014D000F601CF018C199D09D8014D915C911197AE
:1014E00014962D913C918217930748F4DA01A80FC6
:1014F000B91F109711F080818C933196EACFC60105
:101500000E94EC10F80184819581D801ED91FC9145
:101510008C179D0738F4E80FF91F309709F01082F7
:101520000196F3CFF801D583C483F701D8012D913B
:101530003C9140E050E0BA01CE01B0E0A0E0481795
:1015400059076A077B0748F41191E90119939E0135
:101550004F5F5F4F6F4F7F4FF2CFDF91CF911F9162
:101560000F91FF90EF90DF90CF9008950F931F930E
:10157000CF93DF931F92CDB7DEB710925503109231
:10158000540388EE93E0A0E0B0E08093560390937C
:101590005703A0935803B09359038AEB91E09093BB
:1015A00053038093520385EC90E090935F03809304
:1015B0005E0384EC90E0909361038093600380EC81
:1015C00090E0909363038093620381EC90E09093AA
:1015D00065038093640382EC90E0909367038093AB
:1015E000660386EC90E09093690380936803109201
:1015F0006B0310926C0310926D0310926E0362E500
:1016000073E08BE295E00E94ED0962E573E085E509
:1016100095E00E948409109251031092500382E5D4
:1016200093E090934F0380934E036FEB70E08AE951
:1016300090E00E94E90F909351038093500388E05B
:1016400090E090932705809326051092290510922B
:10165000280580E690E00E94501090932505809325
:101660002405109219051092180510921A0510926F
:101670001B0510921C0510921D0510921E0510925C
:101680001F0510922005109221051092220510923C
:101690002305809113048C3008F0ABC191E0980FC2
:1016A000909313048093150590E0FC01EE0FFF1F4B
:1016B000E80FF91FE151FC4F88EB9BE09283818397
:1016C000809113048C3008F098C191E0980F9093AA
:1016D00013048093120590E0FC01EE0FFF1FE80F4A
:1016E000F91FE151FC4F88EB9BE092838183AE01AF
:1016F0004F5F5F4F6CED71E08BE095E00E94380A20
:10170000AE014F5F5F4F65EE71E084E095E00E94AF
:10171000380AAE014F5F5F4F6FEE71E08DEF94E0DE
:101720000E94380AAE014F5F5F4F6BEF71E086EFAA
:1017300094E00E94380AAE014F5F5F4F69E072E0AB
:101740008FEE94E00E94380AAE014F5F5F4F68E170
:1017500072E088EE94E00E94380AAE014F5F5F4F5E
:1017600065E272E081EE94E00E94380AAE014F5FBC
:101770005F4F63E372E08AED94E00E94380AAE01A5
:101780004F5F5F4F63E472E083ED94E00E94380A9C
:10179000AE014F5F5F4F62E572E08CEC94E00E9417
:1017A000380AAE014F5F5F4F62E672E085EC94E06D
:1017B0000E94380AAE014F5F5F4F62E772E08EEB26
:1017C00094E00E94380AAE014F5F5F4F61E872E01B
:1017D00087EB94E00E94380AAE014F5F5F4F6CE8E0
:1017E00072E080EB94E00E94380A08E010E0109369
:1017F000AC040093AB041092AE041092AD0488E0E8
:1018000090E00E9450109093AA048093A904AE0126
:101810004F5F5F4F61EA72E082EA94E00E94380A0B
:10182000AE014F5F5F4F6AEB72E08BE994E00E947C
:10183000380AAE014F5F5F4F65ED72E084E994E0D6
:101840000E94380AAE014F5F5F4F6BEE72E08DE889
:1018500094E00E94380AAE014F5F5F4F6AEF72E07A
:1018600086E894E00E94380AAE014F5F5F4F6DEE4C
:1018700072E08FE794E00E94380AAE014F5F5F4F3D
:1018800062EF72E088E794E00E94380AAE014F5F91
:101890005F4F65EF72E081E794E00E94380AAE0185
:1018A0004F5F5F4F6CEF72E08AE694E00E94380A67
:1018B0001093660400936504109268041092670404
:1018C00088E390E00E945010909364048093630436
:1018D00010935F0400935E04109261041092600400
:1018E00088E390E00E94501090935D0480935C0424
:1018F000109358040093570410925A0410925904FC
:1019000080E690E00E945010909356048093550416
:1019100010935104009350041092530410925204F7
:1019200080E490E00E94501090934F0480934E0406
:1019300010934A040093490410924C0410924B04F3
:1019400080E490E00E9450109093480480934704F4
:101950008CEC91E0909315048093140481E08093C3
:101960002404109223041092220410921E04109258
:101970001F0410922004109221040E940D02609313
:101980001A0470931B0480931C0490931D0424E19B
:1019900034E030932604209325041092160410920C
:1019A0001704109218041092190460931E04709387
:1019B0001F04809320049093210486ED91E090937E
:1019C0001504809314041092460410924504E7E233
:1019D000F4E01192119284E0E534F807D1F70E9407
:1019E0000D020E940D020F90DF91CF911F910F9178
:1019F00008958FEF8093150563CE8FEF80931205C6
:101A000076CECF93DF93CDB7DEB7E8970FB6F894D5
:101A1000DEBF0FBECDBF789484B5826084BD84B52F
:101A2000816084BD85B5826085BD85B5816085BDD9
:101A300080916E00816080936E0010928100809191
:101A40008100826080938100809181008160809319
:101A50008100809180008160809380008091B1003E
:101A600084608093B1008091B00081608093B00069
:101A700080917A00846080937A0080917A008260FD
:101A800080937A0080917A00816080937A008091BF
:101A90007A00806880937A001092C100E09162031E
:101AA000F091630382E08083E0915E03F0915F0335
:101AB0001082E0916003F09161038FEC80831092BB
:101AC0006A03E0916603F091670386E08083E0910A
:101AD0006403F0916503808180618083E0916403F9
:101AE000F0916503808188608083E0916403F091C8
:101AF0006503808180688083E0916403F0916503D1
:101B000080818F7D80836CE271E080E090E00E94B4
:101B1000C00183EF92E00E9477068EEB94E00E9472
:101B200027018DE00E94300161E08DE00E944F01AD
:101B300087EB94E00E94270160E08DE00E944F0156
:101B400061E08DE00E944F018CE0E8E1F5E0DE010C
:101B50009D9601900D928A95E1F78CE0FE01BD966D
:101B6000DE01919601900D928A95E1F70E940D0297
:101B70006B017C0189A19AA1009709F4DAC125EAD9
:101B8000298320E52A83DC01ED91FC910280F38119
:101B9000E02D42E050E0BE016F5F7F4F09950E944B
:101BA0000D024B015C0110E00E940D0268197909D9
:101BB0008A099B09653671058105910508F0B4C154
:101BC00089A19AA1DC01ED91FC910284F385E02DBD
:101BD000099597FDE9CF112309F49CC1113009F44F
:101BE0009EC191E0910FE5E1F0E0EC0FFD1FE10FE8
:101BF000F11D8083973009F08BC180E090E0DC011B
:101C0000B7FD36C08B8D843009F098C18F89988DCF
:101C1000A98D2A8DB22FBF734497A105B10508F491
:101C20008DC18E010F5F1F4F5E01B5E1AB0EB11C80
:101C30000E940D026C197D098E099F096536710598
:101C40008105910508F07EC189A19AA1DC01ED9181
:101C5000FC910284F385E02D099597FDE9CFF80109
:101C600081938F01EA15FB0519F780E090E0DC0114
:101C7000B7FD6DC110924203109241030AE010E0DB
:101C800086E894E00E9427016AE070E080E090E03E
:101C90000E94C0010150110999F7CE0181960E945E
:101CA0002D03CE018D960E942D0360E08DE00E94F1
:101CB0004F0161E08DE00E944F01809115059091E8
:101CC0001605A091170589839A83AB83809112052D
:101CD00090911305A09114058C839D83AE838EE1B2
:101CE00090E00E9450108C01892B39F089819A81F3
:101CF000AB81F80180839183A2830D3FFFEF1F0723
:101D000039F08C819D81AE81F80183839483A58312
:101D1000D12CC12CD801C114D10409F030C1EC90F0
:101D2000BBE0BE1578F181E00E943001F12C570133
:101D3000AA0CBB1CF501EE0DFF1DE151FC4F80818B
:101D4000807C81608083F8011182128290E080E0C3
:101D5000FC01EE0FFF1FE80FF91FE151FC4F20813E
:101D600026FD08C001968C30910591F790E080E047
:101D70000E945C03F501EE0DFF1DE151FC4F8081D7
:101D8000806480838AE0E82EF12C86E894E00E944B
:101D900027016AE070E080E090E00E94C001F1E07D
:101DA000EF1AF10891F7CA94CD2809F0E4C0C801F0
:101DB0000E94EC1060E08DE00E944F0161E08DE038
:101DC0000E944F01109244031092430380914103FB
:101DD00090914203892BA1F486E894E00E942701A8
:101DE0006AE070E080E090E00E94C00186E894E044
:101DF0000E9427016AE070E080E090E00E94C0014C
:101E000060E08DE00E944F0186E393E00E94770638
:101E100061E08DE00E944F018BE994E00E94270170
:101E200060E08DE00E944F0161E08DE00E944F0173
:101E300080EB94E00E94270160E08DE00E944F015A
:101E400061E08DE00E944F0188E090E00E94F30184
:101E500060E08DE00E944F0161E08DE00E944F0143
:101E600088E090E00E94F30160E08DE00E944F0165
:101E700061E08DE00E944F0188E090E00E94F30154
:101E800060E08DE00E944F0161E08DE00E944F0113
:101E900088E090E00E94F30160E08DE00E944F0135
:101EA00061E08DE00E944F0188E090E00E94F30124
:101EB00060E08DE00E944F0161E08DE00E944F01E3
:101EC0008AE090E00E94F30160E08DE00E944F0103
:101ED00086E393E00E94770661E08DE00E944F0167
:101EE00084E994E00E94270160E08DE00E944F01A8
:101EF00082EA94E00E94270100E010E0011511053C
:101F0000E9F30E948A028823C9F30E940000F6CFF9
:101F1000192F4ACE853A910509F463CE45CE8A350C
:101F2000910509F45ECE3FCE82E090E8A0E0B0E8F3
:101F300067CE81E090E8A0E0B0E89ACE80E090E83B
:101F4000DC0196CE82E090E8A0E0B0E891CE81E09E
:101F500090E090934203809341038CE0FE01B196A0
:101F6000DE01559601900D928A95E1F7CE014596D6
:101F70000E942D0383CECC24C394D12CCBCE1396B8
:101F8000EC90BBE0BE1508F4FDCE82E00E9430016B
:101F9000F12C5701AA0CBB1CF501EE0DFF1DE15100
:101FA000FC4F8081807C82608083F80114821582DE
:101FB00090E080E0FC01EE0FFF1FE80FF91FE151F8
:101FC000FC4F208126FDD6CE01968C30910591F7ED
:101FD000CDCE0F931F93CF93DF93009759F46115E4
:101FE000710541F4F0E0E0E0CF01DF91CF911F9166
:101FF0000F9108958B01EC016EE070E081E090E0BC
:102000000E943410FC01892B69F380E88383011559
:10201000110571F01387028781E88383809183051E
:1020200090918405892B21F4F0938405E093830536
:102030002097D1F2D187C08783818260838380918A
:10204000850590918605892B79F6F0938605E093B6
:1020500085058091870590918805892B29F6F09355
:102060008805E0938705C0CF0F931F93CF93DF932D
:10207000869F8001879F100D969F100D1124C80127
:102080000E945010EC01009729F0A80170E060E078
:102090000E947511CE01DF91CF911F910F9108958C
:1020A0000F931F93CF93DF938230910510F482E05A
:1020B00090E0E0918B05F0918C0530E020E0B0E0FD
:1020C000A0E0309799F42115310509F44AC0281B86
:1020D000390B24303105D8F58A819B816115710552
:1020E00089F1FB0193838283FE0111C040815181FC
:1020F0000281138148175907E0F04817590799F4EE
:10210000109761F012960C93129713961C933296C7
:10211000CF01DF91CF911F910F91089500938B050F
:1021200010938C05F4CF2115310551F04217530758
:1021300038F0A901DB019A01BD01DF01F801C1CF2F
:10214000EF01F9CF90938C0580938B05CDCFFE01E5
:10215000E20FF31F81939193225031093983288331
:10216000D7CF2091890530918A05232B41F4209106
:1021700002013091030130938A0520938905209153
:102180000001309101012115310541F42DB73EB711
:102190004091040150910501241B350BE091890504
:1021A000F0918A05E217F307A0F42E1B3F0B2817C6
:1021B000390778F0AC014E5F5F4F2417350748F0C0
:1021C0004E0F5F1F50938A05409389058193919329
:1021D0009FCFF0E0E0E09CCFCF93DF930097E9F052
:1021E000FC01329713821282A0918B05B0918C056D
:1021F000ED0130E020E01097A1F420813181820FC1
:10220000931F2091890530918A052817390709F015
:1022100061C0F0938A05E0938905DF91CF9108951D
:10222000EA01CE17DF07E8F54A815B819E0141157F
:102230005105B1F7E901FB83EA8349915991C40F34
:10224000D51FEC17FD0761F4808191810296840F00
:10225000951FE90199838883828193819B838A8377
:10226000F0E0E0E012968D919C9113970097B9F5FC
:102270002D913C911197CD010296820F931F2091D1
:10228000890530918A052817390739F6309751F5B5
:1022900010928C0510928B05B0938A05A093890546
:1022A000BCCFD383C28340815181840F951FC8174F
:1022B000D90761F44E5F5F4F88819981480F591F9C
:1022C000518340838A819B819383828321153105C9
:1022D00009F0B0CFF0938C05E0938B059ECFFD0104
:1022E000DC01C0CF13821282D7CFDC0101C06D9315
:1022F00041505040E0F70895EE0FFF1F0590F49114
:10230000E02D099410E0CDE5D0E004C0FE010E946C
:0E2310007C112196CE35D107C9F7F894FFCF86
:10231E0000008D0580001800000000000000000085
:10232E00E8FFE8FF000000000000140000000000BD
:10233E0000000000ECFFECFF0000000000000000B9
:10234E0000009C05730600000000540565060B0591
:10235E0008052C0605052504FA04BF04A6048D0401
:10236E008B044C0428040200000000006705670679
:10237E00FEFFFEFF00005505690606000000000086
:10238E001F055906FAFFFAFF00000D055B068C01CA
:10239E000C01160196011800000000003D052F06E5
:1023AE00E8FFE8FF00004A053906A80120012A01CE
:1023BE00B20114000000000085054306ECFFECFF9F
:1023CE00000092054D0600000000C00220024D02E2
:1023DE000D037E025C027002000000008800F8030C
:1023EE00D503000000008800F8036E034875623ABA
:1023FE00204F4B0A004875623A204552520A00425D
:10240E006F6F74696E672048756200536572766FE0
:10241E00206D313A204F4B0A00536572766F206D56
:10242E00313A204552520A00536572766F206D3252
:10243E003A4F4B0A00536572766F206D323A455211
:10244E00520A00426F6F74696E6720536572766F21
:10245E00206D0052504C69646172206C3A204F4BD3
:10246E000A0052504C69646172206C3A20455252F7
:10247E000A00426F6F74696E672052504C69646136
:10248E0072005345545550202F2F2F2F2F2F2F0AC8
:10249E0000426F6F74696E67207C200043616C632D
:1024AE00756C6174696E6720526F757465207C203F
:1024BE0000534554555020436F6D706C65746564C0
:1024CE00202F2F2F2F2F2F2F0A00426F6F74696E20
:1024DE006720436F6D706C65746564202F2F2F2FEE
:1024EE002F2F2F0A00526F75746520466F756E641C
:1024FE0021202F2F2F2F2F2F2F0A0058002E2E2E58
:10250E000A00210A005469636B2023003020332E09
:10251E003220352E3625332E322030203025352EE2
:10252E003620302030257C3020333020302533309B
:10253E0020302030253020302030257C33302034A0
:10254E00302030257C00207C2031303025200000CA
:00000001FF
