:100000000C945E000C9486000C9486000C94860080
:100010000C9486000C9486000C9486000C94860048
:100020000C9486000C9486000C9486000C94600F4F
:100030000C9486000C9486000C9486000C94860028
:100040000C94BE0E0C9486000C942E0F0C94080F8A
:100050000C9486000C9486000C9486000C94860008
:100060000C9486000C9486000000000024002700F9
:100070002A0000000000250028002B0004040404CE
:100080000404040402020202020203030303030342
:10009000010204081020408001020408102001021F
:1000A00004081020000000080002010000030407FB
:1000B00000000000000000009711851611241FBEEB
:1000C000CFEFD8E0DEBFCDBF13E0A0E0B1E0EAE9BA
:1000D000F1E302C005900D92A431B107D9F725E0F4
:1000E000A4E1B3E001C01D92AA37B207E1F710E026
:1000F000CDE5D0E004C02197FE010E94B118CC35B7
:10010000D107C9F70E94DD130C94C0180C940000AD
:10011000FC01428353836483758386819781A08524
:10012000B185840F951FA61FB71F82879387A48769
:10013000B58708951F93CF93DF93182FC0912403A1
:10014000D09125038A3041F4E881F9810190F08152
:10015000E02D6DE0CE010995E881F9810190F081F3
:10016000E02D612FCE01099521E030E0019711F4D7
:1001700030E020E0C901DF91CF911F910895CF9326
:10018000DF93C0912403D0912503E881F981008495
:10019000F185E02DCE010995892BB9F3E881F9812C
:1001A0000284F385E02DCE01DF91CF91099490E098
:1001B000FC01EC55FF4F2491FC01E057FF4F3491B7
:1001C000FC01E458FF4FE491EE23C9F0222339F0FB
:1001D000233001F1A8F4213019F1223029F1F0E0A7
:1001E000EE0FFF1FEE58FF4FA591B4918FB7F89413
:1001F000EC91611126C030953E233C938FBF08954A
:100200002730A9F02830C9F0243049F780918000C8
:100210008F7D03C0809180008F7780938000DFCF37
:1002200084B58F7784BDDBCF84B58F7DFBCF809184
:10023000B0008F778093B000D2CF8091B0008F7DD7
:10024000F9CF3E2BDACF3FB7F894809120039091FD
:100250002103A0912203B091230326B5A89B05C0DA
:100260002F3F19F00196A11DB11D3FBFBA2FA92F35
:10027000982F8827BC01CD01620F711D811D911D32
:1002800042E0660F771F881F991F4A95D1F708959E
:100290008F929F92AF92BF92CF92DF92EF92FF9296
:1002A0006B017C010E9423014B015C01C114D1044C
:1002B000E104F104B9F00E942301681979098A095F
:1002C0009B09683E73408105910580F321E0C21AC5
:1002D000D108E108F10888EE880E83E0981EA11C81
:1002E000B11CE4CFFF90EF90DF90CF90BF90AF9024
:1002F0009F908F9008952FB7F89460911C03709190
:100300001D0380911E0390911F032FBF0895DC01F0
:10031000ED91FC910190F081E02D0994AF92BF9294
:10032000CF92DF92EF92FF920F931F93CF93DF93C1
:100330006C017B018B01040F151FEB015E01AE18F0
:10034000BF08C017D10759F06991D601ED91FC9112
:100350000190F081E02DC6010995892B79F7C5013F
:10036000DF91CF911F910F91FF90EF90DF90CF9091
:10037000BF90AF900895FC01538D448D252F30E040
:10038000842F90E0821B930B541710F0CF960895A2
:1003900001970895FC01918D828D981761F0A28DCF
:1003A000AE0FBF2FB11D5D968C91928D9F5F9F7395
:1003B000928F90E008958FEF9FEF0895FC01918D4B
:1003C000828D981731F0828DE80FF11D858D90E0B8
:1003D00008958FEF9FEF0895FC01918D228D892F55
:1003E00090E0805C9F4F821B91098F73992708953D
:1003F00088E293E00E94EC0121E0892B09F420E0DF
:10040000822F089580E090E0892B29F00E94F80166
:1004100081110C9400000895FC01A48DA80FB92F40
:10042000B11DA35ABF4F2C91848D90E001968F731C
:100430009927848FA689B7892C93A089B1898C913B
:10044000837080648C93938D848D981306C002888A
:10045000F389E02D80818F7D80830895EF92FF9254
:100460000F931F93CF93DF93EC0181E0888F9B8DD7
:100470008C8D98131AC0E889F989808185FF15C091
:100480009FB7F894EE89FF896083E889F9898081B4
:100490008370806480839FBF81E090E0DF91CF9183
:1004A0001F910F91FF90EF900895F62E0B8D10E0A5
:1004B0000F5F1F4F0F731127E02E8C8D8E110CC014
:1004C0000FB607FCFACFE889F989808185FFF5CF5F
:1004D000CE010E940C02F1CFEB8DEC0FFD2FF11D30
:1004E000E35AFF4FF0829FB7F8940B8FEA89FB899C
:1004F00080818062CFCFCF93DF93EC01888D8823FA
:10050000B9F0AA89BB89E889F9898C9185FD03C076
:10051000808186FD0DC00FB607FCF7CF8C9185FF5B
:10052000F2CF808185FFEDCFCE010E940C02E9CF92
:10053000DF91CF9108950F931F93CF93DF93FC0129
:10054000C081D181209709F18C01E881F981068071
:10055000F781E02DCE010995EA89FB8980818F7EA4
:100560008083EA89FB898081877F8083EA89FB8990
:1005700080818F778083EA89FB8980818F7D80836A
:100580008A8D898FF80111821082DF91CF911F919E
:100590000F9108958EBD00000DB407FEFDCF8EB5FE
:1005A0000895CF93DF93EC010E947B01C60FD71F04
:1005B0008FEF0E94CA028F3F59F00E947B01CE014B
:1005C000861B970B97FFF4CF80E0DF91CF910895C2
:1005D00081E0FBCFCF93DF93FC012781222349F0F9
:1005E000EC0161E085810E94D7008FEF0E94CA0272
:1005F0001F82DF91CF9108951F93CF93DF93EC017A
:1006000088E592E00E94D102182F882361F08DEFD7
:100610000E94CA02CE010E94EA021886812FDF9151
:10062000CF911F9108958FE18E83CE010E94EA023F
:10063000F5CF0F931F93CF93DF938C01862FEA01A1
:100640000E94CA02FE0181918EBDDE5FEC17FD079C
:1006500041F08191000000000DB407FEFDCF8EBD7A
:10066000F5CF0DB407FEFDCF8FEF0E94CA028FEFCA
:100670000E94CA028FEF0E94CA02F80181878F711F
:10068000853059F081E28683C8010E94EA0280E049
:10069000DF91CF911F910F91089581E0F9CFDF9203
:1006A000EF92FF920F931F93CF93DF93EC01162FDE
:1006B000022FF32EE42ED52E0E947B05882309F409
:1006C00041C08F8181110DC09A818B819CBD8DBDF0
:1006D00081E08F8360E08D810E94D7008FEF0E94C0
:1006E000CA021C3031F08CE291E00E94D1028823D2
:1006F00049F1812F80640E94CA028D2D0E94CA0296
:100700008E2D0E94CA028F2D0E94CA02802F0E9445
:10071000CA0287E80E94CA028FEF0E94CA020AE05A
:1007200010E08FEF0E94CA02898787FF03C0015043
:100730001109B9F7DF91CF911F910F91FF90EF90C1
:10074000DF9008958FEFF6CFAF92BF92CF92DF92F6
:10075000EF92FF921F93CF93DF93EC016A017B012D
:1007600059011F85112309F45EC08885823049F440
:100770008B859C85AD85BE85C816D906EA06FB0625
:1007800049F18A85A7019601833039F099E0220F5B
:10079000331F441F551F9A95D1F769E1CE010E947E
:1007A0004F03882389F08EE08E83CE010E94EA02F7
:1007B00010E0812FDF91CF911F91FF90EF90DF909C
:1007C000CF90BF90AF90089582E08887CB86DC867B
:1007D000ED86FE8688E592E00E94D102811102C07A
:1007E00085E2E2CFA5016CEFCE010E9419038823B8
:1007F000E1F28B859C85AD85BE850196A11DB11D5D
:100800008B879C87AD87BE871F851111D2CFCE0104
:10081000DF91CF911F91FF90EF90DF90CF90BF902D
:10082000AF900C94FC028A85833039F089E0CC0CBF
:10083000DD1CEE1CFF1C8A95D1F7A701960168E12B
:10084000CE010E944F03882331F08DE08E83CE01CC
:100850000E94EA02AECFA5016EEFCE010E941903FD
:100860008823A9F388E592E00E94D102F82E84E261
:10087000FF2061F320E030E0A9016DE0CE010E948D
:100880004F03882311F08AE0E1CF8FEF0E94CA0264
:100890008111F9CFCE010E94EA021F2D8ACFEF927B
:1008A000FF921F93CF93DF93FC01208111E020FF83
:1008B00012C0EC017C01FBE0EF0EF11C4F8158856A
:1008C00069857A85970189819A810E94A403182FEE
:1008D000811108C010E0812FDF91CF911F91FF900F
:1008E000EF900895888181FD04C088818E7F888380
:1008F000F2CF4F81588569857A858B819C81AD8146
:10090000BE81480F591F6A1F7B1F970189819A81F9
:100910000E94A4038111E9CFDDCFCF93DF93EC01D7
:10092000188620E030E0A9016CE00E944F03882384
:1009300049F089E08E83CE010E94EA0280E0DF91D7
:10094000CF910895CE010E94EA0281E0F8CFCF92C4
:10095000DF92EF92FF920F931F93CF93DF93EC01FF
:100960006A017B0189018885813049F48B859C85EA
:10097000AD85BE858C159D05AE05BF0539F18A850F
:10098000A7019601833039F089E0220F331F441FFD
:10099000551F8A95D1F762E1CE010E944F0388234B
:1009A00079F08CE08E83CE010E94EA0280E0DF9134
:1009B000CF911F910F91FF90EF90DF90CF9008950E
:1009C00081E08887CB86DC86ED86FE860E947B01EF
:1009D0007B0124EDE21A2EEFF20A8FEF0E94CA0289
:1009E00089878F3F49F40E947B01C701861B970BC3
:1009F00097FFF3CF8EE1D6CF8E3F11F089E1D2CFB2
:100A00008FEF8EBDF801D801A150BE4F9FEFEA17BE
:100A1000FB0749F0000000000DB407FEFDCF8EB5C6
:100A20009EBD8193F4CF0DB407FEFDCF8EB58C93A0
:100A300019868FEF0E94CA028FEF0E94CA028B852F
:100A40009C85AD85BE850196A11DB11D8B879C87B8
:100A5000AD87BE878F858111AACFCE01DF91CF915F
:100A60001F910F91FF90EF90DF90CF900C948D0429
:100A7000CF92DF92EF92FF921F93CF93DF93DC012F
:100A80001196ED91FC91EF2B51F490E080E0DF9115
:100A9000CF911F91FF90EF90DF90CF900895122F8C
:100AA0006A017B01EC018F819885A985BA858C1537
:100AB0009D05AE05BF0561F0CE010E944F0488235D
:100AC00021F312FF0CC01882CF82D886E986FA86FD
:100AD00013702881122B1883CE010B96D8CF9E015C
:100AE000255F3F4FB701A60189819A810E94A70423
:100AF0008111E9CFCACFFC012085223011F40C947A
:100B0000FC02213011F40C948D0481E008958F9241
:100B10009F92AF92BF92CF92DF92EF92FF920F938C
:100B20001F93423051056105710560F480E01F910B
:100B30000F91FF90EF90DF90CF90BF90AF909F907C
:100B40008F900895FC01C08CD18CE28CF38CC4167C
:100B5000D506E606F70650F3480159016A0185817A
:100B6000803229F584899589A689B78917E0769519
:100B70006795579547951A95D1F7480F591F6A1FE2
:100B80007B1F23E0CF0180960E943805009771F209
:100B9000CC0CDD1CCC0CDD1CF1E0DF228C0D9D1D8E
:100BA000FC0180829182A282B38281E0C0CF803139
:100BB00009F0BCCF44895589668977894D0D511D4F
:100BC000611D711D23E0CF0180960E9438050097BA
:100BD00009F4ACCFCC0CDD1CF1E0DF22C80ED91E2D
:100BE000F60111830083E1CFCF92DF92EF92FF9263
:100BF0000F931F93CF93DF93423051056105710529
:100C000050F48FEFDF91CF911F910F91FF90EF90F4
:100C1000DF90CF900895FC01C08CD18CE28CF38CD6
:100C2000C416D506E606F70660F389016A01EC01F1
:100C30008581803299F584899589A689B789E7E00D
:100C40007695679557954795EA95D1F7480F591FBF
:100C50006A1F7B1F22E0CE0180960E943805009714
:100C600081F2CC0CDD1CCC0CDD1CF1E0DF228C0D04
:100C70009D1DFC0180819181A281B381488D598D98
:100C80006A8D7B8D481759076A077B0730F1F80199
:100C900080839183A283B38381E0B4CF803109F054
:100CA000B0CF44895589668977894D0D511D611DE5
:100CB000711D22E0CF0180960E943805009709F44B
:100CC000A0CFCC0CDD1CF1E0DF22C80ED91EF6014E
:100CD00080819181B0E0A0E0D1CF80E093CF3F92BE
:100CE0004F925F926F927F928F929F92AF92BF923C
:100CF000CF92DF92EF92FF920F931F93CF93DF93E8
:100D000000D000D0CDB7DEB75C01FC01448455842F
:100D10006684778486809780F401C084D184E284DD
:100D2000F384C414D504E604F704C0F4730162012B
:100D300010E0FFEFCF1ADF0AEF0AFF0AF401808DFF
:100D4000918DA28DB38D8C159D05AE05BF0540F428
:100D5000111132C0C084D184E284F38411E0E9CF60
:100D60004C145D046E047F0439F19E012F5F3F4FE8
:100D7000B701A601C4010E94F40587FD1DC08823A8
:100D8000C1F289819A81AB81BC81892B8A2B8B2B03
:100D900081F6112329F0F401C086D186E286F3861C
:100DA0000FEF1FEF2FEF3FE0B701A601C4010E9434
:100DB0008705382E811118C0312C832D0F900F908C
:100DC0000F900F90DF91CF911F910F91FF90EF90B7
:100DD000DF90CF90BF90AF909F908F907F906F905B
:100DE0005F904F903F900895411451046104710445
:100DF000B9F4F501C486D586E686F786828141146A
:100E0000510461047104B1F0FFEF4F1A5F0A6F0AD9
:100E10007F0A4C145D046E047F0479F08F7B0BC055
:100E200097018601B301A201C4010E9487058111C7
:100E3000E0CFC2CF8064F5018283F50182818068B2
:100E40008283BBCF8F929F92AF92BF92CF92DF925D
:100E5000EF92FF920F931F93CF93DF93EC01EE85F8
:100E6000FF85309709F009950E947B014B015C01D9
:100E70008E010D5E1F4F6E0121E3C20ED11CF12CBD
:100E8000E12C89A99AA98E159F0514F1D8018D919D
:100E90009D918D010097C9F0BFEFEB1AFB0ADC01B1
:100EA000ED91FC910280F381E02DB501A40109953B
:100EB000882359F0F801329780819181DC01ED910E
:100EC000FC910480F581E02D0995C016D106C9F684
:100ED0000E947B016E837F83888799870A811B81AB
:100EE0002C813D81DC01CB01800F911FA21FB31F1C
:100EF0008A879B87AC87BD87DF91CF911F910F9128
:100F0000FF90EF90DF90CF90BF90AF909F908F9029
:100F100008950F931F93CF93DF93EC01EE85FF8528
:100F2000309709F009950E947B016E837F83888743
:100F300099870A811B812C813D81DC01CB01800FC7
:100F4000911FA21FB31F8A879B87AC87BD87DF9144
:100F5000CF911F910F9108950F931F93FC0102856C
:100F6000138524853585401B510B620B730B80E084
:100F700077FF80891F910F910895CF93DF93EC0144
:100F8000E881F9810288F389E02D09958F3F980760
:100F900031F02D813E812F5F3F4F3E832D83DF91C6
:100FA000CF9108958FEF9FEF089560E070E0CB013F
:100FB000089590E080E00895FF920F931F93CF93E0
:100FC000DF938C01EB016F3F7607B9F0F62EEAE074
:100FD0006E1306C06DE0F801808991890E94870137
:100FE0006F2DF801808991890E948701CE01DF91E0
:100FF000CF911F910F91FF900895D0E0C0E0F6CF00
:101000007F928F929F92AF92BF92CF92DF92EF9298
:10101000FF920F931F93CF93DF938C0149015A01E5
:10102000EB01C12CD12C7601C814D904EA04FB04CD
:10103000B4F479908AE0781206C06DE0F8018089F6
:1010400091890E948701672DF801808991890E940A
:101050008701FFEFCF1ADF0AEF0AFF0AE5CFC501CC
:10106000B401DF91CF911F910F91FF90EF90DF902E
:10107000CF90BF90AF909F908F907F900895CB01BD
:101080000895CF93DF93EC0188899989DC01ED9174
:10109000FC910084F185E02D0995892BA9F38889BD
:1010A0009989DC01ED91FC910284F385E02DDF91BB
:1010B000CF910994CF93DF93EC0188899989DC0162
:1010C000ED91FC910084F185E02D0995892BA9F320
:1010D00088899989DC01ED91FC910484F585E02DE6
:1010E000DF91CF9109948F929F92AF92BF92CF924E
:1010F000DF92EF92FF920F931F93CF93DF938C01B8
:1011000049015A01EB01C12CD12C7601D80150962E
:101110008D919C91DC01ED91FC910284F385E02D91
:1011200009958F3F61F0C814D904EA04FB043CF42C
:101130008993BFEFCB1ADB0AEB0AFB0AE7CFC701A3
:10114000B601DF91CF911F910F91FF90EF90DF904B
:10115000CF90BF90AF909F908F900895DC015096F4
:101160008D919C91DC01ED91FC910084F185E02D45
:10117000099490E080E0089590E080E0089508955B
:101180000895DC01ED91FC9136970190F081E02DFE
:10119000E80FF91F80E791E0918380838AE791E06F
:1011A00097838683089520E731E0FC013183208313
:1011B0002AE731E0378326830895FB0120813181BE
:1011C000FC0131832083FB01428153812650310988
:1011D000F90120813181820F931FFC0151834083EB
:1011E00008952CE831E0FC013183208326E931E0C9
:1011F000318F208F60E871E00C94DD08DC01ED9107
:10120000FC91369720813181820F931F0C94F10855
:101210000895DC01ED91FC9136970190F081E02D6D
:10122000E80FF91F8CE591E09183808386E691E0D9
:101230009383828308952CE531E0FC013183208380
:1012400026E631E0338322830895FB01208131813A
:10125000FC0131832083FB014281538126503109F7
:10126000F90120813181820F931FFC01518340835A
:10127000089528EA31E0FC013183208322EB31E03C
:10128000358B248B6CE971E00C942509DC01ED9120
:10129000FC91369720813181820F931F0C9439097C
:1012A00008950895FC01848583FF17C084A195A14A
:1012B000A6A1B7A1448D558D668D778D841B950BA6
:1012C000A60BB70B811520E89207A105B10520F008
:1012D0008FEF9FE7A0E0B0E0089580E090E0DC01B0
:1012E000F1CF0F931F93CF93DF93FC01248522232B
:1012F00099F0EC01868587FF3DC040A151A162A114
:1013000073A18289938921E080960E943805009715
:1013100041F48D8581608D87DF91CF911F910F9171
:101320000895E889F989EF70FF2725E0EE0FFF1F88
:101330002A95E1F7E80FF91F309759F38081853E30
:1013400041F38C85877383878C8583FF08C08CA1CC
:101350009DA1AEA1BFA1848F958FA68FB78F88A5C1
:1013600099A5AAA5BBA5938F828FB58BA48B8E85DB
:101370008F778E870A891B89C80180960E944F0447
:10138000882339F2F801808191810E947B058823AE
:1013900009F4BFCFC1CF1F93CF93DF93EC01162F7A
:1013A0008F8580FF0BC0E881F9810084F185E02DF5
:1013B00020E144E070E060E0CE010995EB85FC851A
:1013C000812F90E02D853E85E217F30758F41083B6
:1013D0002B853C852F5F3F4F3C872B87DF91CF913B
:1013E0001F910895E881F981028CF38DE02DBC01F5
:1013F000CE01DF91CF911F910994E0911805F091F2
:10140000190536970190F081E02DE85EFA4F682FBC
:10141000838994890E94CB09019689F4E09118058B
:10142000F091190536970190F081E02DE85EFA4FB2
:10143000858123893489232B29F08260858388E183
:1014400095E008958360FACF8F929F92AF92BF92FA
:10145000CF92DF92EF92FF920F931F93CF93DF9380
:101460008C0149015A01EB01C12CD12C7601C81421
:10147000D904EA04FB0464F46991C8010E94CB0911
:10148000019641F08FEFC81AD80AE80AF80AEFCFA0
:1014900075016401C701B601DF91CF911F910F91D2
:1014A000FF90EF90DF90CF90BF90AF909F908F9084
:1014B000089590E080E008958F929F92AF92BF923E
:1014C000EF92FF920F931F93CF93DF93EC017B0179
:1014D00049015A01E881F98136970190F081E02DA8
:1014E000E80FF91F03891489D8011F968C911F9763
:1014F00080FF0BC0ED91FC910084F185E02D20E18F
:1015000044E070E060E0C8010995D801ED91FC91DC
:10151000008CF18DE02DA5019401B701C80109955A
:101520006F3F7F4F79F4E881F98136970190F08120
:10153000E02DEC0FFD1F858123893489232B71F069
:1015400082608583CE01DF91CF911F910F91FF9033
:10155000EF90BF90AF909F908F9008958360F1CFF0
:10156000FB012481358150E040E0608171810C9461
:101570005C0ACF93DF93EC010E943909CE01DF9121
:10158000CF910C942118DC01ED91FC9136972081CC
:101590003181820F931F0C94B90ACF93DF93EC0132
:1015A0000E94F108CE01DF91CF910C942118DC014B
:1015B000ED91FC91369720813181820F931F0C941D
:1015C000CD0A0C9421180C942118DC01ED91FC91AA
:1015D000369720813181820F931F0C94E30A0C947B
:1015E00021180C942118DC01ED91FC913697208193
:1015F0003181820F931F0C94F10A0C9421180C94E2
:1016000021188F929F92AF92BF92CF92DF92EF926A
:10161000FF920F931F93CF93DF93EC017B013A81ED
:1016200030FFCAC0288188889988AA88BB88422F41
:101630004870C42E23FF22C0888D998DAA8DBB8D42
:1016400088199909AA09BB0982309105A105B1053C
:1016500020F5009711F530E020E0A901481B590B57
:10166000CA01DF91CF911F910F91FF90EF90DF9012
:10167000CF90BF90AF909F908F90089526FF0DC0A0
:10168000EE81FF818681978145E0880F991F4A95F9
:10169000E1F78815990509F495C0EE81FF81840171
:1016A0001170B501A40189E0769567955795479526
:1016B0008A95D1F726FF27C0848D958DA68DB78D8D
:1016C000480F591F6A1F7B1F8E819F8120E08096E3
:1016D0000E943805009709F46FC0800F911FFC012C
:1016E0008081F701808388899989AA89BB890196BD
:1016F000A11DB11D888B998BAA8BBB8B21E030E09B
:1017000090E080E0AACFD380D4220115110581F4A6
:10171000D1100EC089288A288B2881F527FF29C07F
:10172000848D958DA68DB78D8C879D87AE87BF875D
:10173000EE81FF814C855D856E857F854250510924
:1017400061097109848104C0440F551F661F771F0A
:101750008A95D2F780899189A289B389840F951FD0
:10176000A61FB71FAC01BD014D0D511D611D711D9F
:10177000ABCF8C8D9D8DAE8DBF8DD6CF4C855D85CD
:101780006E857F85CC2059F036FF09C04F5F5F4FD3
:101790006F4F7F4F4C875D876E877F87C9CF9E01D4
:1017A000245F3F4FCF010E94F40587FD05C08111E2
:1017B000BFCF8881807D49F48981826089838FEFE2
:1017C0009FEF4FCF30E020E09BCF21E030E081E081
:1017D00090E043CF8F929F92AF92BF92CF92DF92D1
:1017E000EF92FF920F931F93CF93DF931F92CDB78A
:1017F000DEB78C01FC01848C958CA68CB78CC08CD8
:10180000D18CE28CF38CBE016F5F7F4F0C960E94EF
:10181000010B0197C9F4898190E0F801848E958EBF
:10182000A68EB78EC08ED18EE28EF38E0F90DF9192
:10183000CF911F910F91FF90EF90DF90CF90BF90CD
:10184000AF909F908F9008958FEF9FEFE6CFCF934B
:10185000DF931F92CDB7DEB7BE016F5F7F4F0C964F
:101860000E94010B019731F4898190E00F90DF9184
:10187000CF9108958FEF9FEFF9CF2F923F924F9224
:101880005F926F927F928F929F92AF92BF92CF9210
:10189000DF92EF92FF920F931F93CF93DF93CDB719
:1018A000DEB728970FB6F894DEBF0FBECDBF98877E
:1018B0008F831B015C834B83DC0112968C91129702
:1018C00081FF05C183FF2FC01C964D905D906D90E8
:1018D0007C901F972C91222309F4F1C058968D908B
:1018E0009D90AD90BC905B9750964D915D916D91A0
:1018F0007C91539784169506A606B706A1F081142D
:101900009104A104B10409F0C2C0FD01148615863A
:1019100016861786EF81F885808A918AA28AB38A13
:1019200082818F7D8283EB81FC81AF0170E060E07A
:10193000EF81F88580899189A289B38980959095F6
:10194000A095B09584179507A607B70708F4BFC000
:10195000CB80DC8000E012E03C96FE83ED83AF811B
:10196000B88550968D909D90AD90BC905397C114C2
:10197000D10409F452C116968D919C911797FC01E0
:10198000F380B501A40129E07695679557954795B1
:101990002A95D1F7F422940131703A832983F1100A
:1019A0002AC01C964D915D916D917C911F97232BC0
:1019B00009F060C1411551056105710509F409C1BE
:1019C00012962C91129726FFF5C058964D905D9077
:1019D0006D907C905B9784149504A604B70408F07E
:1019E000E9C04F5F5F4F6F4F7F4F1C964D935D93E4
:1019F0006D937C931F97AF81B8851696ED91FC91FE
:101A000017971C964D915D916D917C911F97425057
:101A1000510961097109848104C0440F551F661F73
:101A2000771F8A95D2F780899189A289B389840F1B
:101A3000951FA61FB71FAC01BD014F0D511D611DA4
:101A4000711D29813A81232B09F028C1C11432E08C
:101A5000D30608F423C187A190A5A1A5B2A5481774
:101A600059076A077B0741F410A28FEF9FEFDC0153
:101A700087A390A7A1A7B2A7910181A192A10E94DB
:101A8000A403882321F1E12C82E0F82E4FC1AF811D
:101A9000B8851696ED91FC9123FD21C026FF1FC04D
:101AA0008681978135E0880F991F3A95E1F7B0E07C
:101AB000A0E088159905AA05BB0508F02BCFAF81DA
:101AC000B8851C964D925D926D927C921F97EF8126
:101AD000F8858181816081831C821B82B0C0348142
:101AE000375F75016401B1E0CB1AD108E108F10854
:101AF000032E04C0F694E794D794C7940A94D2F7BF
:101B000086FF0FC0EF81F885848D958DA68DB78DEA
:101B10008C0D9D1DAE1DBF1D84879587A687B78739
:101B2000F9CEDB01CA010197A109B10904C0B6953C
:101B3000A795979587953A95D2F7C816D906EA06DC
:101B4000FB0620F0452B462B472B79F527FF2AC0B3
:101B5000848D958DA68DB78DEF81F88584879587C7
:101B6000A687B7870F811885045F1F4FC114D10462
:101B7000E104F10409F4CECEAF81B8851C964D91F5
:101B80005D916D917C911F97980116968D919C9116
:101B90000E94F405B1E0CB1AD108E108F10818164B
:101BA0002CF38DCFEF81F885D3CFC81AD90AEA0A72
:101BB000FB0AD8CF2D813E810E94F40587FD87CF97
:101BC000811119CF8F8198850E946F06811113CFE3
:101BD0007ECFEF81F885848D958DA68DB78D00978A
:101BE000A105B10589F4CF010E946F06882309F48D
:101BF0006ECFEF81F88584859585A685B785848F1E
:101C0000958FA68FB78FF7CEEF81F885848795875C
:101C1000A687B787F0CE21E068C0EF81F885808D78
:101C2000918DA28DB38D88159905AA05BB0538F451
:101C3000808E918EA28EB38E8281806882838B810A
:101C40009C8128960FB6F894DEBF0FBECDBFDF9102
:101C5000CF911F910F91FF90EF90DF90CF90BF90A9
:101C6000AF909F908F907F906F905F904F903F903C
:101C70002F9008954250510961097109848104C06F
:101C8000440F551F661F771F8A95D2F78089918967
:101C9000A289B389480F591F6A1F7B1FC801A981F8
:101CA000BA818A1B9B0B76018C159D0508F47C017B
:101CB00029813A81232B09F0AECFAF81B8855096A8
:101CC0008D909D90AD90BC90539758964D905D909F
:101CD0006D907C905B9784149504A604B70420F45F
:101CE00012968C9185FF97CF25E0CF0180960E94B8
:101CF0003805009709F4EBCEA701B101E981FA811B
:101D00008E0F9F1F0E94B71889819A818E0D9F1D8B
:101D10008115924059F4AF81B88516968D919C91AA
:101D200080960E944F04882309F4D1CEEF81F88574
:101D300080899189A289B3898E0D9F1DA11DB11D36
:101D4000808B918BA28BB38B2E0C3F1CCE18DF089F
:101D500006CE0C960C943D0CCF93DF931F92CDB71B
:101D6000DEB7698341E050E0BE016F5F7F4F0C96A4
:101D70000E943D0C0F90DF91CF9108951F920F921A
:101D80000FB60F9211242F933F938F939F93AF938E
:101D9000BF9380911C0390911D03A0911E03B091ED
:101DA0001F0330911B0323E0230F2D3758F50196B5
:101DB000A11DB11D20931B0380931C0390931D0351
:101DC000A0931E03B0931F038091200390912103E1
:101DD000A0912203B09123030196A11DB11D809310
:101DE000200390932103A0932203B0932303BF9178
:101DF000AF919F918F913F912F910F900FBE0F90B8
:101E00001F90189526E8230F0296A11DB11DD2CF71
:101E10001F920F920FB60F9211242F933F934F935F
:101E20005F936F937F938F939F93AF93BF93EF9342
:101E3000FF9388E293E00E940C02FF91EF91BF9123
:101E4000AF919F918F917F916F915F914F913F9152
:101E50002F910F900FBE0F901F9018951F920F9209
:101E60000FB60F9211242F938F939F93EF93FF93AD
:101E7000E0913803F09139038081E0913E03F091C5
:101E80003F0382FD1BC09081809141038F5F8F7360
:101E900020914203821741F0E0914103F0E0E85DB8
:101EA000FC4F958F80934103FF91EF919F918F910C
:101EB0002F910F900FBE0F901F9018958081F4CF37
:101EC0001F920F920FB60F9211242F933F934F93AF
:101ED0005F936F937F938F939F93AF93BF93CF93B2
:101EE000DF93EF93FF9380911403C0911504D0E02A
:101EF00087FF24C010928500109284008091140303
:101F00008F5F8093140380911403082E000C990BAB
:101F10008C179D0724F4809114038C30C4F18091B8
:101F2000840090918500049680349C4908F47AC01E
:101F30008091840090918500049676C0809114036E
:101F4000082E000C990B8C179D07C4F6E091140322
:101F50008E2FEE0F990BFC01EE0FFF1FE80FF91FFC
:101F6000EF50FC4F808186FFC9CFE09114038E2F84
:101F7000EE0F990BFC01EE0FFF1FE80FF91FEF505A
:101F8000FC4F808160E08F730E94D700B7CF209113
:101F9000840030918500E09114038E2FEE0F990B91
:101FA000FC01EE0FFF1FE80FF91FEF50FC4F81817E
:101FB0009281820F931F9093890080938800E09113
:101FC00014038E2FEE0F990BFC01EE0FFF1FE80F8D
:101FD000F91FEF50FC4F808186FF11C0E091140380
:101FE0008E2FEE0F990BFC01EE0FFF1FE80FF91F6C
:101FF000EF50FC4F808161E08F730E94D700FF910A
:10200000EF91DF91CF91BF91AF919F918F917F9190
:102010006F915F914F913F912F910F900FBE0F9055
:102020001F90189580E49CE9909389008093880024
:102030008FEF80931403E3CFCF93DF93EC018AEB10
:1020400091E09983888381E0888B1F861E861A869B
:102050001B861C861D860E947B016E837F8388877A
:102060009987DA8BC98B1A821B821C821D826A8730
:102070007B878C879D87DF91CF910895CF93DF93E6
:10208000EB0188819981A2E4B5E011969C938E932F
:102090002A813B810697EC01E881F981EE5BFA4FDA
:1020A0003183208312961D921D921D921C921597CA
:1020B00081E290E09483838388E495E0948B838B22
:1020C0001582158ADF91CF910895CF93DF93C2E4F3
:1020D000D5E081E290E09C8F8B8F1D8E1E8E1F8E2F
:1020E00086E090E0A0E0B0E088A399A3AAA3BBA3F8
:1020F0001CA21DA21EA21FA282E391E0998F888FCD
:1021000080E288A71AA619A61DA688E495E09CA7D8
:102110008BA7AC0160E871E0CE010E943E108CE814
:1021200091E09983888386E991E0998F888F1A8658
:1021300019861C861B861E861D86188A1F861A8A8B
:10214000198A1C8A1B8A8AE391E09F838E8388E226
:1021500093E09F8B8E8B88E08D8BDF91CF910895DC
:10216000DB018D919C91119790931905809318052F
:1021700012962D913C910697DC01ED91FC91E85E61
:10218000FA4F3183208381E290E0948383838AE154
:1021900095E0948B838B1582158A0895CF93DF93F6
:1021A000C8E1D5E081E290E0988F8F8B198E1A8E6E
:1021B0001B8E86E090E0A0E0B0E08C8F9D8FAE8F0C
:1021C000BF8F18A219A21AA21BA282E391E09D8BD5
:1021D0008C8B80E28CA31EA21DA219A68AE195E039
:1021E00098A78FA3AC016CE971E0CE010E94B010FA
:1021F00088EA91E09983888382EB91E09D8B8C8BB8
:102200001E821D8218861F821A8619861C861B86CE
:102210001E861D86188A1F868AE391E09B838A8327
:1022200088E293E09B8B8A8B80E1898BDF91CF9151
:102230000895CF92DF92EF92FF920F931F93CF9367
:10224000DF938C017B0188E090E0D80113969C938A
:102250008E93129715961C921E9214970E948517C2
:102260006C01E80199838883E70109900020E9F770
:102270002197CE19DF09D1F1C930D10520F1CE0166
:102280000896F801938382830E948517D8018D9365
:102290009C93F601CF018C199D09D8014D915C9159
:1022A000119714962D913C918217930748F4DA0107
:1022B000A80FB91F109711F080818C933196EACF47
:1022C000C6010E942118F80184819581D801ED9101
:1022D000FC918C179D0738F4E80FF91F309709F02F
:1022E00010820196F3CFF801D583C483F701D8019A
:1022F0002D913C9140E050E0BA01CE01B0E0A0E069
:10230000481759076A077B0748F41191E9011993A7
:102310009E014F5F5F4F6F4F7F4FF2CFDF91CF91A5
:102320001F910F91FF90EF90DF90CF900895CF9283
:10233000DF92EF92FF920F931F93CF93DF931F9241
:10234000CDB7DEB710922B0310922A0348EEC42EAD
:1023500043E0D42EE12CF12CC0922C03D0922D031B
:10236000E0922E03F0922F0384EC91E090932903E6
:102370008093280385EC90E0909335038093340399
:1023800084EC90E0909337038093360380EC90E0E8
:10239000909339038093380381EC90E090933B0352
:1023A00080933A0382EC90E090933D0380933C034A
:1023B00086EC90E090933F0380933E03109241039C
:1023C00010924203109243031092440368E273E0B8
:1023D00088E195E00E94CE1068E273E082E495E027
:1023E0000E946510109227031092260388E293E062
:1023F00090932503809324036FEB70E08AE990E0CB
:102400000E941E17909327038093260388E090E094
:1024100090931405809313051092160510921505DC
:1024200080E590E00E948517909312058093110536
:102430001092C8031092C703C092C903D092CA0376
:10244000E092CB03F092CC031092D1031092D2030E
:102450001092D30386ED91E09093C6038093C50359
:1024600010920605109205051092070510920805B6
:102470001092090510920A0510920B0510920C0596
:1024800010920D0510920E0510920F051092100576
:10249000809115048C3008F088C191E0980F9093DA
:1024A00015048093020590E0FC01EE0FFF1FE80F7A
:1024B000F91FEF50FC4F88EB9BE092838183809162
:1024C00015048C3008F075C191E0980F90931504B5
:1024D0008093FF0490E0FC01EE0FFF1FE80FF91F4F
:1024E000EF50FC4F88EB9BE092838183AE014F5FFE
:1024F0005F4F6EEE71E088EF94E00E941911AE011B
:102500004F5F5F4F67EF71E081EF94E00E94191118
:10251000AE014F5F5F4F61E072E08AEE94E00E948F
:102520001911AE014F5F5F4F6DE072E083EE94E0F2
:102530000E941911AE014F5F5F4F6BE172E08CEDAD
:1025400094E00E941911AE014F5F5F4F6AE272E0A2
:1025500085ED94E00E941911AE014F5F5F4F67E374
:1025600072E08EEC94E00E941911AE014F5F5F4F54
:1025700065E472E087EC94E00E941911AE014F5FB0
:102580005F4F65E572E080EC94E00E941911AE01A6
:102590004F5F5F4F64E672E089EB94E00E9419118F
:1025A000AE014F5F5F4F64E772E082EB94E00E9400
:1025B0001911AE014F5F5F4F64E872E08BEA94E05F
:1025C0000E941911AE014F5F5F4F63E972E084EA28
:1025D00094E00E94191108E010E01093A004009309
:1025E0009F041092A2041092A10488E090E00E943F
:1025F000851790939E0480939D04AE014F5F5F4FBB
:102600006BE972E086E994E00E941911AE014F5F18
:102610005F4F64EB72E08FE894E00E941911AE0105
:102620004F5F5F4F66EC72E088E894E00E941911FA
:10263000AE014F5F5F4F65ED72E081E894E00E946C
:102640001911AE014F5F5F4F68EC72E08AE794E0CA
:102650000E941911AE014F5F5F4F6DEC72E083E78E
:1026600094E00E941911AE014F5F5F4F60ED72E080
:102670008CE694E00E941911AE014F5F5F4F67ED49
:1026800072E085E694E00E941911109361040093B2
:102690006004109263041092620488E390E00E9448
:1026A000851790935F0480935E0410935A040093FF
:1026B000590410925C0410925B0480E590E00E9443
:1026C00085179093580480935704109353040093F4
:1026D0005204109255041092540480E490E00E9439
:1026E0008517909351048093500410934C040093E9
:1026F0004B0410924E0410924D0480E490E00E942E
:10270000851790934A048093490486E194E00E94DF
:102710001C1088EE91E09093170480931604109299
:10272000480410924704E9E2F4E01192119284E027
:10273000E734F807D1F71092180410921904109298
:102740001A0410921B0480911C0490911D04A09106
:102750001E04B0911F048093200490932104A09341
:102760002204B093230483E190E00E9485170E9425
:102770001C1083E190E00E9485170E941C1083E1E9
:1027800090E00E9485170E941C1083E190E00E9457
:1027900085170E941C100F90DF91CF911F910F9110
:1027A000FF90EF90DF90CF9008958FEF8093020518
:1027B00086CE8FEF8093FF0499CECF93DF93CDB772
:1027C000DEB7E8970FB6F894DEBF0FBECDBF7894A2
:1027D00084B5826084BD84B5816084BD85B5826026
:1027E00085BD85B5816085BD80916E0081608093D7
:1027F0006E00109281008091810082608093810040
:10280000809181008160809381008091800081604F
:10281000809380008091B10084608093B1008091AA
:10282000B00081608093B00080917A0084608093D2
:102830007A0080917A00826080937A0080917A0099
:10284000816080937A0080917A00806880937A001A
:102850001092C1006CE271E080E090E00E944801BB
:1028600081E090E090931A03809319038E010B5E30
:102870001F4F22242394312C8091190390911A0325
:10288000019761F000E010E001151105E9F30E94E5
:10289000F8018823C9F30E940000F6CFE0913803C5
:1028A000F091390322E02083E0913403F091350365
:1028B0001082E0913603F09137038FEC8083109201
:1028C0004003E0913C03F0913D0386E08083E0917A
:1028D0003A03F0913B03808180618083E0913A0369
:1028E000F0913B03808188608083E0913A03F0910E
:1028F0003B03808180688083E0913A03F0913B0341
:1029000080818F7D8083E0911805F09119053697BD
:102910000190F081E02DE85EFA4FE188F288E11441
:10292000F10401F1D701ED91FC9136970190F0810E
:10293000E02DEE0DFF1D83899489DC01ED91FC9162
:102940000484F585E02D0995019661F4D701ED9198
:10295000FC9136970190F081E02DEE0DFF1D8581F1
:1029600081608583E0911805F091190536970190F3
:10297000F081E02DE85EFA4FC484D584E684F784C4
:1029800046015701B1E08B1A9108A108B108838173
:1029900094818E709927049779F526013701E1E03B
:1029A0004E1A51086108710814141504160417040E
:1029B00074F4E0911805F091190536970190F081B3
:1029C000E02DE85EFA4F80890E94FD09E8CF1C14D3
:1029D0001D041E041F0424F0C12CD12C7601C394C5
:1029E00081E090E0A0E0B0E08C199D09AE09BF093C
:1029F000880E991EAA1EBB1E21E030E040E050E088
:102A00006EEC72E088E195E00E945C0AE0911805A6
:102A1000F091190536970190F081E02DE85EFA4FAC
:102A2000838194818E7099270297C1F4E0911805F3
:102A3000F091190536970190F081E02DE85EFA4F8C
:102A4000181419041A041B044CF421E0821A91088A
:102A5000A108B10880890E94FD09E8CFE09118051E
:102A6000F091190536970190F081E02DE85EFA4F5C
:102A700014861586168617866BEA74E088E195E061
:102A80000E94B00A82E090E090931A0380931903A9
:102A9000EDE9F0E02491E9E8F0E08491882399F0F1
:102AA00090E0880F991FFC01E859FF4FA591B49160
:102AB000FC01EE58FF4F859194918FB7F8949C914B
:102AC000292B2C938FBF85E0E82EF12C61E08DE05F
:102AD0000E94D70064EF71E080E090E00E9448011E
:102AE00060E08DE00E94D70064EF71E080E090E04C
:102AF0000E944801F1E0EF1AF10841F764EA74E03E
:102B000088E195E00E94B00A6AE774E00E94B00A8A
:102B10008CE0E5E0F5E0DE019D9601900D928A954E
:102B2000E1F762EB74E088E195E00E94B00A6AE7A1
:102B300074E00E94B00A8CE0FE01BD96DE01919621
:102B400001900D928A95E1F70E947B014B015C0197
:102B500089A19AA1009709F4ABC025EA298320E551
:102B60002A83DC01ED91FC910280F381E02D42E0AB
:102B700050E0BE016F5F7F4F09950E947B016B01A2
:102B80007C01712C0E947B016C197D098E099F09C3
:102B9000653671058105910508F085C089A19AA166
:102BA000DC01ED91FC910284F385E02D099597FD00
:102BB000E9CF772009F46DC0B1E07B1609F46EC04F
:102BC00091E0970DF801E70DF11D8083973009F032
:102BD0005EC080E090E0DC01B7FD32C08B8D8430B8
:102BE00009F06BC08F89988DA98D2A8DB22FBF7384
:102BF0004497A105B10508F460C0FE0131967F013C
:102C00000E947B01681979098A099B09653671055B
:102C10008105910508F055C089A19AA1DC01ED91CB
:102C2000FC910284F385E02D099597FDE9CFF7012A
:102C300081937F010E171F0719F780E090E0DC01F8
:102C4000B7FD44C01092160310921503CE01819671
:102C50000E949B02CE018D960E949B026AEE74E058
:102C600088E195E00E94B00A6AE774E00E94B00A29
:102C70001092180310921703809115039091160378
:102C8000892BA1F530921A0320921903F5CD792EE4
:102C900079CF853A910509F493CF74CF8A359105A0
:102CA00009F48ECF6ECF82E090E8A0E0B0E894CF38
:102CB00081E090E8A0E0B0E8C3CF80E090E8DC01DC
:102CC000BFCF82E090E8A0E0B0E8BACF3092160320
:102CD000209215038CE0FE01B196D80101900D926F
:102CE0008A95E1F7C8010E949B02B0CF10921A03A7
:102CF00010921903C1CDFC01808191810C9421189F
:102D0000FC01808191810C9421180F931F93CF9324
:102D1000DF9389E494E00E947B1680E594E00E94B2
:102D20007B1680915704909158040E942118D0E09E
:102D3000C0E010E000E080915E0490915F0420917B
:102D40006204309163040217130740F48C0F9D1F37
:102D50000E947B160F5F1F4F2796EDCF0E94211810
:102D600085E694E00E9480168CE694E00E9480162E
:102D700083E794E00E9480168AE794E00E94801620
:102D800081E894E00E94801688E894E00E94801612
:102D90008FE894E00E94801686E994E00E948016F5
:102DA0008DE994E00E94801684EA94E00E948016E7
:102DB0008BEA94E00E94801682EB94E00E948016D9
:102DC00089EB94E00E94801680EC94E00E948016CB
:102DD00087EC94E00E9480168EEC94E00E948016AE
:102DE00085ED94E00E9480168CED94E00E948016A0
:102DF00083EE94E00E9480168AEE94E00E94801692
:102E000081EF94E00E94801688EF94E00E94801683
:102E100085E095E00E949B0280911105909112053A
:102E20000E94211882E495E00E94F10888E195E073
:102E3000DF91CF911F910F910C9439090F931F933C
:102E4000CF93DF93009759F46115710541F4F0E0D9
:102E5000E0E0CF01DF91CF911F910F9108958B0199
:102E6000EC016EE070E081E090E00E946917FC01E7
:102E7000892B69F380E883830115110571F01387AD
:102E8000028781E883838091700590917105892B79
:102E900021F4F0937105E09370052097D1F2D1876A
:102EA000C0878381826083838091720590917305CE
:102EB000892B79F6F0937305E09372058091740580
:102EC00090917505892B29F6F0937505E0937405AB
:102ED000C0CF0F931F93CF93DF93869F8001879F6F
:102EE000100D969F100D1124C8010E948517EC014A
:102EF000009729F0A80170E060E00E94AA18CE01B6
:102F0000DF91CF911F910F9108950F931F93CF934E
:102F1000DF938230910510F482E090E0E091780533
:102F2000F091790530E020E0B0E0A0E0309799F42E
:102F30002115310509F44AC0281B390B243031050D
:102F4000D8F58A819B816115710589F1FB01938315
:102F50008283FE0111C04081518102811381481793
:102F60005907E0F04817590799F4109761F0129645
:102F70000C93129713961C933296CF01DF91CF9149
:102F80001F910F9108950093780510937905F4CF60
:102F90002115310551F04217530738F0A901DB0123
:102FA0009A01BD01DF01F801C1CFEF01F9CF909384
:102FB000790580937805CDCFFE01E20FF31F819351
:102FC00091932250310939832883D7CF20917605F8
:102FD00030917705232B41F42091020130910301B8
:102FE00030937705209376052091000130910101FF
:102FF0002115310541F42DB73EB7409104015091A0
:103000000501241B350BE0917605F0917705E21759
:10301000F307A0F42E1B3F0B2817390778F0AC01FB
:103020004E5F5F4F2417350748F04E0F5F1F5093D8
:10303000770540937605819391939FCFF0E0E0E090
:103040009CCFCF93DF930097E9F0FC013297138276
:103050001282A0917805B0917905ED0130E020E071
:103060001097A1F420813181820F931F2091760562
:10307000309177052817390709F061C0F09377057B
:10308000E0937605DF91CF910895EA01CE17DF072F
:10309000E8F54A815B819E0141155105B1F7E901CF
:1030A000FB83EA8349915991C40FD51FEC17FD07A3
:1030B00061F4808191810296840F951FE9019983C3
:1030C0008883828193819B838A83F0E0E0E012967B
:1030D0008D919C9113970097B9F52D913C91119783
:1030E000CD010296820F931F2091760530917705CE
:1030F0002817390739F6309751F510927905109253
:103100007805B0937705A0937605BCCFD383C283AF
:1031100040815181840F951FC817D90761F44E5F14
:103120005F4F88819981480F591F518340838A815D
:103130009B81938382832115310509F0B0CFF093F1
:103140007905E09378059ECFFD01DC01C0CF1382A5
:103150001282D7CFDC0101C06D9341505040E0F79F
:103160000895EE0FFF1F0590F491E02D0994FB01E7
:10317000DC0102C001900D9241505040D8F70895F3
:1031800010E0CDE5D0E004C0FE010E94B118219608
:0A319000CE35D107C9F7F894FFCF40
:10319A0000007A058000180000000000000000000E
:1031AA00E8FFE8FF00000000000014000000000033
:1031BA0000000000ECFFECFF00000000000000002F
:1031CA0000005009FD0A000000000809EF0ABF08C4
:1031DA00BC08590AB908D907AE0873085A08410841
:1031EA003F080008DC070200000000001B09F10A82
:1031FA00FEFFFEFF00000909F30A060000000000B6
:10320A00D308E30AFAFFFAFF0000C108E50A8C01B5
:10321A000C0116019601180000000000F108CD0A01
:10322A00E8FFE8FF0000FE08D70AA80120012A01EA
:10323A00B2011400000000003909B90AECFFECFFE2
:10324A0000004609C30A000000008800AC0789078D
:10325A00000000002E028E01BB017B02EC01CA01B4
:10326A00DE0100000000AC0EA90ED907710952094F
:10327A00270CEA0B000000008800AC0722074875FB
:10328A00623A204F4B0A004875623A204552520A68
:10329A0000426F6F74696E672048756200536572E9
:1032AA00766F206D313A204F4B0A00536572766F64
:1032BA00206D313A204552520A00536572766F20CA
:1032CA006D323A4F4B0A00536572766F206D323A6F
:1032DA004552520A00426F6F74696E6720536572D5
:1032EA00766F206D0052504C69646172206C3A20EE
:1032FA004F4B0A0052504C69646172206C3A204567
:10330A0052520A00426F6F74696E672052504C69BC
:10331A00646172005345545550202F2F2F2F2F2FA1
:10332A002F0A00626F6F74696E67005345545550D7
:10333A0020436F6D706C65746564202F2F2F2F2FBB
:10334A002F2F0A00626F6F74696E6720436F6D706A
:10335A006C657465640058002E2E2E0A00210A003E
:10336A005469636B2023007B20226C656E67746846
:10337A00223A205B5B2C2C5D2C205B2C2C5D2C20B4
:10338A005B2C2C5D5D2022616E676C65223A205BA6
:10339A005B2C2C5D2C205B2C2C5D2C205B2C2C5D5B
:0433AA005D7D000045
:00000001FF
